:1000000018F09FE518F09FE518F09FE518F09FE5C0
:1000100018F09FE5586FA0B818F09FE518F09FE51D
:10002000408F0000DC4C0100184D0100E44F01003E
:1000300020500100FFFFFFFF144A0100744F010030
:10004000FFFFFFFFFFFFFFFFFFFFFFFFFFFFFFFFC0
:10005000FFFFFFFFFFFFFFFFFFFFFFFFFFFFFFFFB0
:10006000FFFFFFFFFFFFFFFFFFFFFFFFFFFFFFFFA0
:10007000FFFFFFFFFFFFFFFFFFFFFFFFFFFFFFFF90
:10008000034834490968002900D124307047C0462C
:10009000F8E301000048704744E40100004870475D
:1000A0005CE4010003482B490968002900D11430A1
:1000B0007047C04674E401000048704798E40100AE
:1000C00002480021016041607047000070FD00405F
:1000D00000B581B0FA20800016F00EFB16F086F80D
:1000E0000120019902B0084700B581B016F0A6F8CA
:1000F0000120019902B0084700B581B0034816F00D
:1001000035F80120019902B00847C046E4FF01001C
:1001100000B581B0044800210160044816F026F8BB
:100120000120019902B00847E0F700406C0C020082
:1001300000B581B007480068002802D008F046FAF0
:1001400001E008F073FA16F051F80120019902B0AD
:1001500008470000CCC1004000B581B0034816F04C
:1001600013FB0120019902B00847C04618E60100C0
:100170000120704700B581B000F05CF801200199C2
:1001800002B00847012070470120704700207047E7
:1001900070B5FC26B601300009F05AFC1023F0229D
:1001A0003521002009F032FB0021002009F0FEFB80
:1001B000002009F0EFFB0121012009F0F1FB0020F4
:1001C00009F0E2FB194809F01BFB764809F0F4FB43
:1001D0000A2009F045FB164D280009F059F8802443
:1001E000A4012300EF22672100200BF0D1FA300098
:1001F00009F02EFC1023F0226921002009F006FBF3
:100200000021002009F0D2FBFA2009F029FB283553
:10021000280009F03DF82300EF229B2100200BF07D
:10022000B7FA039870BC01B00047C0460200010055
:10023000ACE4010010B5FFF7ABFF00F05FF800F091
:10024000B3F8164809F004FC002009F0A3FB0121D3
:10025000012009F0A5FB002009F096FB264809F0D3
:10026000CFFA0A4809F0A8FB09A4200009F04EF8CB
:10027000200009F04BF8074809F00AF8064809F091
:1002800045F8019810BC01B00047C046B0420200DA
:100290000D00000004E501004CCE0040003F3F008F
:1002A00000B581B0024815F061FF019802B0004727
:1002B000D4E5010000B581B00E49802040020A68F3
:1002C000824200D1401C086004480A6801002031C5
:1002D00013F08EF80020019902B008473CE50100B8
:1002E000034804490968044A914200D030307047FD
:1002F00070E5010048CE00400100010030B585B036
:10030000224809F0A5FB2023F0224621002009F015
:100310007DFA0021002009F049FB002009F03AFB9A
:100320000121012009F03CFB002009F02DFB802079
:10033000400209F065FA164809F03EFB15A1802538
:10034000ED00154C2068A84201D2226801E0206827
:10035000820A684619F0D0FFFA2009F081FA68464F
:1003600008F0D4FF1021BE2009F020FB0D4809F051
:1003700023FB2068A84201D208A000E008A008F0F2
:10038000C5FF05B0029830BC01B00047003F3F00F8
:10039000D86402002575000070FD00402042000076
:1003A000206B42008850020030B585B0224809F029
:1003B0004FFB2023F0227A21002009F027FA0021A8
:1003C000002009F0F3FA002009F0E4FA01210120ED
:1003D00009F0E6FA002009F0D7FA8020400209F07F
:1003E0000FFA164809F0E8FA15A18025ED00154C22
:1003F0006068A84201D2626801E06068820A6846CB
:1004000019F07AFFC82009F02BFA684608F07EFF41
:100410001021BE2009F0CAFA0B4809F0CDFA606835
:10042000A84201D209A000E009A008F06FFF05B0C2
:10043000029830BC01B00047003F3F00D864020082
:100440002575000070FD0040885002002042000029
:10045000206B420003487D490968002900D1203003
:100460007047C046BCE601000048704700E7010045
:100470000048704718E70100002074490968002906
:1004800001D10B48704772490968002906D002293A
:1004900008D005D3042909D006D370470548704712
:1004A000054870470548704705487047054870473C
:1004B00030E7010040E7010058E7010070E7010064
:1004C00088E70100A0E7010000487047BCE7010091
:1004D0005F4800210160704700B581B0FA208000BC
:1004E00016F00AF915F082FE0120019902B00847C2
:1004F00000B581B015F0A2FE0120019902B00847B5
:1005000000B581B0034815F031FE0120019902B019
:100510000847C046E4FF010000B581B0FFF7C0FE08
:100520000120019902B0084700B581B04748006832
:10053000002802D10FF088F907E045480168491CFE
:100540000160052901DB0021016015F04FFE01204B
:10055000019902B00847000000B581B0034816F0C9
:1005600013F90120019902B00847C046B8EB010019
:100570000120704700B581B000F00AF80120019910
:1005800002B00847012070470120704700207047E3
:1005900000B581B0274809F05BFA6E23F0223521BF
:1005A000002009F033F90021002009F0FFF90221B1
:1005B000012009F0F5F9002009F0ECF9002009F01C
:1005C000E3F9214809F01CF91B4809F0F5F901206D
:1005D0000AF0E0FA09F066F91C4818494158002968
:1005E00001D017481DE00068002819D0184800689D
:1005F000002806D002280AD006D304280DD009D33B
:1006000011E000F027F80EE000F028F90BE000F010
:100610002FFA08E000F0CAFA05E000F00DFB02E056
:10062000084808F035FE00200AF0B4FA019802B03C
:100630000047C046003F3F00885002009C04000075
:10064000D0E7010014E801000100010014E50040BA
:1006500080FD0040F0B591B0704808F019FE704878
:100660001AF060FA04000D004E270022002319F052
:100670005DFE03D25327802000064540200029005C
:1006800019F0CAFE06001AF0EBF902000B00200078
:10069000290019F0F1FF02000B000020614919F058
:1006A000EDFE19F061FE05001AF014F9040000A82F
:1006B000801C07700021417000A8801C01B520003B
:1006C0001AF0FCF9010028001AF032F91AF0CEF8FD
:1006D0000022544B19F0D2FE19F046FE1AF0C6F86B
:1006E00003B423003200504905A819F005FE04B0F8
:1006F00001AA4E4906A819F0FFFD06A808F006FE5B
:100700004B481AF00FFA04000D0045270022002381
:1007100019F00CFE03D25727802000064540200028
:10072000290019F079FE06001AF09AF902000B0070
:100730002000290019F0A0FF02000B000020394919
:1007400019F09CFE19F010FE05001AF0C3F8040021
:10075000684607700021417001B520001AF0AEF91B
:10076000010028001AF0E4F81AF080F800222D4B5E
:1007700019F084FE19F0F8FD1AF078F803B423009C
:100780003200294905A819F0B7FD04B001AA29498A
:1007900006A819F0B1FD06A808F0B8FD264C20689F
:1007A0001AF064F802000B00244906A819F0A4FD11
:1007B00006A808F0ABFD60681AF058F802000B00BC
:1007C0001F4906A819F098FD06A808F09FFDA0682B
:1007D0001AF04CF802000B001A4906A819F08CFD1B
:1007E00006A808F093FD18480278184906A819F0E1
:1007F00083FD06A808F08AFD154C2078002805D056
:10080000144808F083FD0020207002E012A008F0D8
:100810007DFD11B00498F0BC01B000474CE8010028
:100820004CF1004000004E403CE8010084E801002B
:1008300054F100408CE801005CF1004094E80100B4
:10084000A0E80100ACE8010009EF0040B8E80100B1
:1008500074E90040C4E801000D000000F0B591B05B
:10086000774808F053FD774C8A20400020188178A3
:1008700002B543780278744904A819F03DFD02B02E
:1008800002A808F043FD8C2040002018009030C8DA
:100890004E27200029000022002319F047FD03D233
:1008A00053278020000645402000290019F0B4FDA0
:1008B00006001AF0D5F802000B002000290019F0FC
:1008C000DBFE02000B000020604919F0D7FD19F093
:1008D0004BFD050019F0FEFF040001A8801C077005
:1008E0000021417001A8801C01B520001AF0E6F833
:1008F000010028001AF01CF819F0B8FF0022534B31
:1009000019F0BCFD19F030FD19F0B0FF03B423005D
:1009100032004F4910A819F0EFFC04B00CAA4D4961
:1009200002A819F0E9FC02A808F0F0FC00980830D1
:1009300030C84527200029000022002319F0F6FCCA
:1009400003D257278020000645402000290019F0D7
:1009500063FD06001AF084F802000B002000290055
:1009600019F08AFE02000B000020384919F086FDBC
:1009700019F0FAFC050019F0ADFF040001A807709A
:100980000021417001B520001AF098F801002800FC
:1009900019F0CEFF19F06AFF00222C4B19F06EFD02
:1009A00019F0E2FC19F062FF03B423003200284979
:1009B00010A819F0A1FC04B00CAA274902A819F04C
:1009C0009BFC02A808F0A2FC0098027C234902A824
:1009D00019F092FC02A808F099FC0098427C20498A
:1009E00002A819F089FC02A808F090FC00981830C1
:1009F00003C819F0B9FC19F039FF02000B001949BE
:100A000002A819F079FC02A808F080FC00982030B8
:100A10000CC8154902A819F06FFC02A808F076FC72
:100A2000009838300CC8114902A819F065FC02A8DA
:100A300008F06CFC11B00498F0BC01B00047C0464F
:100A4000D4E80100E0ED0040DCE8010000004E4089
:100A50003CE8010084E801008CE80100F4E80100B2
:100A600004E9010018E9010094E8010024E901000B
:100A700070B58CB04B4C2000FC3008F047FC4A4E5F
:100A800068468A214900715C0170002141706A4604
:100A900082204000211801A819F02EFC01A808F0BE
:100AA00035FCFF205A30325C4938211801A819F072
:100AB00023FC01A808F02AFCC4204000351803CD0F
:100AC000083D19F051FC19F0D1FE02000B008E20F8
:100AD0004000211801A819F00FFC01A808F016FC2D
:100AE0002800083003C819F03FFC19F0BFFE0200CF
:100AF0000B002100DC3101A819F0FEFB01A808F071
:100B000005FC103503CD19F02FFC19F0AFFE0200E3
:100B10000B0094204000211801A819F0EDFB01A85A
:100B200008F0F4FB9A204000201808F0EFFBA42006
:100B30004000251812303418A08801B56388228837
:100B4000290003A819F0D8FB02B001A808F0DEFBC9
:100B5000608901B52389E288290003A819F0CCFB3C
:100B600002B001A808F0D2FB208A01B5E389A2896E
:100B7000290003A819F0C0FB02B001A808F0C6FBC9
:100B8000E08A01B5A38A628A290003A819F0B4FBA0
:100B900002B001A808F0BAFB0CB0039870BC01B019
:100BA0000047C0463CE80100E0ED0040F0B58BB0E6
:100BB0000121012008F0F4FE1C4DD32040002E1826
:100BC0001B4F32883900684619F096FB684608F0DA
:100BD0009DFB00243088012814DBD4204000281815
:100BE000418802B5436802883900103102A819F023
:100BF00083FB02B0684608F089FB641C0C35308822
:100C00008442EADB0B4869462CC82CC10CC80CC1D5
:100C10000C2C05DA684608F079FB641C0C2CF9DB17
:100C20000BB00498F0BC01B00047C046E0ED0040B6
:100C3000ECE9010014EA0100F0B593B07A4808F03D
:100C400065FB7A4CC820800020180090807801B5A0
:100C5000029843780278764906A819F04DFB02B055
:100C600004A808F053FBD2208000201802900078DE
:100C700001B50498437842886E4906A819F03CFBF8
:100C800002B004A808F042FB0098083030C84E2794
:100C9000200029000022002319F048FB03D253272B
:100CA0008020000645402000290019F0B5FB060011
:100CB00019F0D6FE02000B002000290019F0DCFC20
:100CC00002000B0000205C4919F0D8FB19F04CFB26
:100CD000050019F0FFFD040001A8801C0770002129
:100CE000417001A8801C01B5200019F0E7FE010049
:100CF000280019F01DFE19F0B9FD00224E4B19F025
:100D0000BDFB19F031FB19F0B1FD03B42300320033
:100D10004A4912A819F0F0FA04B00EAA484904A8EA
:100D200019F0EAFA04A808F0F1FA0098103030C877
:100D30004527200029000022002319F0F7FA03D2EA
:100D400057278020000645402000290019F064FB49
:100D5000060019F085FE02000B002000290019F0A2
:100D60008BFC02000B000020334919F087FB19F0BF
:100D7000FBFA050019F0AEFD040001A80770002180
:100D8000417001B5200019F099FE0100280019F00A
:100D9000CFFD19F06BFD0022274B19F06FFB19F006
:100DA000E3FA19F063FD03B423003200234912A8CB
:100DB00019F0A2FA04B00EAA224904A819F09CFA6C
:100DC00004A808F0A3FA009818300CC81E4904A81B
:100DD00019F092FA04A808F099FA009820300CC88B
:100DE0001A4904A819F088FA04A808F08FFA0298A2
:100DF00008300CC8164904A819F07EFA04A808F0B7
:100E000085FA03A80099C97801700021417003AAEE
:100E1000104904A819F070FA04A808F077FA13B082
:100E20000498F0BC01B0004790E90100E0ED0040FB
:100E3000DCE8010098E9010000004E403CE80100B8
:100E400084E801008CE80100ACE90100C0E9010080
:100E5000D0E90100DCE9010000B581B0024815F0DD
:100E600085F9019802B000475CEC010000B581B043
:100E70000EF0F0FD0120019902B0084700B581B0E5
:100E80000EF0CCFD0120019902B0084700B581B0F9
:100E90000EF0A8FD0120019902B0084700B581B00D
:100EA0000EF084FD0120019902B008470648016850
:100EB0000648074A914205D0521C914201D1303078
:100EC000704764307047C04620E5004028EA0100C2
:100ED0000100010002480068002800D00148704766
:100EE00014E50040BCEA010002480068002800D078
:100EF0000148704714E50040ECEA01000248006830
:100F0000002800D00148704714E500401CEB0100A8
:100F100002480068002800D00148704714E50040EE
:100F20004CEB010000B581B00A49C8680A4A531E5B
:100F3000984204D0904201D1921E00E01A00CA608B
:100F4000064801000C3112F053FA0020019902B05A
:100F50000847C04614E500400200010078EB01009C
:100F600002480068002800D00148704714E500409E
:100F700090EB010000B581B00EF052FC0120019908
:100F800002B0084700487047A0EC010000487047D5
:100F9000B4EC010000487047D0EC010000487047F5
:100FA000E4EC010000A070470000000000B581B033
:100FB00097218900B54819F0D5FD019802B0004786
:100FC00000B581B097218900B04819F0CBFD15F02C
:100FD0000DF90120019902B0084701207047000077
:100FE00000B581B0034815F0C1F80120019902B0A5
:100FF0000847C0461835020010B5EA23F022352113
:10100000002008F003FC0021002008F0CFFC0120A4
:1010100008F0C0FC0121012008F0C2FC994808F04A
:10102000EFFB994808F0C8FC984C201D08F016FA10
:1010300021680A000D32824201DA491C216015F054
:10104000FDF80120019910BC01B0084700B581B03E
:101050008E480168002901D0491E016015F0EEF8A4
:101060000120019902B00847012070470120704714
:1010700000B581B000F00AF80120019902B00847DC
:10108000012070470120704701207047F0B581B002
:101090006F4808F0DDFCEA23F0223521002008F03B
:1010A000B5FB0021002008F081FC012008F072FC53
:1010B0000121012008F074FC724808F0A1FB72487D
:1010C00008F07AFC012009F065FD08F0EBFB6F4C9D
:1010D00096218900201D19F045FD5E4F380008F06B
:1010E000C2F805005C4E201D19F042FD321A012A9B
:1010F00003DB2900201D19F067FD5848006800280F
:101100000ED03800643008F0AEF80500201D19F04C
:101110002FFD321A012A03DB2900201D19F054FD8E
:101120004F48006800280FD0C6204000381808F04B
:101130009AF80500201D19F01BFD321A012A03DB65
:101140002900201D19F040FD4648006800280FD0F6
:10115000B0208000381808F086F80500201D19F02E
:1011600007FD321A012A03DB2900201D19F02CFD8E
:101170003D48006800280FD0F1208000381808F0A2
:1011800072F80500201D19F0F3FC321A012A03DB66
:101190002900201D19F018FD3448006800280ED0E1
:1011A0003348381808F05FF80500201D19F0E0FCFE
:1011B000321A012A03DB2900201D19F005FD2D48F4
:1011C000006800280FD0C120C000381808F04BF884
:1011D0000500201D19F0CCFC321A012A03DB29007E
:1011E000201D19F0F1FC2448006800280FD0E620EB
:1011F000C000381808F037F80500201D19F0B8FCB9
:10120000321A012A03DB2900201D19F0DDFC1B48DE
:10121000006800280ED01A48381808F024F8050095
:10122000201D19F0A5FC321A012A03DB2900201D1C
:1012300019F0CAFC2168201D08F0E4F909F0B0FC9F
:10124000002009F0A7FC01B00498F0BC01B00047F1
:10125000003F3F00F8EC01005702000044FC004052
:1012600028FC004038FC00403CFC004030FC0040C2
:101270008404000034FC00402CFC004040FC004092
:101280001408000001000100C0DF0200ACF40040BF
:1012900008B4024B9C4608BC6047C046B88F0000AB
:1012A00008B4024B9C4608BC6047C04620AC010015
:1012B0000048704768F601000148704700487047D1
:1012C0007CF601000048704794F601000048704722
:1012D000A8F601000120704700B581B0B548002193
:1012E0000160C9434160816064210C3019F03AFC0F
:1012F000019802B0004710B5AE4C00202060C043FA
:101300006060A060642120000C3019F02BFC14F008
:101310006DFFA06860600120019910BC01B0084712
:1013200000B581B0074814F021FF0120019902B0F7
:10133000084700B581B0034814F018FF0120019957
:1013400002B00847E4FF010010B59A4C2068401C29
:10135000206014F03DFF14F071FFA0686060012070
:10136000019910BC01B0084710B5924C00202060D4
:10137000C043606014F02CFF14F060FFA068606050
:101380000120019910BC01B008470120704700B549
:1013900081B000F00BF80120019902B0084701204C
:1013A000704701207047012070470000F0B585B0FC
:1013B0000021002008F0FAFA012008F0EBFA0321DE
:1013C000012008F0EDFA002008F0DEFA802040024B
:1013D00008F016FA3B4808F0EFFAE923F02235212D
:1013E000002008F013FA384F380008F031FB714C38
:1013F000206F002860D001A80021002200230EC029
:1014000060680090C943884208D1206F0CF056FDF7
:10141000401E009002D5002000904BE0009800286C
:1014200048D0642322000C326946206F11F0D8F9AD
:101430005049884240D0002838D020000C30217B11
:1014400030292ED33A292CD2202120000C3019F03B
:101450003FFC050023D020000C302E1A3200210062
:101460000C3101A819F08EFC002816D001A800212B
:10147000002200230EC0320021000C3101A819F017
:1014800099FC124808F0E4FA01A807F03FFF10A009
:1014900007F03CFF380008F0DBFA681C01E0200090
:1014A0000C3007F033FF0AA007F030FF094800684E
:1014B000BE28B3DB0098A06005B00498F0BC01B072
:1014C0000047C046B0420200003F3F0000203F00FE
:1014D0000D00000024DB004000B581B007F0C3FE22
:1014E00000F004F8019902B00847000030B5C1B01F
:1014F0000500304C206F002830D00CF0DFFC00904D
:1015000001A807F0FDFB18A101A819F0F3FB4A227E
:10151000290001A819F058FB14A101A819F0EAFB51
:1015200001A819F025FB652809D311490B003C33AC
:10153000F1220D00143108002900FFF7A9FE01A8CF
:1015400019F016FB030001AA6946206F0CF040FF5A
:101550000849884201D0012000E0002041B00299F2
:1015600030BC01B00847C046090000000D00000073
:10157000C4F601000540008030B581B00CA52900FB
:1015800028000CF039F90B4C2067002805D1012206
:10159000290028000CF00CFA2067206F401E8041C3
:1015A000C043C00F01B0029930BC01B00847C0462B
:1015B0006C6F67005CFB004030B593B00500124CC7
:1015C000200007F050FE010005A819F0A3FB280039
:1015D00019F04CF902000B002C342100684618F079
:1015E0008BFE694605A819F085FB02F073FA01002D
:1015F00005A819F07FFB05A8FFF778FF13B0029943
:1016000030BC01B00847C04620F7010070B598B063
:1016100038480168002902D04068002801D1002024
:1016200063E0354E0622310005A8FFF739FE334D41
:10163000DB208000281819F075FA314C18F094FE60
:1016400019F014F902000B002100684618F054FE4E
:10165000694605A819F04EFBDD208000281819F016
:1016600061FA18F081FE19F001F902000B00210067
:101670000831684618F040FE694605A819F03AFBA3
:10168000DF208000285819F0F1F802000B0021003B
:101690001031684618F030FE694605A819F02AFB9B
:1016A00005A8FFF723FF0622310005A8FFF7F8FD84
:1016B000C820400028180CC821001831684618F0CE
:1016C0001BFE694605A819F015FBFF202A302A5C8D
:1016D00024342100684618F00FFE694605A819F069
:1016E00009FB05A8FFF702FF012018B0039970BCA1
:1016F00001B0084714E5004054F70100E0ED004058
:101700005CF7010003480F490968002900D1203027
:101710007047C046CCF7010000487047FCF7010055
:101720000048704714F8010006484168002902D0BB
:101730000068002801D10248704700207047C04669
:1017400024F8010034E400400020704710B5A74899
:10175000010080310A681E2A0CDB00224A60030067
:101760001E245A601B1D641EFBD1C2670A60026002
:1017700000F032F801F090FD019910BC01B008476B
:1017800010B501F0A9FA99480100803100224A60A1
:1017900003001E245A601B1D641EFBD1C2670A6031
:1017A0000260019810BC01B0004710B501F0EEFADC
:1017B0008E480100803100224A6003001E245A60D6
:1017C0001B1D641EFBD1C2670A60026001200199E3
:1017D00010BC01B00847000030B583B00F4C0122A7
:1017E0000FA110A00CF0E4F82060002810D0002514
:1017F00001950D48009004236A4601A920680CF069
:10180000E7FD7B49884203D120680CF041F8256050
:1018100003B0029830BC01B00047C046D0FA004087
:10182000746D70006D637300EEEEEEEEF0B589B08E
:1018300012F0AAFF3C4DE869296A002911D000285E
:101840002CD0A868394919F005FB27D212F0F0FB1B
:10185000092823DB13F036F813F028F801F066FCB2
:101860001CE000281AD1614CE66F701CE067A86A82
:10187000002802D080273F0600E00027286819F0E2
:1018800001FB0743B00020184760E06F1E2801D11C
:1018900000F058F880342168491C2160534C2068BE
:1018A000002836D0224812F029FC002831D0E06F01
:1018B00001282EDB0026266001F090FB002828D0AE
:1018C00000F040F8002824D0684607F08BFA0200A8
:1018D000184904A818F010FD17A304AA17A11800AE
:1018E0000CF01CF920008030466021001E224E6062
:1018F000091D521EFBD1E66706602660FFF786FED3
:10190000002803D002F016F8FFF756FE0C4816F038
:1019100035F80020A86214F091FC012009B0049968
:10192000F0BC01B00847C04618E400400100E040A8
:1019300024BB00403CF801006D637300746D7000BF
:101940001C2F0300F0B593B0284E34007C34A068FF
:10195000002801D1FFF740FFA068002801D12060D6
:1019600034E00CF0ABFA00900020C043019001A8D5
:1019700002A902680A6002AF07221949381DFFF761
:101980008FFC1E22174938000B3019F035F9164D1F
:10199000102229002937380019F02EF9392302AA1C
:1019A0006946A0680CF014FD012806DB206883005E
:1019B000321D6946A0680CF00BFD002100220023B7
:1019C00000264EC521600A49884207D104F03EFA3C
:1019D000002013B00499F0BC01B008470120F8E7DB
:1019E000FCFC00404CF10040D8E400404CFA0040C0
:1019F0000540008000B581B0034814F0B7FB01201A
:101A0000019902B00847C046E4FF010000B581B06B
:101A1000FFF722FA0120019902B0084700B581B012
:101A200012F0A0FE12F0C2FE034801210160012065
:101A3000019902B00847C0464CFA004010B50A4868
:101A40000100803100224A6003001E245A601B1DE1
:101A5000641EFBD1C2670A60026001F067FB019956
:101A600010BC01B00847C0464CFA0040004870471F
:101A700088F80100034870470248704701487047E2
:101A800000487047ACF8010000B581B066480521F8
:101A90000160FA20800014F02FFE14F0A7FB012053
:101AA000019902B0084710B514F0C8FB5E4C2068DD
:101AB000401E20600DD16068002807D15B480300FC
:101AC0004033582201001430FFF7E2FB606800F059
:101AD000AFF80120019910BC01B0084710B5524C75
:101AE0006068002808D1514803004033612201009A
:101AF00064311430FFF7CCFB606800F099F80120E6
:101B0000019910BC01B0084710B5474C6068002827
:101B100008D1464803004033672201007831143071
:101B2000FFF7B6FB606800F083F80120019910BC54
:101B300001B0084710B53C4C6068002808D13B480C
:101B4000030040336D2201008C311430FFF7A0FBFD
:101B5000606800F06DF80120019910BC01B00847E1
:101B600010B5314C6068002808D13048030040337C
:101B700073220100A0311430FFF78AFB606800F087
:101B800057F80120019910BC01B0084701207047A7
:101B900000B581B000F00CF80120019902B00847AF
:101BA00001207047012070470120704700000000AD
:101BB00010B5EA23F0223521002007F027FE00218E
:101BC000002007F0F3FE012007F0E4FE00210120D1
:101BD00007F0E6FE124807F013FE124807F0ECFE8D
:101BE000012008F0D7FF07F05DFE0F4CA068002829
:101BF00008D10E48030040339E220100B431143056
:101C0000FFF746FBE068A16800F013F808F0C8FF92
:101C1000002008F0BFFF019810BC01B00047C0468B
:101C200002000100885002003CFD0040C4F80100A1
:101C30000047084730B581B0C04C862040002018CE
:101C4000012101700025456000F0B8F9DB2080001B
:101C500022180020002119F089FBDD2080002218C5
:101C60000020002119F082FBDF2080002018056091
:101C700045608560858101B0029830BC01B00047A5
:101C8000F1B582B00F00AD4C8620400001212154F7
:101C9000002626710025002F06D00298405D00F036
:101CA00057F86D1CBD42F8D3E220800025182E7035
:101CB000FF205A3020180090007800283CD08C205B
:101CC00040002718DB208000221803CF083F19F0BE
:101CD0004DFBDD20800022183800083003C819F0C1
:101CE00045FB2E7800980078022800D3761C032844
:101CF00008D1761C203703CF18F036FBCE2189009F
:101D0000611848642E700F48205C562814D028783B
:101D1000801C2870CE20800024180CCC083C0A4877
:101D20000A4918F0ABFB18F01FFBA0642000083034
:101D300003C818F019FBE06403B00498F0BC01B0CC
:101D40000047C046230300006F1283C0CAA1FD3FB5
:101D500070B57A4C862149006518297801290AD086
:101D600000D2E8E003292DD00DD3052900D195E05C
:101D700000D28AE0DFE0242800D082E00021217038
:101D8000618002207CE02C2810D02A280ED06288A6
:101D9000082A74D2A11808716188491C61802278D0
:101DA000504020700904090C082967E06288082A5D
:101DB00065D20021A21811712278504020706180F4
:101DC00003205DE06288802149002A2806D18A42EA
:101DD00055D2A01800210173042051E08A424ED24E
:101DE000A2180D2840D100201073554E310020312B
:101DF000201D19F0D7FB002804D10C34200000F07E
:101E000073F92DE031001831201D19F0CBFB0028AB
:101E100004D10C34200000F097FA21E03100103199
:101E2000201D19F0BFFB002804D10C34200000F065
:101E3000BFFB15E031000831201D19F0B3FB00286D
:101E400004D10C34200000F0FFFA09E03100201D1D
:101E500019F0A8FB002803D10C34200000F0E2FCAC
:101E60006868401C68600AE0237843402370107360
:101E70006088401C60800004000C884201D301206F
:101E80002870039870BC01B00047010030390A295E
:101E900000DB3738000160700520F1E7617802004F
:101EA000303A0A2A01DA303800E0373808436070E7
:101EB000207861788842E2D1214E31002031201D06
:101EC00019F070FB002804D10C34200000F00CF94C
:101ED0002DE031001831201D19F064FB002804D1D9
:101EE0000C34200000F030FA21E031001031201DC8
:101EF00019F058FB002804D10C34200000F058FBE6
:101F000015E031000831201D19F04CFB002804D1E8
:101F10000C34200000F098FA09E03100201D19F07F
:101F200041FB002803D10C34200000F07BFC6868E2
:101F3000401C6860A3E701202870A2E7E0ED0040A4
:101F4000D8F90100F0B481B004B4002817D00029FA
:101F500015D0012B00DA12E0002400250026020033
:101F6000009FBE420FD01778002F0CD02C2F00D12D
:101F7000761C6D1C521C1778002FF1D10C700020BC
:101F800002B0F0BC7047465D2C2EF7D02A2EF5D05B
:101F900000200D0016782C2E0AD02A2E08D0002EF4
:101FA00006D02E70401C6D1C521C9842F2DB581E4D
:101FB0000C54012002B0F0BC70470000F0B482B0B5
:101FC00041480022002101808170404B002003C362
:101FD000083B1C00083403C41A821C00183403C4D4
:101FE0001C00203403C49A62DA621C00303403C43B
:101FF000383303C34D241C7001245C70344C0094AE
:1020000014240026AD277F00009DEE53009DAD1CDB
:102010000095641EF8D11C00303403C41C00383411
:1020200003C4186459649A642A4B1A705A80284B66
:102030001424D4256D005D192E816E812E806E8052
:102040006A600C33641EF4D1234C22605623237142
:102050002500083503C53F25257462741F4C227086
:102060001F4C03C4083C2500083503C52500103566
:1020700003C52500183503C5203403C423706260EE
:102080002281A272E3722300103303C323001833AA
:1020900003C32300203303C3283403C4114B01249A
:1020A0001C705C70FA24E4005C801D00083503C5D8
:1020B0001A61988298750120D87518765C839A8386
:1020C0001A6202B0F0BC7047F4EE0040F8EE004037
:1020D000E0ED004084EF004078F00040A9F00040BF
:1020E000D0F0004028F10040F1B58CB01923002257
:1020F0006946FFF727FF002827D007AC6D462878F0
:102100002070687860700026A6708D4F8A2040008D
:102110003F180A22002107A819F0ACF93870A878F6
:102120002070E8786070A6700A22002107A819F0D4
:10213000A1F978702879207068796070A6700A22F9
:10214000002107A819F096F9B870192301226946F1
:102150000C98FFF7F7FE00281BD0794F8C20400029
:102160003E186D4600220021A81C19F01FF900221C
:10217000744B18F05DFF03C6083E0020A8700022D3
:102180000021684619F012F90CCE083E18F0AEFE98
:1021900003C61923022269460C98FFF7D3FE0028D4
:1021A0000DD068460078532809D1654F8C20400037
:1021B0003E1803CE083E80221206514003C6192362
:1021C000032269460C98FFF7BDFE002820D05C4F23
:1021D0008C2040003E186D4600220021E81C19F0BA
:1021E000E5F80022574B18F023FF3200083203C2F3
:1021F0000020E87000220021684619F0D7F802009C
:102200000B003000083003C818F070FE083603C613
:102210001923042269460C98FFF794FE00280FD07A
:102220006846007857280BD1454F8C2040003E1857
:1022300032000832083603CE80231B06594003C201
:102240003F4F8C2040003E181923052269460C9808
:10225000FFF778FE002803D06846007830383074E5
:102260001923062269460C98FFF76CFE00280DD052
:1022700007AC6D4628782070687860700020A070E8
:102280000A22002107A819F0F5F870741923072213
:1022900069460C98FFF756FE002807D0002200215F
:1022A000684619F083F83200183203C21923082255
:1022B00069460C98FFF746FE002807D0002200214F
:1022C000684619F073F83200203203C28A204000B9
:1022D0003F1878780101081A8000B9784418F06A2C
:1022E000A0421EDA001B18F0BBFB0022154B18F0B1
:1022F0009FFE0AAA03C20AA80CC80020002118F0F9
:10230000DDFD0ED03000303003C8320020320CCA60
:1023100018F0B2F90AAA0CCA18F08AFE3200383254
:1023200003C2320030323000203003C803C2F462EE
:10233000B06A401CB0620DB00498F0BC01B0004718
:10234000E0ED004000004E40F0B58BB007001923CF
:1023500000226946FFF7F6FD002803D03848694699
:10236000097801701923012269463800FFF7EAFD58
:10237000002804D032486946097830394170002479
:10238000304EAD20400035181923A21C6946380094
:10239000FFF7D8FD00280CD0684669460978017718
:1023A00007A8694649784170002181700A2219F016
:1023B00061F82880641CB61C0C2CE2DB204C19232D
:1023C0000E2269463800FFF7BDFD002807D0002225
:1023D0000021684618F0EAFF2200303202E02200B5
:1023E0003032002103C219230F2269463800FFF75B
:1023F000A9FD002807D000220021684618F0D6FF6A
:102400002200383202E022003832002103C21923B0
:10241000102269463800FFF795FD002805D00022FC
:102420000021684618F0C2FF00E0002120646164CA
:10243000A06C401CA0640BB00498F0BC01B0004735
:1024400038EF0040E0ED0040F1B588B019230022DC
:1024500001A9FFF777FD002800D19EE00A220021A4
:1024600001A819F007F80A2800DB96E0002800D53B
:1024700093E0012800DA90E08000142800DB8CE073
:102480001923012201A90898FFF75CFD002800D15B
:1024900083E00A22002101A818F0ECFF05000A2DB4
:1024A0007BDA012D79DB1923022201A90898FFF7B5
:1024B00049FD002806D00A22002101A818F0DAFF01
:1024C000384908800324A8004100081880003649D4
:1024D0000818009004260027BC20400000990D1821
:1024E0001923220001A90898FFF72CFD002806D027
:1024F0000A22002101A818F0BDFF288000E02F80EB
:102500001923621C01A90898FFF71CFD002806D0BA
:102510000A22002101A818F0ADFF688100E06F8158
:102520001923A21C01A90898FFF70CFD002806D06A
:102530000A22002101A818F09DFF288100E02F81C8
:102540001923E21C01A90898FFF7FCFC002806D01B
:102550000A22002101A818F08DFF688000E06F803A
:102560002888002801D100200CE000210E4A03E059
:10257000491C921C0C29F6DAAD235B00D35A984211
:10258000F6D10120686000980C300090241D761E62
:10259000A2D106480168491C016009B00498F0BC4A
:1025A00001B0004786EF0040E0ED004078F00040C9
:1025B000F1B58AB0192300226946FFF7C3FC002851
:1025C00024D06D4607AC28782070687860700027AA
:1025D000A770924E0A22002107A818F04BFF307016
:1025E000A8782070E8786070A7700A22002107A8F8
:1025F00018F040FF70702879207068796070A770BB
:102600000A22002107A818F035FFB0701923012213
:1026100069460A98FFF796FC002802D068460078C1
:1026200000E056207D4EF0701923022269460A9878
:10263000FFF788FC00281BD06D4600220021A81C53
:1026400018F0B4FE0022764B18F0F2FC320008328B
:1026500003C20020A87000220021684618F0A6FEE0
:10266000320008320CCA18F041FC3200083203C2B2
:102670001923032269460A98FFF764FC00280CD04E
:1026800068460078532808D13200083230000830FC
:1026900003C880231B06594003C21923042269463C
:1026A0000A98FFF74FFC00281DD06D46002200213C
:1026B000E81C18F07BFE0022594B18F0B9FC3200E0
:1026C000103203C20020E87000220021684618F092
:1026D0006DFE02000B003000103003C818F006FC3D
:1026E0003200103203C21923052269460A98FFF707
:1026F00029FC00280CD068460078572808D1320001
:1027000010323000103003C880231B06594003C22A
:102710001923062269460A98FFF714FC002805D001
:1027200000220021684618F041FE02E000215622F6
:10273000F2703200183203C21923072269460A9840
:10274000FFF700FC002805D000220021684618F0A1
:102750002DFE02E000215622F270203603C6192316
:10276000082269460A98FFF7EDFB002826D06D463F
:1027700007AC28782070687860700027A7700A225C
:10278000002107A818F076FE3070A8782070E8784D
:102790006070A7700A22002107A818F06BFE707005
:1027A0002879207068796070A7700A22002107A834
:1027B00018F060FEFA21C900401870801923092220
:1027C00069460A98FFF7BEFB002805D000220021C9
:1027D000684618F0EBFD00E000213200083203C229
:1027E00019230A2269460A98FFF7ACFB00280CD08F
:1027F00068460078572808D1320008323000083087
:1028000003C880231B06594003C23069401C306155
:102810000BB00498F0BC01B00047C04600F1004086
:1028200000004E40F0B58BB0070019230022694626
:10283000FFF788FB002826D06E4607AC3078207062
:10284000707860700020A070394D0A22002107A81E
:1028500018F010FE2870B0782070F07860700020BA
:10286000A0700A22002107A818F004FE68703079D1
:102870002070707960700020A0700A22002107A8E3
:1028800018F0F8FDA8701923012269463800FFF7F7
:1028900059FB002805D00A220021684618F0EAFDFD
:1028A00000E00120224DE870192302226946380019
:1028B000FFF748FB002805D00A220021684618F0DF
:1028C000D9FD00E001202871192303226946380050
:1028D000FFF738FB002805D00A220021684618F0CF
:1028E000C9FD00E00120E880192304226946380070
:1028F000FFF728FB002804D00A220021684618F0C0
:10290000B9FD28721923052269463800FFF71AFB22
:10291000002804D00A220021684618F0ABFD687236
:10292000E868401CE8600BB00498F0BC01B00047B8
:102930003CF10040F0B587B0CD4E9320C000301878
:102940000168002901D0424803E04068002805D012
:10295000404807B00499F0BC01B00847F720800058
:1029600030180168002901D03B48F2E700690028CF
:1029700001D13A48EDE73D48006839490988441AD1
:102980000025002C00D50024FD2080003018009088
:10299000642118F0E7F801A80021002200230EC0EE
:1029A00006C0304F2200390001A817F0A5FC01A98C
:1029B000009818F09FF9FD20800001B503A818F0D9
:1029C000D7F83118009802B00E183570761C01A89F
:1029D0000021002200230EC006C02200390001A8F9
:1029E00017F08AFC01A9300018F084F901A818F04A
:1029F000BFF836183570761C01A80021002200238C
:102A00000EC006C02200390001A817F075FC01A90C
:102A1000300018F06FF901A818F0AAF836183570D0
:102A2000761C01A80021002200230EC006C022004F
:102A30000D4901A817F060FC01A9300018F05AF9FF
:102A400001A818F095F830180570009881E7C04685
:102A500000FA010024FA01004CFA010070FA0100AA
:102A6000A089004084FA01008CFA01009C770040A4
:102A700008480078002803D0401E03D10248704760
:102A8000024870470248704794FA0100ACFA01000E
:102A9000C8FA010028FD004007480168002904D059
:102AA000C06E002801D10248704702487047C046F6
:102AB000E0FA010014FB010044E400406C4893215B
:102AC000C90041180A68002A02D14968002901D0CA
:102AD0000B487047F7218900411809480A68002A05
:102AE00001D0183070470A69002A06D0C96F002942
:102AF00001D030307047483070475C307047C04676
:102B000024FB01000048704790FB010000B581B034
:102B100003A013F05DFF0120019902B00847C046F1
:102B20000000000000487047A4FB010000B581B020
:102B3000FEF76CFD4E49F320800008589222D20027
:102B400089180A68002A02D18968002901D006483C
:102B50000068FEF731FD034814F010FF01200199D1
:102B600002B008471C2F030008FB004000487047D4
:102B7000CCFB010000B581B0034813F0F7FA012047
:102B8000019902B008470000E4FF010023480168F2
:102B9000002902D14068002800D001487047C04693
:102BA00004FC010010B5324CF720800020180121F0
:102BB00000220368002B06D00260416011F052FE33
:102BC00011F0E6FE03E00160426011F03FFE00F00C
:102BD000B7F80A4815F05EFD11F050FE11F026FC22
:102BE00013F004FBF0218900200017F0BBFF00F078
:102BF000D3FD0120019910BC01B0084720FD000061
:102C000006480168002904D14068002801D1024823
:102C1000704700207047C04630FC0100F0E40040DF
:102C200000B581B0034813F0A1FA0120019902B068
:102C30000847C046183502000048704758FC01009C
:102C400000B581B00A489321C900411800220A60EA
:102C500001234B60F721890040180360426011F0A6
:102C6000F5FD13F0C3FA0120019902B008470000F6
:102C700058E0004003480068002801D00020704759
:102C800001487047F4E4004090FC010000B581B0B9
:102C90000A489321C900411801220A6000234B60B1
:102CA000F721890040180260436011F0CFFD13F056
:102CB0009DFA0120019902B00847C04658E0004043
:102CC00003480068002801D0002070470148704781
:102CD000F0E40040C4FC010030B581B0154CF02197
:102CE0008900200017F03EFFF0208000201801210D
:102CF000C16101620021016041600F4A8260C160D0
:102D00000261416100250183FE21890541620B4872
:102D10002418256000F014F8656096208000206279
:102D20006563A563E563256401B0029830BC01B01A
:102D30000047C04658E00040000048435C040000E3
:102D400030B581B00F489021C900411800220023FE
:102D5000002400253CC1FA21890041180A604A601C
:102D60008A600A679321C9004018026042600DF032
:102D70004BFB05484168016001B0029830BC01B0CE
:102D80000047C04658E000409C77004000B581B045
:102D9000FF204E3013F0B0FCFFF7D2FF13F026FAFD
:102DA00000F0FAFC0120019902B0084710B511F0BB
:102DB0003FF9032800DA54E011F0E6FC2B4C2C48D4
:102DC0002218D06B002845D1106C002842D1F12088
:102DD000800023189868274918F020FC04D9186847
:102DE000254918F01BFC01D8012000E00020516BA0
:102DF000814204D05063002801D1012010609869FD
:102E0000D969002914D0002824D058681B4918F02B
:102E100021F81FD211F00CF909281BDB11F052FD2B
:102E200011F044FD16480021016000F07FF911E027
:102E300000280FD113480068134988420AD1506B0B
:102E4000002807D111480068002803D100F020F8BD
:102E5000002806D0F120800020180021416213F0E4
:102E6000EDF90120019910BC01B0084758E000407D
:102E70005C0400000100F041015043470100E040C4
:102E80005CFC004020FC0040E4FF010014FB00401B
:102E9000F0B585B0434CF32080002518286AE96915
:102EA000002923D0002821D1FEF7B0FB3E48FEF7D1
:102EB00013FB28688B21C90061188A6B002A02D194
:102EC000096C002901D039480068FEF775FB012024
:102ED0002862374815F0DEFB13F02AFB0DF094FA58
:102EE000344E354830184168016050E0002852D017
:102EF000324811F003F9002844D001200DF03CFBCA
:102F0000012068622E4F2B4E2E48385A2A4971589C
:102F1000884235DB2C4DAA2080002818FEF7DCFA09
:102F20002A483018FEF7E2FA9020C00026182848F8
:102F300000680328684604D105F054FF02009C3560
:102F400003E005F04FFF0200A4352900300017F020
:102F5000D3F920483818204909680288891A018065
:102F60000121300016F0B8F8002801D102F06EFF00
:102F70008B20C0000121215000F0D8F800200BE088
:102F800013F096FA8B20C0002058002803D111F0CE
:102F9000E9FB11F00BFC012005B00499F0BC01B075
:102FA0000847C04658E0004020FD010008FB0040F3
:102FB00020FD0000002400409C53000024BB004082
:102FC000A8770040F8110000F0FC0100FC5200005E
:102FD0004CFC0040C22200000CFD004030B585B022
:102FE000144C154D154800680328684604D105F0B7
:102FF000F9FE02009C3503E005F0F4FE0200A43562
:103000002900200017F078F90D480E490968028858
:10301000891A01800121200016F05EF8002803D1F2
:1030200002F014FF002000E0012005B0029930BC3E
:1030300001B00847D8E40040F0FC01004CFC00401F
:103040006A9A00400CFD004000B581B00C48016850
:1030500000290DD0C06E00280AD10A4801684268D4
:1030600089180160084A914205DB511E016002E0A7
:10307000064813F07BF80120019902B00847C046CA
:1030800044E400409C77004085030000F8390300C9
:1030900000B581B000F0FAFE0B480178002903D09A
:1030A000491E03D1002102E0022100E0012101704C
:1030B00014F04CFE14F052FE00F0F2FE13F038FA59
:1030C0000120019902B0084728FD004010B582B0E8
:1030D000124C002817D00521684617F043FD00F078
:1030E000D5FE0F48437B027B2100AC31684617F0C8
:1030F00003F900F0D5FE0B49684618F053FA002892
:1031000001D1094802E0BD208000201813F02EF8FC
:1031100002B0019810BC01B00047C046F0FC0100AD
:10312000F4FC0040ACF90040FC34030070B584B0FE
:1031300010F07EFF012806DA414814F01FFCC82079
:1031400014F0D0FD0EE03F4E9321C90071180A68BB
:10315000002A02D1496800290AD011F08FFB3A48B1
:1031600001210160012004B0039970BC01B008473F
:103170000728E1DBF720800034182068002808D0F9
:10318000002020600120606011F06CFB11F000FC59
:1031900042E02069002839D02C4DE06F002805D08E
:1031A000BD208000281812F0E1FFDBE7AA20800094
:1031B0002818FEF791F92648FEF798F99020C000EC
:1031C0003618244800680328684604D105F00AFE32
:1031D00002009C3503E005F005FE0200A43529003D
:1031E000300017F089F81C481C4909680288891AC0
:1031F00001800121300015F06FFF002801D102F09D
:1032000025FE0120E06713F093F9ABE70120206071
:103210000020606011F01AFBFFF792FD104815F0D6
:1032200039FA11F02BFB11F001F912F0DFFFF02158
:103230008900300017F096FC00F0AEFA92E7C04625
:10324000FC2E030058E0004050FB0040F0FC010061
:10325000FC7600404CFC00406A9A00400CFD0040A7
:1032600020FD000000B581B0044813F08DFA044839
:10327000012101600120019902B00847D803020032
:10328000B4E400400120704700B581B000F096F82A
:103290000120019902B0084710B5104CFB208000B6
:1032A00020180168002908D0C06E002805D10C48FC
:1032B000FEF712F90B48FEF719F9F02189002000FA
:1032C00017F050FC9320C0002018002101604160DD
:1032D0000120019910BC01B00847C04658E00040E9
:1032E00098FF0100FC7600400248012101600120A6
:1032F0007047C046B4E4004005480169002904D184
:103300000068401E8041C00F704700207047C046D3
:1033100034E4004070B5254E300006F099FB1023D0
:10332000F0223521002006F071FA0021002006F07D
:103330003DFB002006F02EFB0121012006F030FBB2
:10334000002006F021FB1A4806F05AFA194806F048
:1033500033FBFA2006F084FA174D280005F098FF99
:103360008024A4012300EF226721002008F010FA36
:10337000300006F06DFB1023F0226921002006F0DA
:1033800045FA0021002006F011FBFA2006F068FA49
:103390003435280005F07CFF2300EF229B2100201C
:1033A00008F0F6F9039870BC01B0004700203F0018
:1033B00002000100885002002800020010B5FFF74B
:1033C000A9FF00F0CBFA00F021FA2148016C002996
:1033D00002D000F0CBF804E0406C002805D000F0EB
:1033E00083F8019810BC01B000471A491A48081820
:1033F000426B002A02D000F0FBF8F2E7F7229200BD
:103400008C18216900290BD014490968002907D0BC
:1034100060690028E5D000F02DF900206061E0E748
:103420000168002904D00021016000F0B5F9D8E757
:1034300000F07CF90A4800680A498842D1D16068E6
:103440000028CED120680028CBD100F00DF8C8E7C5
:10345000D4FA004058E000405C0400009877004037
:1034600020FC004044F8010000B583B01023F02296
:103470009E21002006F0CAF90021002006F096FAED
:10348000002006F087FA0121012006F089FA0020C9
:1034900006F07AFA8020400206F0B2F90D4806F0F4
:1034A0008BFA0D4806F0D4FA0C48006800F002FDD3
:1034B00002000BA1684616F01FFF0A2006F0D0F9A3
:1034C000084805F0E5FE684605F020FF039804B0C3
:1034D0000047C04688500200003F2000CCFA004060
:1034E00025750000AC00020000B581B08023F022F9
:1034F0009E21002006F08AF90021002006F056FAED
:10350000012006F047FA0221022006F049FA0020C5
:1035100006F03AFA8020400206F072F90F4806F0F1
:103520004BFA0F480078C00702D5FC20800300E06A
:103530000C4806F08DFA012007F02CFB06F0B2F9DA
:10354000094805F0A5FE06F03DFA07F029FB00202A
:1035500007F020FB019802B00047C04688500200E7
:1035600002FD0040003F3F00EC00020000B581B0CA
:103570008023F0229E21002006F048F9002100203F
:1035800006F014FA012006F005FA0221022006F0E6
:1035900007FA002006F0F8F98020400206F030F922
:1035A0000F4806F009FA0F480078C00702D5FC2042
:1035B000800300E00C4806F04BFA012007F0EAFA1D
:1035C00006F070F9094805F063FE06F0FBF907F014
:1035D000E7FA002007F0DEFA019802B00047C04683
:1035E0008850020002FD0040003F3F007C010200C5
:1035F00000B581B08023F0229E21002006F006F95C
:103600000021002006F0D2F9012006F0C3F90221C2
:10361000022006F0C5F9002006F0B6F9802040022D
:1036200006F0EEF80F4806F0C7F90F480078C0071B
:1036300002D5FC20800300E00C4806F009FA0120C6
:1036400007F0A8FA06F02EF9094805F021FE06F069
:10365000B9F907F0A5FA002007F09CFA019802B02A
:103660000047C0468850020002FD0040003F3F0076
:10367000F401020030B581B08023F0229E210020A9
:1036800006F0C4F80021002006F090F9012006F0B1
:1036900081F90221012006F083F9002006F074F977
:1036A0008020400206F0ACF81A4806F085F9FC20AC
:1036B000800106F0CDF9012007F06CFA06F0F2F86F
:1036C000154D2800B83005F0E3FD144C20000830FB
:1036D00005F01CFE12A005F019FE06F0E3F8FC2030
:1036E000800306F0B5F9AA208000281805F0D0FD67
:1036F0000C4806F0ADF90C48201805F007FE07F05D
:103700004FFA002007F046FA01B0029830BC01B031
:103710000047C04688500200F0FC01000024004031
:103720000D000000003F3F00FC52000070B5194C36
:10373000206A002824D18F267600012001B53300AD
:10374000EF22AE2108F0B2FB02B0206841000C1855
:10375000542C01DB532419E01A20C043844213DAAD
:103760000400FC25AD0100233200AF21EF2007F05B
:10377000A7FF812149002B000A1BEF2007F0A0FFC3
:10378000039870BC01B00047002CEAD4FC25AD03BF
:10379000E9E7C04614E40040F0B583B06A46194832
:1037A00003C803C23222684603C807F0DFFC164D87
:1037B000F72080002858002819D10024812676009F
:1037C0001A27FF43286841000818542801DB5320BA
:1037D00014E0B84210DA3800FC239B01321A3100A1
:1037E000200007F06DFF641C2D1DF02CEADB03B0F8
:1037F0000498F0BC01B000470028EDD4FC239B03E3
:10380000ECE7C0466C02020058E0004070B59AB088
:103810003E4806F01DF92023F0227A21002005F011
:10382000F5FF0021002006F0C1F8002006F0B2F8F4
:103830000121012006F0B4F8002006F0A5F8802050
:10384000400205F0DDFF324806F0B6F83149F120BC
:1038500080000A18106856689222D20089180A68F7
:10386000002A02D18968002902D02B49086B8E6B8F
:103870002A4DFE21890517F0EDFA01D22C000FE048
:10388000274917F0E7FA02D22C00083408E025494E
:1038900017F0E0FA02D22C00103401E02C001834AA
:1038A00016F0E4FF02000B002100684616F024FD2C
:1038B000C82005F0D5FF684605F028FD1A4806F037
:1038C0007BF80021A02006F071F8300016F0CEFF42
:1038D0000022164B17F00AFB17F0B8FE020000D1C9
:1038E000012220352900684616F006FD684605F0DD
:1038F0000DFD1021A02006F059F80DA005F006FDE1
:103900001AB0039870BC01B00047C046003F3F00AA
:10391000D864020058E00040D4FA0040740202006B
:10392000000020410000C842885002000000E03F33
:10393000637073000749F320800008589222D20078
:1039400089180A68002A02D18968002901D0024832
:103950000068704758E0004008FB004070B59AB01E
:103960004E4C606C002802D1206C002806D04C48D8
:103970000078C00702D5FC20800300E0494806F02B
:1039800067F82023F0224621002005F03FFF0021A8
:10399000002006F00BF8002005F0FCFF01210120BB
:1039A00005F0FEFF002005F0EFFF8020400205F04B
:1039B00027FF3D4806F000F83C49F3208000081836
:1039C00005689222D20089180A68002A02D18B6801
:1039D000002B00D0656B4668002A02D18868002859
:1039E00000D0A66BFE218905206C002844D0304D04
:1039F0000E002B480078C00702D5FC20800300E0B1
:103A0000284806F025F82B4C280016F02FFF02005E
:103A10000B002100684616F06FFCFA2005F020FF2D
:103A2000684605F073FC244805F0C6FF0021A0207D
:103A300005F0BCFF300016F019FF00221F4B17F0F5
:103A400055FA17F003FE020000D101221C4C2100A0
:103A50002031684616F050FC684605F057FC1021EE
:103A6000A02005F0A3FF2834200005F011FC1AB0B7
:103A7000039870BC01B00047280017F0EBF901D2A1
:103A80000F4CC1E70F4917F0E5F901D20E4CBBE727
:103A90000E4917F0DFF9B6D20D4CB5E7D4FA004065
:103AA00002FD0040003F3F00D864020058E00040A3
:103AB00000401C468C020200885002000000E03FDB
:103AC00074020200000020417C0202000000C84293
:103AD00084020200004870479C02020000487047C0
:103AE000B802020030B581B00C4804880C4804606C
:103AF0000C4D012001B50C492800303003B40B4BAC
:103B0000FA22D2002100280008F033FC04B0002083
:103B1000C04301B0029930BC01B00847FCFC004032
:103B2000F8E40040CC020200313B0000B80B00007A
:103B300070B5134D002805D1BD208000281812F063
:103B400015FB18E00F4C0A2200210F4817F092FCD9
:103B500020600E4806786660012001B50C498A2075
:103B60004000281803B40C2301223100E03528005E
:103B700008F0FFFB04B0039870BC01B00047C046DA
:103B8000F0FC0100F8E40040ACF90040FEFC00400D
:103B9000953B000030B581B0002803D1264812F0D3
:103BA000E5FA43E0254C0A220021254817F062FC83
:103BB000606024480578A560606802280CD0082859
:103BC00001DB012300E00023C10F0918491049005F
:103BD000401A43401E3319E02268100000F076F9C5
:103BE000C82149004843101A0DD05010800F80188A
:103BF00080108000101A08D1100000F075F919210A
:103C00004843101A01D01D2300E01C230E4C012054
:103C100001B50E49BE204000201803B4012229003E
:103C200096204000201808F0A4FB04B001B00298D0
:103C300030BC01B00047C046E4FF0100F8E400409A
:103C4000ACF90040FFFC0040F0FC0100513C0000DA
:103C500070B5134D002805D1BD208000281812F042
:103C600085FA19E00F4C0A2200210F4817F002FCD8
:103C700020600E4806786660012001B50C49BE2020
:103C80004000281803B4062300223100C820400059
:103C9000281808F06EFB04B0039870BC01B0004710
:103CA000F0FC010000E50040ACF90040F8FC0040E9
:103CB000B53C000070B58CB0294D002805D1BD2061
:103CC0008000281812F052FA44E0264C0A22002103
:103CD000254817F0CFFBE060684629003022FDF749
:103CE000DFFA00216068022807DB6A46121D431EC6
:103CF00016688919121D5B1EFAD12161A2688A1803
:103D00002261032813DB2368980710D1180000F004
:103D1000F9F864214843181A07D1180000F0D6F8C2
:103D2000C82149004843181A01D1521C22610F488A
:103D300006786661012001B50D49902080002818A1
:103D400003B417230022310084208000281808F0D3
:103D500010FB04B00CB0039870BC01B00047C04623
:103D6000F0FC0100F8E40040ACF9004000FD004028
:103D7000753D000070B5134D002805D1BD208000B1
:103D8000281812F0F3F919E00F4C0A2200210F480D
:103D900017F070FB20600E4806786660012001B5C0
:103DA0000C49A3208000281803B43B2300223100D3
:103DB00095208000281808F0DCFA04B0039870BC45
:103DC00001B00047F0FC01000CE50040ACF90040F8
:103DD00001FD0040D93D000010B5002813D00D4C66
:103DE0000A2200210C4817F045FBA0612168606899
:103DF00003B42169E06803B4A3686269A1691E2065
:103E000005F00CF804B0054812F0B0F9019810BCA8
:103E100001B00047F8E40040ACF90040E4FF0100C5
:103E2000004870471003020000B581B00849C86A15
:103E3000401C042800DB0020C8620648CA6A010052
:103E40000C310FF0D5FA0020019902B00847C046A6
:103E500020FC00404803020007480068401E05D0CF
:103E6000401E05D0401E05D10448704704487047E5
:103E700004487047044870474CFC00405C03020053
:103E80007C0302009C030200B80302007847C0468E
:103E900000C00FE1C0C08CE30CF021E11EFF2FE158
:103EA0007847C04600C00FE1C0C0CCE30CF021E170
:103EB0001EFF2FE17847C04608109FE590118CE067
:103EC000AC00B0E11EFF2FE1ABAAAAAA7847C0461A
:103ED0000CC09FE5901CCCE0CC03B0E10100804217
:103EE0001EFF2FE11F85EB517847C0460CC09FE5B0
:103EF000901CCCE0CC01B0E1010080421EFF2FE11C
:103F00001F85EB517847C0460CC09FE5901CCCE064
:103F1000CC02B0E1010080421EFF2FE11F85EB5172
:103F2000004870477C040200004870479404020077
:103F300000487047AC04020000B581B08C480068AE
:103F400005281ED801A1095C8F44C046060E161E26
:103F5000262E1248019902B008471148019902B073
:103F600008471048019902B008470F48019902B06C
:103F700008470E48019902B008470D48019902B060
:103F800008470C480300E43367220100BC30FDF70A
:103F90007FF90020019902B00847C046D80402000A
:103FA000F4040200100502002C050200480502007E
:103FB00060050200C00402000348044909680029A2
:103FC00000D114307047C0467C090200E0F7004081
:103FD00000487047AC09020010B5FFF77BFD0A4CA2
:103FE0000A4902B52100843103B4094B094A1B4830
:103FF0000168200008F018F904B00020C0430199BE
:1040000010BC01B00847C046DC090200194000009E
:104010000000C842CDCCCC3D70B5524C00280ED02B
:104020000E4D00220021514817F0C0F916F09CF9FE
:10403000286002002100103120000FF007FA4C4DDB
:104040002E6881208000201812F090F82E6012F067
:10405000CDF8039870BC01B0004700003CE400407C
:1040600000487047B00C020010B50A4C0A49200005
:10407000803003B496235B001E221848016820009C
:1040800008F038F902B00020C043019910BC01B01B
:104090000847C046F80C02009D40000070B5314C46
:1040A00000280DD00D4D0A220021304817F0E2F90A
:1040B0002860020021003031200020300BF0F4FD98
:1040C0002B4D2E6881208000201812F04FF82E60B2
:1040D00012F08CF8039870BC01B00047A077004044
:1040E00000487047940D020000487047E40D02003C
:1040F00000B581B0084909A003B496239B001E2295
:1041000019480168064808F0F5F802B00020C043DD
:10411000019902B00847C046254100000000000098
:10412000300E020070B50F4C00280DD00E4D0A2243
:1041300000210E4817F09EF9286002002100583136
:10414000200048300FF054F9094D2E68812080007E
:10415000201812F00BF82E6012F048F8039870BC8B
:1041600001B00047680A0200A4F90040ACF9004021
:1041700008F70040F0B581B04B48C0C806F070F8B1
:1041800000243F2522002A403000390006F070FE4E
:104190000A2012F0CDFF641C402CF3DBFA20400013
:1041A00012F0C6FF0024200028400202300039002F
:1041B00006F05EFE0A2012F0BBFF641C402CF2DB0E
:1041C000FA20400012F0B4FF00242000284002042E
:1041D0003000390006F04CFE0A2012F0A9FF641CE2
:1041E000402CF2DBFA20400012F0A2FF0024200055
:1041F0002840010202040A433000390006F038FE6C
:104200000A2012F095FF641C402CF0DBFA204000DD
:1042100012F08EFF002420002840020202433000EA
:10422000390006F025FE0A2012F082FF641C402CA3
:10423000F1DBFA20400012F07BFF00242000284030
:10424000020402433000390006F012FE0A2012F088
:104250006FFF641C402CF1DBFA20400012F068FF75
:104260000024200028400102014302040A433000D8
:10427000390006F0FDFD0A2012F05AFF641C402CA4
:10428000EFDBFA20400012F053FF05F0E9FFFA20BF
:10429000400012F04DFF11F0A9FF012001B0049978
:1042A000F0BC01B00847C046A00E020000487047AD
:1042B000A80E020000B581B0074908A003B4062388
:1042C000022207480168074808F014F802B00020ED
:1042D000C043019902B00847E94200000000000015
:1042E00004240040D80E020070B50F4C00280DD0F9
:1042F0000E4D0A2200210E4817F0BCF8686002003B
:1043000021006C31200020300BF0CEFC094D2E68CE
:1043100081208000201811F029FF2E6011F066FF27
:10432000039870BC01B00047680A020000240040F6
:10433000ACF9004008F7004030B581B0134C606B19
:1043400017F03AFB16F092FA0022114B16F070FEAD
:1043500016F00AF80500A5630E4C0F4801B5BA2007
:10436000400021180838201803B40C4BFE22920597
:10437000290082204000201807F056FF04B00020DA
:10438000C04301B0029930BC01B00847002400408E
:1043900000002440C0040200A1430000000040408F
:1043A00070B5144D002816D0134C0022002113487C
:1043B00016F0FCFF15F0D8FFA0630100104817F0BD
:1043C0004BFA16F05FFD0200626329007831280085
:1043D00020300BF069FC0B4C2668812080002818E7
:1043E00011F0C4FE266011F001FF039870BC01B00B
:1043F0000047C046680A020000240040ACF90040B3
:104400000000204108F7004000487047300F0200CC
:1044100000487047740F020000487047980F020070
:1044200000B581B00549064B0A002032FC2080030C
:1044300003F06EFE0120019902B00847CC0F020084
:1044400045440000F0B581B0002818D000F0B8FB5A
:104450000D4F0E4C0EA528000AF0B8F8060006D045
:1044600009F016FAA04202D13868002803D112F0F0
:10447000B5FE002EEFD111F0ABFE11F0DFFE01B062
:104480000498F0BC01B0004790F90040054000805E
:1044900073707A0000B581B00649074B8E2040004A
:1044A0000A18FC20800303F033FE0120019902B0BA
:1044B0000847C046CC0F0200BD440000F0B581B0F3
:1044C00000282FD000F07CFB19480090194F1A4D9E
:1044D0001AA4210028000AF0EDF8060007D009F020
:1044E000D7F9B84203D100980068002803D112F030
:1044F00075FE002EEDD12100280008300AF0DAF810
:10450000060007D009F0C4F9B84203D10848006892
:10451000002803D112F062FE002EECD111F058FEFB
:1045200011F08CFE01B00498F0BC01B00047C04609
:1045300090F90040054000801C1A020073707A0058
:1045400000B581B00649074B9D2080000A18FC2069
:10455000800303F0DDFD0120019902B00847C04649
:10456000CC0F020069450000F0B581B0002818D0DA
:1045700000F026FB0D4F0E4C0EA528000AF026F881
:10458000060006D009F084F9A04202D1386800285C
:1045900003D112F023FE002EEFD111F019FE11F01D
:1045A0004DFE01B00498F0BC01B0004790F9004006
:1045B000054000806C6F670000B581B00649074B6D
:1045C000D92080000A18FC20800303F0A1FD0120FF
:1045D000019902B00847C046CC0F0200E145000037
:1045E000F0B581B0002818D000F0EAFA0D4F0E4C5B
:1045F0000EA5280009F0EAFF060006D009F048F9E8
:10460000A04202D13868002803D112F0E7FD002E45
:10461000EFD111F0DDFD11F011FE01B00498F0BCF6
:1046200001B0004790F90040054000806D637300C1
:1046300000B581B00649074B8A20C0000A18FC204B
:10464000800303F065FD0120019902B00847C046D0
:10465000CC0F020059460000F0B581B0002818D0F8
:1046600000F0AEFA0D4F0E4C0EA5280009F0AEFF7B
:10467000060006D009F00CF9A04202D138680028E3
:1046800003D112F0ABFD002EEFD111F0A1FD11F01E
:10469000D5FD01B00498F0BC01B0004790F900408E
:1046A000054000806C69620000B581B00649074B87
:1046B000AA20C0000A18FC20800303F0DDFC0120C2
:1046C000019902B00847C046CC0F0200D146000055
:1046D00000B581B000280ED0084909A003B4094BE9
:1046E00000220021084807F005FE02B0074800211B
:1046F000016003F0D7FC019802B0004711470000A9
:10470000000000000F2700002C1A020024FD0040CA
:1047100010B582B0040018D00521684616F022FAC0
:10472000FFF7B4FB0D48437B027B0D49684615F04B
:10473000E3FDFFF7B5FB0B49684616F033FF002891
:1047400003D120000AF096FAFEE707480121016034
:1047500002B0019810BC01B00047C046F4FC004014
:10476000F40A0200ACF9004024FD004000B581B01D
:104770000549064B06480A18FC20800303F0C8FCD4
:104780000120019902B00847CC0F020095470000B4
:104790006407000000B581B0002807D00DF0DEFBF3
:1047A0000DF0FCFB0DF0A6FC0DF0CAFC019802B068
:1047B0000047000000487047BC1A020000487047DC
:1047C000001B020000487047401B02000048704771
:1047D000901B020000487047C01B02000048704751
:1047E000F81B020030B581B0084C002525606560DB
:1047F000A560E56025616561A56100F009F8D83420
:10480000256001B0029830BC01B0004708F70040B5
:1048100010B481B0134801001C3100220023002491
:104820001CC10CC1010030311CC10CC1010044315C
:104830001CC10CC1010058311CC10CC101006C31FC
:104840001CC10CC1010080311CC10CC1010094319C
:104850001CC10CC1A83000210EC006C001B010BCA4
:104860007047C04608F7004000B581B0FFF7D0FFA1
:10487000FA20800011F040FF04480021016011F08F
:10488000B5FC0120019902B00847C04608F7004076
:10489000F0B581B0954D2868002805D0001F0BD0D9
:1048A000401E00D1E1E001E000F044FA012001B037
:1048B0000499F0BC01B008478D4CC820400027186F
:1048C0008C4E706B15F0D2FF02000B0039002800EF
:1048D0001C3015F011FD142809D3CC2040002318FA
:1048E000854A1C3821182000BC30FCF7D1FCB06B85
:1048F00015F0BCFF02000B000020804916F0F6FA0C
:1049000016F0A4FE002800D101200200D4204000AF
:1049100021182800303015F0EFFC14280AD3CC20E1
:1049200040002318E52292001C3821182000BC30DA
:10493000FCF7AEFC306B15F099FF02000B0039005C
:104940002800443015F0D8FC142809D3CC204000AE
:1049500023186B4A1C3821182000BC30FCF798FC47
:1049600068A7726839002800583015F0C5FC142873
:1049700009D3CC2040002318634A1C38211820009A
:10498000BC30FCF785FC7269390028006C3015F0EA
:10499000B3FC142809D3CC20400023185B4A1C38F0
:1049A00021182000BC30FCF773FC59A7306F15F0BC
:1049B0005DFF02000B0039002800803015F09CFCE0
:1049C00014280AD3CC2040002318E82292001C3877
:1049D00021182000BC30FCF75BFCB06F15F046FFDF
:1049E00002000B004BA12800943015F085FC142820
:1049F00009D3CC2040002318474A1C382118200036
:104A0000BC30FCF745FC706F15F030FF02000B0066
:104A100039002800A83015F06FFC142809D3CC20E9
:104A2000400023183D4A1C3821182000BC30FCF7F8
:104A30002FFC3B48006815F019FF02000B00D8203E
:104A400040002118BC35280015F056FC142809D365
:104A5000CC2040002318334A1C382118BC342000D5
:104A6000FCF716FC11F0EAFB20E72F4E204CF26811
:104A7000D4204000211828001C3015F03DFC1428DB
:104A800009D3CC2040002318284A1C3821182000C4
:104A9000BC30FCF7FDFBBA2040002718306815F049
:104AA000E5FE02000B0039002800303015F024FC30
:104AB000142809D3CC20400023181D4A1C38211883
:104AC0002000BC30FCF7E4FB1A48006815F0CEFE6D
:104AD00002000B0039004435280015F00DFC1428A5
:104AE000C0D3CC2040002318134AB5E708F7004094
:104AF000C0040200D4FA00408E0300000000E03F32
:104B000097030000257500009A0300009D03000034
:104B10002566000025670000A3030000A60300002F
:104B20003CE40040AD030000ECF80040B30300009B
:104B3000B60300007CF90040B903000000B581B065
:104B4000034811F013FB0120019902B00847C04649
:104B5000E4FF010000B581B0034811F007FB01201C
:104B6000019902B00847C04688F7010010B5134C00
:104B70002068401C062800D100202060FFF748FE76
:104B800011F034FB2068012811D100F019F8200041
:104B9000183001B5230014332200103221000C31EB
:104BA000083420000AF09CF902B011F011FB11F05A
:104BB00045FB0120019910BC01B0084708F70040EF
:104BC00000B581B011F004FB114804F0F5FE10238C
:104BD000F0227721002004F019FE0E4804F038FF7F
:104BE0000021002004F0E2FE002004F0D3FE0121A9
:104BF000012004F0D5FE002004F0C6FE064804F0B3
:104C0000FFFD064804F044FB019802B00047C0468F
:104C100088500200003F3F00020001003C1C0200DF
:104C200070B582B0154C002818D00521684615F0E3
:104C300099FFFFF72BF91248437B027B21008C314F
:104C4000684615F059FBFFF72BF90E49684616F038
:104C5000A9FC002802D10C48012101600B4D2E68EF
:104C600081208000201811F081FA2E6011F0BEFA28
:104C700002B0039870BC01B00047C046680A020049
:104C8000F4FC0040ACF90040E0F7004008F70040B9
:104C900000B581B01448D821415800290AD11349E0
:104CA00013A003B4134B00220021134807F022FB8A
:104CB00002B015E00068052812D801A1095C8F44F4
:104CC0000408140C10180D4808E00D4806E00D48C3
:104CD00004E00D4802E00D4800E00D4811F054FDDD
:104CE0000120019902B0084708F70040214C00005C
:104CF000000000000F270000801C0200F41C0200CE
:104D00003C1E0200981D0200E01E0200841F0200EB
:104D1000282002000120704700B581B000F00AFC95
:104D20000120019902B00847012070470120704717
:104D30000120704700B589B019480168002905D0E5
:104D4000807BC00702D5FC20800300E0154804F0FA
:104D50007FFE1023F0223521002004F057FD0021B2
:104D6000002004F023FE002004F014FE01210120A5
:104D700004F016FE002004F007FE8020400204F03C
:104D80003FFD094804F018FE0A2004F069FD68465A
:104D900003F0B6FF04F0BAFA09980AB00047C0461B
:104DA000F4FC0040003F3F0088500200F0B583B0A3
:104DB0000400374F380004F0FFFD36482318F02276
:104DC000FF204030011B002004F020FD324804F099
:104DD0003FFE012004F0DEFD304C200004F096FA86
:104DE0002000183004F054FA2D4E3500D0352A68D2
:104DF0002CA1684615F080FA684604F087FA200076
:104E0000403004F045FAEB882A7921007031684679
:104E100015F072FA684604F079FA234804F018FE97
:104E2000224804F035FA22A5280004F06FFA214840
:104E300004F02EFA280004F069FA1F4804F0BCFDC3
:104E40002000783004F062FAFE36300004F05EFA9A
:104E5000380004F0B1FD280004F058FA174804F0B7
:104E6000F7FD2000803004F051FA2000943004F067
:104E70000FFA2000E43004F00BFAB42040002018B0
:104E800004F044FA03B00498F0BC01B00047C046F7
:104E900088500200E2FEFFFF00203F00CC2002000D
:104EA00008F7004025750D00003F2000C42A0300CC
:104EB0000D000000102B0300C0DF0200003F3F0088
:104EC00010B586B0214804F077FDEA23F0223521A1
:104ED000002004F09BFC1E4804F0BAFD1D4C20008D
:104EE00004F0D6F92000703004F0D2F92000E03050
:104EF00004F0CEF99A204000201804F0C9F9CC2023
:104F00004000201804F0C4F9FC204000201804F0F0
:104F1000BFF9A0208000201804F0BAF9BC2080005E
:104F2000201804F0B5F9BE208000201804F0B0F974
:104F30000948026809A1684615F0DEF9684604F0E0
:104F4000E5F906B0019810BC01B00047B04202007C
:104F5000003F3F004C220200D4E4004025750D00C4
:104F600070B5424804F028FD414804F071FDAB23C0
:104F7000F0223521002004F049FC012005F00AFE52
:104F800004F090FC3B4C200004F082F9200030300B
:104F900004F07EF9384D28001C3004F0B7F937A62C
:104FA000300004F0B3F92000603004F071F92800FB
:104FB000303004F0ABF9300004F0A8F920008C3058
:104FC00004F066F92800443004F0A0F9300004F041
:104FD0009DF92000C03004F05BF92800583004F03F
:104FE00095F9300004F092F92000FC3004F050F9FB
:104FF00028006C3004F08AF9300004F087F99A2018
:105000004000201804F044F92800803004F07EF9B4
:10501000300004F07BF9A8204000201804F038F993
:105020002800943004F072F9300004F06FF9BA20CF
:105030004000201804F02CF92800A83004F066F98C
:10504000300004F063F90E4804F0B6FCCE204000B6
:10505000201804F01DF9BC35280004F057F9002091
:1050600005F098FD039870BC01B00047885002001D
:10507000003F3F00B025020008F700400D0000008F
:10508000B042020070B5264804F096FC254804F0B2
:10509000DFFC4C23F0223521002004F0B7FB012077
:1050A00005F078FD04F0FEFB1F4C200004F0F0F842
:1050B0002000243004F0ECF81C4D28001C3004F0D3
:1050C00025F91BA6300004F021F91A48B0214158F7
:1050D000002902D08069032802DA2000483001E06C
:1050E0002000903004F0D4F82000E43004F0D0F830
:1050F0002800303004F00AF9300004F007F9882065
:105100004000201804F0C4F84435280004F0FEF8EC
:10511000002005F03FFD039870BC01B00047C04679
:1051200088500200003F3F009C27020008F7004023
:105130000D000000E0F8004070B590B0484804F061
:105140003BFCEA23F0223521002004F05FFB4548B8
:1051500004F07EFC444CEA204000201804F098F84B
:10516000424E3000083004F0D1F841A004F0CEF8EF
:1051700040A5414832582900684615F0BDF83C2842
:1051800009D3CC20400023183C4A243021182000A9
:10519000BC30FCF77DF880208000201804F078F8FF
:1051A000684604F0B3F8361D72692900684615F0A8
:1051B000A3F83C2809D3CC2040002318304A2430DF
:1051C00021182000BC30FCF763F88A2080002018EA
:1051D00004F05EF8684604F099F8326829006846E1
:1051E00015F08AF83C2809D3CC2040002318254A22
:1051F000243021182000BC30FCF74AF895208000AC
:10520000201804F045F8684604F080F8306B16F07A
:10521000D3FB1D4916F03AFA15F028FB02000B00EB
:10522000A02080002118684615F066F83C2809D3B4
:10523000CC2040002318154A243021182000BC300F
:10524000FCF726F8A2208000201804F021F8684618
:1052500004F05CF810B0039870BC01B00047C04681
:105260008850020000203F00C004020000240040DB
:105270000D00000025640D005430000019050000E9
:105280001E05000023050000000020412D05000040
:10529000F0B591B0954804F08FFBEA23F022352158
:1052A000002004F0B3FA924804F0D2FB914F7D68DD
:1052B000914CB820800020180090904E32000100E0
:1052C00002A815F019F83C280AD3CC204000231876
:1052D0008B4AB220800021182000BC30FBF7D8FF99
:1052E000BA208000201803F0D3FF02A804F00EF8C3
:1052F000721B009902A814F0FFFF3C280BD3CC20AE
:1053000040002318A922D200B220800021182000DA
:10531000BC30FBF7BDFFC3208000201803F0B8FFAE
:1053200002A803F0F3FFCC20800020180090642036
:105330004543280000F00EFE0200009902A814F078
:10534000DBFF3C280AD3CC20400023186D4AB22052
:10535000800021182000BC30FBF79AFFCE2080008F
:105360002018019003F094FF02A803F0CFFFBD685E
:1053700065A62A00310002A814F0BEFF3C280AD31B
:10538000CC2040002318614AB22080002118200060
:10539000BC30FBF77DFFD6208000201803F078FF9B
:1053A00002A803F0B3FF642064214D43A90A421A06
:1053B000009902A814F0A0FF3C280AD3CC2040009A
:1053C0002318534AB220800021182000BC30FBF77C
:1053D0005FFF019803F05CFF02A803F097FFFA68F3
:1053E000310002A814F088FF3C280AD3CC204000EA
:1053F0002318484AB220800021182000BC30FBF757
:1054000047FFDF208000201803F042FF02A803F0CE
:105410007DFF3A69310002A814F06EFF3C280AD3E0
:10542000CC20400023183C4AB220800021182000E4
:10543000BC30FBF72DFFEA208000201803F028FF86
:1054400002A803F063FF7A69310002A814F054FF48
:105450003C280BD3CC2040002318AF22D200B2202E
:10546000800021182000BC30FBF712FFF6208000DE
:10547000201803F00DFF02A803F048FFBA693100BD
:1054800002A814F039FF3C280AD3CC20400023188E
:10549000224AB220800021182000BC30FBF7F8FE21
:1054A0001F48201803F0F4FE02A803F02FFF1D4848
:1054B00002881DA102A814F01FFF3C280AD3CC20AB
:1054C00040002318194AB220800021182000BC3067
:1054D000FBF7DEFE1648201803F0DAFE02A803F000
:1054E00015FF11B00498F0BC01B0004788500200CD
:1054F000003F200008F70040C0040200AF03000096
:10550000420500004E05000025750D0057050000FE
:105510005D050000660500006F05000081050000C4
:105520000C040000A8F40040257500008905000067
:105530003C04000000B581B00021002004F036FAE0
:10554000002004F027FA0321012004F029FA0020AA
:1055500004F01AFA8020400204F052F91C4804F0CA
:105560002BFA1C480068052826D801A1095C8F4445
:105570000414281E3C32F520FFF718FCFFF7DAFB75
:10558000019802B00047FFF783FE019802B0004780
:10559000FFF7D2FD019802B00047FFF791FC019898
:1055A00002B00047FFF76EFD019802B00047FFF719
:1055B000D7FC019802B0004707480300E433074ACC
:1055C00007494118BC30FBF763FE019802B0004761
:1055D0008850020008F70040C0040200AF05000038
:1055E0006C04000000B581B0094801B509A10AA00A
:1055F00003B48023DB05FC229205084801680848B3
:1056000006F012FE04B00020C043019902B0084722
:105610002556000025660000000000007CF90040CF
:10562000E428020070B5124D002813D0114C00225E
:105630000021114815F0BAFE14F096FE206066694C
:1056400000206061226829009831280048300DF060
:10565000FDFE6661094C266881208000281810F044
:1056600085FD266010F0C2FD039870BC01B00047B4
:10567000680A02007CF90040ACF9004008F70040DD
:1056800000B581B00649074B0A003032FC2080018A
:1056900002F0F2FC0020C043019902B00847C04666
:1056A00068290200A956000070B5002848D011F002
:1056B00007FC11F059FC02F089FF0AF0B1F811F073
:1056C00065FA12F04BFB12F041FB002010F04EFD8A
:1056D0001D4C0025256107F041FB04F0D5FF04F0C7
:1056E00031FD1A48016804220A430260016802225F
:1056F00091430160016880229143016001681202B8
:105700000A430260012611F069FD25606560E560CD
:10571000A560E66105F018F811F0B8FB20680028D4
:10572000F1D00FF04DFF002802D011F057FDF8E73F
:105730000748310501604900016011F04FFDFCE7A9
:10574000039870BC01B0004780F9004044C11FE0DD
:105750003CC0FF3F00487047842B020000B581B079
:10576000084801B508A109A003B4094B094A0A4831
:1057700001680A4806F058FD04B00020C0430199B2
:1057800002B00847A1570000256600000000000095
:1057900000002041BD37863544FB0040B42B020099
:1057A00070B5104C00280FD00F4D002200210F487B
:1057B00015F0FCFD14F0D8FD286702002100B4317B
:1057C0002000A4300DF042FE094D2E68812080009B
:1057D000201810F0CBFC2E6010F008FD039870BC70
:1057E00001B00047680A0200D4FA0040ACF900405A
:1057F00008F7004050B581B00D4C0E4801B50EA120
:105800002000543003B40D4B1E000D4800680D49B4
:1058100016F022F8010033000022200006F004FDFB
:1058200004B00020C04301B0029950BC01B0084749
:10583000102C0200495800002566000000007A4440
:105840004CFB00400024744970B5124C002813D062
:10585000114D00220021114815F0A8FD0022104B27
:1058600015F0E6FB14F080FDA86702002100BC31B2
:105870002000A4300DF0EAFD0A4D2E688120800042
:10588000201810F073FC2E6010F0B0FC039870BC70
:1058900001B00047680A0200D4FA0040ACF90040A9
:1058A00080842E4108F7004010B50A4C0A4801B523
:1058B0000AA12000583003B4094B002209480168AE
:1058C000200006F0B1FC04B00020C043019910BCD8
:1058D00001B00847702C0200E9580000256600005E
:1058E0000000104148FB004070B5104C00280FD05C
:1058F0000F4D002200210F4815F058FD14F034FD23
:10590000686702002100C8312000A4300DF09EFD20
:10591000094D2E6881208000201810F027FC2E6091
:1059200010F064FC039870BC01B00047680A0200E4
:10593000D4FA0040ACF9004008F700400048704736
:10594000D82C020000487047182D0200004870470C
:10595000542D020010B50D490C0008340C48606746
:105960000C48A067C8200C4A0A50002307220C31BB
:105970000AA008F09FFD2060094810F0F7FB002006
:10598000C043019910BC01B00847C04610F8004060
:105990002D5A00008D5A0000A55900006C69620064
:1059A00098EE020070B51A4C002823D0194D1A4801
:1059B00010220168090141180C312800083015F047
:1059C000F9F908352A00EE20400021182000203087
:1059D0000AF092F900280DD00AF0BCF90F4988426C
:1059E00008D10F4B2200F4322100D431FC20800377
:1059F00002F042FB0B4D2E6881208000201810F031
:105A0000B5FB2E6010F0F2FB039870BC01B00047AC
:105A1000680A02000024004010F8004005400080A1
:105A2000295A000008F700407047000030B581B0E7
:105A300014A5154C6068C100081AA1684318072214
:105A400021000C31280008F035FDA0606068A168D5
:105A5000002902D0401C606008E0C1000B1A072238
:105A600021000C31280008F025FDA060A068012865
:105A700001DB012000E0002001B0029930BC01B040
:105A80000847C0466C69620010F8004030B581B02C
:105A9000144C6068002820D013A5C1000B1ADB1F2E
:105AA000072221000C31280008F004FDA060606886
:105AB000A168002902D0401E606008E0C1000B1AF6
:105AC000072221000C31280008F0F4FCA060A06837
:105AD000012801DB012000E0002001B0029930BC68
