:1000000018F09FE518F09FE518F09FE518F09FE5C0
:1000100018F09FE5586FA0B818F09FE518F09FE51D
:10002000048F000094490100D04901009C4C01005C
:10003000D84C0100FFFFFFFFCC4601002C4C010013
:10004000FFFFFFFFFFFFFFFFFFFFFFFFFFFFFFFFC0
:10005000FFFFFFFFFFFFFFFFFFFFFFFFFFFFFFFFB0
:10006000FFFFFFFFFFFFFFFFFFFFFFFFFFFFFFFFA0
:10007000FFFFFFFFFFFFFFFFFFFFFFFFFFFFFFFF90
:10008000034834490968002900D124307047C0462C
:1000900004DB01000048704750DB01000048704756
:1000A00068DB010003482B490968002900D114309E
:1000B0007047C04680DB010000487047A4DB0100A8
:1000C00002480021016041607047000070FD00405F
:1000D00000B581B0FA20800016F06AF915F0E2FE52
:1000E0000120019902B0084700B581B015F002FF68
:1000F0000120019902B0084700B581B0034815F00E
:1001000091FE0120019902B00847C046C8F60100DF
:1001100000B581B0044800210160044815F082FE5A
:100120000120019902B00847E0F7004050030200A7
:1001300000B581B007480068002802D008F028FA0E
:1001400001E008F055FA15F0ADFE0120019902B06A
:1001500008470000CCC1004000B581B0034816F04C
:100160006FF90120019902B00847C04624DD010063
:100170000120704700B581B000F05CF801200199C2
:1001800002B00847012070470120704700207047E7
:1001900070B5FC26B601300009F03CFC1023F022BB
:1001A0003521002009F014FB0021002009F0E0FBBC
:1001B000002009F0D1FB0121012009F0D3FB002030
:1001C00009F0C4FB194809F0FDFA764809F0D6FB9E
:1001D0000A2009F027FB164D280009F03BF880247F
:1001E000A4012300EF22672100200BF0B3FA3000B6
:1001F00009F010FC1023F0226921002009F0E8FA30
:100200000021002009F0B4FBFA2009F00BFB28358F
:10021000280009F01FF82300EF229B2100200BF09B
:1002200099FA039870BC01B00047C0460200010073
:10023000B8DB010010B5FFF7ABFF00F05FF800F08E
:10024000B3F8164809F0E6FB002009F085FB012110
:10025000012009F087FB002009F078FB264809F00F
:10026000B1FA0A4809F08AFB09A4200009F030F825
:10027000200009F02DF8074808F0ECFF064809F0C7
:1002800027F8019810BC01B00047C046943902001D
:100290000D00000010DC01004CCE0040003F3F008C
:1002A00000B581B0024815F0BDFD019802B00047CD
:1002B000E0DC010000B581B00E49802040020A68F0
:1002C000824200D1401C086004480A6801002031C5
:1002D00012F0EAFE0020019902B0084748DC010054
:1002E000034804490968044A914200D030307047FD
:1002F0007CDC010048CE00400100010030B585B033
:10030000224809F087FB2023F0224621002009F033
:100310005FFA0021002009F02BFB002009F01CFBF4
:100320000121012009F01EFB002009F00FFB8020B5
:10033000400209F047FA164809F020FB15A1802574
:10034000ED00154C2068A84201D2226801E0206827
:10035000820A684619F01CFEFA2009F063FA684622
:1003600008F0B6FF1021BE2009F002FB0D4809F08D
:1003700005FB2068A84201D208A000E008A008F010
:10038000A7FF05B0029830BC01B00047003F3F0016
:10039000BC5B02002575000070FD0040204200009B
:1003A000206B42006C47020030B585B0224809F04E
:1003B00031FB2023F0227A21002009F009FA0021E4
:1003C000002009F0D5FA002009F0C6FA0121012029
:1003D00009F0C8FA002009F0B9FA8020400209F0BB
:1003E000F1F9164809F0CAFA15A18025ED00154C5F
:1003F0006068A84201D2626801E06068820A6846CB
:1004000019F0C6FDC82009F00DFA684608F060FF33
:100410001021BE2009F0ACFA0B4809F0AFFA606871
:10042000A84201D209A000E009A008F051FF05B0E0
:10043000029830BC01B00047003F3F00BC5B0200A7
:100440002575000070FD00406C470200204200004E
:10045000206B420003487D490968002900D1203003
:100460007047C046C8DD0100004870470CDE01003F
:100470000048704724DE0100002074490968002903
:1004800001D10B48704772490968002906D002293A
:1004900008D005D3042909D006D370470548704712
:1004A000054870470548704705487047054870473C
:1004B0003CDE01004CDE010064DE01007CDE010058
:1004C00094DE0100ACDE010000487047C8DE010088
:1004D0005F4800210160704700B581B0FA208000BC
:1004E00015F066FF15F0DEFC0120019902B0084707
:1004F00000B581B015F0FEFC0120019902B008475B
:1005000000B581B0034815F08DFC0120019902B0BF
:100510000847C046C8F6010000B581B0FFF7C0FE2D
:100520000120019902B0084700B581B04748006832
:10053000002802D10FF06AF907E045480168491C1C
:100540000160052901DB0021016015F0ABFC0120F1
:10055000019902B00847000000B581B0034815F0CA
:100560006FFF0120019902B00847C046C4E20100B4
:100570000120704700B581B000F00AF80120019910
:1005800002B00847012070470120704700207047E3
:1005900000B581B0274809F03DFA6E23F0223521DD
:1005A000002009F015F90021002009F0E1F90221ED
:1005B000012009F0D7F9002009F0CEF9002009F058
:1005C000C5F9214809F0FEF81B4809F0D7F90120C8
:1005D0000AF0C2FA09F048F91C48184941580029A4
:1005E00001D017481DE00068002819D0184800689D
:1005F000002806D002280AD006D304280DD009D33B
:1006000011E000F027F80EE000F028F90BE000F010
:100610002FFA08E000F0CAFA05E000F00DFB02E056
:10062000084808F017FE00200AF096FA019802B078
:100630000047C046003F3F006C4702009C0400009A
:10064000DCDE010020DF01000100010014E50040B4
:1006500080FD0040F0B591B0704808F0FBFD704897
:100660001AF0ACF804000D004E270022002319F008
:10067000A9FC03D253278020000645402000290012
:1006800019F016FD06001AF037F802000B002000E2
:10069000290019F03DFE02000B000020614919F00D
:1006A00039FD19F0ADFC050019F060FF040000A849
:1006B000801C07700021417000A8801C01B520003B
:1006C0001AF048F80100280019F07EFF19F01AFF0F
:1006D0000022544B19F01EFD19F092FC19F012FF84
:1006E00003B423003200504905A819F051FC04B0AE
:1006F00001AA4E4906A819F04BFC06A808F0E8FD2F
:100700004B481AF05BF804000D0045270022002337
:1007100019F058FC03D257278020000645402000DE
:10072000290019F0C5FC060019F0E6FF02000B00D5
:100730002000290019F0ECFD02000B0000203949CF
:1007400019F0E8FC19F05CFC050019F00FFF04003B
:10075000684607700021417001B5200019F0FAFFCA
:100760000100280019F030FF19F0CCFE00222D4BBB
:1007700019F0D0FC19F044FC19F0C4FE03B42300B6
:100780003200294905A819F003FC04B001AA29493F
:1007900006A819F0FDFB06A808F09AFD264C206873
:1007A00019F0B0FE02000B00244906A819F0F0FB76
:1007B00006A808F08DFD606819F0A4FE02000B0089
:1007C0001F4906A819F0E4FB06A808F081FDA068FF
:1007D00019F098FE02000B001A4906A819F0D8FB80
:1007E00006A808F075FD18480278184906A819F0FF
:1007F000CFFB06A808F06CFD154C2078002805D02A
:10080000144808F065FD0020207002E012A008F0F6
:100810005FFD11B00498F0BC01B0004758DF010043
:100820004CF1004000004E4048DF010090DF010025
:1008300054F1004098DF01005CF10040A0DF0100AE
:10084000ACDF0100B8DF010009EF0040C4DF0100A8
:1008500074E90040D0DF01000D000000F0B591B058
:10086000774808F035FD774C8A20400020188178C1
:1008700002B543780278744904A819F089FB02B0E4
:1008800002A808F025FD8C2040002018009030C8F8
:100890004E27200029000022002319F093FB03D2E9
:1008A00053278020000645402000290019F000FC55
:1008B000060019F021FF02000B002000290019F0AA
:1008C00027FD02000B000020604919F023FC19F0FD
:1008D00097FB050019F04AFE040001A8801C077070
:1008E0000021417001A8801C01B5200019F032FFE1
:1008F0000100280019F068FE19F004FE0022534B95
:1009000019F008FC19F07CFB19F0FCFD03B423007E
:1009100032004F4910A819F03BFB04B00CAA4D4916
:1009200002A819F035FB02A808F0D2FC00980830A4
:1009300030C84527200029000022002319F042FB7F
:1009400003D257278020000645402000290019F0D7
:10095000AFFB060019F0D0FE02000B0020002900BA
:1009600019F0D6FC02000B000020384919F0D2FB28
:1009700019F046FB050019F0F9FD040001A8077005
:100980000021417001B5200019F0E4FE01002800AB
:1009900019F01AFE19F0B6FD00222C4B19F0BAFB23
:1009A00019F02EFB19F0AEFD03B4230032002849E4
:1009B00010A819F0EDFA04B00CAA274902A819F002
:1009C000E7FA02A808F084FC0098027C234902A8F8
:1009D00019F0DEFA02A808F07BFC0098427C20495E
:1009E00002A819F0D5FA02A808F072FC0098183095
:1009F00003C819F005FB19F085FD02000B00194929
:100A000002A819F0C5FA02A808F062FC009820308C
:100A10000CC8154902A819F0BBFA02A808F058FC46
:100A2000009838300CC8114902A819F0B1FA02A890
:100A300008F04EFC11B00498F0BC01B00047C0466D
:100A4000E0DF0100E0ED0040E8DF010000004E4083
:100A500048DF010090DF010098DF010000E00100A5
:100A600010E0010024E00100A0DF010030E00100FF
:100A700070B58CB04B4C2000FC3008F029FC4A4E7D
:100A800068468A214900715C0170002141706A4604
:100A900082204000211801A819F07AFA01A808F074
:100AA00017FCFF205A30325C4938211801A819F090
:100AB0006FFA01A808F00CFCC4204000351803CDE3
:100AC000083D19F09DFA19F01DFD02000B008E2063
:100AD0004000211801A819F05BFA01A808F0F8FB02
:100AE0002800083003C819F08BFA19F00BFD02003A
:100AF0000B002100DC3101A819F04AFA01A808F026
:100B0000E7FB103503CD19F07BFA19F0FBFC02006E
:100B10000B0094204000211801A819F039FA01A80F
:100B200008F0D6FB9A204000201808F0D1FBA42042
:100B30004000251812303418A08801B56388228837
:100B4000290003A819F024FA02B001A808F0C0FB9C
:100B5000608901B52389E288290003A819F018FAF1
:100B600002B001A808F0B4FB208A01B5E389A2898C
:100B7000290003A819F00CFA02B001A808F0A8FB9C
:100B8000E08A01B5A38A628A290003A819F000FA55
:100B900002B001A808F09CFB0CB0039870BC01B037
:100BA0000047C04648DF0100E0ED0040F0B58BB0E3
:100BB0000121012008F0D6FE1C4DD32040002E1844
:100BC0001B4F32883900684619F0E2F9684608F090
:100BD0007FFB00243088012814DBD4204000281833
:100BE000418802B5436802883900103102A819F023
:100BF000CFF902B0684608F06BFB641C0C353088F6
:100C00008442EADB0B4869462CC82CC10CC80CC1D5
:100C10000C2C05DA684608F05BFB641C0C2CF9DB35
:100C20000BB00498F0BC01B00047C046E0ED0040B6
:100C3000F8E0010020E10100F0B593B07A4808F037
:100C400047FB7A4CC820800020180090807801B5BE
:100C5000029843780278764906A819F099F902B00B
:100C600004A808F035FBD2208000201802900078FC
:100C700001B50498437842886E4906A819F088F9AE
:100C800002B004A808F024FB0098083030C84E27B2
:100C9000200029000022002319F094F903D25327E1
:100CA0008020000645402000290019F001FA0600C6
:100CB00019F022FD02000B002000290019F028FB8A
:100CC00002000B0000205C4919F024FA19F098F991
:100CD000050019F04BFC040001A8801C07700021DE
:100CE000417001A8801C01B5200019F033FD0100FE
:100CF000280019F069FC19F005FC00224E4B19F090
:100D000009FA19F07DF919F0FDFB03B42300320054
:100D10004A4912A819F03CF904B00EAA484904A89F
:100D200019F036F904A808F0D3FA0098103030C84A
:100D30004527200029000022002319F043F903D29F
:100D400057278020000645402000290019F0B0F9FF
:100D5000060019F0D1FC02000B002000290019F058
:100D6000D7FA02000B000020334919F0D3F919F02B
:100D700047F9050019F0FAFB040001A807700021EB
:100D8000417001B5200019F0E5FC0100280019F0C0
:100D90001BFC19F0B7FB0022274B19F0BBF919F027
:100DA0002FF919F0AFFB03B423003200234912A836
:100DB00019F0EEF804B00EAA224904A819F0E8F8D8
:100DC00004A808F085FA009818300CC81E4904A839
:100DD00019F0DEF804A808F07BFA009820300CC85F
:100DE0001A4904A819F0D4F804A808F071FA029876
:100DF00008300CC8164904A819F0CAF804A808F06D
:100E000067FA03A80099C97801700021417003AA0C
:100E1000104904A819F0BCF804A808F059FA13B056
:100E20000498F0BC01B000479CE00100E0ED0040F8
:100E3000E8DF0100A4E0010000004E4048DF0100AF
:100E400090DF010098DF0100B8E00100CCE0010074
:100E5000DCE00100E8E0010000B581B0024814F0D8
:100E6000E1FF019802B0004768E3010000B581B0DE
:100E70000EF0D2FD0120019902B0084700B581B003
:100E80000EF0AEFD0120019902B0084700B581B017
:100E90000EF08AFD0120019902B0084700B581B02B
:100EA0000EF066FD0120019902B00847064801686E
:100EB0000648074A914205D0521C914201D1303078
:100EC000704764307047C04620E5004034E10100BF
:100ED0000100010002480068002800D00148704766
:100EE00014E50040C8E1010002480068002800D075
:100EF0000148704714E50040F8E10100024800682D
:100F0000002800D00148704714E5004028E20100A5
:100F100002480068002800D00148704714E50040EE
:100F200058E2010000B581B00A49C8680A4A531E58
:100F3000984204D0904201D1921E00E01A00CA608B
:100F4000064801000C3112F0AFF80020019902B000
:100F50000847C04614E500400200010084E2010099
:100F600002480068002800D00148704714E500409E
:100F70009CE2010000B581B00EF034FC0120019923
:100F800002B0084700487047ACE3010000487047D2
:100F9000C0E3010000487047DCE3010000487047EF
:100FA000F0E3010000A070470000000000B581B030
:100FB00097218900B54819F021FC019802B000473B
:100FC00000B581B097218900B04819F017FC14F0E2
:100FD00069FF0120019902B0084701207047000015
:100FE00000B581B0034814F01DFF0120019902B043
:100FF0000847C046FC2B020010B5EA23F022352139
:10100000002008F0E5FB0021002008F0B1FC0120E1
:1010100008F0A2FC0121012008F0A4FC994808F086
:10102000D1FB994808F0AAFC984C201D08F0F8F96B
:1010300021680A000D32824201DA491C216014F055
:1010400059FF0120019910BC01B0084700B581B0DB
:101050008E480168002901D0491E016014F04AFF42
:101060000120019902B00847012070470120704714
:1010700000B581B000F00AF80120019902B00847DC
:10108000012070470120704701207047F0B581B002
:101090006F4808F0BFFCEA23F0223521002008F059
:1010A00097FB0021002008F063FC012008F054FCAD
:1010B0000121012008F056FC724808F083FB7248B9
:1010C00008F05CFC012009F047FD08F0CDFB6F4CF7
:1010D00096218900201D19F091FB5E4F380008F021
:1010E000A4F805005C4E201D19F08EFB321A012A6F
:1010F00003DB2900201D19F0B3FB584800680028C5
:101100000ED03800643008F090F80500201D19F06A
:101110007BFB321A012A03DB2900201D19F0A0FBFA
:101120004F48006800280FD0C6204000381808F04B
:101130007CF80500201D19F067FB321A012A03DB39
:101140002900201D19F08CFB4648006800280FD0AC
:10115000B0208000381808F068F80500201D19F04C
:1011600053FB321A012A03DB2900201D19F078FBFA
:101170003D48006800280FD0F1208000381808F0A2
:1011800054F80500201D19F03FFB321A012A03DB39
:101190002900201D19F064FB3448006800280ED097
:1011A0003348381808F041F80500201D19F02CFBD1
:1011B000321A012A03DB2900201D19F051FB2D48AA
:1011C000006800280FD0C120C000381808F02DF8A2
:1011D0000500201D19F018FB321A012A03DB290033
:1011E000201D19F03DFB2448006800280FD0E620A0
:1011F000C000381808F019F80500201D19F004FB8C
:10120000321A012A03DB2900201D19F029FB1B4893
:10121000006800280ED01A48381808F006F80500B3
:10122000201D19F0F1FA321A012A03DB2900201DD2
:1012300019F016FB2168201D08F0C6F909F092FC90
:10124000002009F089FC01B00498F0BC01B000470F
:10125000003F3F0004E401005702000044FC00404E
:1012600028FC004038FC00403CFC004030FC0040C2
:101270008404000034FC00402CFC004040FC004092
:101280001408000001000100A4D60200ACF40040E4
:1012900008B4024B9C4608BC6047C0467C8F0000E7
:1012A00008B4024B9C4608BC6047C046B8A8010081
:1012B0000048704774ED01000148704700487047CE
:1012C00088ED010000487047A0ED0100004870471C
:1012D000B4ED01000120704700B581B0B548002190
:1012E0000160C9434160816064210C3019F086FAC5
:1012F000019802B0004710B5AE4C00202060C043FA
:101300006060A060642120000C3019F077FA14F0BE
:10131000C9FDA06860600120019910BC01B00847B8
:1013200000B581B0074814F07DFD0120019902B09D
:10133000084700B581B0034814F074FD01200199FD
:1013400002B00847C8F6010010B59A4C2068401C4E
:10135000206014F099FD14F0CDFDA06860600120BC
:10136000019910BC01B0084710B5924C00202060D4
:10137000C043606014F088FD14F0BCFDA06860609C
:101380000120019910BC01B008470120704700B549
:1013900081B000F00BF80120019902B0084701204C
:1013A000704701207047012070470000F0B585B0FC
:1013B0000021002008F0DCFA012008F0CDFA03211A
:1013C000012008F0CFFA002008F0C0FA8020400287
:1013D00008F0F8F93B4808F0D1FAE923F02235216A
:1013E000002008F0F5F9384F380008F013FB714C75
:1013F000206F002860D001A80021002200230EC029
:1014000060680090C943884208D1206F0CF038FD15
:10141000401E009002D5002000904BE0009800286C
:1014200048D0642322000C326946206F11F034F852
:101430005049884240D0002838D020000C30217B11
:1014400030292ED33A292CD2202120000C3019F03B
:101450008BFA050023D020000C302E1A3200210018
:101460000C3101A819F0DAFA002816D001A80021E1
:10147000002200230EC0320021000C3101A819F017
:10148000E5FA124808F0C6FA01A807F021FF10A0FB
:1014900007F01EFF380008F0BDFA681C01E02000CC
:1014A0000C3007F015FF0AA007F012FF094800688A
:1014B000BE28B3DB0098A06005B00498F0BC01B072
:1014C0000047C04694390200003F3F0000203F0023
:1014D0000D00000024DB004000B581B007F0A5FE40
:1014E00000F004F8019902B00847000030B5C1B01F
:1014F0000500304C206F002830D00CF0C1FC00906B
:1015000001A807F0DFFB18A101A819F03FFA4A2251
:10151000290001A819F0A4F914A101A819F036FABC
:1015200001A819F071F9652809D311490B003C3362
:10153000F1220D00143108002900FFF7A9FE01A8CF
:1015400019F062F9030001AA6946206F0CF022FF2E
:101550000849884201D0012000E0002041B00299F2
:1015600030BC01B00847C046090000000D00000073
:10157000D0ED01000540008030B581B00CA52900F8
:1015800028000CF01BF90B4C2067002805D1012224
:10159000290028000CF0EEF92067206F401E8041E2
:1015A000C043C00F01B0029930BC01B00847C0462B
:1015B0006C6F67005CFB004030B593B00500124CC7
:1015C000200007F032FE010005A819F0EFF928000D
:1015D00018F098FF02000B002C342100684618F028
:1015E000D7FC694605A819F0D1F902F057FA0100B5
:1015F00005A819F0CBF905A8FFF778FF13B00299F9
:1016000030BC01B00847C0462CEE010070B598B060
:1016100038480168002902D04068002801D1002024
:1016200063E0354E0622310005A8FFF739FE334D41
:10163000DB208000281819F0C1F8314C18F0E0FCCC
:1016400018F060FF02000B002100684618F0A0FCB3
:10165000694605A819F09AF9DD208000281819F0CC
:10166000ADF818F0CDFC18F04DFF02000B00210082
:101670000831684618F08CFC694605A819F086F90F
:10168000DF208000285818F03DFF02000B002100E9
:101690001031684618F07CFC694605A819F076F907
:1016A00005A8FFF723FF0622310005A8FFF7F8FD84
:1016B000C820400028180CC821001831684618F0CE
:1016C00067FC694605A819F061F9FF202A302A5CF9
:1016D00024342100684618F05BFC694605A819F01F
:1016E00055F905A8FFF702FF012018B0039970BC57
:1016F00001B0084714E5004060EE0100E0ED004055
:1017000068EE010003480F490968002900D1203024
:101710007047C046D8EE01000048704708EF01004E
:101720000048704720EF010006484168002902D0B8
:101730000068002801D10248704700207047C04669
:1017400030EF010034E400400020704710B5A74896
:10175000010080310A681E2A0CDB00224A60030067
:101760001E245A601B1D641EFBD1C2670A60026002
:1017700000F032F801F090FD019910BC01B008476B
:1017800010B501F0A9FA99480100803100224A60A1
:1017900003001E245A601B1D641EFBD1C2670A6031
:1017A0000260019810BC01B0004710B501F0EEFADC
:1017B0008E480100803100224A6003001E245A60D6
:1017C0001B1D641EFBD1C2670A60026001200199E3
:1017D00010BC01B00847000030B583B00F4C0122A7
:1017E0000FA110A00CF0C6F82060002810D0002532
:1017F00001950D48009004236A4601A920680CF069
:10180000C9FD7B49884203D120680CF023F825608C
:1018100003B0029830BC01B00047C046D0FA004087
:10182000746D70006D637300EEEEEEEEF0B589B08E
:1018300012F006FE3C4DE869296A002911D0002803
:101840002CD0A868394919F051F927D212F04CFA76
:10185000092823DB12F092FE12F084FE01F066FCF0
:101860001CE000281AD1614CE66F701CE067A86A82
:10187000002802D080273F0600E00027286819F0E2
:101880004DF90743B00020184760E06F1E2801D1D2
:1018900000F058F880342168491C2160534C2068BE
:1018A000002836D0224812F085FA002831D0E06FA7
:1018B00001282EDB0026266001F090FB002828D0AE
:1018C00000F040F8002824D0684607F06DFA0200C6
:1018D000184904A818F05CFB17A304AA17A1180064
:1018E0000CF0FEF820008030466021001E224E6081
:1018F000091D521EFBD1E66706602660FFF786FED3
:10190000002803D001F0FAFFFFF756FE0C4815F04F
:1019100091FE0020A86214F0EDFA012009B00499AC
:10192000F0BC01B00847C04618E400400100E040A8
:1019300024BB004048EF01006D637300746D7000BC
:1019400040250300F0B593B0284E34007C34A068E5
:10195000002801D1FFF740FFA068002801D12060D6
:1019600034E00CF08DFA00900020C043019001A8F3
:1019700002A902680A6002AF07221949381DFFF761
:101980008FFC1E22174938000B3018F081FF164DCE
:10199000102229002937380018F07AFF392302AACB
:1019A0006946A0680CF0F6FC012806DB206883007D
:1019B000321D6946A0680CF0EDFC002100220023D6
:1019C00000264EC521600A49884207D104F020FA5A
:1019D000002013B00499F0BC01B008470120F8E7DB
:1019E000FCFC00404CF10040D8E400404CFA0040C0
:1019F0000540008000B581B0034814F013FA0120BF
:101A0000019902B00847C046C8F6010000B581B090
:101A1000FFF722FA0120019902B0084700B581B012
:101A200012F0FCFC12F01EFD0348012101600120B0
:101A3000019902B00847C0464CFA004010B50A4868
:101A40000100803100224A6003001E245A601B1DE1
:101A5000641EFBD1C2670A60026001F067FB019956
:101A600010BC01B00847C0464CFA0040004870471F
:101A700094EF0100034870470248704701487047DF
:101A800000487047B8EF010000B581B066480521F5
:101A90000160FA20800014F08BFC14F003FA01209E
:101AA000019902B0084710B514F024FA5E4C206882
:101AB000401E20600DD16068002807D15B480300FC
:101AC0004033582201001430FFF7E2FB606800F059
:101AD000AFF80120019910BC01B0084710B5524C75
:101AE0006068002808D1514803004033612201009A
:101AF00064311430FFF7CCFB606800F099F80120E6
:101B0000019910BC01B0084710B5474C6068002827
:101B100008D1464803004033672201007831143071
:101B2000FFF7B6FB606800F083F80120019910BC54
:101B300001B0084710B53C4C6068002808D13B480C
:101B4000030040336D2201008C311430FFF7A0FBFD
:101B5000606800F06DF80120019910BC01B00847E1
:101B600010B5314C6068002808D13048030040337C
:101B700073220100A0311430FFF78AFB606800F087
:101B800057F80120019910BC01B0084701207047A7
:101B900000B581B000F00CF80120019902B00847AF
:101BA00001207047012070470120704700000000AD
:101BB00010B5EA23F0223521002007F009FE0021AC
:101BC000002007F0D5FE012007F0C6FE002101200D
:101BD00007F0C8FE124807F0F5FD124807F0CEFEE8
:101BE000012008F0B9FF07F03FFE0F4CA068002865
:101BF00008D10E48030040339E220100B431143056
:101C0000FFF746FBE068A16800F013F808F0AAFFB0
:101C1000002008F0A1FF019810BC01B00047C046A9
:101C2000020001006C4702003CFD0040D0EF0100C3
:101C30000047084730B581B0C04C862040002018CE
:101C4000012101700025456000F0B8F9DB2080001B
:101C500022180020002119F0D5F9DD20800022187B
:101C60000020002119F0CEF9DF2080002018056047
:101C700045608560858101B0029830BC01B00047A5
:101C8000F1B582B00F00AD4C8620400001212154F7
:101C9000002626710025002F06D00298405D00F036
:101CA00057F86D1CBD42F8D3E220800025182E7035
:101CB000FF205A3020180090007800283CD08C205B
:101CC00040002718DB208000221803CF083F19F0BE
:101CD00099F9DD20800022183800083003C819F077
:101CE00091F92E7800980078022800D3761C0328FA
:101CF00008D1761C203703CF18F082F9CE21890055
:101D0000611848642E700F48205C562814D028783B
:101D1000801C2870CE20800024180CCC083C0A4877
:101D20000A4918F0F7F918F06BF9A06420000830A0
:101D300003C818F065F9E06403B00498F0BC01B082
:101D40000047C046230300006F1283C0CAA1FD3FB5
:101D500070B57A4C862149006518297801290AD086
:101D600000D2E8E003292DD00DD3052900D195E05C
:101D700000D28AE0DFE0242800D082E00021217038
:101D8000618002207CE02C2810D02A280ED06288A6
:101D9000082A74D2A11808716188491C61802278D0
:101DA000504020700904090C082967E06288082A5D
:101DB00065D20021A21811712278504020706180F4
:101DC00003205DE06288802149002A2806D18A42EA
:101DD00055D2A01800210173042051E08A424ED24E
:101DE000A2180D2840D100201073554E310020312B
:101DF000201D19F023FA002804D10C34200000F033
:101E000073F92DE031001831201D19F017FA002860
:101E100004D10C34200000F097FA21E03100103199
:101E2000201D19F00BFA002804D10C34200000F01A
:101E3000BFFB15E031000831201D19F0FFF9002823
:101E400004D10C34200000F0FFFA09E03100201D1D
:101E500019F0F4F9002803D10C34200000F0E2FC62
:101E60006868401C68600AE0237843402370107360
:101E70006088401C60800004000C884201D301206F
:101E80002870039870BC01B00047010030390A295E
:101E900000DB3738000160700520F1E7617802004F
:101EA000303A0A2A01DA303800E0373808436070E7
:101EB000207861788842E2D1214E31002031201D06
:101EC00019F0BCF9002804D10C34200000F00CF902
:101ED0002DE031001831201D19F0B0F9002804D18F
:101EE0000C34200000F030FA21E031001031201DC8
:101EF00019F0A4F9002804D10C34200000F058FB9C
:101F000015E031000831201D19F098F9002804D19E
:101F10000C34200000F098FA09E03100201D19F07F
:101F20008DF9002803D10C34200000F07BFC686898
:101F3000401C6860A3E701202870A2E7E0ED0040A4
:101F4000E4F00100F0B481B004B4002817D00029F7
:101F500015D0012B00DA12E0002400250026020033
:101F6000009FBE420FD01778002F0CD02C2F00D12D
:101F7000761C6D1C521C1778002FF1D10C700020BC
:101F800002B0F0BC7047465D2C2EF7D02A2EF5D05B
:101F900000200D0016782C2E0AD02A2E08D0002EF4
:101FA00006D02E70401C6D1C521C9842F2DB581E4D
:101FB0000C54012002B0F0BC70470000F0B482B0B5
:101FC00041480022002101808170404B002003C362
:101FD000083B1C00083403C41A821C00183403C4D4
:101FE0001C00203403C49A62DA621C00303403C43B
:101FF000383303C34D241C7001245C70344C0094AE
:1020000014240026AD277F00009DEE53009DAD1CDB
:102010000095641EF8D11C00303403C41C00383411
:1020200003C4186459649A642A4B1A705A80284B66
:102030001424D4256D005D192E816E812E806E8052
:102040006A600C33641EF4D1234C22605623237142
:102050002500083503C53F25257462741F4C227086
:102060001F4C03C4083C2500083503C52500103566
:1020700003C52500183503C5203403C423706260EE
:102080002281A272E3722300103303C323001833AA
:1020900003C32300203303C3283403C4114B01249A
:1020A0001C705C70FA24E4005C801D00083503C5D8
:1020B0001A61988298750120D87518765C839A8386
:1020C0001A6202B0F0BC7047F4EE0040F8EE004037
:1020D000E0ED004084EF004078F00040A9F00040BF
:1020E000D0F0004028F10040F1B58CB01923002257
:1020F0006946FFF727FF002827D007AC6D462878F0
:102100002070687860700026A6708D4F8A2040008D
:102110003F180A22002107A818F0F8FF3870A878A5
:102120002070E8786070A6700A22002107A818F0D5
:10213000EDFF78702879207068796070A6700A22A7
:10214000002107A818F0E2FFB870192301226946A0
:102150000C98FFF7F7FE00281BD0794F8C20400029
:102160003E186D4600220021A81C18F06BFF0022CB
:10217000744B18F0A9FD03C6083E0020A870002289
:102180000021684618F05EFF0CCE083E18F0FAFCFD
:1021900003C61923022269460C98FFF7D3FE0028D4
:1021A0000DD068460078532809D1654F8C20400037
:1021B0003E1803CE083E80221206514003C6192362
:1021C000032269460C98FFF7BDFE002820D05C4F23
:1021D0008C2040003E186D4600220021E81C18F0BB
:1021E00031FF0022574B18F06FFD3200083203C256
:1021F0000020E87000220021684618F023FF02004A
:102200000B003000083003C818F0BCFC083603C6C9
:102210001923042269460C98FFF794FE00280FD07A
:102220006846007857280BD1454F8C2040003E1857
:1022300032000832083603CE80231B06594003C201
:102240003F4F8C2040003E181923052269460C9808
:10225000FFF778FE002803D06846007830383074E5
:102260001923062269460C98FFF76CFE00280DD052
:1022700007AC6D4628782070687860700020A070E8
:102280000A22002107A818F041FF707419230722C1
:1022900069460C98FFF756FE002807D0002200215F
:1022A000684618F0CFFE3200183203C21923082204
:1022B00069460C98FFF746FE002807D0002200214F
:1022C000684618F0BFFE3200203203C28A20400068
:1022D0003F1878780101081A8000B9784418F06A2C
:1022E000A0421EDA001B18F007FA0022154B18F066
:1022F000EBFC0AAA03C20AA80CC80020002118F0AF
:1023000029FC0ED03000303003C8320020320CCA15
:1023100017F0FEFF0AAA0CCA18F0D6FC32003832B9
:1023200003C2320030323000203003C803C2F462EE
:10233000B06A401CB0620DB00498F0BC01B0004718
:10234000E0ED004000004E40F0B58BB007001923CF
:1023500000226946FFF7F6FD002803D03848694699
:10236000097801701923012269463800FFF7EAFD58
:10237000002804D032486946097830394170002479
:10238000304EAD20400035181923A21C6946380094
:10239000FFF7D8FD00280CD0684669460978017718
:1023A00007A8694649784170002181700A2218F017
:1023B000ADFE2880641CB61C0C2CE2DB204C1923DB
:1023C0000E2269463800FFF7BDFD002807D0002225
:1023D0000021684618F036FE2200303202E022006A
:1023E0003032002103C219230F2269463800FFF75B
:1023F000A9FD002807D000220021684618F022FE1F
:102400002200383202E022003832002103C21923B0
:10241000102269463800FFF795FD002805D00022FC
:102420000021684618F00EFE00E00021206461647F
:10243000A06C401CA0640BB00498F0BC01B0004735
:1024400038EF0040E0ED0040F1B588B019230022DC
:1024500001A9FFF777FD002800D19EE00A220021A4
:1024600001A818F053FE0A2800DB96E0002800D5EA
:1024700093E0012800DA90E08000142800DB8CE073
:102480001923012201A90898FFF75CFD002800D15B
:1024900083E00A22002101A818F038FE05000A2D69
:1024A0007BDA012D79DB1923022201A90898FFF7B5
:1024B00049FD002806D00A22002101A818F026FEB6
:1024C000384908800324A8004100081880003649D4
:1024D0000818009004260027BC20400000990D1821
:1024E0001923220001A90898FFF72CFD002806D027
:1024F0000A22002101A818F009FE288000E02F80A0
:102500001923621C01A90898FFF71CFD002806D0BA
:102510000A22002101A818F0F9FD688100E06F810E
:102520001923A21C01A90898FFF70CFD002806D06A
:102530000A22002101A818F0E9FD288100E02F817E
:102540001923E21C01A90898FFF7FCFC002806D01B
:102550000A22002101A818F0D9FD688000E06F80F0
:102560002888002801D100200CE000210E4A03E059
:10257000491C921C0C29F6DAAD235B00D35A984211
:10258000F6D10120686000980C300090241D761E62
:10259000A2D106480168491C016009B00498F0BC4A
:1025A00001B0004786EF0040E0ED004078F00040C9
:1025B000F1B58AB0192300226946FFF7C3FC002851
:1025C00024D06D4607AC28782070687860700027AA
:1025D000A770924E0A22002107A818F097FD3070CC
:1025E000A8782070E8786070A7700A22002107A8F8
:1025F00018F08CFD70702879207068796070A77071
:102600000A22002107A818F081FDB07019230122C9
:1026100069460A98FFF796FC002802D068460078C1
:1026200000E056207D4EF0701923022269460A9878
:10263000FFF788FC00281BD06D4600220021A81C53
:1026400018F000FD0022764B18F03EFB32000832F5
:1026500003C20020A87000220021684618F0F2FC96
:10266000320008320CCA18F08DFA3200083203C268
:102670001923032269460A98FFF764FC00280CD04E
:1026800068460078532808D13200083230000830FC
:1026900003C880231B06594003C21923042269463C
:1026A0000A98FFF74FFC00281DD06D46002200213C
:1026B000E81C18F0C7FC0022594B18F005FB32004B
:1026C000103203C20020E87000220021684618F092
:1026D000B9FC02000B003000103003C818F052FAA9
:1026E0003200103203C21923052269460A98FFF707
:1026F00029FC00280CD068460078572808D1320001
:1027000010323000103003C880231B06594003C22A
:102710001923062269460A98FFF714FC002805D001
:1027200000220021684618F08DFC02E000215622AC
:10273000F2703200183203C21923072269460A9840
:10274000FFF700FC002805D000220021684618F0A1
:1027500079FC02E000215622F270203603C61923CC
:10276000082269460A98FFF7EDFB002826D06D463F
:1027700007AC28782070687860700027A7700A225C
:10278000002107A818F0C2FC3070A8782070E87803
:102790006070A7700A22002107A818F0B7FC7070BB
:1027A0002879207068796070A7700A22002107A834
:1027B00018F0ACFCFA21C9004018708019230922D6
:1027C00069460A98FFF7BEFB002805D000220021C9
:1027D000684618F037FC00E000213200083203C2DE
:1027E00019230A2269460A98FFF7ACFB00280CD08F
:1027F00068460078572808D1320008323000083087
:1028000003C880231B06594003C23069401C306155
:102810000BB00498F0BC01B00047C04600F1004086
:1028200000004E40F0B58BB0070019230022694626
:10283000FFF788FB002826D06E4607AC3078207062
:10284000707860700020A070394D0A22002107A81E
:1028500018F05CFC2870B0782070F0786070002070
:10286000A0700A22002107A818F050FC6870307987
:102870002070707960700020A0700A22002107A8E3
:1028800018F044FCA8701923012269463800FFF7AC
:1028900059FB002805D00A220021684618F036FCB2
:1028A00000E00120224DE870192302226946380019
:1028B000FFF748FB002805D00A220021684618F0DF
:1028C00025FC00E001202871192303226946380005
:1028D000FFF738FB002805D00A220021684618F0CF
:1028E00015FC00E00120E880192304226946380025
:1028F000FFF728FB002804D00A220021684618F0C0
:1029000005FC28721923052269463800FFF71AFBD7
:10291000002804D00A220021684618F0F7FB6872EC
:10292000E868401CE8600BB00498F0BC01B00047B8
:102930003CF10040F0B587B0CD4E9320C000301878
:102940000168002901D0424803E04068002805D012
:10295000404807B00499F0BC01B00847F720800058
:1029600030180168002901D03B48F2E700690028CF
:1029700001D13A48EDE73D48006839490988441AD1
:102980000025002C00D50024FD2080003018009088
:10299000642117F033FF01A80021002200230EC09C
:1029A00006C0304F2200390001A817F0F1FA01A942
:1029B000009817F0EBFFFD20800001B503A817F089
:1029C00023FF3118009802B00E183570761C01A84C
:1029D0000021002200230EC006C02200390001A8F9
:1029E00017F0D6FA01A9300017F0D0FF01A817F0B0
:1029F0000BFF36183570761C01A800210022002339
:102A00000EC006C02200390001A817F0C1FA01A9C2
:102A1000300017F0BBFF01A817F0F6FE361835702E
:102A2000761C01A80021002200230EC006C022004F
:102A30000D4901A817F0ACFA01A9300017F0A6FF64
:102A400001A817F0E1FE30180570009881E7C04634
:102A50000CF1010030F1010058F101007CF101009E
:102A6000A089004090F1010098F101009C7700409E
:102A700008480078002803D0401E03D10248704760
:102A80000248704702487047A0F10100B8F1010008
:102A9000D4F1010028FD004007480168002904D056
:102AA000C06E002801D10248704702487047C046F6
:102AB000ECF1010020F2010044E400406C48932155
:102AC000C90041180A68002A02D14968002901D0CA
:102AD0000B487047F7218900411809480A68002A05
:102AE00001D0183070470A69002A06D0C96F002942
:102AF00001D030307047483070475C307047C04676
:102B000030F20100004870479CF2010000B581B02E
:102B100003A013F0B9FD0120019902B00847C04697
:102B20000000000000487047B0F2010000B581B01D
:102B3000FEF76CFD4E49F320800008589222D20027
:102B400089180A68002A02D18968002901D006483C
:102B50000068FEF731FD034814F06CFD0120019977
:102B600002B008474025030008FB004000487047BA
:102B7000D8F2010000B581B0034813F053F90120E9
:102B8000019902B008470000C8F601002348016817
:102B9000002902D14068002800D001487047C04693
:102BA00010F3010010B5324CF720800020180121ED
:102BB00000220368002B06D00260416011F0AEFCD9
:102BC00011F042FD03E00160426011F09BFC00F057
:102BD000B7F80A4815F0BAFB11F0ACFC11F082FA14
:102BE00013F060F9F0218900200017F007FE00F0D3
:102BF000B7FD0120019910BC01B0084720FD00007D
:102C000006480168002904D14068002801D1024823
:102C1000704700207047C0463CF30100F0E40040DC
:102C200000B581B0034813F0FDF80120019902B00E
:102C30000847C046FC2B02000048704764F30100BF
:102C400000B581B00A489321C900411800220A60EA
:102C500001234B60F721890040180360426011F0A6
:102C600051FC13F01FF90120019902B00847000040
:102C700058E0004003480068002801D00020704759
:102C800001487047F4E400409CF3010000B581B0B6
:102C90000A489321C900411801220A6000234B60B1
:102CA000F721890040180260436011F02BFC13F0FB
:102CB000F9F80120019902B00847C04658E00040E9
:102CC00003480068002801D0002070470148704781
:102CD000F0E40040D0F3010030B581B0154CF02194
:102CE0008900200017F08AFDF020800020180121C3
:102CF000C16101620021016041600F4A8260C160D0
:102D00000261416100250183FE21890541620B4872
:102D10002418256000F014F8656096208000206279
:102D20006563A563E563256401B0029830BC01B01A
:102D30000047C04658E00040000048435C040000E3
:102D400030B581B00F489021C900411800220023FE
:102D5000002400253CC1FA21890041180A604A601C
:102D60008A600A679321C9004018026042600DF032
:102D70002BFA05484168016001B0029830BC01B0EF
:102D80000047C04658E000409C77004000B581B045
:102D9000FF204E3013F00CFBFFF7D2FF13F082F848
:102DA00000F0DEFC0120019902B0084710B510F0D8
:102DB0009BFF032800DA54E011F042FB2B4C2C4817
:102DC0002218D06B002845D1106C002842D1F12088
:102DD000800023189868274918F06CFA04D91868FD
:102DE000254918F067FA01D8012000E00020516B56
:102DF000814204D05063002801D1012010609869FD
:102E0000D969002914D0002824D058681B4917F02C
:102E10006DFE1FD210F068FF09281BDB11F0AEFB1E
:102E200011F0A0FB16480021016000F07FF911E0CD
:102E300000280FD113480068134988420AD1506B0B
:102E4000002807D111480068002803D100F020F8BD
:102E5000002806D0F120800020180021416213F0E4
:102E600049F80120019910BC01B0084758E0004022
:102E70005C0400000100F041015043470100E040C4
:102E80005CFC004020FC0040C8F6010014FB004040
:102E9000F0B585B0434CF32080002518286AE96915
:102EA000002923D0002821D1FEF7B0FB3E48FEF7D1
:102EB00013FB28688B21C90061188A6B002A02D194
:102EC000096C002901D039480068FEF775FB012024
:102ED0002862374815F03AFA13F086F90DF074F9C4
:102EE000344E354830184168016050E0002852D017
:102EF000324810F05FFF002844D001200DF0FCF9AB
:102F0000012068622E4F2B4E2E48385A2A4971589C
:102F1000884235DB2C4DA02080002818FEF7DCFA13
:102F20002A483018FEF7E2FA9020C00026182848F8
:102F300000680328684604D105F036FF02009C357E
:102F400003E005F031FF0200A4352900300017F03E
:102F50001FF820483818204909680288891A01801A
:102F60000121300015F004FF002801D102F050FFCC
:102F70008B20C0000121215000F0D8F800200BE088
:102F800013F0F2F88B20C0002058002803D111F074
:102F900045FA11F067FA012005B00499F0BC01B0C0
:102FA0000847C04658E000402CF4010008FB0040F0
:102FB00020FD0000002400409C53000024BB004082
:102FC000A8770040F8110000FCF30100FC5200005B
:102FD0004CFC0040C22200000CFD004030B585B022
:102FE000144C154D154800680328684604D105F0B7
:102FF000DBFE02009C3503E005F0D6FE0200A4359E
:103000002900200016F0C4FF0D480E490968028807
:10301000891A01800121200015F0AAFE002803D1A1
:1030200002F0F6FE002000E0012005B0029930BC5D
:1030300001B00847D8E40040FCF301004CFC00401C
:103040006A9A00400CFD004000B581B00C48016850
:1030500000290DD0C06E00280AD10A4801684268D4
:1030600089180160084A914205DB511E016002E0A7
:10307000064812F0D7FE0120019902B00847C04669
:1030800044E400409C770040850300001C300300AE
:1030900000B581B000F0DCFE0B480178002903D0B8
:1030A000491E03D1002102E0022100E0012101704C
:1030B00014F0A8FC14F0AEFC00F0D4FE13F094F869
:1030C0000120019902B0084728FD004010B582B0E8
:1030D000124C002817D00521684617F08FFB00F02E
:1030E000B7FE0F48437B027B2100AC31684616F0E7
:1030F0004FFF00F0B7FE0B49684618F09FF8002814
:1031000001D1094802E0B3208000201812F08AFEA5
:1031100002B0019810BC01B00047C046FCF30100AA
:10312000F4FC0040ACF90040202B030070B584B0E3
:1031300010F0DAFD012806DA414814F07BFAC820C5
:1031400014F02CFC0EE03F4E9321C90071180A6860
:10315000002A02D1496800290AD011F0EBF93A4857
:1031600001210160012004B0039970BC01B008473F
:103170000728E1DBF720800034182068002808D0F9
:10318000002020600120606011F0C8F911F05CFAA5
:1031900042E02069002839D02C4DE06F002805D08E
:1031A000B3208000281812F03DFEDBE7A02080004D
:1031B0002818FEF791F92648FEF798F99020C000EC
:1031C0003618244800680328684604D105F0ECFD51
:1031D00002009C3503E005F0E7FD0200A43529005C
:1031E000300016F0D5FE1C481C4909680288891A6F
:1031F00001800121300015F0BBFD002801D102F053
:1032000007FE0120E06712F0EFFFABE7012020602E
:103210000020606011F076F9FFF792FD104815F07C
:1032200095F811F087F910F05DFF12F03BFEF021E8
:103230008900300017F0E2FA00F092FA92E7C046F7
:103240002025030058E0004050FB0040FCF3010043
:10325000FC7600404CFC00406A9A00400CFD0040A7
:1032600020FD000000B581B0044813F0E9F80448DF
:10327000012101600120019902B00847BCFA010058
:10328000B4E400400120704700B581B000F096F82A
:103290000120019902B0084710B5104CFB208000B6
:1032A00020180168002908D0C06E002805D10C48FC
:1032B000FEF712F90B48FEF719F9F02189002000FA
:1032C00017F09CFA9320C000201800210160416093
:1032D0000120019910BC01B00847C04658E00040E9
:1032E0007CF60100FC7600400248012101600120CB
:1032F0007047C046B4E4004005480169002904D184
:103300000068401E8041C00F704700207047C046D3
:1033100034E4004070B5254E300006F07BFB1023EE
:10332000F0223521002006F053FA0021002006F09B
:103330001FFB002006F010FB0121012006F012FB0C
:10334000002006F003FB1A4806F03CFA194806F084
:1033500015FBFA2006F066FA174D280005F07AFFF3
:103360008024A4012300EF226721002008F0F2F955
:10337000300006F04FFB1023F0226921002006F0F8
:1033800027FA0021002006F0F3FAFA2006F04AFAA4
:103390003435280005F05EFF2300EF229B2100203A
:1033A00008F0D8F9039870BC01B0004700203F0036
:1033B000020001006C4702000CF7010010B5FFF796
:1033C000A9FF00F0AFFA00F005FA2148016C0029CE
:1033D00002D000F0CBF804E0406C002805D000F0EB
:1033E00083F8019810BC01B000471A491A48081820
:1033F000426B002A02D000F0FBF8F2E7F7229200BD
:103400008C18216900290BD014490968002907D0BC
:1034100060690028E5D000F02DF900206061E0E748
:103420000168002904D00021016000F099F9D8E773
:1034300000F060F90A4800680A498842D1D1606802
:103440000028CED120680028CBD100F00DF8C8E7C5
:10345000D4FA004058E000405C0400009877004037
:1034600020FC004050EF010000B583B01023F02293
:103470009E21002006F0ACF90021002006F078FA29
:10348000002006F069FA0121012006F06BFA002005
:1034900006F05CFA8020400206F094F90D4806F030
:1034A0006DFA0D4806F0B6FA0C48006800F0E4FC2E
:1034B00002000BA1684616F06BFD0A2006F0B2F977
:1034C000084805F0C7FE684605F002FF039804B0FF
:1034D0000047C0466C470200003F2000CCFA004085
:1034E0002575000090F7010000B581B08023F0221F
:1034F0009E21002006F06CF90021002006F038FA29
:10350000012006F029FA0221022006F02BFA002001
:1035100006F01CFA8020400206F054F90F4806F02D
:103520002DFA0F480078C00702D5FC20800300E088
:103530000C4806F06FFA012007F00EFB06F094F934
:10354000094805F087FE06F01FFA07F00BFB002084
:1035500007F002FB019802B00047C0466C4702002A
:1035600002FD0040003F3F00D0F7010000B581B0F0
:103570008023F0229E21002006F02AF9002100205D
:1035800006F0F6F9012006F0E7F90221022006F024
:10359000E9F9002006F0DAF98020400206F012F97D
:1035A0000F4806F0EBF90F480078C00702D5FC2061
:1035B000800300E00C4806F02DFA012007F0CCFA59
:1035C00006F052F9094805F045FE06F0DDF907F06E
:1035D000C9FA002007F0C0FA019802B00047C046BF
:1035E0006C47020002FD0040003F3F0060F8010010
:1035F00000B581B08023F0229E21002006F0E8F87B
:103600000021002006F0B4F9012006F0A5F90221FE
:10361000022006F0A7F9002006F098F98020400269
:1036200006F0D0F80F4806F0A9F90F480078C00757
:1036300002D5FC20800300E00C4806F0EBF90120E5
:1036400007F08AFA06F010F9094805F003FE06F0C3
:103650009BF907F087FA002007F07EFA019802B084
:103660000047C0466C47020002FD0040003F3F009B
:10367000D8F8010000B581B08023F0229E210020FF
:1036800006F0A6F80021002006F072F9012006F0ED
:1036900063F90221012006F065F9002006F056F9D1
:1036A0008020400206F08EF80E4806F067F9FC20F4
:1036B000800306F0AFF9012007F04EFA06F0D4F8C7
:1036C000094805F0C7FD094806F0A4F9084805F0C7
:1036D000FFFD07F047FA002007F03EFA019802B01C
:1036E0000047C0466C4702007CF60100003F3F00E7
:1036F000FC76004070B5194C206A002824D18F2632
:103700007600012001B53300EF22AE2108F0B0FBB6
:1037100002B0206841000C18542C01DB532419E03E
:103720001A20C043844213DA0400FC25AD010023B3
:103730003200AF21EF2007F0A5FF812149002B00C7
:103740000A1BEF2007F09EFF039870BC01B00047F2
:10375000002CEAD4FC25AD03E9E7C04614E40040A0
:10376000F0B583B06A46194803C803C232226846DE
:1037700003C807F0DDFC164DF7208000285800280C
:1037800019D10024812676001A27FF4328684100BA
:103790000818542801DB532014E0B84210DA38002E
:1037A000FC239B01321A3100200007F06BFF641CE0
:1037B0002D1DF02CEADB03B00498F0BC01B00047EB
:1037C0000028EDD4FC239B03ECE7C04650F9010030
:1037D00058E0004070B59AB03E4806F01BF920232F
:1037E000F0227A21002005F0F3FF0021002006F0EE
:1037F000BFF8002006F0B0F80121012006F0B2F871
:10380000002006F0A3F88020400205F0DBFF3248DC
:1038100006F0B4F83149F12080000A1810685668A3
:103820009222D20089180A68002A02D189680029E8
:1038300002D02B49086B8E6B2A4DFE21890517F0AB
:1038400055F901D22C000FE0274917F04FF902D2A9
:103850002C00083408E0254917F048F902D22C0062
:10386000103401E02C00183416F04CFE02000B005E
:103870002100684616F08CFBC82005F0D3FF68468F
:1038800005F026FD1A4806F079F80021A02006F080
:103890006FF8300016F036FE0022164B17F072F962
:1038A00017F020FD020000D10122203529006846D2
:1038B00016F06EFB684605F00BFD1021A02006F007
:1038C00057F80DA005F004FD1AB0039870BC01B0C4
:1038D0000047C046003F3F00BC5B020058E000408C
:1038E000D4FA004058F90100000020410000C8420D
:1038F0006C4702000000E03F637073000749F3204B
:10390000800008589222D20089180A68002A02D141
:103910008968002901D002480068704758E00040DB
:1039200008FB004070B59AB04E4C606C002802D184
:10393000206C002806D04C480078C00702D5FC2037
:10394000800300E0494806F065F82023F022462174
:10395000002005F03DFF0021002006F009F80020BE
:1039600005F0FAFF0121012005F0FCFF002005F021
:10397000EDFF8020400205F025FF3D4805F0FEFFE9
:103980003C49F3208000081805689222D20089186B
:103990000A68002A02D18B68002B00D0656B46684C
:1039A000002A02D18868002800D0A66BFE21890574
:1039B000206C002844D0304D0E002B480078C00702
:1039C00002D5FC20800300E0284806F023F82B4CA9
:1039D000280016F097FD02000B002100684616F043
:1039E000D7FAFA2005F01EFF684605F071FC24485E
:1039F00005F0C4FF0021A02005F0BAFF300016F04A
:103A000081FD00221F4B17F0BDF817F06BFC020080
:103A100000D101221C4C21002031684616F0B8FA72
:103A2000684605F055FC1021A02005F0A1FF2834C0
:103A3000200005F00FFC1AB0039870BC01B00047DD
:103A4000280017F053F801D20F4CC1E70F4917F0C7
:103A50004DF801D20E4CBBE70E4917F047F8B6D22D
:103A60000D4CB5E7D4FA004002FD0040003F3F0096
:103A7000BC5B020058E0004000401C4670F90100A9
:103A80006C4702000000E03F58F9010000002041AF
:103A900060F901000000C84268F901000048704761
:103AA00080F90100004870479CF9010030B581B0F1
:103AB0000C4804880C4804600C4D012001B50C49E9
:103AC0002800303003B40B4BFA22D200210028002A
:103AD00008F031FC04B00020C04301B0029930BCB2
:103AE00001B00847FCFC0040F8E40040B0F90100D8
:103AF000F93A0000B80B000070B5124D002805D14E
:103B0000B3208000281812F08DF917E00E4C0A221D
:103B100000210E4817F0FAFA20600D48067866601A
:103B2000012001B50B492800EC3003B40C2301221D
:103B30003100B835280008F0FEFB04B0039870BCD3
:103B400001B00047FCF30100F8E40040ACF900408C
:103B5000FEFC0040593B000030B581B0002803D185
:103B6000264812F05FF943E0254C0A22002125483F
:103B700017F0CCFA606024480578A56060680228D8
:103B80000CD0082801DB012300E00023C10F091835
:103B900049104900401A43401E3319E022681000C2
:103BA00000F076F9C82149004843101A0DD0501092
:103BB000800F801880108000101A08D1100000F0CB
:103BC00075F919214843101A01D01D2300E01C2368
:103BD0000E4C012001B50E49AA204000201803B464
:103BE0000122290082204000201808F0A4FB04B024
:103BF00001B0029830BC01B00047C046C8F60100D1
:103C0000F8E40040ACF90040FFFC0040FCF3010088
:103C1000153C000070B5134D002805D1B32080007D
:103C2000281812F0FFF819E00F4C0A2200210F4863
:103C300017F06CFA20600E4806786660012001B526
:103C40000C49AA204000281803B4062300223100A2
:103C5000B4204000281808F06EFB04B0039870BC34
:103C600001B00047FCF3010000E50040ACF9004062
:103C7000F8FC0040793C000070B58CB0294D00285C
:103C800005D1B3208000281812F0CCF844E0264C6F
:103C90000A220021254817F039FAE0606846290019
:103CA0003022FDF7FDFA00216068022807DB6A4632
:103CB000121D431E16688919121D5B1EFAD121615F
:103CC000A2688A182261032813DB2368980710D1A1
:103CD000180000F0F9F864214843181A07D11800B9
:103CE00000F0D6F8C82149004843181A01D1521CE7
:103CF00022610F4806786661012001B50D498620D2
:103D00008000281803B4172300223100F42040005B
:103D1000281808F010FB04B00CB0039870BC01B078
:103D20000047C046FCF30100F8E40040ACF9004055
:103D300000FD0040393D000070B5134D002805D14D
:103D4000B3208000281812F06DF819E00F4C0A22F9
:103D500000210F4817F0DAF920600E4806786660F7
:103D6000012001B50C4999208000281803B43B2399
:103D7000002231008B208000281808F0DCFA04B003
:103D8000039870BC01B00047FCF301000CE5004053
:103D9000ACF9004001FD00409D3D000010B5002839
:103DA00013D00D4C0A2200210C4817F0AFF9A06186
:103DB0002168606803B42169E06803B4A36862699C
:103DC000A1691E2005F00CF804B0054812F02AF88D
:103DD000019810BC01B00047F8E40040ACF9004085
:103DE000C8F6010000487047F4F9010000B581B041
:103DF0000849C86A401C042800DB0020C862064845
:103E0000CA6A01000C310FF04FF90020019902B08D
:103E10000847C04620FC00402CFA01000748006813
:103E2000401E05D0401E05D0401E05D104487047F5
:103E30000448704704487047044870474CFC0040F1
:103E400040FA010060FA010080FA01009CFA0100CA
:103E50007847C04600C00FE1C0C08CE30CF021E100
:103E60001EFF2FE17847C04600C00FE1C0C0CCE381
:103E70000CF021E11EFF2FE17847C04608109FE5B6
:103E800090118CE0AC00B0E11EFF2FE1ABAAAAAA12
:103E90007847C0460CC09FE5901CCCE0CC03B0E155
:103EA000010080421EFF2FE11F85EB517847C0467D
:103EB0000CC09FE5901CCCE0CC01B0E10100804239
:103EC0001EFF2FE11F85EB517847C0460CC09FE5D0
:103ED000901CCCE0CC02B0E1010080421EFF2FE13B
:103EE0001F85EB510048704760FB01000048704798
:103EF00078FB01000048704790FB010000B581B0DD
:103F00008C48006805281ED801A1095C8F44C04672
:103F1000060E161E262E1248019902B008471148B7
:103F2000019902B008471048019902B008470F48AC
:103F3000019902B008470E48019902B008470D48A0
:103F4000019902B008470C480300E43367220100DE
:103F5000BC30FDF79DF90020019902B00847C0462A
:103F6000BCFB0100D8FB0100F4FB010010FC0100C8
:103F70002CFC010044FC0100A4FB0100034804499F
:103F80000968002900D114307047C0466000020063
:103F9000E0F70040004870479000020010B5FFF7BE
:103FA0007DFD0A4C0A4902B52100843103B4094B56
:103FB000094A1B480168200008F018F904B00020E5
:103FC000C043019910BC01B00847C046C0000200C0
:103FD000DD3F00000000C842CDCCCC3D70B5524C56
:103FE00000280ED00E4D00220021514817F02AF86B
:103FF00016F006F8286002002100103120000FF0B2
:1040000081F84C4D2E6881208000201811F00AFFA5
:104010002E6011F047FF039870BC01B0004700000C
:104020003CE40040004870479403020010B50A4C7D
:104030000A492000803003B496235B001E221848F2
:104040000168200008F038F902B00020C04301994F
:1040500010BC01B00847C046DC030200614000000C
:1040600070B5314C00280DD00D4D0A22002130488A
:1040700017F04CF828600200210030312000203079
:104080000BF0F4FD2B4D2E6881208000201811F0DC
:10409000C9FE2E6011F006FF039870BC01B0004706
:1040A000A07700400048704778040200004870473D
:1040B000C804020000B581B0084909A003B49623E2
:1040C0009B001E2219480168064808F0F5F802B066
:1040D0000020C043019902B00847C046E9400000F3
:1040E000000000001405020070B50F4C00280DD030
:1040F0000E4D0A2200210E4817F008F82860020031
:1041000021005831200048300EF0CEFF094D2E68B6
:1041100081208000201811F085FE2E6011F0C2FE73
:10412000039870BC01B000474C010200A4F90040A4
:10413000ACF9004008F70040F0B581B04B48C0C86A
:1041400006F070F800243F2522002A403000390094
:1041500006F070FE0A2012F047FE641C402CF3DBD0
:10416000FA20400012F040FE002420002840020205
:104170003000390006F05EFE0A2012F035FE641CA5
:10418000402CF2DBFA20400012F02EFE002420002A
:10419000284002043000390006F04CFE0A2012F0DC
:1041A00023FE641C402CF2DBFA20400012F01CFEBF
:1041B000002420002840010202040A433000390094
:1041C00006F038FE0A2012F00FFE641C402CF0DBD3
:1041D000FA20400012F008FE0024200028400202CD
:1041E00002433000390006F025FE0A2012F0FCFDE3
:1041F000641C402CF1DBFA20400012F0F5FD002495
:1042000020002840020402433000390006F012FE6C
:104210000A2012F0E9FD641C402CF1DBFA2040007A
:1042200012F0E2FD002420002840010201430204B4
:104230000A433000390006F0FDFD0A2012F0D4FDDB
:10424000641C402CEFDBFA20400012F0CDFD05F09D
:10425000E9FFFA20400012F0C7FD11F023FE012013
:1042600001B00499F0BC01B00847C04684050200C3
:10427000004870478C05020000B581B0074908A0CE
:1042800003B40623022207480168074808F014F81F
:1042900002B00020C043019902B00847AD420000BF
:1042A0000000000004240040BC05020070B50F4C63
:1042B00000280DD00E4D0A2200210E4816F026FFD0
:1042C0006860020021006C31200020300BF0CEFC31
:1042D000094D2E6881208000201811F0A3FD2E606A
:1042E00011F0E0FD039870BC01B000474C010200E2
:1042F00000240040ACF9004008F7004030B581B020
:10430000134C606B17F0A4F916F0FCF80022114B67
:1043100016F0DAFC15F074FE0500A5630E4C0F488C
:1043200001B5BA20400021180838201803B40C4BFE
:10433000FE229205290082204000201807F056FF37
:1043400004B00020C04301B0029930BC01B008475E
:104350000024004000002440A4FB0100654300004D
:104360000000404070B5144D002816D0134C0022B8
:104370000021134816F066FE15F042FEA06301000E
:10438000104817F0B5F816F0C9FB02006263290067
:104390007831280020300BF069FC0B4C2668812016
:1043A0008000281811F03EFD266011F07BFD039877
:1043B00070BC01B00047C0464C0102000024004020
:1043C000ACF900400000204108F700400048704769
:1043D0001406020000487047580602000048704763
:1043E0007C06020000B581B00549064B0A00203268
:1043F000FC20800303F06EFE0120019902B0084703
:10440000B006020009440000F0B581B0002818D0C1
:1044100000F0B8FB0D4F0E4C0EA528000AF0B8F8BE
:10442000060006D009F016FAA04202D1386800282A
:1044300003D112F02FFD002EEFD111F025FD11F068
:1044400059FD01B00498F0BC01B0004790F900405C
:104450000540008073707A0000B581B00649074BB3
:104460008E2040000A18FC20800303F033FE012058
:10447000019902B00847C046B0060200814400001E
:10448000F0B581B000282FD000F07CFB19480090D7
:10449000194F1A4D1AA4210028000AF0EDF8060061
:1044A00007D009F0D7F9B84203D100980068002876
:1044B00003D112F0EFFC002EEDD1210028000830CE
:1044C0000AF0DAF8060007D009F0C4F9B84203D1BF
:1044D00008480068002803D112F0DCFC002EECD163
:1044E00011F0D2FC11F006FD01B00498F0BC01B04F
:1044F0000047C04690F900400540008000110200CE
:1045000073707A0000B581B00649074B9D2080008A
:104510000A18FC20800303F0DDFD0120019902B0A0
:104520000847C046B00602002D450000F0B581B036
:10453000002818D000F026FB0D4F0E4C0EA52800C9
:104540000AF026F8060006D009F084F9A04202D14C
:104550003868002803D112F09DFC002EEFD111F035
:1045600093FC11F0C7FC01B00498F0BC01B0004707
:1045700090F90040054000806C6F670000B581B085
:104580000649074BD92080000A18FC20800303F05D
:10459000A1FD0120019902B00847C046B006020003
:1045A000A5450000F0B581B0002818D000F0EAFA67
:1045B0000D4F0E4C0EA5280009F0EAFF060006D0AC
:1045C00009F048F9A04202D13868002803D112F05E
:1045D00061FC002EEFD111F057FC11F08BFC01B003
:1045E0000498F0BC01B0004790F9004005400080FD
:1045F0006D63730000B581B00649074B8A20C00087
:104600000A18FC20800303F065FD0120019902B027
:104610000847C046B00602001D460000F0B581B054
:10462000002818D000F0AEFA0D4F0E4C0EA5280051
:1046300009F0AEFF060006D009F00CF9A04202D145
:104640003868002803D112F025FC002EEFD111F0BC
:104650001BFC11F04FFC01B00498F0BC01B0004706
:1046600090F90040054000806C69620000B581B09F
:104670000649074BAA20C0000A18FC20800303F05B
:10468000DDFC0120019902B00847C046B0060200D7
:104690009546000000B581B000280ED0084909A059
:1046A00003B4094B00220021084807F005FE02B0C0
:1046B00007480021016003F0D7FC019802B00047D1
:1046C000D5460000000000000F2700001011020076
:1046D00024FD004010B582B0040018D005216846C2
:1046E00016F08CF8FFF7B4FB0D48437B027B0D49B5
:1046F000684615F04DFCFFF7B5FB0B49684616F010
:104700009DFD002803D120000AF096FAFEE7074835
:104710000121016002B0019810BC01B00047C04601
:10472000F4FC0040D8010200ACF9004024FD004038
:1047300000B581B00549064B06480A18FC208003E5
:1047400003F0C8FC0120019902B00847B00602003E
:10475000594700006407000000B581B0002807D069
:104760000DF058FA0DF076FA0DF020FB0DF044FB39
:10477000019802B00047000000487047A0110200F5
:1047800000487047E41102000048704724120200FC
:10479000004870477412020000487047A4120200DB
:1047A00000487047DC12020030B581B0084C00258B
:1047B00025606560A560E56025616561A56100F023
:1047C00009F8D834256001B0029830BC01B0004728
:1047D00008F7004010B481B0134801001C310022DA
:1047E000002300241CC10CC1010030311CC10CC1CC
:1047F000010044311CC10CC1010058311CC10CC165
:1048000001006C311CC10CC1010080311CC10CC104
:10481000010094311CC10CC1A83000210EC006C09B
:1048200001B010BC7047C04608F7004000B581B029
:10483000FFF7D0FFFA20800011F0BAFD04480021F4
:10484000016011F02FFB0120019902B00847C0461A
:1048500008F70040F0B581B0954D2868002805D0D4
:10486000001F0BD0401E00D1E1E001E000F044FA4F
:10487000012001B00499F0BC01B008478D4CC8205C
:10488000400027188C4E706B15F03CFE02000B00A8
:10489000390028001C3015F07BFB142809D3CC20EC
:1048A00040002318854A1C3821182000BC30FCF732
:1048B000EFFCB06B15F026FE02000B0000208049D3
:1048C00016F060F916F00EFD002800D1012002005C
:1048D000D420400021182800303015F059FB14284E
:1048E0000AD3CC2040002318E52292001C3821185E
:1048F0002000BC30FCF7CCFC306B15F003FE02004E
:104900000B0039002800443015F042FB142809D36D
:10491000CC20400023186B4A1C3821182000BC30E2
:10492000FCF7B6FC68A7726839002800583015F00B
:104930002FFB142809D3CC2040002318634A1C38CD
:1049400021182000BC30FCF7A3FC72693900280054
:104950006C3015F01DFB142809D3CC20400023181F
:104960005B4A1C3821182000BC30FCF791FC59A789
:10497000306F15F0C7FD02000B00390028008030B1
:1049800015F006FB14280AD3CC2040002318E82297
:1049900092001C3821182000BC30FCF779FCB06F65
:1049A00015F0B0FD02000B004BA12800943015F06B
:1049B000EFFA142809D3CC2040002318474A1C38AA
:1049C00021182000BC30FCF763FC706F15F09AFDD5
:1049D00002000B0039002800A83015F0D9FA14287D
:1049E00009D3CC20400023183D4A1C382118200050
:1049F000BC30FCF74DFC3B48006815F083FD02001D
:104A00000B00D82040002118BC35280015F0C0FA52
:104A1000142809D3CC2040002318334A1C3821180D
:104A2000BC342000FCF734FC11F064FA20E72F4E70
:104A3000204CF268D4204000211828001C3015F0CA
:104A4000A7FA142809D3CC2040002318284A1C3880
:104A500021182000BC30FCF71BFCBA2040002718AE
:104A6000306815F04FFD02000B003900280030308F
:104A700015F08EFA142809D3CC20400023181D4AC3
:104A80001C3821182000BC30FCF702FC1A480068D2
:104A900015F038FD02000B0039004435280015F0F0
:104AA00077FA1428C0D3CC2040002318134AB5E766
:104AB00008F70040A4FB0100D4FA00408E03000078
:104AC0000000E03F97030000257500009A030000F6
:104AD0009D0300002566000025670000A303000079
:104AE000A60300003CE40040AD030000ECF80040E9
:104AF000B3030000B60300007CF90040B9030000D6
:104B000000B581B0034811F08DF90120019902B080
:104B10000847C046C8F6010000B581B0034811F04F
:104B200081F90120019902B00847C04694EE0100C6
:104B300010B5134C2068401C062800D100202060CE
:104B4000FFF748FE11F0AEF92068012811D100F0FE
:104B500019F82000183001B5230014332200103258
:104B600021000C31083420000AF09CF902B011F049
:104B70008BF911F0BFF90120019910BC01B0084771
:104B800008F7004000B581B011F07EF9114804F03B
:104B9000F5FE1023F0227721002004F019FE0E48C4
:104BA00004F038FF0021002004F0E2FE002004F0B1
:104BB000D3FE0121012004F0D5FE002004F0C6FE42
:104BC000064804F0FFFD064804F044FB019802B0DB
:104BD0000047C0466C470200003F3F000200010052
:104BE0002013020070B582B0154C002818D00521A2
:104BF000684615F003FEFFF72BF91248437B027B52
:104C000021008C31684615F0C3F9FFF72BF90E49E6
:104C1000684616F013FB002802D10C480121016000
:104C20000B4D2E6881208000201811F0FBF82E60BB
:104C300011F038F902B0039870BC01B00047C046CB
:104C40004C010200F4FC0040ACF90040E0F70040E9
:104C500008F7004000B581B01448D8214158002918
:104C60000AD1134913A003B4134B002200211348A7
:104C700007F022FB02B015E00068052812D801A158
:104C8000095C8F440408140C10180D4808E00D4806
:104C900006E00D4804E00D4802E00D4800E00D4834
:104CA00011F0CEFB0120019902B0084708F700403F
:104CB000E54B0000000000000F2700006413020015
:104CC000D8130200201502007C140200C415020053
:104CD000681602000C1702000120704700B581B071
:104CE00000F00AFC0120019902B00847012070473A
:104CF000012070470120704700B589B0194801684C
:104D0000002905D0807BC00702D5FC20800300E08D
:104D1000154804F07FFE1023F0223521002004F016
:104D200057FD0021002004F023FE002004F014FEB3
:104D30000121012004F016FE002004F007FE80206F
:104D4000400204F03FFD094804F018FE0A2004F078
:104D500069FD684603F0B6FF04F0BAFA09980AB094
:104D60000047C046F4FC0040003F3F006C47020093
:104D7000F0B583B00400374F380004F0FFFD36482B
:104D80002318F022FF204030011B002004F020FDFA
:104D9000324804F03FFE012004F0DEFD304C2000DC
:104DA00004F096FA2000183004F054FA2D4E350025
:104DB000D0352A682CA1684615F0EAF8684604F058
:104DC00087FA2000403004F045FAEB882A79210068
:104DD0007031684615F0DCF8684604F079FA23482B
:104DE00004F018FE224804F035FA22A5280004F049
:104DF0006FFA214804F02EFA280004F069FA1F48DF
:104E000004F0BCFD2000783004F062FAFE36300079
:104E100004F05EFA380004F0B1FD280004F058FAFE
:104E2000174804F0F7FD2000803004F051FA20000C
:104E3000943004F00FFA2000E43004F00BFAB420B0
:104E40004000201804F044FA03B00498F0BC01B00C
:104E50000047C0466C470200E2FEFFFF00203F0013
:104E6000B017020008F7004025750D00003F200034
:104E7000E82003000D00000034210300A4D6020046
:104E8000003F3F0010B586B0214804F077FDEA23CB
:104E9000F0223521002004F09BFC1E4804F0BAFDEE
:104EA0001D4C200004F0D6F92000703004F0D2F937
:104EB0002000E03004F0CEF99A204000201804F0E1
:104EC000C9F9CC204000201804F0C4F9FC204000AF
:104ED000201804F0BFF9A0208000201804F0BAF9CF
:104EE000BC208000201804F0B5F9BE2080002018F6
:104EF00004F0B0F90948026809A1684615F048F8BD
:104F0000684604F0E5F906B0019810BC01B000470E
:104F100094390200003F3F0030190200D4E4004001
:104F200025750D0070B5424804F028FD414804F095
:104F300071FDAB23F0223521002004F049FC012053
:104F400005F00AFE04F090FC3B4C200004F082F9CE
:104F50002000303004F07EF9384D28001C3004F079
:104F6000B7F937A6300004F0B3F92000603004F040
:104F700071F92800303004F0ABF9300004F0A8F9E2
:104F800020008C3004F066F92800443004F0A0F9C9
:104F9000300004F09DF92000C03004F05BF92800D7
:104FA000583004F095F9300004F092F92000FC30FC
:104FB00004F050F928006C3004F08AF9300004F055
:104FC00087F99A204000201804F044F92800803026
:104FD00004F07EF9300004F07BF9A820400020188E
:104FE00004F038F92800943004F072F9300004F02D
:104FF0006FF9BA204000201804F02CF92800A830DE
:1050000004F066F9300004F063F90E4804F0B6FCD1
:10501000CE204000201804F01DF9BC35280004F013
:1050200057F9002005F098FD039870BC01B00047C7
:105030006C470200003F3F00941C020008F700404C
:105040000D0000009439020070B5264804F096FC6B
:10505000254804F0DFFC4C23F0223521002004F029
:10506000B7FB012005F078FD04F0FEFB1F4C20008B
:1050700004F0F0F82000243004F0ECF81C4D280077
:105080001C3004F025F91BA6300004F021F91A4861
:10509000B0214158002902D08069032802DA20009B
:1050A000483001E02000903004F0D4F82000E430D3
:1050B00004F0D0F82800303004F00AF9300004F091
:1050C00007F988204000201804F0C4F8443528006F
:1050D00004F0FEF8002005F03FFD039870BC01B01D
:1050E0000047C0466C470200003F3F00801E0200A0
:1050F00008F700400D000000E0F8004070B590B0E7
:10510000484804F03BFCEA23F0223521002004F05B
:105110005FFB454804F07EFC444CEA204000201828
:1051200004F098F8424E3000083004F0D1F841A065
:1051300004F0CEF840A5414832582900684614F0E2
:1051400027FF3C2809D3CC20400023183C4A2430B8
:1051500021182000BC30FCF79BF88020800020182C
:1051600004F078F8684604F0B3F8361D7269290037
:10517000684614F00DFF3C2809D3CC2040002318CA
:10518000304A243021182000BC30FCF781F88A20F6
:105190008000201804F05EF8684604F099F8326840
:1051A0002900684614F0F4FE3C2809D3CC204000C6
:1051B0002318254A243021182000BC30FCF768F859
:1051C00095208000201804F045F8684604F080F827
:1051D000306B16F03DFA1D4916F0A4F815F092F95F
:1051E00002000B00A02080002118684614F0D0FEB9
:1051F0003C2809D3CC2040002318154A243021181C
:105200002000BC30FCF744F8A2208000201804F0F5
:1052100021F8684604F05CF810B0039870BC01B047
:105220000047C0466C47020000203F00A4FB01007D
:10523000002400400D00000025640D0054300000E3
:10524000190500001E050000230500000000204194
:105250002D050000F0B591B0954804F08FFBEA23CE
:10526000F0223521002004F0B3FA924804F0D2FB7A
:10527000914F7D68914CB820800020180090904E8E
:105280003200010002A814F083FE3C280AD3CC208F
:10529000400023188B4AB220800021182000BC3027
:1052A000FBF7F6FFBA208000201803F0D3FF02A816
:1052B00004F00EF8721B009902A814F069FE3C2855
:1052C0000BD3CC2040002318A922D200B2208000AA
:1052D00021182000BC30FBF7DBFFC3208000201822
:1052E00003F0B8FF02A803F0F3FFCC2080002018E1
:1052F000009064204543280000F00EFE0200009953
:1053000002A814F045FE3C280AD3CC204000231804
:105310006D4AB220800021182000BC30FBF7B8FF96
:10532000CE2080002018019003F094FF02A803F023
:10533000CFFFBD6865A62A00310002A814F028FE40
:105340003C280AD3CC2040002318614AB2208000B8
:1053500021182000BC30FBF79BFFD62080002018CE
:1053600003F078FF02A803F0B3FF642064214D43EB
:10537000A90A421A009902A814F00AFE3C280AD38E
:10538000CC2040002318534AB2208000211820006E
:10539000BC30FBF77DFF019803F05CFF02A803F02F
:1053A00097FFFA68310002A814F0F2FD3C280AD3F6
:1053B000CC2040002318484AB22080002118200049
:1053C000BC30FBF765FFDF208000201803F042FFB0
:1053D00002A803F07DFF3A69310002A814F0D8FD5D
:1053E0003C280AD3CC20400023183C4AB22080003D
:1053F00021182000BC30FBF74BFFEA20800020186A
:1054000003F028FF02A803F063FF7A69310002A8C5
:1054100014F0BEFD3C280BD3CC2040002318AF2253
:10542000D200B220800021182000BC30FBF730FFF2
:10543000F6208000201803F00DFF02A803F048FFBB
:10544000BA69310002A814F0A3FD3C280AD3CC208D
:1054500040002318224AB220800021182000BC30CE
:10546000FBF716FF1F48201803F0F4FE02A803F014
:105470002FFF1D4802881DA102A814F089FD3C28B9
:105480000AD3CC2040002318194AB22080002118EA
:105490002000BC30FBF7FCFE1648201803F0DAFEB3
:1054A00002A803F015FF11B00498F0BC01B000474A
:1054B0006C470200003F200008F70040A4FB0100F9
:1054C000AF030000420500004E05000025750D00E9
:1054D000570500005D050000660500006F0500002F
:1054E000810500000C040000A8F4004025750000B0
:1054F000890500003C04000000B581B000210020B7
:1055000004F036FA002004F027FA0321012004F009
:1055100029FA002004F01AFA8020400204F052F91F
:105520001C4804F02BFA1C480068052826D801A165
:10553000095C8F440414281E3C32F520FFF718FC48
:10554000FFF7DAFB019802B00047FFF783FE0198EE
:1055500002B00047FFF7D2FD019802B00047FFF705
:1055600091FC019802B00047FFF76EFD019802B070
:105570000047FFF7D7FC019802B000470748030037
:10558000E433074A07494118BC30FBF781FE019814
:1055900002B000476C47020008F70040A4FB01007E
:1055A000AF0500006C04000000B581B0094801B5EA
:1055B00009A10AA003B48023DB05FC229205084858
:1055C0000168084806F012FE04B00020C0430199AB
:1055D00002B00847E9550000256600000000000001
:1055E0007CF90040C81F020070B5124D002813D08E
:1055F000114C00220021114815F024FD14F000FD8B
:1056000020606669002060612268290098312800C6
:1056100048300DF077FD6661094C266881208000D6
:10562000281810F0FFFB266010F03CFC039870BCBB
:1056300001B000474C0102007CF90040ACF9004089
:1056400008F7004000B581B00649074B0A00303228
:10565000FC20800102F0F2FC0020C043019902B05E
:105660000847C0464C2002006D56000070B5002867
:1056700048D011F081FA11F0D3FA02F089FF0AF054
:10568000B1F811F0DFF812F0C5F912F0BBF9002003
:1056900010F0C8FB1D4C0025256107F041FB04F00C
:1056A000D5FF04F031FD1A48016804220A43026064
:1056B00001680222914301600168802291430160E8
:1056C000016812020A430260012611F0E3FB256023
:1056D0006560E560A560E66105F018F811F032FA42
:1056E00020680028F1D00FF0C7FD002802D011F08B
:1056F000D1FBF8E70748310501604900016011F06E
:10570000C9FBFCE7039870BC01B0004780F900407A
:1057100044C11FE03CC0FF3F0048704768220200C0
:1057200000B581B0084801B508A109A003B4094B30
:10573000094A0A4801680A4806F058FD04B00020EA
:10574000C043019902B00847655700002566000074
:105750000000000000002041BD37863544FB0040BA
:105760009822020070B5104C00280FD00F4D002277
:1057700000210F4815F066FC14F042FC2867020077
:105780002100B4312000A4300DF0BCFC094D2E687E
:1057900081208000201810F045FB2E6010F082FB65
:1057A000039870BC01B000474C010200D4FA0040DD
:1057B000ACF9004008F7004050B581B00D4C0E48E0
:1057C00001B50EA12000543003B40D4B1E000D484E
:1057D00000680D4915F08CFE010033000022200006
:1057E00006F004FD04B00020C04301B0029950BC93
:1057F00001B00847F42202000D58000025660000A1
:1058000000007A444CFB00400024744970B5124CEF
:10581000002813D0114D00220021114815F012FC70
:105820000022104B15F050FA14F0EAFBA8670200B2
:105830002100BC312000A4300DF064FC0A4D2E681C
:1058400081208000201810F0EDFA2E6010F02AFB65
:10585000039870BC01B000474C010200D4FA00402C
:10586000ACF9004080842E4108F7004010B50A4C86
:105870000A4801B50AA12000583003B4094B0022A0
:1058800009480168200006F0B1FC04B00020C043C4
:10589000019910BC01B0084754230200AD58000024
:1058A000256600000000104148FB004070B5104C18
:1058B00000280FD00F4D002200210F4815F0C2FB29
:1058C00014F09EFB686702002100C8312000A4305C
:1058D0000DF018FC094D2E6881208000201810F072
:1058E000A1FA2E6010F0DEFA039870BC01B00047F8
:1058F0004C010200D4FA0040ACF9004008F7004027
:1059000000487047BC23020000487047FC23020097
:10591000004870473824020010B50D490C000834C7
:105920000C4860670C48A067C8200C4A0A50002346
:1059300007220C310AA008F09FFD2060094810F0F2
:1059400071FA0020C043019910BC01B00847C0465D
:1059500010F80040F1590000515A00006959000048
:105960006C6962007CE5020070B51A4C002823D0F7
:10597000194D1A4810220168090141180C312800FC
:10598000083015F063F808352A00EE204000211891
:10599000200020300AF092F900280DD00AF0BCF95E
:1059A0000F49884208D10F4B2200F4322100D43134
:1059B000FC20800302F042FB0B4D2E68812080000A
:1059C000201810F02FFA2E6010F06CFA039870BCBB
:1059D00001B000474C0102000024004010F80040D4
:1059E00005400080ED59000008F7004070470000B6
:1059F00030B581B014A5154C6068C100081AA168C3
:105A00004318072221000C31280008F035FDA06062
:105A10006068A168002902D0401C606008E0C100F5
:105A20000B1A072221000C31280008F025FDA06088
:105A3000A068012801DB012000E0002001B00299EC
:105A400030BC01B00847C0466C69620010F80040E5
:105A500030B581B0144C6068002820D013A5C10077
:105A60000B1ADB1F072221000C31280008F004FD6F
:105A7000A0606068A168002902D0401E606008E054
:105A8000C1000B1A072221000C31280008F0F4FC99
:105A9000A060A068012801DB012000E0002001B027
:105AA000029930BC01B0084710F800406C696200F0
:105AB000F0B587B0A34C15F0C3FD0022A24B14F043
:105AC00029FB04AA03C2A14F02A9684603B4C0205F
:105AD000C0059F4903B408A80CC8380011F0F6FBB4
