:1000000018F09FE518F09FE518F09FE518F09FE5C0
:1000100018F09FE5586FA0B818F09FE518F09FE51D
:10002000F88E000088490100C4490100904C01008D
:10003000CC4C0100FFFFFFFFC0460100204C010037
:10004000FFFFFFFFFFFFFFFFFFFFFFFFFFFFFFFFC0
:10005000FFFFFFFFFFFFFFFFFFFFFFFFFFFFFFFFB0
:10006000FFFFFFFFFFFFFFFFFFFFFFFFFFFFFFFFA0
:10007000FFFFFFFFFFFFFFFFFFFFFFFFFFFFFFFF90
:10008000034834490968002900D124307047C0462C
:10009000F8DA01000048704744DB0100004870476F
:1000A0005CDB010003482B490968002900D11430AA
:1000B0007047C04674DB01000048704798DB0100C0
:1000C00002480021016041607047000070FD00405F
:1000D00000B581B0FA20800016F064F915F0DCFE5E
:1000E0000120019902B0084700B581B015F0FCFE6F
:1000F0000120019902B0084700B581B0034815F00E
:100100008BFE0120019902B00847C046BCF60100F1
:1001100000B581B0044800210160044815F07CFE60
:100120000120019902B00847E0F7004044030200B3
:1001300000B581B007480068002802D008F022FA14
:1001400001E008F04FFA15F0A7FE0120019902B076
:1001500008470000CCC1004000B581B0034816F04C
:1001600069F90120019902B00847C04618DD010075
:100170000120704700B581B000F05CF801200199C2
:1001800002B00847012070470120704700207047E7
:1001900070B5FC26B601300009F036FC1023F022C1
:1001A0003521002009F00EFB0021002009F0DAFBC8
:1001B000002009F0CBFB0121012009F0CDFB00203C
:1001C00009F0BEFB194809F0F7FA764809F0D0FBB0
:1001D0000A2009F021FB164D280009F035F880248B
:1001E000A4012300EF22672100200BF0ADFA3000BC
:1001F00009F00AFC1023F0226921002009F0E2FA3C
:100200000021002009F0AEFBFA2009F005FB28359B
:10021000280009F019F82300EF229B2100200BF0A1
:1002200093FA039870BC01B00047C0460200010079
:10023000ACDB010010B5FFF7ABFF00F05FF800F09A
:10024000B3F8164809F0E0FB002009F07FFB01211C
:10025000012009F081FB002009F072FB264809F01B
:10026000ABFA0A4809F084FB09A4200009F02AF837
:10027000200009F027F8074808F0E6FF064809F0D3
:1002800021F8019810BC01B00047C046883902002F
:100290000D00000004DC01004CCE0040003F3F0098
:1002A00000B581B0024815F0B7FD019802B00047D3
:1002B000D4DC010000B581B00E49802040020A68FC
:1002C000824200D1401C086004480A6801002031C5
:1002D00012F0E4FE0020019902B008473CDC010066
:1002E000034804490968044A914200D030307047FD
:1002F00070DC010048CE00400100010030B585B03F
:10030000224809F081FB2023F0224621002009F039
:1003100059FA0021002009F025FB002009F016FB06
:100320000121012009F018FB002009F009FB8020C1
:10033000400209F041FA164809F01AFB15A1802580
:10034000ED00154C2068A84201D2226801E0206827
:10035000820A684619F016FEFA2009F05DFA68462E
:1003600008F0B0FF1021BE2009F0FCFA0D4809F09A
:10037000FFFA2068A84201D208A000E008A008F017
:10038000A1FF05B0029830BC01B00047003F3F001C
:10039000B05B02002575000070FD004020420000A7
:1003A000206B42006047020030B585B0224809F05A
:1003B0002BFB2023F0227A21002009F003FA0021F0
:1003C000002009F0CFFA002009F0C0FA0121012035
:1003D00009F0C2FA002009F0B3FA8020400209F0C7
:1003E000EBF9164809F0C4FA15A18025ED00154C6B
:1003F0006068A84201D2626801E06068820A6846CB
:1004000019F0C0FDC82009F007FA684608F05AFF45
:100410001021BE2009F0A6FA0B4809F0A9FA60687D
:10042000A84201D209A000E009A008F04BFF05B0E6
:10043000029830BC01B00047003F3F00B05B0200B3
:100440002575000070FD004060470200204200005A
:10045000206B420003487D490968002900D1203003
:100460007047C046BCDD01000048704700DE010057
:100470000048704718DE010000207449096800290F
:1004800001D10B48704772490968002906D002293A
:1004900008D005D3042909D006D370470548704712
:1004A000054870470548704705487047054870473C
:1004B00030DE010040DE010058DE010070DE010088
:1004C00088DE0100A0DE010000487047BCDE0100AC
:1004D0005F4800210160704700B581B0FA208000BC
:1004E00015F060FF15F0D8FC0120019902B0084713
:1004F00000B581B015F0F8FC0120019902B0084761
:1005000000B581B0034815F087FC0120019902B0C5
:100510000847C046BCF6010000B581B0FFF7C0FE39
:100520000120019902B0084700B581B04748006832
:10053000002802D10FF064F907E045480168491C22
:100540000160052901DB0021016015F0A5FC0120F7
:10055000019902B00847000000B581B0034815F0CA
:1005600069FF0120019902B00847C046B8E20100C6
:100570000120704700B581B000F00AF80120019910
:1005800002B00847012070470120704700207047E3
:1005900000B581B0274809F037FA6E23F0223521E3
:1005A000002009F00FF90021002009F0DBF90221F9
:1005B000012009F0D1F9002009F0C8F9002009F064
:1005C000BFF9214809F0F8F81B4809F0D1F90120DA
:1005D0000AF0BCFA09F042F91C48184941580029B0
:1005E00001D017481DE00068002819D0184800689D
:1005F000002806D002280AD006D304280DD009D33B
:1006000011E000F027F80EE000F028F90BE000F010
:100610002FFA08E000F0CAFA05E000F00DFB02E056
:10062000084808F011FE00200AF090FA019802B084
:100630000047C046003F3F00604702009C040000A6
:10064000D0DE010014DF01000100010014E50040CC
:1006500080FD0040F0B591B0704808F0F5FD70489D
:100660001AF0A6F804000D004E270022002319F00E
:10067000A3FC03D253278020000645402000290018
:1006800019F010FD06001AF031F802000B002000EE
:10069000290019F037FE02000B000020614919F013
:1006A00033FD19F0A7FC050019F05AFF040000A85B
:1006B000801C07700021417000A8801C01B520003B
:1006C0001AF042F80100280019F078FF19F014FF21
:1006D0000022544B19F018FD19F08CFC19F00CFF96
:1006E00003B423003200504905A819F04BFC04B0B4
:1006F00001AA4E4906A819F045FC06A808F0E2FD3B
:100700004B481AF055F804000D004527002200233D
:1007100019F052FC03D257278020000645402000E4
:10072000290019F0BFFC060019F0E0FF02000B00E1
:100730002000290019F0E6FD02000B0000203949D5
:1007400019F0E2FC19F056FC050019F009FF04004D
:10075000684607700021417001B5200019F0F4FFD0
:100760000100280019F02AFF19F0C6FE00222D4BC7
:1007700019F0CAFC19F03EFC19F0BEFE03B42300C8
:100780003200294905A819F0FDFB04B001AA294946
:1007900006A819F0F7FB06A808F094FD264C20687F
:1007A00019F0AAFE02000B00244906A819F0EAFB82
:1007B00006A808F087FD606819F09EFE02000B0095
:1007C0001F4906A819F0DEFB06A808F07BFDA0680B
:1007D00019F092FE02000B001A4906A819F0D2FB8C
:1007E00006A808F06FFD18480278184906A819F005
:1007F000C9FB06A808F066FD154C2078002805D036
:10080000144808F05FFD0020207002E012A008F0FC
:1008100059FD11B00498F0BC01B000474CDF010055
:100820004CF1004000004E403CDF010084DF01003D
:1008300054F100408CDF01005CF1004094DF0100C6
:10084000A0DF0100ACDF010009EF0040B8DF0100CC
:1008500074E90040C4DF01000D000000F0B591B064
:10086000774808F02FFD774C8A20400020188178C7
:1008700002B543780278744904A819F083FB02B0EA
:1008800002A808F01FFD8C2040002018009030C8FE
:100890004E27200029000022002319F08DFB03D2EF
:1008A00053278020000645402000290019F0FAFB5C
:1008B000060019F01BFF02000B002000290019F0B0
:1008C00021FD02000B000020604919F01DFC19F009
:1008D00091FB050019F044FE040001A8801C07707C
:1008E0000021417001A8801C01B5200019F02CFFE7
:1008F0000100280019F062FE19F0FEFD0022534BA2
:1009000019F002FC19F076FB19F0F6FD03B4230090
:1009100032004F4910A819F035FB04B00CAA4D491C
:1009200002A819F02FFB02A808F0CCFC00980830B0
:1009300030C84527200029000022002319F03CFB85
:1009400003D257278020000645402000290019F0D7
:10095000A9FB060019F0CAFE02000B0020002900C6
:1009600019F0D0FC02000B000020384919F0CCFB34
:1009700019F040FB050019F0F3FD040001A8077011
:100980000021417001B5200019F0DEFE01002800B1
:1009900019F014FE19F0B0FD00222C4B19F0B4FB35
:1009A00019F028FB19F0A8FD03B4230032002849F0
:1009B00010A819F0E7FA04B00CAA274902A819F008
:1009C000E1FA02A808F07EFC0098027C234902A804
:1009D00019F0D8FA02A808F075FC0098427C20496A
:1009E00002A819F0CFFA02A808F06CFC00981830A1
:1009F00003C819F0FFFA19F07FFD02000B00194936
:100A000002A819F0BFFA02A808F05CFC0098203098
:100A10000CC8154902A819F0B5FA02A808F052FC52
:100A2000009838300CC8114902A819F0ABFA02A896
:100A300008F048FC11B00498F0BC01B00047C04673
:100A4000D4DF0100E0ED0040DCDF010000004E409B
:100A50003CDF010084DF01008CDF0100F4DF0100D6
:100A600004E0010018E0010094DF010024E001002F
:100A700070B58CB04B4C2000FC3008F023FC4A4E83
:100A800068468A214900715C0170002141706A4604
:100A900082204000211801A819F074FA01A808F07A
:100AA00011FCFF205A30325C4938211801A819F096
:100AB00069FA01A808F006FCC4204000351803CDEF
:100AC000083D19F097FA19F017FD02000B008E206F
:100AD0004000211801A819F055FA01A808F0F2FB0E
:100AE0002800083003C819F085FA19F005FD020046
:100AF0000B002100DC3101A819F044FA01A808F02C
:100B0000E1FB103503CD19F075FA19F0F5FC020080
:100B10000B0094204000211801A819F033FA01A815
:100B200008F0D0FB9A204000201808F0CBFBA4204E
:100B30004000251812303418A08801B56388228837
:100B4000290003A819F01EFA02B001A808F0BAFBA8
:100B5000608901B52389E288290003A819F012FAF7
:100B600002B001A808F0AEFB208A01B5E389A28992
:100B7000290003A819F006FA02B001A808F0A2FBA8
:100B8000E08A01B5A38A628A290003A819F0FAF95C
:100B900002B001A808F096FB0CB0039870BC01B03D
:100BA0000047C0463CDF0100E0ED0040F0B58BB0EF
:100BB0000121012008F0D0FE1C4DD32040002E184A
:100BC0001B4F32883900684619F0DCF9684608F096
:100BD00079FB00243088012814DBD4204000281839
:100BE000418802B5436802883900103102A819F023
:100BF000C9F902B0684608F065FB641C0C35308802
:100C00008442EADB0B4869462CC82CC10CC80CC1D5
:100C10000C2C05DA684608F055FB641C0C2CF9DB3B
:100C20000BB00498F0BC01B00047C046E0ED0040B6
:100C3000ECE0010014E10100F0B593B07A4808F04F
:100C400041FB7A4CC820800020180090807801B5C4
:100C5000029843780278764906A819F093F902B011
:100C600004A808F02FFBD220800020180290007802
:100C700001B50498437842886E4906A819F082F9B4
:100C800002B004A808F01EFB0098083030C84E27B8
:100C9000200029000022002319F08EF903D25327E7
:100CA0008020000645402000290019F0FBF90600CD
:100CB00019F01CFD02000B002000290019F022FB96
:100CC00002000B0000205C4919F01EFA19F092F99D
:100CD000050019F045FC040001A8801C07700021E4
:100CE000417001A8801C01B5200019F02DFD010004
:100CF000280019F063FC19F0FFFB00224E4B19F09D
:100D000003FA19F077F919F0F7FB03B42300320066
:100D10004A4912A819F036F904B00EAA484904A8A5
:100D200019F030F904A808F0CDFA0098103030C856
:100D30004527200029000022002319F03DF903D2A5
:100D400057278020000645402000290019F0AAF905
:100D5000060019F0CBFC02000B002000290019F05E
:100D6000D1FA02000B000020334919F0CDF919F037
:100D700041F9050019F0F4FB040001A807700021F7
:100D8000417001B5200019F0DFFC0100280019F0C6
:100D900015FC19F0B1FB0022274B19F0B5F919F039
:100DA00029F919F0A9FB03B423003200234912A842
:100DB00019F0E8F804B00EAA224904A819F0E2F8E4
:100DC00004A808F07FFA009818300CC81E4904A83F
:100DD00019F0D8F804A808F075FA009820300CC86B
:100DE0001A4904A819F0CEF804A808F06BFA029882
:100DF00008300CC8164904A819F0C4F804A808F073
:100E000061FA03A80099C97801700021417003AA12
:100E1000104904A819F0B6F804A808F053FA13B062
:100E20000498F0BC01B0004790E00100E0ED004004
:100E3000DCDF010098E0010000004E403CDF0100D3
:100E400084DF01008CDF0100ACE00100C0E00100A4
:100E5000D0E00100DCE0010000B581B0024814F0F0
:100E6000DBFF019802B000475CE3010000B581B0F0
:100E70000EF0CCFD0120019902B0084700B581B009
:100E80000EF0A8FD0120019902B0084700B581B01D
:100E90000EF084FD0120019902B0084700B581B031
:100EA0000EF060FD0120019902B008470648016874
:100EB0000648074A914205D0521C914201D1303078
:100EC000704764307047C04620E5004028E10100CB
:100ED0000100010002480068002800D00148704766
:100EE00014E50040BCE1010002480068002800D081
:100EF0000148704714E50040ECE101000248006839
:100F0000002800D00148704714E500401CE20100B1
:100F100002480068002800D00148704714E50040EE
:100F20004CE2010000B581B00A49C8680A4A531E64
:100F3000984204D0904201D1921E00E01A00CA608B
:100F4000064801000C3112F0A9F80020019902B006
:100F50000847C04614E500400200010078E20100A5
:100F600002480068002800D00148704714E500409E
:100F700090E2010000B581B00EF02EFC0120019935
:100F800002B0084700487047A0E3010000487047DE
:100F9000B4E3010000487047D0E301000048704707
:100FA000E4E3010000A070470000000000B581B03C
:100FB00097218900B54819F01BFC019802B0004741
:100FC00000B581B097218900B04819F011FC14F0E8
:100FD00063FF0120019902B008470120704700001B
:100FE00000B581B0034814F017FF0120019902B049
:100FF0000847C046F02B020010B5EA23F022352145
:10100000002008F0DFFB0021002008F0ABFC0120ED
:1010100008F09CFC0121012008F09EFC994808F092
:10102000CBFB994808F0A4FC984C201D08F0F2F97D
:1010300021680A000D32824201DA491C216014F055
:1010400053FF0120019910BC01B0084700B581B0E1
:101050008E480168002901D0491E016014F044FF48
:101060000120019902B00847012070470120704714
:1010700000B581B000F00AF80120019902B00847DC
:10108000012070470120704701207047F0B581B002
:101090006F4808F0B9FCEA23F0223521002008F05F
:1010A00091FB0021002008F05DFC012008F04EFCBF
:1010B0000121012008F050FC724808F07DFB7248C5
:1010C00008F056FC012009F041FD08F0C7FB6F4C09
:1010D00096218900201D19F08BFB5E4F380008F027
:1010E0009EF805005C4E201D19F088FB321A012A7B
:1010F00003DB2900201D19F0ADFB584800680028CB
:101100000ED03800643008F08AF80500201D19F070
:1011100075FB321A012A03DB2900201D19F09AFB06
:101120004F48006800280FD0C6204000381808F04B
:1011300076F80500201D19F061FB321A012A03DB45
:101140002900201D19F086FB4648006800280FD0B2
:10115000B0208000381808F062F80500201D19F052
:101160004DFB321A012A03DB2900201D19F072FB06
:101170003D48006800280FD0F1208000381808F0A2
:101180004EF80500201D19F039FB321A012A03DB45
:101190002900201D19F05EFB3448006800280ED09D
:1011A0003348381808F03BF80500201D19F026FBDD
:1011B000321A012A03DB2900201D19F04BFB2D48B0
:1011C000006800280FD0C120C000381808F027F8A8
:1011D0000500201D19F012FB321A012A03DB290039
:1011E000201D19F037FB2448006800280FD0E620A6
:1011F000C000381808F013F80500201D19F0FEFA99
:10120000321A012A03DB2900201D19F023FB1B4899
:10121000006800280ED01A48381808F000F80500B9
:10122000201D19F0EBFA321A012A03DB2900201DD8
:1012300019F010FB2168201D08F0C0F909F08CFCA2
:10124000002009F083FC01B00498F0BC01B0004715
:10125000003F3F00F8E301005702000044FC00405B
:1012600028FC004038FC00403CFC004030FC0040C2
:101270008404000034FC00402CFC004040FC004092
:10128000140800000100010098D60200ACF40040F0
:1012900008B4024B9C4608BC6047C046708F0000F3
:1012A00008B4024B9C4608BC6047C046ACA801008D
:1012B0000048704768ED01000148704700487047DA
:1012C0007CED01000048704794ED01000048704734
:1012D000A8ED01000120704700B581B0B54800219C
:1012E0000160C9434160816064210C3019F080FACB
:1012F000019802B0004710B5AE4C00202060C043FA
:101300006060A060642120000C3019F071FA14F0C4
:10131000C3FDA06860600120019910BC01B00847BE
:1013200000B581B0074814F077FD0120019902B0A3
:10133000084700B581B0034814F06EFD0120019903
:1013400002B00847BCF6010010B59A4C2068401C5A
:10135000206014F093FD14F0C7FDA06860600120C8
:10136000019910BC01B0084710B5924C00202060D4
:10137000C043606014F082FD14F0B6FDA0686060A8
:101380000120019910BC01B008470120704700B549
:1013900081B000F00BF80120019902B0084701204C
:1013A000704701207047012070470000F0B585B0FC
:1013B0000021002008F0D6FA012008F0C7FA032126
:1013C000012008F0C9FA002008F0BAFA8020400293
:1013D00008F0F2F93B4808F0CBFAE923F022352176
:1013E000002008F0EFF9384F380008F00DFB714C81
:1013F000206F002860D001A80021002200230EC029
:1014000060680090C943884208D1206F0CF032FD1B
:10141000401E009002D5002000904BE0009800286C
:1014200048D0642322000C326946206F11F02EF858
:101430005049884240D0002838D020000C30217B11
:1014400030292ED33A292CD2202120000C3019F03B
:1014500085FA050023D020000C302E1A320021001E
:101460000C3101A819F0D4FA002816D001A80021E7
:10147000002200230EC0320021000C3101A819F017
:10148000DFFA124808F0C0FA01A807F01BFF10A00D
:1014900007F018FF380008F0B7FA681C01E02000D8
:1014A0000C3007F00FFF0AA007F00CFF0948006896
:1014B000BE28B3DB0098A06005B00498F0BC01B072
:1014C0000047C04688390200003F3F0000203F002F
:1014D0000D00000024DB004000B581B007F09FFE46
:1014E00000F004F8019902B00847000030B5C1B01F
:1014F0000500304C206F002830D00CF0BBFC009071
:1015000001A807F0D9FB18A101A819F039FA4A225D
:10151000290001A819F09EF914A101A819F030FAC8
:1015200001A819F06BF9652809D311490B003C3368
:10153000F1220D00143108002900FFF7A9FE01A8CF
:1015400019F05CF9030001AA6946206F0CF01CFF3A
:101550000849884201D0012000E0002041B00299F2
:1015600030BC01B00847C046090000000D00000073
:10157000C4ED01000540008030B581B00CA5290004
:1015800028000CF015F90B4C2067002805D101222A
:10159000290028000CF0E8F92067206F401E8041E8
:1015A000C043C00F01B0029930BC01B00847C0462B
:1015B0006C6F67005CFB004030B593B00500124CC7
:1015C000200007F02CFE010005A819F0E9F9280019
:1015D00018F092FF02000B002C342100684618F02E
:1015E000D1FC694605A819F0CBF902F053FA0100C5
:1015F00005A819F0C5F905A8FFF778FF13B00299FF
:1016000030BC01B00847C04620EE010070B598B06C
:1016100038480168002902D04068002801D1002024
:1016200063E0354E0622310005A8FFF739FE334D41
:10163000DB208000281819F0BBF8314C18F0DAFCD8
:1016400018F05AFF02000B002100684618F09AFCBF
:10165000694605A819F094F9DD208000281819F0D2
:10166000A7F818F0C7FC18F047FF02000B00210094
:101670000831684618F086FC694605A819F080F91B
:10168000DF208000285818F037FF02000B002100EF
:101690001031684618F076FC694605A819F070F913
:1016A00005A8FFF723FF0622310005A8FFF7F8FD84
:1016B000C820400028180CC821001831684618F0CE
:1016C00061FC694605A819F05BF9FF202A302A5C05
:1016D00024342100684618F055FC694605A819F025
:1016E0004FF905A8FFF702FF012018B0039970BC5D
:1016F00001B0084714E5004054EE0100E0ED004061
:101700005CEE010003480F490968002900D1203030
:101710007047C046CCEE010000487047FCEE010067
:101720000048704714EF010006484168002902D0C4
:101730000068002801D10248704700207047C04669
:1017400024EF010034E400400020704710B5A548A4
:10175000010080310A681E2A0CDB00224A60030067
:101760001E245A601B1D641EFBD1C2670A60026002
:1017700000F032F801F08CFD019910BC01B008476F
:1017800010B501F0A5FA97480100803100224A60A7
:1017900003001E245A601B1D641EFBD1C2670A6031
:1017A0000260019810BC01B0004710B501F0EAFAE0
:1017B0008C480100803100224A6003001E245A60D8
:1017C0001B1D641EFBD1C2670A60026001200199E3
:1017D00010BC01B00847000030B583B00F4C0122A7
:1017E0000FA110A00CF0C0F82060002810D0002538
:1017F00001950D48009004236A4601A920680CF069
:10180000C3FD7949884203D120680CF01DF825609A
:1018100003B0029830BC01B00047C046D0FA004087
:10182000746D70006D637300EEEEEEEEF0B589B08E
:1018300012F000FE3A4DE869296A002911D000280B
:101840002CD0A868374919F04BF927D212F046FA84
:10185000092823DB12F08CFE12F07EFE01F062FC00
:101860001CE000281AD15F4CE66F701CE067A86A84
:10187000002802D080273F0600E00027286819F0E2
:1018800047F90743B00020184760E06F1E2801D1D8
:1018900000F054F880342168491C2160514C2068C4
:1018A000002832D0204812F07FFA00282DD0E06FB7
:1018B00001282ADB0026266001F08CFB002824D0BA
:1018C00000F03CF8684607F069FA0200174904A8DE
:1018D00018F058FB16A304AA16A118000CF0FAF889
:1018E00020008030466021001E224E60091D521EDD
:1018F000FBD1E66706602660FFF788FE01F0FAFF7D
:10190000FFF75AFE0C4815F08FFE0020A86214F075
:10191000EBFA012009B00499F0BC01B00847C046B9
:1019200018E400400100E04024BB00403CEF01000F
:101930006D637300746D700034250300F0B593B0CF
:10194000284E34007C34A068002801D1FFF744FF02
:10195000A068002803D1206004F056FA36E00CF0AD
:1019600089FA00900020C043019001A802A90268F2
:101970000A6002AF07221849381DFFF791FC1E22AA
:10198000164938000B3018F07DFF154D1022290044
:101990002937380018F076FF392302AA6946A06873
:1019A0000CF0F2FC012806DB20688300321D69463A
:1019B000A0680CF0E9FC00210022002300264EC59F
:1019C00021600949884201D104F01EFA13B004983D
:1019D000F0BC01B00047C046FCFC00404CF10040A8
:1019E000D8E400404CFA00400540008000B581B0CA
:1019F000034814F011FA0120019902B00847C046CB
:101A0000BCF6010000B581B0FFF726FA012001996C
:101A100002B0084700B581B012F0FAFC12F01CFDCC
:101A20000348012101600120019902B00847C04626
:101A30004CFA004010B50A480100803100224A608B
:101A400003001E245A601B1D641EFBD1C2670A607E
:101A5000026001F067FB019910BC01B00847C04665
:101A60004CFA00400048704788EF01000348704777
:101A7000024870470148704700487047ACEF0100CA
:101A800000B581B0664805210160FA20800014F09D
:101A900089FC14F001FA0120019902B0084710B541
:101AA00014F022FA5E4C2068401E20600DD1606860
:101AB000002807D15B48030040335822010014304E
:101AC000FFF7E6FB606800F0AFF80120019910BC59
:101AD00001B0084710B5524C6068002808D1514841
:101AE000030040336122010064311430FFF7D0FB62
:101AF000606800F099F80120019910BC01B0084716
:101B000010B5474C6068002808D1464803004033B0
:101B10006722010078311430FFF7BAFB606800F0EB
:101B200083F80120019910BC01B0084710B53C4C66
:101B30006068002808D13B48030040336D22010053
:101B40008C311430FFF7A4FB606800F06DF80120C1
:101B5000019910BC01B0084710B5314C60680028ED
:101B600008D130480300403373220100A031143003
:101B7000FFF78EFB606800F057F80120019910BC58
:101B800001B008470120704700B581B000F00CF8A3
:101B90000120019902B008470120704701207047D9
:101BA000012070470000000010B5EA23F022352123
:101BB000002007F007FE0021002007F0D3FE0120DF
:101BC00007F0C4FE0021012007F0C6FE124807F00E
:101BD000F3FD124807F0CCFE012008F0B7FF07F034
:101BE0003DFE0F4CA068002808D10E48030040338A
:101BF0009E220100B4311430FFF74AFBE068A1686F
:101C000000F013F808F0A8FF002008F09FFF0198EB
:101C100010BC01B00047C04602000100604702004E
:101C20003CFD0040C4EF01000047084730B581B0DB
:101C3000C04C86204000201801210170002545601D
:101C400000F0B8F9DB20800022180020002119F0F4
:101C5000D3F9DD20800022180020002119F0CCF9F2
:101C6000DF2080002018056045608560858101B017
:101C7000029830BC01B00047F1B582B00F00AD4C06
:101C80008620400001212154002626710025002FC6
:101C900006D00298405D00F057F86D1CBD42F8D3A5
:101CA000E220800025182E70FF205A302018009066
:101CB000007800283CD08C2040002718DB208000D2
:101CC000221803CF083F19F097F9DD208000221871
:101CD0003800083003C819F08FF92E780098007882
:101CE000022800D3761C032808D1761C203703CFA6
:101CF00018F080F9CE218900611848642E700F48D1
:101D0000205C562814D02878801C2870CE208000B3
:101D100024180CCC083C0A480A4918F0F5F918F0C8
:101D200069F9A0642000083003C818F063F9E06482
:101D300003B00498F0BC01B00047C0462303000084
:101D40006F1283C0CAA1FD3F70B57A4C862149004D
:101D50006518297801290AD000D2E8E003292DD09E
:101D60000DD3052900D195E000D28AE0DFE02428D8
:101D700000D082E000212170618002207CE02C28CC
:101D800010D02A280ED06288082A74D2A1180871AF
:101D90006188491C61802278504020700904090C38
:101DA000082967E06288082A65D20021A21811710B
:101DB000227850402070618003205DE0628880219D
:101DC00049002A2806D18A4255D2A0180021017361
:101DD000042051E08A424ED2A2180D2840D10020A2
:101DE0001073554E31002031201D19F021FA0028C2
:101DF00004D10C34200000F073F92DE031001831CB
:101E0000201D19F015FA002804D10C34200000F030
:101E100097FA21E031001031201D19F009FA00284D
:101E200004D10C34200000F0BFFB15E03100083174
:101E3000201D19F0FDF9002804D10C34200000F019
:101E4000FFFA09E03100201D19F0F2F9002803D152
:101E50000C34200000F0E2FC6868401C68600AE076
:101E600023784340237010736088401C6080000416
:101E7000000C884201D301202870039870BC01B087
:101E80000047010030390A2900DB37380001607053
:101E90000520F1E761780200303A0A2A01DA303889
:101EA00000E0373808436070207861788842E2D1DA
:101EB000214E31002031201D19F0BAF9002804D13B
:101EC0000C34200000F00CF92DE031001831201DF9
:101ED00019F0AEF9002804D10C34200000F030FADB
:101EE00021E031001031201D19F0A2F9002804D1A1
:101EF0000C34200000F058FB15E031000831201DA3
:101F000019F096F9002804D10C34200000F098FA5A
:101F100009E03100201D19F08BF9002803D10C34A1
:101F2000200000F07BFC6868401C6860A3E701208B
:101F30002870A2E7E0ED0040D8F00100F0B481B0D5
:101F400004B4002817D0002915D0012B00DA12E0C4
:101F50000024002500260200009FBE420FD0177803
:101F6000002F0CD02C2F00D1761C6D1C521C177822
:101F7000002FF1D10C70002002B0F0BC7047465D1C
:101F80002C2EF7D02A2EF5D000200D0016782C2EFE
:101F90000AD02A2E08D0002E06D02E70401C6D1CB0
:101FA000521C9842F2DB581E0C54012002B0F0BCC7
:101FB00070470000F0B482B0414800220021018047
:101FC0008170404B002003C3083B1C00083403C44D
:101FD0001A821C00183403C41C00203403C49A6203
:101FE000DA621C00303403C4383303C34D241C7040
:101FF00001245C70344C009414240026AD277F002B
:10200000009DEE53009DAD1C0095641EF8D11C0090
:10201000303403C41C00383403C4186459649A640F
:102020002A4B1A705A80284B1424D4256D005D1950
:102030002E816E812E806E806A600C33641EF4D116
:10204000234C2260562323712500083503C53F2504
:10205000257462741F4C22701F4C03C4083C250079
:10206000083503C52500103503C52500183503C5FF
:10207000203403C4237062602281A272E3722300C1
:10208000103303C32300183303C32300203303C3D7
:10209000283403C4114B01241C705C70FA24E40042
:1020A0005C801D00083503C51A619882987501206F
:1020B000D87518765C839A831A6202B0F0BC7047B8
:1020C000F4EE0040F8EE0040E0ED004084EF004008
:1020D00078F00040A9F00040D0F0004028F1004026
:1020E000F1B58CB0192300226946FFF727FF0028BD
:1020F00027D007AC6D46287820706878607000267D
:10210000A6708D4F8A2040003F180A22002107A8A0
:1021100018F0F6FF3870A8782070E8786070A67024
:102120000A22002107A818F0EBFF787028792070A8
:1021300068796070A6700A22002107A818F0E0FFF5
:10214000B8701923012269460C98FFF7F7FE0028A2
:102150001BD0794F8C2040003E186D460022002194
:10216000A81C18F069FF0022744B18F0A7FD03C6E5
:10217000083E0020A87000220021684618F05CFF8D
:102180000CCE083E18F0F8FC03C61923022269465B
:102190000C98FFF7D3FE00280DD06846007853282E
:1021A00009D1654F8C2040003E1803CE083E8022A6
:1021B0001206514003C61923032269460C98FFF703
:1021C000BDFE002820D05C4F8C2040003E186D469C
:1021D00000220021E81C18F02FFF0022574B18F0B6
:1021E0006DFD3200083203C20020E8700022002199
:1021F000684618F021FF02000B003000083003C8C9
:1022000018F0BAFC083603C61923042269460C9854
:10221000FFF794FE00280FD06846007857280BD1AE
:10222000454F8C2040003E1832000832083603CE5D
:1022300080231B06594003C23F4F8C2040003E18AC
:102240001923052269460C98FFF778FE002803D071
:1022500068460078303830741923062269460C9895
:10226000FFF76CFE00280DD007AC6D462878207073
:10227000687860700020A0700A22002107A818F07A
:102280003FFF70741923072269460C98FFF756FE2A
:10229000002807D000220021684618F0CDFE320049
:1022A000183203C21923082269460C98FFF746FE2C
:1022B000002807D000220021684618F0BDFE320039
:1022C000203203C28A2040003F1878780101081AA2
:1022D0008000B9784418F06AA0421EDA001B18F09A
:1022E00005FA0022154B18F0E9FC0AAA03C20AA855
:1022F0000CC80020002118F027FC0ED03000303030
:1023000003C8320020320CCA17F0FCFF0AAA0CCA1C
:1023100018F0D4FC3200383203C2320030323000C0
:10232000203003C803C2F462B06A401CB0620DB032
:102330000498F0BC01B00047E0ED004000004E40C2
:10234000F0B58BB00700192300226946FFF7F6FDB0
:10235000002803D038486946097801701923012202
:1023600069463800FFF7EAFD002804D03248694684
:102370000978303941700024304EAD2040003518C6
:102380001923A21C69463800FFF7D8FD00280CD09D
:10239000684669460978017707A869464978417017
:1023A000002181700A2218F0ABFE2880641CB61C44
:1023B0000C2CE2DB204C19230E2269463800FFF773
:1023C000BDFD002807D000220021684618F034FE29
:1023D0002200303202E022003032002103C21923F1
:1023E0000F2269463800FFF7A9FD002807D0002218
:1023F0000021684618F020FE2200383202E0220058
:102400003832002103C21923102269463800FFF731
:1024100095FD002805D000220021684618F00CFE2A
:1024200000E0002120646164A06C401CA0640BB03B
:102430000498F0BC01B0004738EF0040E0ED0040E8
:10244000F1B588B01923002201A9FFF777FD002814
:1024500000D19EE00A22002101A818F051FE0A28AE
:1024600000DB96E0002800D593E0012800DA90E038
:102470008000142800DB8CE01923012201A90898B0
:10248000FFF75CFD002800D183E00A22002101A8AB
:1024900018F036FE05000A2D7BDA012D79DB1923B1
:1024A000022201A90898FFF749FD002806D00A2258
:1024B000002101A818F024FE384908800324A80050
:1024C00041000818800036490818009004260027AB
:1024D000BC20400000990D181923220001A908987A
:1024E000FFF72CFD002806D00A22002101A818F0D1
:1024F00007FE288000E02F801923621C01A908989C
:10250000FFF71CFD002806D00A22002101A818F0C0
:10251000F7FD688100E06F811923A21C01A90898CA
:10252000FFF70CFD002806D00A22002101A818F0B0
:10253000E7FD288100E02F811923E21C01A90898FA
:10254000FFF7FCFC002806D00A22002101A818F0A1
:10255000D7FD688000E06F802888002801D1002026
:102560000CE000210E4A03E0491C921C0C29F6DA0B
:10257000AD235B00D35A9842F6D1012068600098E1
:102580000C300090241D761EA2D106480168491C1B
:10259000016009B00498F0BC01B0004786EF00402C
:1025A000E0ED004078F00040F1B58AB01923002238
:1025B0006946FFF7C3FC002824D06D4607AC287895
:1025C0002070687860700027A770924E0A22002160
:1025D00007A818F095FD3070A8782070E878607032
:1025E000A7700A22002107A818F08AFD70702879C8
:1025F000207068796070A7700A22002107A818F07F
:102600007FFDB0701923012269460A98FFF796FCF6
:10261000002802D06846007800E056207D4EF07019
:102620001923022269460A98FFF788FC00281BD06C
:102630006D4600220021A81C18F0FEFC0022764BFB
:1026400018F03CFB3200083203C20020A8700022C0
:102650000021684618F0F0FC320008320CCA18F06D
:102660008BFA3200083203C21923032269460A9802
:10267000FFF764FC00280CD068460078532808D186
:10268000320008323000083003C880231B0659404E
:1026900003C21923042269460A98FFF74FFC002859
:1026A0001DD06D4600220021E81C18F0C5FC002258
:1026B000594B18F003FB3200103203C20020E870BF
:1026C00000220021684618F0B7FC02000B00300021
:1026D000103003C818F050FA3200103203C2192328
:1026E000052269460A98FFF729FC00280CD06846A5
:1026F0000078572808D1320010323000103003C85B
:1027000080231B06594003C21923062269460A98F2
:10271000FFF714FC002805D000220021684618F0BD
:102720008BFC02E000215622F2703200183203C204
:102730001923072269460A98FFF700FC002805D0F4
:1027400000220021684618F077FC02E000215622A2
:10275000F270203603C61923082269460A98FFF74B
:10276000EDFB002826D06D4607AC287820706878ED
:1027700060700027A7700A22002107A818F0C0FC8B
:102780003070A8782070E8786070A7700A22002165
:1027900007A818F0B5FC707028792070687960700F
:1027A000A7700A22002107A818F0AAFCFA21C90084
:1027B000401870801923092269460A98FFF7BEFB6A
:1027C000002805D000220021684618F035FC00E002
:1027D00000213200083203C219230A2269460A98EE
:1027E000FFF7ACFB00280CD068460078572808D1CA
:1027F000320008323000083003C880231B065940DD
:1028000003C23069401C30610BB00498F0BC01B0C9
:102810000047C04600F1004000004E40F0B58BB0CC
:102820000700192300226946FFF788FB002826D0FD
:102830006E4607AC30782070707860700020A07011
:10284000394D0A22002107A818F05AFC2870B078E8
:102850002070F07860700020A0700A22002107A884
:1028600018F04EFC6870307920707079607000202C
:10287000A0700A22002107A818F042FCA8701923B2
:10288000012269463800FFF759FB002805D00A22CB
:102890000021684618F034FC00E00120224DE87069
:1028A0001923022269463800FFF748FB002805D0AB
:1028B0000A220021684618F023FC00E0012028715C
:1028C0001923032269463800FFF738FB002805D09A
:1028D0000A220021684618F013FC00E00120E8807D
:1028E0001923042269463800FFF728FB002804D08A
:1028F0000A220021684618F003FC287219230522D9
:1029000069463800FFF71AFB002804D00A2200218C
:10291000684618F0F5FB6872E868401CE8600BB088
:102920000498F0BC01B000473CF10040F0B587B01E
:10293000CD4E9320C00030180168002901D04248D4
:1029400003E04068002805D0404807B00499F0BC77
:1029500001B00847F720800030180168002901D035
:102960003B48F2E70069002801D13A48EDE73D48CD
:10297000006839490988441A0025002C00D5002434
:10298000FD20800030180090642117F031FF01A86D
:102990000021002200230EC006C0304F2200390063
:1029A00001A817F0EFFA01A9009817F0E9FFFD2040
:1029B000800001B503A817F021FF3118009802B07C
:1029C0000E183570761C01A80021002200230EC0CD
:1029D00006C02200390001A817F0D4FA01A930007E
:1029E00017F0CEFF01A817F009FF36183570761CD6
:1029F00001A80021002200230EC006C022003900D9
:102A000001A817F0BFFA01A9300017F0B9FF01A81B
:102A100017F0F4FE36183570761C01A8002100224C
:102A200000230EC006C022000D4901A817F0AAFA23
:102A300001A9300017F0A4FF01A817F0DFFE30183D
:102A40000570009881E7C04600F1010024F1010003
:102A50004CF1010070F10100A089004084F10100F7
:102A60008CF101009C77004008480078002803D0D2
:102A7000401E03D102487047024870470248704721
:102A800094F10100ACF10100C8F1010028FD004003
:102A900007480168002904D0C06E002801D102480F
:102AA000704702487047C046E0F1010014F201008F
:102AB00044E400406C489321C90041180A68002A88
:102AC00002D14968002901D00B487047F7218900DD
:102AD000411809480A68002A01D0183070470A696D
:102AE000002A06D0C96F002901D030307047483025
:102AF00070475C307047C04624F2010000487047C0
:102B000090F2010000B581B003A013F0B7FD0120E1
:102B1000019902B00847C046000000000048704715
:102B2000A4F2010000B581B0FEF770FD4E49F3201C
:102B3000800008589222D20089180A68002A02D11F
:102B40008968002901D006480068FEF735FD034872
:102B500014F06AFD0120019902B0084734250300F2
:102B600008FB004000487047CCF2010000B581B07E
:102B7000034813F051F90120019902B00847000001
:102B8000BCF6010023480168002902D140680028F2
:102B900000D001487047C04604F3010010B5324C24
:102BA000F72080002018012100220368002B06D0A6
:102BB0000260416011F0ACFC11F040FD03E00160E7
:102BC000426011F099FC00F0B7F80A4815F0B8FB24
:102BD00011F0AAFC11F080FA13F05EF9F0218900DF
:102BE000200017F005FE00F0B7FD0120019910BC90
:102BF00001B0084720FD000006480168002904D103
:102C00004068002801D10248704700207047C04644
:102C100030F30100F0E4004000B581B0034813F048
:102C2000FBF80120019902B00847C046F02B0200D2
:102C30000048704758F3010000B581B00A4893215D
:102C4000C900411800220A6001234B60F721890066
:102C500040180360426011F04FFC13F01DF9012091
:102C6000019902B00847000058E00040034800689E
:102C7000002801D00020704701487047F4E400406C
:102C800090F3010000B581B00A489321C9004118B2
:102C900001220A6000234B60F7218900401802607E
:102CA000436011F029FC13F0F7F80120019902B0FC
:102CB0000847C04658E0004003480068002801D09B
:102CC0000020704701487047F0E40040C4F3010061
:102CD00030B581B0154CF0218900200017F088FD37
:102CE000F020800020180121C161016200210160F3
:102CF00041600F4A8260C160026141610025018329
:102D0000FE21890541620B482418256000F014F863
:102D100065609620800020626563A563E563256495
:102D200001B0029830BC01B00047C04658E00040F6
:102D3000000048435C04000030B581B00F4890218A
:102D4000C900411800220023002400253CC1FA21BB
:102D5000890041180A604A608A600A679321C900A5
:102D60004018026042600DF029FA05484168016090
:102D700001B0029830BC01B00047C04658E00040A6
:102D80009C77004000B581B0FF204E3013F00AFB65
:102D9000FFF7D2FF13F080F800F0DEFC012001996C
:102DA00002B0084710B510F099FF032800DA54E08C
:102DB00011F040FB2B4C2C482218D06B002845D139
:102DC000106C002842D1F120800023189868274910
:102DD00018F06AFA04D91868254918F065FA01D87C
:102DE000012000E00020516B814204D05063002894
:102DF00001D1012010609869D969002914D00028F8
:102E000024D058681B4917F06BFE1FD210F066FFE4
:102E100009281BDB11F0ACFB11F09EFB16480021CA
:102E2000016000F07FF911E000280FD1134800681D
:102E3000134988420AD1506B002807D11148006815
:102E4000002803D100F020F8002806D0F1208000EF
:102E500020180021416213F047F80120019910BCAD
:102E600001B0084758E000405C0400000100F04158
:102E7000015043470100E0405CFC004020FC004062
:102E8000BCF6010014FB0040F0B585B0434CF320C4
:102E900080002518286AE969002923D0002821D15B
:102EA000FEF7B4FB3E48FEF717FB28688B21C900EC
:102EB00061188A6B002A02D1096C002901D03948B7
:102EC0000068FEF779FB01202862374815F038FAD0
:102ED00013F084F90DF072F9344E3548301841681A
:102EE000016050E0002852D0324810F05DFF002809
:102EF00044D001200DF0FAF9012068622E4F2B4ECC
:102F00002E48385A2A497158884235DB2C4DA0206A
:102F100080002818FEF7E0FA2A483018FEF7E6FA93
:102F20009020C0002618284800680328684604D16D
:102F300005F034FF02009C3503E005F02FFF02008E
:102F4000A4352900300017F01DF820483818204912
:102F500009680288891A01800121300015F002FFFA
:102F6000002801D102F050FF8B20C0000121215028
:102F700000F0D8F800200BE013F0F0F88B20C00030
:102F80002058002803D111F043FA11F065FA01200E
:102F900005B00499F0BC01B00847C04658E00040B5
:102FA00020F4010008FB004020FD00000024004048
:102FB0009C53000024BB0040A8770040F81100009B
:102FC000F0F30100FC5200004CFC0040C222000063
:102FD0000CFD004030B585B0144C154D1548006807
:102FE0000328684604D105F0D9FE02009C3503E0B1
:102FF00005F0D4FE0200A4352900200016F0C2FF1F
:103000000D480E4909680288891A018001212000B3
:1030100015F0A8FE002803D102F0F6FE002000E023
:10302000012005B0029930BC01B00847D8E4004047
:10303000F0F301004CFC00406A9A00400CFD004097
:1030400000B581B00C48016800290DD0C06E002881
:103050000AD10A480168426889180160084A914209
:1030600005DB511E016002E0064812F0D5FE01208A
:10307000019902B00847C04644E400409C770040F4
:10308000850300001030030000B581B000F0DCFEC5
:103090000B480178002903D0491E03D1002102E02A
:1030A000022100E00121017014F0A6FC14F0ACFC38
:1030B00000F0D4FE13F092F80120019902B0084705
:1030C00028FD004010B582B0124C002817D0052111
:1030D000684617F08DFB00F0B7FE0F48437B027B7C
:1030E0002100AC31684616F04DFF00F0B7FE0B49E9
:1030F000684618F09DF8002801D1094802E0B32085
:103100008000201812F088FE02B0019810BC01B0B7
:103110000047C046F0F30100F4FC0040ACF9004069
:10312000142B030070B584B010F0D8FD012806DA26
:10313000414814F079FAC82014F02AFC0EE03F4E02
:103140009321C90071180A68002A02D14968002930
:103150000AD011F0E9F93A4801210160012004B0D8
:10316000039970BC01B008470728E1DBF720800015
:1031700034182068002808D00020206001206060FA
:1031800011F0C6F911F05AFA42E02069002839D04E
:103190002C4DE06F002805D0B3208000281812F0D5
:1031A0003BFEDBE7A02080002818FEF795F92648B3
:1031B000FEF79CF99020C0003618244800680328C8
:1031C000684604D105F0EAFD02009C3503E005F0F5
:1031D000E5FD0200A4352900300016F0D3FE1C489E
:1031E0001C4909680288891A01800121300015F004
:1031F000B9FD002801D102F007FE0120E06712F0BE
:10320000EDFFABE7012020600020606011F074F951
:10321000FFF792FD104815F093F811F085F910F0C2
:103220005BFF12F039FEF0218900300017F0E0FA60
:1032300000F092FA92E7C0461425030058E00040DF
:1032400050FB0040F0F30100FC7600404CFC0040D5
:103250006A9A00400CFD004020FD000000B581B0DE
:10326000044813F0E7F804480121016001200199A6
:1032700002B00847B0FA0100B4E4004001207047F2
:1032800000B581B000F096F80120019902B008471E
:1032900010B5104CFB20800020180168002908D0D0
:1032A000C06E002805D10C48FEF716F90B48FEF752
:1032B0001DF9F0218900200017F09AFA9320C00030
:1032C00020180021016041600120019910BC01B06B
:1032D0000847C04658E0004070F60100FC76004008
:1032E00002480121016001207047C046B4E400405B
:1032F00005480169002904D10068401E8041C00FC3
:10330000704700207047C04634E4004070B5254E39
:10331000300006F079FB1023F0223521002006F062
:1033200051FA0021002006F01DFB002006F00EFBE4
:103330000121012006F010FB002006F001FB1A48D5
:1033400006F03AFA194806F013FBFA2006F064FA80
:10335000174D280005F078FF8024A4012300EF22F8
:103360006721002008F0F0F9300006F04DFB102333
:10337000F0226921002006F025FA0021002006F045
:10338000F1FAFA2006F048FA3435280005F05CFF1F
:103390002300EF229B21002008F0D6F9039870BC8F
:1033A00001B0004700203F0002000100604702001A
:1033B00000F7010010B5FFF7A9FF00F0AFFA00F029
:1033C00005FA2148016C002902D000F0CBF804E096
:1033D000406C002805D000F083F8019810BC01B0C3
:1033E00000471A491A480818426B002A02D000F018
:1033F000FBF8F2E7F72292008C18216900290BD024
:1034000014490968002907D060690028E5D000F058
:103410002DF900206061E0E70168002904D0002157
:10342000016000F099F9D8E700F060F90A480068F7
:103430000A498842D1D160680028CED1206800288E
:10344000CBD100F00DF8C8E7D4FA004058E00040B6
:103450005C0400009877004020FC004044EF01002D
:1034600000B583B01023F0229E21002006F0AAF9B7
:103470000021002006F076FA002006F067FA01210C
:10348000012006F069FA002006F05AFA8020400276
:1034900006F092F90D4806F06BFA0D4806F0B4FA02
:1034A0000C48006800F0E4FC02000BA1684616F02E
:1034B00069FD0A2006F0B0F9084805F0C5FE684627
:1034C00005F000FF039804B00047C04660470200C3
:1034D000003F2000CCFA00402575000084F7010071
:1034E00000B581B08023F0229E21002006F06AF909
:1034F0000021002006F036FA012006F027FA02210A
:10350000022006F029FA002006F01AFA8020400274
:1035100006F052F90F4806F02BFA0F480078C00762
:1035200002D5FC20800300E00C4806F06DFA012073
:1035300007F00CFB06F092F9094805F085FE06F04D
:103540001DFA07F009FB002007F000FB019802B00C
:103550000047C0466047020002FD0040003F3F00B8
:10356000C4F7010000B581B08023F0229E21002025
:1035700006F028F90021002006F0F4F9012006F0F9
:10358000E5F90221022006F0E7F9002006F0D8F95B
:103590008020400206F010F90F4806F0E9F90F48C4
:1035A0000078C00702D5FC20800300E00C4806F03C
:1035B0002BFA012007F0CAFA06F050F9094805F085
:1035C00043FE06F0DBF907F0C7FA002007F0BEFA69
:1035D000019802B00047C0466047020002FD00406B
:1035E000003F3F0054F8010000B581B08023F02275
:1035F0009E21002006F0E6F80021002006F0B2F936
:10360000012006F0A3F90221022006F0A5F900200E
:1036100006F096F98020400206F0CEF80F4806F03A
:10362000A7F90F480078C00702D5FC20800300E00E
:103630000C4806F0E9F9012007F088FA06F00EF9C7
:10364000094805F001FE06F099F907F085FA002017
:1036500007F07CFA019802B00047C04660470200BC
:1036600002FD0040003F3F00CCF8010000B581B0F2
:103670008023F0229E21002006F0A4F800210020E3
:1036800006F070F9012006F061F90221012006F030
:1036900063F9002006F054F98020400206F08CF80F
:1036A0000E4806F065F9FC20800306F0ADF9012014
:1036B00007F04CFA06F0D2F8094805F0C5FD0948B4
:1036C00006F0A2F9084805F0FDFD07F045FA0020D4
:1036D00007F03CFA019802B00047C046604702007C
:1036E00070F60100003F3F00FC76004070B5194CB9
:1036F000206A002824D18F267600012001B53300EE
:10370000EF22AE2108F0AEFB02B0206841000C1899
:10371000542C01DB532419E01A20C043844213DAED
:103720000400FC25AD0100233200AF21EF2007F09B
:10373000A3FF812149002B000A1BEF2007F09CFF0B
:10374000039870BC01B00047002CEAD4FC25AD03FF
:10375000E9E7C04614E40040F0B583B06A46194872
:1037600003C803C23222684603C807F0DBFC164DCB
:10377000F72080002858002819D1002481267600DF
:103780001A27FF43286841000818542801DB5320FA
:1037900014E0B84210DA3800FC239B01321A3100E1
:1037A000200007F069FF641C2D1DF02CEADB03B03C
:1037B0000498F0BC01B000470028EDD4FC239B0323
:1037C000ECE7C04644F9010058E0004070B59AB0FB
:1037D0003E4806F019F92023F0227A21002005F056
:1037E000F1FF0021002006F0BDF8002006F0AEF841
:1037F0000121012006F0B0F8002006F0A1F8802099
:10380000400205F0D9FF324806F0B2F83149F12004
:1038100080000A18106856689222D20089180A6837
:10382000002A02D18968002902D02B49086B8E6BCF
:103830002A4DFE21890517F053F901D22C000FE023
:10384000274917F04DF902D22C00083408E0254929
:1038500017F046F902D22C00103401E02C00183485
:1038600016F04AFE02000B002100684616F08AFBA3
:10387000C82005F0D1FF684605F024FD1A4806F07F
:1038800077F80021A02006F06DF8300016F034FE25
:103890000022164B17F070F917F01EFD020000D140
:1038A000012220352900684616F06CFB684605F0B9
:1038B00009FD1021A02006F055F80DA005F002FD2D
:1038C0001AB0039870BC01B00047C046003F3F00EB
:1038D000B05B020058E00040D4FA00404CF901000F
:1038E000000020410000C842604702000000E03FA5
:1038F000637073000749F320800008589222D200B9
:1039000089180A68002A02D18968002901D0024872
:103910000068704758E0004008FB004070B59AB05E
:103920004E4C606C002802D1206C002806D04C4818
:103930000078C00702D5FC20800300E0494806F06B
:1039400063F82023F0224621002005F03BFF0021F0
:10395000002006F007F8002005F0F8FF0121012003
:1039600005F0FAFF002005F0EBFF8020400205F093
:1039700023FF3D4805F0FCFF3C49F3208000081878
:1039800005689222D20089180A68002A02D18B6841
:10399000002B00D0656B4668002A02D18868002899
:1039A00000D0A66BFE218905206C002844D0304D44
:1039B0000E002B480078C00702D5FC20800300E0F1
:1039C000284806F021F82B4C280016F095FD02003F
:1039D0000B002100684616F0D5FAFA2005F01CFF0E
:1039E000684605F06FFC244805F0C2FF0021A020C6
:1039F00005F0B8FF300016F07FFD00221F4B17F0D6
:103A0000BBF817F069FC020000D101221C4C210018
:103A10002031684616F0B6FA684605F053FC1021CE
:103A2000A02005F09FFF2834200005F00DFC1AB0FF
:103A3000039870BC01B00047280017F051F801D27C
:103A40000F4CC1E70F4917F04BF801D20E4CBBE702
:103A50000E4917F045F8B6D20D4CB5E7D4FA004040
:103A600002FD0040003F3F00B05B020058E0004014
:103A700000401C4664F90100604702000000E03F7E
:103A80004CF901000000204154F901000000C84237
:103A90005CF901000048704774F901000048704764
:103AA00090F9010030B581B00C4804880C480460DE
:103AB0000C4D012001B50C492800303003B40B4BEC
:103AC000FA22D2002100280008F02FFC04B00020C8
:103AD000C04301B0029930BC01B00847FCFC004073
:103AE000F8E40040A4F90100F13A0000B80B00002E
:103AF00070B5124D002805D1B3208000281812F0AF
:103B00008BF917E00E4C0A2200210E4817F0F8FA44
:103B100020600D4806786660012001B50B49280039
:103B2000EC3003B40C2301223100B835280008F032
:103B3000FCFB04B0039870BC01B00047F0F3010037
:103B4000F8E40040ACF90040FEFC0040513B0000AE
:103B500030B581B0002803D1264812F05DF943E06A
:103B6000254C0A220021254817F0CAFA6060244833
:103B70000578A560606802280CD0082801DB0123C5
:103B800000E00023C10F091849104900401A4340C2
:103B90001E3319E02268100000F076F9C8214900B0
:103BA0004843101A0DD05010800F801880108000EC
:103BB000101A08D1100000F075F919214843101AA5
:103BC00001D01D2300E01C230E4C012001B50E493D
:103BD000AA204000201803B40122290082204000BE
:103BE000201808F0A2FB04B001B0029830BC01B06C
:103BF0000047C046BCF60100F8E40040ACF90040C4
:103C0000FFFC0040F0F301000D3C000070B5134DC7
:103C1000002805D1B3208000281812F0FDF819E023
:103C20000F4C0A2200210F4817F06AFA20600E4854
:103C300006786660012001B50C49AA2040002818CA
:103C400003B4062300223100B4204000281808F0F5
:103C50006CFB04B0039870BC01B00047F0F30100A6
:103C600000E50040ACF90040F8FC0040713C000069
:103C700070B58CB0294D002805D1B32080002818DC
:103C800012F0CAF844E0264C0A220021254817F019
:103C900037FAE060684629003022FDF701FB002179
:103CA0006068022807DB6A46121D431E16688919E0
:103CB000121D5B1EFAD12161A2688A1822610328B5
:103CC00013DB2368980710D1180000F0F9F864217D
:103CD0004843181A07D1180000F0D6F8C821490047
:103CE0004843181A01D1521C22610F4806786661B8
:103CF000012001B50D4986208000281803B4172340
:103D000000223100F4204000281808F00EFB04B017
:103D10000CB0039870BC01B00047C046F0F301003E
:103D2000F8E40040ACF9004000FD0040313D0000E7
:103D300070B5134D002805D1B3208000281812F06B
:103D40006BF819E00F4C0A2200210F4817F0D8F940
:103D500020600E4806786660012001B50C49992064
:103D60008000281803B43B23002231008B20800000
:103D7000281808F0DAFA04B0039870BC01B00047C4
:103D8000F0F301000CE50040ACF9004001FD0040FB
:103D9000953D000010B5002813D00D4C0A220021DB
:103DA0000C4817F0ADF9A0612168606803B421697F
:103DB000E06803B4A3686269A1691E2005F00AF8EF
:103DC00004B0054812F028F8019810BC01B0004773
:103DD000F8E40040ACF90040BCF601000048704730
:103DE000E8F9010000B581B00849C86A401C042800
:103DF00000DB0020C8620648CA6A01000C310FF0DF
:103E00004DF90020019902B00847C04620FC00404F
:103E100020FA010007480068401E05D0401E05D06A
:103E2000401E05D104487047044870470448704755
:103E3000044870474CFC004034FA010054FA010079
:103E400074FA010090FA01007847C04600C00FE103
:103E5000C0C08CE30CF021E11EFF2FE17847C04683
:103E600000C00FE1C0C0CCE30CF021E11EFF2FE148
:103E70007847C04608109FE590118CE0AC00B0E197
:103E80001EFF2FE1ABAAAAAA7847C0460CC09FE547
:103E9000901CCCE0CC03B0E1010080421EFF2FE17A
:103EA0001F85EB517847C0460CC09FE5901CCCE0C5
:103EB000CC01B0E1010080421EFF2FE11F85EB51D4
:103EC0007847C0460CC09FE5901CCCE0CC02B0E126
:103ED000010080421EFF2FE11F85EB510048704713
:103EE00054FB0100004870476CFB0100004870471C
:103EF00084FB010000B581B08C48006805281ED8FD
:103F000001A1095C8F44C046060E161E262E1248DB
:103F1000019902B008471148019902B008471048BA
:103F2000019902B008470F48019902B008470E48AE
:103F3000019902B008470D48019902B008470C48A2
:103F40000300E43367220100BC30FDF7A1F9002033
:103F5000019902B00847C046B0FB0100CCFB01004C
:103F6000E8FB010004FC010020FC010038FC01001A
:103F700098FB0100034804490968002900D1143066
:103F80007047C04654000200E0F700400048704708
:103F90008400020010B5FFF77DFD0A4C0A4902B506
:103FA0002100843103B4094B094A1B4801682000F1
:103FB00008F016F904B00020C043019910BC01B00C
:103FC0000847C046B4000200D53F00000000C842C8
:103FD000CDCCCC3D70B5524C00280ED00E4D0022F9
:103FE0000021514817F028F816F004F82860020064
:103FF0002100103120000FF07FF84C4D2E688120F9
:104000008000201811F008FF2E6011F045FF039882
:1040100070BC01B0004700003CE40040004870471D
:104020008803020010B50A4C0A492000803003B40E
:1040300096235B001E2218480168200008F036F91C
:1040400002B00020C043019910BC01B00847C0462F
:10405000D00302005940000070B5314C00280DD04B
:104060000D4D0A220021304817F04AF8286002005E
:1040700021003031200020300BF0F2FD2B4D2E6856
:1040800081208000201811F0C7FE2E6011F004FF7F
:10409000039870BC01B00047A0770040004870470B
:1040A0006C04020000487047BC04020000B581B0F7
:1040B000084909A003B496239B001E2219480168F1
:1040C000064808F0F3F802B00020C043019902B09E
:1040D0000847C046E140000000000000080502005B
:1040E00070B50F4C00280DD00E4D0A2200210E484D
:1040F00017F006F8286002002100583120004830EF
:104100000EF0CCFF094D2E6881208000201811F0A0
:1041100083FE2E6011F0C0FE039870BC01B0004712
:1041200040010200A4F90040ACF9004008F700404B
:10413000F0B581B04B48C0C806F06EF800243F25AA
:1041400022002A403000390006F06EFE0A2012F0EC
:1041500045FE641C402CF3DBFA20400012F03EFECA
:1041600000242000284002023000390006F05CFEE6
:104170000A2012F033FE641C402CF2DBFA204000CF
:1041800012F02CFE002420002840020430003900E8
:1041900006F04AFE0A2012F021FE641C402CF2DBDD
:1041A000FA20400012F01AFE0024200028400102EC
:1041B00002040A433000390006F036FE0A2012F0ED
:1041C0000DFE641C402CF0DBFA20400012F006FECD
:1041D000002420002840020202433000390006F08B
:1041E00023FE0A2012F0FAFD641C402CF1DBFA20B9
:1041F000400012F0F3FD0024200028400204024396
:104200003000390006F010FE0A2012F0E7FD641CB1
:10421000402CF1DBFA20400012F0E0FD00242000E9
:1042200028400102014302040A433000390006F02D
:10423000FBFD0A2012F0D2FD641C402CEFDBFA20BB
:10424000400012F0CBFD05F0E7FFFA20400012F02D
:10425000C5FD11F021FE012001B00499F0BC01B0B0
:104260000847C046780502000048704780050200F4
:1042700000B581B0074908A003B40623022207480D
:104280000168074808F012F802B00020C043019905
:1042900002B00847A54200000000000004240040CE
:1042A000B005020070B50F4C00280DD00E4D0A224B
:1042B00000210E4816F024FF6860020021006C31D6
:1042C000200020300BF0CCFC094D2E6881208000AE
:1042D000201811F0A1FD2E6011F0DEFD039870BCD6
:1042E00001B000474001020000240040ACF900404A
:1042F00008F7004030B581B0134C606B17F0A2F99D
:1043000016F0FAF80022114B16F0D8FC15F072FEE8
:104310000500A5630E4C0F4801B5BA2040002118D6
:104320000838201803B40C4BFE2292052900822085
:104330004000201807F054FF04B00020C04301B033
:10434000029930BC01B0084700240040000024401E
:1043500098FB01005D4300000000404070B5144D23
:10436000002816D0134C00220021134816F064FEDA
:1043700015F040FEA0630100104817F0B3F816F0E6
:10438000C7FB0200626329007831280020300BF05F
:1043900067FC0B4C266881208000281811F03CFD3A
:1043A000266011F079FD039870BC01B00047C0464B
:1043B0004001020000240040ACF900400000204110
:1043C00008F70040004870470806020000487047A0
:1043D0004C060200004870477006020000B581B02C
:1043E0000549064B0A002032FC20800303F06EFED4
:1043F0000120019902B00847A40602000144000010
:10440000F0B581B0002818D000F0B8FB0D4F0E4C6D
:104410000EA528000AF0B6F8060006D009F014FA36
:10442000A04202D13868002803D112F02DFD002EE1
:10443000EFD111F023FD11F057FD01B00498F0BC4D
:1044400001B0004790F900400540008073707A0089
:1044500000B581B00649074B8E2040000A18FC20A9
:10446000800303F033FE0120019902B00847C046E3
:10447000A406020079440000F0B581B000282FD0D6
:1044800000F07CFB19480090194F1A4D1AA4210026
:1044900028000AF0EBF8060007D009F0D5F9B84279
:1044A00003D100980068002803D112F0EDFC002E23
:1044B000EDD12100280008300AF0D8F8060007D016
:1044C00009F0C2F9B84203D108480068002803D1B6
:1044D00012F0DAFC002EECD111F0D0FC11F004FD4A
:1044E00001B00498F0BC01B00047C04690F900400C
:1044F00005400080F410020073707A0000B581B0AE
:104500000649074B9D2080000A18FC20800303F019
:10451000DDFD0120019902B00847C046A406020053
:1045200025450000F0B581B0002818D000F026FB2A
:104530000D4F0E4C0EA528000AF024F8060006D0F8
:1045400009F082F9A04202D13868002803D112F0A4
:104550009BFC002EEFD111F091FC11F0C5FC01B0D5
:104560000498F0BC01B0004790F90040054000807D
:104570006C6F670000B581B00649074BD9208000F9
:104580000A18FC20800303F0A1FD0120019902B06C
:104590000847C046A40602009D450000F0B581B062
:1045A000002818D000F0EAFA0D4F0E4C0EA5280096
:1045B00009F0E8FF060006D009F046F9A04202D152
:1045C0003868002803D112F05FFC002EEFD111F003
:1045D00055FC11F089FC01B00498F0BC01B0004713
:1045E00090F90040054000806D63730000B581B014
:1045F0000649074B8A20C0000A18FC20800303F0FC
:1046000065FD0120019902B00847C046A4060200DA
:1046100015460000F0B581B0002818D000F0AEFAC1
:104620000D4F0E4C0EA5280009F0ACFF060006D079
:1046300009F00AF9A04202D13868002803D112F02B
:1046400023FC002EEFD111F019FC11F04DFC01B04C
:104650000498F0BC01B0004790F90040054000808C
:104660006C69620000B581B00649074BAA20C00002
:104670000A18FC20800303F0DDFC0120019902B040
:104680000847C046A40602008D46000000B581B070
:1046900000280ED0084909A003B4094B00220021CC
:1046A000084807F003FE02B007480021016003F04C
:1046B000D7FC019802B00047CD4600000000000082
:1046C0000F2700000411020024FD004010B582B045
:1046D000040018D00521684616F08AF8FFF7B4FBED
:1046E0000D48437B027B0D49684615F04BFCFFF7F4
:1046F000B5FB0B49684616F09BFD002803D120004E
:104700000AF094FAFEE707480121016002B001981F
:1047100010BC01B00047C046F4FC0040CC010200D0
:10472000ACF9004024FD004000B581B00549064BBE
:1047300006480A18FC20800303F0C8FC01200199F8
:1047400002B00847A40602005147000064070000B9
:1047500000B581B0002807D00DF056FA0DF074FABC
:104760000DF01EFB0DF042FB019802B00047000067
:10477000004870479411020000487047D8110200A9
:104780000048704718120200004870476812020083
:10479000004870479812020000487047D01202008B
:1047A00030B581B0084C002525606560A560E560E6
:1047B00025616561A56100F009F8D834256001B074
:1047C000029830BC01B0004708F7004010B481B037
:1047D000134801001C310022002300241CC10CC11D
:1047E000010030311CC10CC1010044311CC10CC19D
:1047F000010058311CC10CC101006C311CC10CC13D
:10480000010080311CC10CC1010094311CC10CC1DC
:10481000A83000210EC006C001B010BC7047C046D1
:1048200008F7004000B581B0FFF7D0FFFA20800004
:1048300011F0B8FD04480021016011F02DFB0120AA
:10484000019902B00847C04608F70040F0B581B0B2
:10485000954D2868002805D0001F0BD0401E00D1C0
:10486000E1E001E000F044FA012001B00499F0BC5D
:1048700001B008478D4CC820400027188C4E706B43
:1048800015F03AFE02000B00390028001C3015F02C
:1048900079FB142809D3CC2040002318854A1C3802
:1048A00021182000BC30FCF7F3FCB06B15F024FE9F
:1048B00002000B000020804916F05EF916F00CFD96
:1048C000002800D101200200D42040002118280037
:1048D000303015F057FB14280AD3CC2040002318A1
:1048E000E52292001C3821182000BC30FCF7D0FCD7
:1048F000306B15F001FE02000B0039002800443037
:1049000015F040FB142809D3CC20400023186B4A33
:104910001C3821182000BC30FCF7BAFC68A772686C
:1049200039002800583015F02DFB142809D3CC206D
:1049300040002318634A1C3821182000BC30FCF7C3
:10494000A7FC7269390028006C3015F01BFB142895
:1049500009D3CC20400023185B4A1C3821182000C2
:10496000BC30FCF795FC59A7306F15F0C5FD02006F
:104970000B0039002800803015F004FB14280AD3FE
:10498000CC2040002318E82292001C382118200077
:10499000BC30FCF77DFCB06F15F0AEFD02000B00E3
:1049A0004BA12800943015F0EDFA142809D3CC203F
:1049B00040002318474A1C3821182000BC30FCF75F
:1049C00067FC706F15F098FD02000B00390028009D
:1049D000A83015F0D7FA142809D3CC2040002318AA
:1049E0003D4A1C3821182000BC30FCF751FC3B48E4
:1049F000006815F081FD02000B00D820400021184E
:104A0000BC35280015F0BEFA142809D3CC2040008C
:104A10002318334A1C382118BC342000FCF738FC1A
:104A200011F062FA20E72F4E204CF268D4204000AB
:104A3000211828001C3015F0A5FA142809D3CC2021
:104A400040002318284A1C3821182000BC30FCF7ED
:104A50001FFCBA2040002718306815F04DFD0200F9
:104A60000B0039002800303015F08CFA142809D3D7
:104A7000CC20400023181D4A1C3821182000BC30CF
:104A8000FCF706FC1A48006815F036FD02000B0022
:104A900039004435280015F075FA1428C0D3CC200D
:104AA00040002318134AB5E708F7004098FB0100BF
:104AB000D4FA00408E0300000000E03F970300009E
:104AC000257500009A0300009D0300002566000084
:104AD00025670000A3030000A60300003CE400409B
:104AE000AD030000ECF80040B3030000B603000083
:104AF0007CF90040B903000000B581B0034811F013
:104B00008BF90120019902B00847C046BCF60100AC
:104B100000B581B0034811F07FF90120019902B07E
:104B20000847C04688EE010010B5134C2068401CB1
:104B3000062800D100202060FFF748FE11F0ACF9F4
:104B40002068012811D100F019F82000183001B5B3
:104B5000230014332200103221000C3108342000CD
:104B60000AF09AF902B011F089F911F0BDF90120AB
:104B7000019910BC01B0084708F7004000B581B0AA
:104B800011F07CF9114804F0F3FE1023F022772194
:104B9000002004F017FE0E4804F036FF002100202C
:104BA00004F0E0FE002004F0D1FE0121012004F019
:104BB000D3FE002004F0C4FE064804F0FDFD0648C4
:104BC00004F042FB019802B00047C0466047020073
:104BD000003F3F00020001001413020070B582B0D4
:104BE000154C002818D00521684615F001FEFFF786
:104BF0002BF91248437B027B21008C31684615F06B
:104C0000C1F9FFF72BF90E49684616F011FB002891
:104C100002D10C48012101600B4D2E6881208000DB
:104C2000201811F0F9F82E6011F036F902B003984F
:104C300070BC01B00047C04640010200F4FC0040D7
:104C4000ACF90040E0F7004008F7004000B581B043
:104C50001448D821415800290AD1134913A003B49C
:104C6000134B00220021134807F020FB02B015E08F
:104C70000068052812D801A1095C8F440408140CAF
:104C800010180D4808E00D4806E00D4804E00D48F6
:104C900002E00D4800E00D4811F0CCFB0120019925
:104CA00002B0084708F70040DD4B0000000000009C
:104CB0000F27000058130200CC1302001415020045
:104CC00070140200B81502005C1602000017020002
:104CD0000120704700B581B000F00AFC0120019965
:104CE00002B008470120704701207047012070473B
:104CF00000B589B019480168002905D0807BC0073C
:104D000002D5FC20800300E0154804F07DFE10234E
:104D1000F0223521002004F055FD0021002004F090
:104D200021FE002004F012FE0121012004F014FEF7
:104D3000002004F005FE8020400204F03DFD0948FB
:104D400004F016FE0A2004F067FD684603F0B4FF85
:104D500004F0B8FA09980AB00047C046F4FC0040D5
:104D6000003F3F0060470200F0B583B00400374FBA
:104D7000380004F0FDFD36482318F022FF204030B3
:104D8000011B002004F01EFD324804F03DFE01200E
:104D900004F0DCFD304C200004F094FA20001830C0
:104DA00004F052FA2D4E3500D0352A682CA1684601
:104DB00015F0E8F8684604F085FA2000403004F069
:104DC00043FAEB882A7921007031684615F0DAF849
:104DD000684604F077FA234804F016FE224804F0EF
:104DE00033FA22A5280004F06DFA214804F02CFAC9
:104DF000280004F067FA1F4804F0BAFD200078305C
:104E000004F060FAFE36300004F05CFA380004F07A
:104E1000AFFD280004F056FA174804F0F5FD200015
:104E2000803004F04FFA2000943004F00DFA200096
:104E3000E43004F009FAB4204000201804F042FAEB
:104E400003B00498F0BC01B00047C04660470200C0
:104E5000E2FEFFFF00203F00A417020008F7004019
:104E600025750D00003F2000DC2003000D00000030
:104E70002821030098D60200003F3F0010B586B0FD
:104E8000214804F075FDEA23F0223521002004F0CA
:104E900099FC1E4804F0B8FD1D4C200004F0D4F924
:104EA0002000703004F0D0F92000E03004F0CCF99C
:104EB0009A204000201804F0C7F9CC2040002018A8
:104EC00004F0C2F9FC204000201804F0BDF9A02035
:104ED0008000201804F0B8F9BC208000201804F0ED
:104EE000B3F9BE208000201804F0AEF9094802682A
:104EF00009A1684615F046F8684604F0E3F906B0E3
:104F0000019810BC01B0004788390200003F3F0003
:104F100024190200D4E4004025750D0070B5424804
:104F200004F026FD414804F06FFDAB23F02235214B
:104F3000002004F047FC012005F008FE04F08EFC80
:104F40003B4C200004F080F92000303004F07CF964
:104F5000384D28001C3004F0B5F937A6300004F0B5
:104F6000B1F92000603004F06FF92800303004F00F
:104F7000A9F9300004F0A6F920008C3004F064F99F
:104F80002800443004F09EF9300004F09BF9200022
:104F9000C03004F059F92800583004F093F930007B
:104FA00004F090F92000FC3004F04EF928006C3039
:104FB00004F088F9300004F085F99A2040002018A8
:104FC00004F042F92800803004F07CF9300004F04D
:104FD00079F9A8204000201804F036F92800943010
:104FE00004F070F9300004F06DF9BA204000201888
:104FF00004F02AF92800A83004F064F9300004F025
:1050000061F90E4804F0B4FCCE204000201804F0F2
:105010001BF9BC35280004F055F9002005F096FD79
:10502000039870BC01B0004760470200003F3F009A
:10503000881C020008F700400D00000088390200BB
:1050400070B5264804F094FC254804F0DDFC4C23A0
:10505000F0223521002004F0B5FB012005F076FD9B
:1050600004F0FCFB1F4C200004F0EEF8200024307C
:1050700004F0EAF81C4D28001C3004F023F91BA6AC
:10508000300004F01FF91A48B0214158002902D01D
:105090008069032802DA2000483001E020009030C7
:1050A00004F0D2F82000E43004F0CEF828003030CC
:1050B00004F008F9300004F005F9882040002018B9
:1050C00004F0C2F84435280004F0FCF8002005F094
:1050D0003DFD039870BC01B00047C0466047020028
:1050E000003F3F00741E020008F700400D00000062
:1050F000E0F8004070B590B0484804F039FCEA236D
:10510000F0223521002004F05DFB454804F07CFCD2
:10511000444CEA204000201804F096F8424E30003B
:10512000083004F0CFF841A004F0CCF840A5414885
:1051300032582900684614F025FF3C2809D3CC20BA
:10514000400023183C4A243021182000BC30FCF7D2
:105150009FF880208000201804F076F8684604F05C
:10516000B1F8361D72692900684614F00BFF3C281F
:1051700009D3CC2040002318304A243021182000C5
:10518000BC30FCF785F88A208000201804F05CF819
:10519000684604F097F832682900684614F0F2FE79
:1051A0003C2809D3CC2040002318254A243021185C
:1051B0002000BC30FCF76CF895208000201804F02B
:1051C00043F8684604F07EF8306B16F03BFA1D4950
:1051D00016F0A2F815F090F902000B00A020800054
:1051E0002118684614F0CEFE3C2809D3CC2040009C
:1051F0002318154A243021182000BC30FCF748F849
:10520000A2208000201804F01FF8684604F05AF825
:1052100010B0039870BC01B00047C0466047020060
:1052200000203F0098FB0100002400400D0000001A
:1052300025640D0054300000190500001E05000013
:1052400023050000000020412D050000F0B591B0BD
:10525000954804F08DFBEA23F0223521002004F06C
:10526000B1FA924804F0D0FB914F7D68914CB82080
:10527000800020180090904E3200010002A814F027
:1052800081FE3C280AD3CC20400023188B4AB22050
:10529000800021182000BC30FBF7FAFFBA20800004
:1052A000201803F0D1FF02A804F00CF8721B00993B
:1052B00002A814F067FE3C280BD3CC204000231832
:1052C000A922D200B220800021182000BC30FBF7B8
:1052D000DFFFC3208000201803F0B6FF02A803F010
:1052E000F1FFCC2080002018009064204543280066
:1052F00000F00EFE0200009902A814F043FE3C28C4
:105300000AD3CC20400023186D4AB2208000211817
:105310002000BC30FBF7BCFFCE208000201801909D
:1053200003F092FF02A803F0CDFFBD6865A62A0036
:10533000310002A814F026FE3C280AD3CC204000FD
:105340002318614AB220800021182000BC30FBF7EE
:105350009FFFD6208000201803F076FF02A803F0FC
:10536000B1FF642064214D43A90A421A009902A8A2
:1053700014F008FE3C280AD3CC2040002318534ADE
:10538000B220800021182000BC30FBF781FF01987B
:1053900003F05AFF02A803F095FFFA68310002A853
:1053A00014F0F0FD3C280AD3CC2040002318484AD2
:1053B000B220800021182000BC30FBF769FFDF20FD
:1053C0008000201803F040FF02A803F07BFF3A6939
:1053D000310002A814F0D6FD3C280AD3CC204000AE
:1053E00023183C4AB220800021182000BC30FBF773
:1053F0004FFFEA208000201803F026FF02A803F0E8
:1054000061FF7A69310002A814F0BCFD3C280BD37F
:10541000CC2040002318AF22D200B22080002118F7
:105420002000BC30FBF734FFF6208000201803F08A
:105430000BFF02A803F046FFBA69310002A814F07E
:10544000A1FD3C280AD3CC2040002318224AB220D8
:10545000800021182000BC30FBF71AFF1F482018DD
:1054600003F0F2FE02A803F02DFF1D4802881DA1E3
:1054700002A814F087FD3C280AD3CC204000231852
:10548000194AB220800021182000BC30FBF700FF31
:105490001648201803F0D8FE02A803F013FF11B03D
:1054A0000498F0BC01B0004760470200003F2000B4
:1054B00008F7004098FB0100AF0300004205000020
:1054C0004E05000025750D00570500005D05000024
:1054D000660500006F050000810500000C04000057
:1054E000A8F4004025750000890500003C04000078
:1054F00000B581B00021002004F034FA002004F04F
:1055000025FA0321012004F027FA002004F018FAFC
:105510008020400204F050F91C4804F029FA1C488D
:105520000068052826D801A1095C8F440414281EB0
:105530003C32F520FFF718FCFFF7DAFB019802B0C8
:105540000047FFF783FE019802B00047FFF7D2FD46
:10555000019802B00047FFF791FC019802B00047A4
:10556000FFF76EFD019802B00047FFF7D7FC0198E6
:1055700002B0004707480300E433074A07494118CF
:10558000BC30FBF785FE019802B00047604702007F
:1055900008F7004098FB0100AF0500006C04000014
:1055A00000B581B0094801B509A10AA003B4802360
:1055B000DB05FC22920508480168084806F010FE49
:1055C00004B00020C043019902B00847E155000033
:1055D00025660000000000007CF90040BC1F0200AE
:1055E00070B5124D002813D0114C00220021114833
:1055F00015F022FD14F0FEFC206066690020606159
:10560000226829009831280048300DF075FD666148
:10561000094C266881208000281810F0FDFB2660C8
:1056200010F03AFC039870BC01B000474001020042
:105630007CF90040ACF9004008F7004000B581B0AB
:105640000649074B0A003032FC20800102F0F2FCD0
:105650000020C043019902B00847C0464020020024
:105660006556000070B5002848D011F07FFA11F09F
:10567000D1FA02F087FF0AF0AFF811F0DDF812F06E
:10568000C3F912F0B9F9002010F0C6FB1D4C00253B
:10569000256107F03FFB04F0D3FF04F02FFD1A480B
:1056A000016804220A4302600168022291430160FA
:1056B0000168802291430160016812020A4302607E
:1056C000012611F0E1FB25606560E560A560E661FB
:1056D00005F016F811F030FA20680028F1D00FF02C
:1056E000C5FD002802D011F0CFFBF8E707483105CF
:1056F00001604900016011F0C7FBFCE7039870BC32
:1057000001B0004780F9004044C11FE03CC0FF3FAA
:10571000004870475C22020000B581B0084801B51E
:1057200008A109A003B4094B094A0A4801680A48BC
:1057300006F056FD04B00020C043019902B00847AE
:105740005D570000256600000000000000002041B9
:10575000BD37863544FB00408C22020070B5104CEA
:1057600000280FD00F4D002200210F4815F064FCD7
:1057700014F040FC286702002100B4312000A4305E
:105780000DF0BAFC094D2E6881208000201810F021
:1057900043FB2E6010F080FB039870BC01B0004703
:1057A00040010200D4FA0040ACF9004008F7004084
:1057B00050B581B00D4C0E4801B50EA120005430FB
:1057C00003B40D4B1E000D4800680D4915F08AFE0C
:1057D000010033000022200006F002FD04B000208A
:1057E000C04301B0029950BC01B00847E822020052
:1057F000055800002566000000007A444CFB00407C
:105800000024744970B5124C002813D0114D0022A9
:105810000021114815F010FC0022104B15F04EFA33
:1058200014F0E8FBA86702002100BC312000A4307E
:105830000DF062FC0A4D2E6881208000201810F0C7
:10584000EBFA2E6010F028FB039870BC01B0004703
:1058500040010200D4FA0040ACF9004080842E419F
:1058600008F7004010B50A4C0A4801B50AA120000B
:10587000583003B4094B002209480168200006F0A3
:10588000AFFC04B00020C043019910BC01B0084730
:1058900048230200A55800002566000000001041C2
:1058A00048FB004070B5104C00280FD00F4D00226F
:1058B00000210F4815F0C0FB14F09CFB6867020044
:1058C0002100C8312000A4300DF016FC094D2E68CF
:1058D00081208000201810F09FFA2E6010F0DCFA72
:1058E000039870BC01B0004740010200D4FA0040A8
:1058F000ACF9004008F7004000487047B0230200B0
:1059000000487047F0230200004870472C24020032
:1059100010B50D490C0008340C4860670C48A067AE
:10592000C8200C4A0A50002307220C310AA008F0B4
:105930009DFD2060094810F06FFA0020C0430199D6
:1059400010BC01B00847C04610F80040E9590000FB
:10595000495A0000615900006C69620070E502005C
:1059600070B51A4C002823D0194D1A48102201682E
:10597000090141180C312800083015F061F808358C
:105980002A00EE2040002118200020300AF090F973
:1059900000280DD00AF0BAF90F49884208D10F4B00
:1059A0002200F4322100D431FC20800302F042FBBB
:1059B0000B4D2E6881208000201810F02DFA2E60EB
:1059C00010F06AFA039870BC01B000474001020071
:1059D0000024004010F8004005400080E559000018
:1059E00008F700407047000030B581B014A5154C91
:1059F0006068C100081AA1684318072221000C3111
:105A0000280008F033FDA0606068A168002902D07A
:105A1000401C606008E0C1000B1A072221000C3115
:105A2000280008F023FDA060A068012801DB012008
:105A300000E0002001B0029930BC01B00847C04628
:105A40006C69620010F8004030B581B0144C606899
:105A5000002820D013A5C1000B1ADB1F072221004C
:105A60000C31280008F002FDA0606068A1680029E0
:105A700002D0401E606008E0C1000B1A072221001E
:105A80000C31280008F0F2FCA060A068012801DBBE
:105A9000012000E0002001B0029930BC01B00847AD
:105AA00010F800406C696200F0B587B0A34C15F0A7
:105AB000C1FD0022A24B14F027FB04AA03C2A14F90
:105AC00002A9684603B4C020C0059F4903B408A8D2
:105AD0000CC8380011F0F4FB04B0002817D000986F
