:1000000018F09FE518F09FE518F09FE518F09FE5C0
:1000100018F09FE5586FA0B818F09FE518F09FE51D
:100020004C940000D05101000C520100D854010042
:1000300014550100FFFFFFFF084F01006854010045
:10004000FFFFFFFFFFFFFFFFFFFFFFFFFFFFFFFFC0
:10005000FFFFFFFFFFFFFFFFFFFFFFFFFFFFFFFFB0
:10006000FFFFFFFFFFFFFFFFFFFFFFFFFFFFFFFFA0
:10007000FFFFFFFFFFFFFFFFFFFFFFFFFFFFFFFF90
:10008000034832490968002900D124307047C0462E
:1000900024EA01000048704770EA010000487047F8
:1000A00088EA0100034829490968002900D1143071
:1000B0007047C046A0EA010000487047C4EA01004A
:1000C00002480021016041607047000070FD00405F
:1000D00000B581B0FA20800016F08EFD16F006FB08
:1000E0000120019902B0084700B581B016F026FB47
:1000F0000120019902B0084700B581B0034816F00D
:10010000B3FA0120019902B00847C0461006020068
:1001100000B581B0034816F0A7FA0120019902B09A
:100120000847C0469412020000B581B00748006835
:10013000002802D008F0D0FC01E008F0FDFC16F029
:10014000D5FA0120019902B008470000CCC1004057
:1001500000B581B0034816F097FD0120019902B067
:100160000847C04644EC01000120704700B581B04B
:1001700000F05CF80120019902B0084701207047A7
:10018000012070470020704770B5FC26B601300092
:1001900009F0E4FE1023F0223521002009F0BCFD17
:1001A0000021002009F088FE002009F079FE0121DD
:1001B000012009F07BFE002009F06CFE194809F0CF
:1001C000A5FD764809F07EFE0A2009F0CFFD164D08
:1001D000280009F0E3FA8024A4012300EF2267211C
:1001E00000200BF05BFD300009F0B8FE1023F02278
:1001F0006921002009F090FD0021002009F05CFE3B
:10020000FA2009F0B3FD2835280009F0C7FA2300C9
:10021000EF229B2100200BF041FD039870BC01B040
:100220000047C04602000100D8EA010010B5FFF700
:10023000ABFF00F05FF800F0B3F8164809F08EFE4F
:10024000002009F02DFE0121012009F02FFE0020E1
:1002500009F020FE264809F059FD0A4809F032FE4F
:1002600009A4200009F0D8FA200009F0D5FA0748BF
:1002700009F094FA064809F0CFFA019810BC01B0D1
:100280000047C046784802000D00000030EB010036
:100290004CCE0040003F3F0000B581B0024816F050
:1002A000E3F9019802B0004700EC010000B581B00D
:1002B0000E49802040020A68824200D1401C08603A
:1002C00004480A680100203113F00CFB002001995A
:1002D00002B0084768EB0100034804490968044A72
:1002E000914200D0303070479CEB010048CE004076
:1002F0000100010030B585B0224809F02FFE20230F
:10030000F0224621002009F007FD0021002009F01D
:10031000D3FD002009F0C4FD0121012009F0C6FD34
:10032000002009F0B7FD8020400209F0EFFC1648DC
:1003300009F0C8FD15A18025ED00154C2068A842E4
:1003400001D2226801E02068820A68461AF0EAFABF
:10035000FA2009F00BFD684609F05EFA1021BE2074
:1003600009F0AAFD0D4809F0ADFD2068A84201D2B0
:1003700008A000E008A009F04FFA05B0029830BCD0
:1003800001B00047003F3F00A06A02002575000051
:1003900070FD004020420000206B420050560200D9
:1003A00030B585B0224809F0D9FD2023F0227A210A
:1003B000002009F0B1FC0021002009F07DFD0020A3
:1003C00009F06EFD0121012009F070FD002009F007
:1003D00061FD8020400209F099FC164809F072FD89
:1003E00015A18025ED00154C6068A84201D2626815
:1003F00001E06068820A68461AF094FAC82009F0A1
:10040000B5FC684609F008FA1021BE2009F054FD39
:100410000B4809F057FD6068A84201D209A000E02E
:1004200009A009F0F9F905B0029830BC01B0004705
:10043000003F3F00A06A02002575000070FD0040EB
:100440005056020020420000206B420003487D49C4
:100450000968002900D120307047C046E8EC01004F
:10046000004870472CED01000048704744ED010042
:10047000002074490968002901D10B48704772496E
:100480000968002906D0022908D005D3042909D01B
:1004900006D37047054870470548704705487047C0
:1004A00005487047054870475CED01006CED0100A0
:1004B00084ED01009CED0100B4ED0100CCED0100E4
:1004C00000487047E8ED01005F4800210160704777
:1004D00000B581B0FA20800016F08EFB16F006F908
:1004E0000120019902B0084700B581B016F026F945
:1004F0000120019902B0084700B581B0034816F009
:10050000B3F80120019902B00847C0461006020066
:1005100000B581B0FFF7C0FE0120019902B0084785
:1005200000B581B047480068002802D10FF012FCE6
:1005300007E045480168491C0160052901DB0021ED
:10054000016016F0D3F80120019902B008470000BD
:1005500000B581B0034816F097FB0120019902B065
:100560000847C046E4F101000120704700B581B0A2
:1005700000F00AF80120019902B0084701207047F5
:10058000012070470020704700B581B0274809F06E
:10059000E5FC6E23F0223521002009F0BDFB00218F
:1005A000002009F089FC0221012009F07FFC0020D5
:1005B00009F076FC002009F06DFC214809F0A6FB4B
:1005C0001B4809F07FFC01200AF06AFD09F0F0FBEE
:1005D0001C4818494158002901D017481DE00068FF
:1005E000002819D018480068002806D002280AD030
:1005F00006D304280DD009D311E000F027F80EE04F
:1006000000F028F90BE000F02FFA08E000F0CAFA39
:1006100005E000F00DFB02E0084809F0BFF80020FB
:100620000AF03EFD019802B00047C046003F3F007F
:10063000505602009C040000FCED010040EE010059
:100640000100010014E5004080FD0040F0B591B0CC
:10065000704809F0A3F870481AF07AFD04000D0004
:100660004E27002200231AF077F903D25327802067
:1006700000064540200029001AF0E4F906001AF0AF
:1006800005FD02000B00200029001AF00BFB020000
:100690000B00002061491AF007FA1AF07BF90500F7
:1006A0001AF02EFC040000A8801C07700021417085
:1006B00000A8801C01B520001AF016FD01002800DA
:1006C0001AF04CFC1AF0E8FB0022544B1AF0ECF93B
:1006D0001AF060F91AF0E0FB03B42300320050492D
:1006E00005A81AF01FF904B001AA4E4906A81AF08D
:1006F00019F906A809F090F84B481AF029FD0400F2
:100700000D004527002200231AF026F903D25727AF
:10071000802000064540200029001AF093F90600C9
:100720001AF0B4FC02000B00200029001AF0BAFAFB
:1007300002000B00002039491AF0B6F91AF02AF924
:1007400005001AF0DDFB04006846077000214170C7
:1007500001B520001AF0C8FC010028001AF0FEFBC9
:100760001AF09AFB00222D4B1AF09EF91AF012F99A
:100770001AF092FB03B423003200294905A81AF0AD
:10078000D1F804B001AA294906A81AF0CBF806A8A6
:1007900009F042F8264C20681AF07EFB02000B009C
:1007A000244906A81AF0BEF806A809F035F86068D2
:1007B0001AF072FB02000B001F4906A81AF0B2F8EB
:1007C00006A809F029F8A0681AF066FB02000B00E1
:1007D0001A4906A81AF0A6F806A809F01DF8184844
:1007E0000278184906A81AF09DF806A809F014F82E
:1007F000154C2078002805D0144809F00DF8002089
:10080000207002E012A009F007F811B00498F0BCC3
:1008100001B0004778EE01004CF1004000004E406E
:1008200068EE0100B0EE010054F10040B8EE0100A6
:100830005CF10040C0EE0100CCEE0100D8EE0100FA
:1008400009EF0040E4EE010074E90040F0EE010021
:100850000D000000F0B591B0774808F0DDFF774C4F
:100860008A2040002018817802B5437802787449C4
:1008700004A81AF057F802B002A808F0CDFF8C20A7
:1008800040002018009030C84E2720002900002288
:1008900000231AF061F803D2532780200006454058
:1008A000200029001AF0CEF806001AF0EFFB020033
:1008B0000B00200029001AF0F5F902000B000020BF
:1008C00060491AF0F1F81AF065F805001AF018FB03
:1008D000040001A8801C07700021417001A8801C41
:1008E00001B520001AF000FC010028001AF036FBC8
:1008F0001AF0D2FA0022534B1AF0D6F81AF04AF83E
:100900001AF0CAFA03B4230032004F4910A81AF0B3
:1009100009F804B00CAA4D4902A81AF003F802A87D
:1009200008F07AFF0098083030C8452720002900D9
:10093000002200231AF010F803D257278020000667
:100940004540200029001AF07DF806001AF09EFBB1
:1009500002000B00200029001AF0A4F902000B008D
:10096000002038491AF0A0F81AF014F805001AF01F
:10097000C7FA040001A807700021417001B52000EA
:100980001AF0B2FB010028001AF0E8FA1AF084FA13
:1009900000222C4B1AF088F819F0FCFF1AF07CFAB0
:1009A00003B423003200284910A819F0BBFF04B09B
:1009B0000CAA274902A819F0B5FF02A808F02CFFDD
:1009C0000098027C234902A819F0ACFF02A808F0A5
:1009D00023FF0098427C204902A819F0A3FF02A837
:1009E00008F01AFF0098183003C819F0D3FF1AF066
:1009F00053FA02000B00194902A819F093FF02A84C
:100A000008F00AFF009820300CC8154902A819F018
:100A100089FF02A808F000FF009838300CC811497F
:100A200002A819F07FFF02A808F0F6FE11B00498A2
:100A3000F0BC01B00047C04600EF0100E0ED00400F
:100A400008EF010000004E4068EE0100B0EE01002A
:100A5000B8EE010020EF010030EF010044EF01008B
:100A6000C0EE010050EF010070B58CB04B4C20007F
:100A7000FC3008F0D1FE4A4E68468A214900715C7C
:100A80000170002141706A4682204000211801A8AF
:100A900019F048FF01A808F0BFFEFF205A30325C71
:100AA0004938211801A819F03DFF01A808F0B4FE4B
:100AB000C4204000351803CD083D19F06BFF1AF033
:100AC000EBF902000B008E204000211801A819F05C
:100AD00029FF01A808F0A0FE2800083003C819F07B
:100AE00059FF1AF0D9F902000B002100DC3101A8EE
:100AF00019F018FF01A808F08FFE103503CD19F08A
:100B000049FF1AF0C9F902000B0094204000211897
:100B100001A819F007FF01A808F07EFE9A20400006
:100B2000201808F079FEA42040002518123034184F
:100B3000A08801B563882288290003A819F0F2FE75
:100B400002B001A808F068FE608901B52389E28837
:100B5000290003A819F0E6FE02B001A808F05CFE27
:100B6000208A01B5E389A289290003A819F0DAFED9
:100B700002B001A808F050FEE08A01B5A38A628A9B
:100B8000290003A819F0CEFE02B001A808F044FE27
:100B90000CB0039870BC01B00047C04668EE01007D
:100BA000E0ED0040F0B58BB00121012009F07EF9A5
:100BB0001C4DD32040002E181B4F32883900684648
:100BC00019F0B0FE684608F027FE0024308801289E
:100BD00014DBD42040002818418802B543680288FD
:100BE0003900103102A819F09DFE02B0684608F0E5
:100BF00013FE641C0C3530888442EADB0B486946DE
:100C00002CC82CC10CC80CC10C2C05DA684608F0A5
:100C100003FE641C0C2CF9DB0BB00498F0BC01B093
:100C20000047C046E0ED004018F0010040F0010030
:100C3000F0B593B07A4808F0EFFD7A4CC8208000F8
:100C400020180090807801B50298437802787649A0
:100C500006A819F067FE02B004A808F0DDFDD22056
:100C6000800020180290007801B5049843784288EB
:100C70006E4906A819F056FE02B004A808F0CCFD93
:100C80000098083030C84E27200029000022002399
:100C900019F062FE03D25327802000064540200051
:100CA000290019F0CFFE06001AF0F0F902000B003F
:100CB0002000290019F0F6FF02000B0000205C491B
:100CC00019F0F2FE19F066FE05001AF019F9040099
:100CD00001A8801C07700021417001A8801C01B58B
:100CE00020001AF001FA010028001AF037F91AF072
:100CF000D3F800224E4B19F0D7FE19F04BFE1AF034
:100D0000CBF803B4230032004A4912A819F00AFEB6
:100D100004B00EAA484904A819F004FE04A808F07B
:100D20007BFD0098103030C84527200029000022A4
:100D3000002319F011FE03D25727802000064540FA
:100D40002000290019F07EFE06001AF09FF902002B
:100D50000B002000290019F0A5FF02000B00002065
:100D6000334919F0A1FE19F015FE05001AF0C8F874
:100D7000040001A807700021417001B520001AF09D
:100D8000B3F9010028001AF0E9F81AF085F80022FA
:100D9000274B19F089FE19F0FDFD1AF07DF803B418
:100DA00023003200234912A819F0BCFD04B00EAA9A
:100DB000224904A819F0B6FD04A808F02DFD0098FA
:100DC00018300CC81E4904A819F0ACFD04A808F09E
:100DD00023FD009820300CC81A4904A819F0A2FD80
:100DE00004A808F019FD029808300CC8164904A898
:100DF00019F098FD04A808F00FFD03A80099C97820
:100E000001700021417003AA104904A819F08AFD5D
:100E100004A808F001FD13B00498F0BC01B000472D
:100E2000BCEF0100E0ED004008EF0100C4EF01005D
:100E300000004E4068EE0100B0EE0100B8EE010087
:100E4000D8EF0100ECEF0100FCEF010008F0010019
:100E500000B581B0024815F007FC019802B00047C8
:100E600088F2010000B581B00FF07AF801200199F5
:100E700002B0084700B581B00FF056F80120019983
:100E800002B0084700B581B00FF032F80120019997
:100E900002B0084700B581B00FF00EF801200199AB
:100EA00002B00847064801680648074A914205D043
:100EB000521C914201D13030704764307047C046B7
:100EC00020E5004054F001000100010002480068E4
:100ED000002800D00148704714E50040E8F0010008
:100EE00002480068002800D00148704714E500401F
:100EF00018F1010002480068002800D0014870473E
:100F000014E5004048F1010002480068002800D0C4
:100F10000148704714E5004078F1010000B581B048
:100F20000A49C8680A4A531E984204D0904201D127
:100F3000921E00E01A00CA60064801000C3112F04F
:100F4000D1FC0020019902B00847C04614E50040DA
:100F500002000100A4F1010002480068002800D04E
:100F60000148704714E50040BCF1010000B581B0B4
:100F70000EF0DCFE0120019902B0084700487047DE
:100F8000CCF2010000487047E0F2010000487047D1
:100F9000FCF201000048704710F3010000A0704708
:100FA0000000000000B581B097218900B5481AF013
:100FB000EFF8019802B0004700B581B09721890091
:100FC000B0481AF0E5F815F091FB0120019902B044
:100FD000084701207047000000B581B0034815F0B4
:100FE00043FB0120019902B00847C046BC3B020008
:100FF00010B5EA23F0223521002008F08DFE0021F3
:10100000002008F059FF012008F04AFF01210120CB
:1010100008F04CFF994808F079FE994808F052FF13
:10102000984C201D08F0A0FC21680A000D32824275
:1010300001DA491C216015F081FB0120019910BCE7
:1010400001B0084700B581B08E480168002901D081
:10105000491E016015F072FB0120019902B008479A
:10106000012070470120704700B581B000F00AF8F8
:101070000120019902B00847012070470120704704
:1010800001207047F0B581B06F4808F067FFEA2390
:10109000F0223521002008F03FFE0021002008F05A
:1010A0000BFF012008F0FCFE0121012008F0FEFEEC
:1010B000724808F02BFE724808F004FF012009F086
:1010C000EFFF08F075FE6F4C96218900201D1AF085
:1010D0005FF85E4F380008F04CFB05005C4E201DA9
:1010E0001AF05CF8321A012A03DB2900201D1AF0DD
:1010F00081F85848006800280ED03800643008F0A5
:1011000038FB0500201D1AF049F8321A012A03DBCA
:101110002900201D1AF06EF84F48006800280FD0F3
:10112000C6204000381808F024FB0500201D1AF0E6
:1011300035F8321A012A03DB2900201D1AF05AF86B
:101140004648006800280FD0B0208000381808F00A
:1011500010FB0500201D1AF021F8321A012A03DBCA
:101160002900201D1AF046F83D48006800280FD0DD
:10117000F1208000381808F0FCFA0500201D1AF054
:101180000DF8321A012A03DB2900201D1AF032F86B
:101190003448006800280ED03348381808F0E9FABF
:1011A0000500201D19F0FAFF321A012A03DB29007D
:1011B000201D1AF01FF82D48006800280FD0C1200C
:1011C000C000381808F0D5FA0500201D19F0E6FF18
:1011D000321A012A03DB2900201D1AF00BF82448DB
:1011E000006800280FD0E620C000381808F0C1FAC7
:1011F0000500201D19F0D2FF321A012A03DB290055
:10120000201D19F0F7FF1B48006800280ED01A486F
:10121000381808F0AEFA0500201D19F0BFFF321A89
:10122000012A03DB2900201D19F0E4FF2168201D9D
:1012300008F06EFC09F03AFF002009F031FF01B020
:101240000498F0BC01B00047003F3F0024F30100C8
:101250005702000040FC004024FC004034FC0040E9
:1012600038FC00402CFC00408404000030FC0040AE
:1012700028FC00403CFC0040140800000100010074
:1012800088E50200ACF4004008B4024B9C4608BC60
:101290006047C046C494000008B4024B9C4608BC9A
:1012A0006047C0464CB201000048704794FC010002
:1012B0000148704700487047A8FC0100004870478B
:1012C000C0FC010000487047D4FC010001207047B9
:1012D00000B581B0B54800210160C943416081601B
:1012E00064210C3019F054FF019802B0004710B58A
:1012F000AE4C00202060C0436060A06064212000EC
:101300000C3019F045FF15F0F1F9A068606001207C
:10131000019910BC01B0084700B581B0074815F02D
:10132000A3F90120019902B0084700B581B0034834
:1013300015F09AF90120019902B008471006020041
:1013400010B59A4C2068401C206015F0C1F915F0CA
:10135000F5F9A06860600120019910BC01B0084750
:1013600010B5924C00202060C043606015F0B0F9C9
:1013700015F0E4F9A06860600120019910BC01B08B
:1013800008470120704700B581B000F00BF801203C
:10139000019902B0084701207047012070470120E1
:1013A00070470000F0B585B00021002008F084FDF2
:1013B000012008F075FD0321012008F077FD0020D1
:1013C00008F068FD8020400208F0A0FC3B4808F0CF
:1013D00079FDE923F0223521002008F09DFC384FEB
:1013E000380008F0BBFD714C206F002860D001A8C8
:1013F0000021002200230EC060680090C94388428B
:1014000008D1206F0CF0E0FF401E009002D50020B4
:1014100000904BE00098002848D0642322000C3252
:101420006946206F11F056FC5049884240D0002890
:1014300038D020000C30217B30292ED33A292CD2F1
:10144000202120000C3019F059FF050023D0200086
:101450000C302E1A320021000C3101A819F0A8FF1F
:10146000002816D001A80021002200230EC032005F
:1014700021000C3101A819F0B3FF124808F06EFDED
:1014800001A808F0C9F910A008F0C6F9380008F062
:1014900065FD681C01E020000C3008F0BDF90AA0D1
:1014A00008F0BAF909480068BE28B3DB0098A060CC
:1014B00005B00498F0BC01B00047C046784802006F
:1014C000003F3F0000203F000D00000024DB0040F3
:1014D00000B581B008F04DF900F004F8019902B0B0
:1014E0000847000030B5C1B00500304C206F00281F
:1014F00030D00CF069FF009001A807F087FE18A11A
:1015000001A819F00DFF4A22290001A819F072FE66
:1015100014A101A819F004FF01A819F03FFE6528E5
:1015200009D311490B003C33F1220D00143108009E
:101530002900FFF7A9FE01A819F030FE030001AA57
:101540006946206F0DF0CAF90849884201D0012090
:1015500000E0002041B0029930BC01B00847C0460D
:10156000090000000D000000F0FC010005400080B3
:1015700030B581B00CA5290028000CF0C3FB0B4C42
:101580002067002805D10122290028000CF096FCD4
:101590002067206F401E8041C043C00F01B00299F8
:1015A00030BC01B00847C0466C6F670058FB004074
:1015B00030B593B00500124C200008F0DAF80100B5
:1015C00005A819F0BDFE280019F066FC02000B000A
:1015D0002C342100684619F0A5F9694605A819F0D0
:1015E0009FFE02F04DFA010005A819F099FE05A82A
:1015F000FFF778FF13B0029930BC01B00847C0462E
:101600004CFD010070B598B038480168002902D03F
:101610004068002801D1002063E0354E06223100E9
:1016200005A8FFF739FE334DDB208000281819F09C
:101630008FFD314C19F0AEF919F02EFC02000B00B1
:101640002100684619F06EF9694605A819F068FE90
:10165000DD208000281819F07BFD19F09BF919F0A6
:101660001BFC02000B0021000831684619F05AF9F2
:10167000694605A819F054FEDF208000285819F0AB
:101680000BFC02000B0021001031684619F04AF9EA
:10169000694605A819F044FE05A8FFF723FF0622B6
:1016A000310005A8FFF7F8FDC820400028180CC835
:1016B00021001831684619F035F9694605A819F076
:1016C0002FFEFF202A302A5C24342100684619F0BE
:1016D00029F9694605A819F023FE05A8FFF702FFBE
:1016E000012018B0039970BC01B0084714E5004010
:1016F00080FD0100E0ED004088FD010003480F4936
:101700000968002900D120307047C046F8FD01006B
:101710000048704728FE01000048704740FE010065
:1017200006484168002902D00068002801D102481B
:10173000704700207047C04650FE010034E400406E
:101740000020704710B5A748010080310A681E2AA2
:101750000CDB00224A6003001E245A601B1D641E1D
:10176000FBD1C2670A60026000F032F801F06AFD46
:10177000019910BC01B0084710B501F0B3FA9948BF
:101780000100803100224A6003001E245A601B1DA4
:10179000641EFBD1C2670A600260019810BC01B0F0
:1017A000004710B501F0F8FA8E48010080310022A0
:1017B0004A6003001E245A601B1D641EFBD1C267D1
:1017C0000A6002600120019910BC01B008470000C6
:1017D00030B583B00F4C01220FA110A00CF06EFBAE
:1017E0002060002810D0002501950D4800900423AA
:1017F0006A4601A920680DF071F87B49884203D13F
:1018000020680CF0CBFA256003B0029830BC01B020
:101810000047C046CCFA0040746D70006D637300E1
:10182000EEEEEEEEF0B589B013F028FA3C4DE86923
:10183000296A002911D000282CD0A868394919F04C
:101840001FFE27D212F06EFE092823DB13F0B4FA34
:1018500013F0A6FA01F040FC1CE000281AD1614CFC
:10186000E66F701CE067A86A002802D080273F0658
:1018700000E00027286819F01BFE0743B00020187D
:101880004760E06F1E2801D100F058F880342168CD
:10189000491C2160534C2068002836D0224812F0A1
:1018A000A7FE002831D0E06F01282EDB002626603D
:1018B00001F09AFB002828D000F040F8002824D03E
:1018C000684607F015FD0200184904A819F02AF827
:1018D00017A304AA17A118000CF0A6FB2000803063
:1018E000466021001E224E60091D521EFBD1E66794
:1018F00006602660FFF786FE002803D001F0F0FFA7
:10190000FFF756FE0C4816F0B9FB0020A86214F051
:1019100015FF012009B00499F0BC01B00847C0468A
:1019200018E400400100E04024BB004068FE0100D4
:101930006D637300746D700000390300F0B593B0EF
:10194000284E34007C34A068002801D1FFF740FF06
:10195000A068002801D1206034E00CF035FD009033
:101960000020C043019001A802A902680A6002AFEA
:1019700007221949381DFFF78FFC1E22174938002E
:101980000B3019F04FFC164D102229002937380072
:1019900019F048FC392302AA6946A0680CF09EFFA2
:1019A000012806DB20688300321D6946A0680CF020
:1019B00095FF00210022002300264EC521600A4920
:1019C000884207D104F056FC002013B00499F0BC03
:1019D00001B008470120F8E7F8FC00404CF1004056
:1019E000D8E4004048FA00400540008000B581B0CE
:1019F000034814F039FE0120019902B00847C0469F
:101A00001006020000B581B0FFF722FA012001990B
:101A100002B0084700B581B013F01EF913F040F989
:101A20000348012101600120019902B00847C04626
:101A300048FA004010B50A480100803100224A608F
:101A400003001E245A601B1D641EFBD1C2670A607E
:101A5000026001F041FB019910BC01B00847C0468B
:101A600048FA004000487047B4FE01000348704740
:101A7000024870470148704700487047D8FE01008F
:101A800010B481B06B4800210022002300241EC046
:101A900001B010BC704700B581B0664805210160F7
:101AA000FA20800015F0A8F814F020FE012001991A
:101AB00002B0084710B514F041FE5E4C2068401E8D
:101AC00020600DD16068002807D15B4803004033D7
:101AD000582201001430FFF7D7FB606800F0AEF821
:101AE0000120019910BC01B0084710B5514C606845
:101AF000002808D1504803004033612201006431BE
:101B00001430FFF7C1FB606800F098F801200199DC
:101B100010BC01B0084710B5464C6068002808D1D9
:101B20004548030040336722010078311430FFF745
:101B3000ABFB606800F082F80120019910BC01B095
:101B4000084710B53B4C6068002808D13A480300AC
:101B500040336D2201008C311430FFF795FB606833
:101B600000F06CF80120019910BC01B0084710B5D5
:101B7000304C6068002808D12F480300403373229E
:101B80000100A0311430FFF77FFB606800F056F8C9
:101B90000120019910BC01B008470120704700B531
:101BA00081B000F00BF80120019902B00847012034
:101BB00070470120704701207047000010B5EA23EC
:101BC000F0223521002008F0A7F80021002008F0BD
:101BD00073F9012008F064F90021012008F066F98A
:101BE000124808F093F8124808F06CF9012009F047
:101BF00057FA08F0DDF80F4CA068002808D10E480D
:101C0000030040339E220100B4311430FFF73CFB47
:101C1000E068A16800F013F809F048FA002009F024
:101C20003FFA019810BC01B00047C0460200010015
:101C30005056020038FD0040F0FE01000047084702
:101C400030B581B0C04C86204000201801210170C1
:101C50000025456000F0B8F9DB2080002218002044
:101C6000002119F099FEDD208000221800200021BB
:101C700019F092FEDF208000201805604560856025
:101C8000858101B0029830BC01B00047F1B582B047
:101C90000F00AD4C86204000012121540026267102
:101CA0000025002F06D00298405D00F057F86D1C0B
:101CB000BD42F8D3E220800025182E70FF205A3054
:101CC00020180090007800283CD08C204000271875
:101CD000DB208000221803CF083F19F05DFEDD20D5
:101CE000800022183800083003C819F055FE2E78FD
:101CF00000980078022800D3761C032808D1761CAF
:101D0000203703CF18F046FECE21890061184864C1
:101D10002E700F48205C562814D02878801C28701C
:101D2000CE20800024180CCC083C0A480A4918F040
:101D3000BBFE18F02FFEA0642000083003C818F086
:101D400029FEE06403B00498F0BC01B00047C0462F
:101D5000230300006F1283C0CAA1FD3F70B57A4C07
:101D6000862149006518297801290AD000D2E8E0C7
:101D700003292DD00DD3052900D195E000D28AE0AA
:101D8000DFE0242800D082E0002121706180022061
:101D90007CE02C2810D02A280ED06288082A74D221
:101DA000A11808716188491C618022785040207018
:101DB0000904090C082967E06288082A65D2002115
:101DC000A2181171227850402070618003205DE0DC
:101DD0006288802149002A2806D18A4255D2A0185B
:101DE00000210173042051E08A424ED2A2180D282E
:101DF00040D100201073554E31002031201D19F0C4
:101E0000E7FE002804D10C34200000F073F92DE027
:101E100031001831201D19F0DBFE002804D10C34EC
:101E2000200000F097FA21E031001031201D19F058
:101E3000CFFE002804D10C34200000F0BFFB15E0D9
:101E400031000831201D19F0C3FE002804D10C34E4
:101E5000200000F0FFFA09E03100201D19F0B8FE63
:101E6000002803D10C34200000F0E2FC6868401C1C
:101E700068600AE023784340237010736088401C38
:101E800060800004000C884201D301202870039870
:101E900070BC01B00047010030390A2900DB373837
:101EA000000160700520F1E761780200303A0A2AEB
:101EB00001DA303800E03738084360702078617804
:101EC0008842E2D1214E31002031201D19F080FEE0
:101ED000002804D10C34200000F00CF92DE0310072
:101EE0001831201D19F074FE002804D10C34200094
:101EF00000F030FA21E031001031201D19F068FEA9
:101F0000002804D10C34200000F058FB15E031000B
:101F10000831201D19F05CFE002804D10C3420008B
:101F200000F098FA09E03100201D19F051FE002858
:101F300003D10C34200000F07BFC6868401C686012
:101F4000A3E701202870A2E7E0ED004004000200B2
:101F5000F0B481B004B4002817D0002915D0012BAB
:101F600000DA12E00024002500260200009FBE4295
:101F70000FD01778002F0CD02C2F00D1761C6D1CA1
:101F8000521C1778002FF1D10C70002002B0F0BC69
:101F90007047465D2C2EF7D02A2EF5D000200D007C
:101FA00016782C2E0AD02A2E08D0002E06D02E709D
:101FB000401C6D1C521C9842F2DB581E0C54012030
:101FC00002B0F0BC70470000F0B482B0414800227B
:101FD000002101808170404B002003C3083B1C009E
:101FE000083403C41A821C00183403C41C002034B3
:101FF00003C49A62DA621C00303403C4383303C36A
:102000004D241C7001245C70344C00941424002670
:10201000AD277F00009DEE53009DAD1C0095641E12
:10202000F8D11C00303403C41C00383403C41864D5
:1020300059649A642A4B1A705A80284B1424D42568
:102040006D005D192E816E812E806E806A600C336A
:10205000641EF4D1234C22605623237125000835D9
:1020600003C53F25257462741F4C22701F4C03C4A6
:10207000083C2500083503C52500103503C525009B
:10208000183503C5203403C4237062602281A27214
:10209000E3722300103303C32300183303C3230068
:1020A000203303C3283403C4114B01241C705C701B
:1020B000FA24E4005C801D00083503C51A6198828B
:1020C00098750120D87518765C839A831A6202B0DD
:1020D000F0BC7047F4EE0040F8EE0040E0ED004048
:1020E00084EF004078F00040A9F00040D0F00040BC
:1020F00028F10040F1B58CB0192300226946FFF7A2
:1021000027FF002827D007AC6D4628782070687814
:1021100060700026A6708D4F8A2040003F180A226A
:10212000002107A819F0BCFC3870A8782070E87866
:102130006070A6700A22002107A819F0B1FC78701F
:102140002879207068796070A6700A22002107A89B
:1021500019F0A6FCB8701923012269460C98FFF704
:10216000F7FE00281BD0794F8C2040003E186D46AA
:1021700000220021A81C19F02FFC0022744B19F03A
:102180006DFA03C6083E0020A870002200216846B0
:1021900019F022FC0CCE083E19F0BEF903C6192333
:1021A000022269460C98FFF7D3FE00280DD068463E
:1021B0000078532809D1654F8C2040003E1803CE8B
:1021C000083E80221206514003C6192303226946A5
:1021D0000C98FFF7BDFE002820D05C4F8C204000FB
:1021E0003E186D4600220021E81C19F0F5FB002284
:1021F000574B19F033FA3200083203C20020E8705E
:1022000000220021684619F0E7FB02000B003000B5
:10221000083003C819F080F9083603C619230422D0
:1022200069460C98FFF794FE00280FD068460078A6
:1022300057280BD1454F8C2040003E183200083201
:10224000083603CE80231B06594003C23F4F8C2023
:1022500040003E181923052269460C98FFF778FEC6
:10226000002803D0684600783038307419230622DD
:1022700069460C98FFF76CFE00280DD007AC6D4640
:1022800028782070687860700020A0700A220021F1
:1022900007A819F005FC70741923072269460C98E9
:1022A000FFF756FE002807D000220021684619F0EB
:1022B00093FB3200183203C21923082269460C9896
:1022C000FFF746FE002807D000220021684619F0DB
:1022D00083FB3200203203C28A2040003F18787806
:1022E0000101081A8000B9784418F06AA0421EDA89
:1022F000001B18F0CBFE0022154B19F0AFF90AAA0B
:1023000003C20AA80CC80020002119F0EDF80ED075
:102310003000303003C8320020320CCA18F0C2FC42
:102320000AAA0CCA19F09AF93200383203C23200F4
:1023300030323000203003C803C2F462B06A401C5F
:10234000B0620DB00498F0BC01B00047E0ED004071
:1023500000004E40F0B58BB00700192300226946FB
:10236000FFF7F6FD002803D0384869460978017068
:102370001923012269463800FFF7EAFD002804D03E
:10238000324869460978303941700024304EAD201A
:10239000400035181923A21C69463800FFF7D8FD04
:1023A00000280CD0684669460978017707A8694675
:1023B00049784170002181700A2219F071FB288050
:1023C000641CB61C0C2CE2DB204C19230E2269463F
:1023D0003800FFF7BDFD002807D000220021684625
:1023E00019F0FAFA2200303202E0220030320021E5
:1023F00003C219230F2269463800FFF7A9FD002800
:1024000007D000220021684619F0E6FA220038328F
:1024100002E022003832002103C21923102269464B
:102420003800FFF795FD002805D0002200216846FE
:1024300019F0D2FA00E0002120646164A06C401C15
:10244000A0640BB00498F0BC01B0004738EF004026
:10245000E0ED0040F1B588B01923002201A9FFF793
:1024600077FD002800D19EE00A22002101A819F082
:1024700017FB0A2800DB96E0002800D593E001282E
:1024800000DA90E08000142800DB8CE019230122A0
:1024900001A90898FFF75CFD002800D183E00A221B
:1024A000002101A819F0FCFA05000A2D7BDA012DA4
:1024B00079DB1923022201A90898FFF749FD0028BA
:1024C00006D00A22002101A819F0EAFA384908804A
:1024D0000324A8004100081880003649081800901D
:1024E00004260027BC20400000990D181923220063
:1024F00001A90898FFF72CFD002806D00A22002128
:1025000001A819F0CDFA288000E02F801923621C61
:1025100001A90898FFF71CFD002806D00A22002117
:1025200001A819F0BDFA688100E06F811923A21C8F
:1025300001A90898FFF70CFD002806D00A22002107
:1025400001A819F0ADFA288100E02F811923E21CBF
:1025500001A90898FFF7FCFC002806D00A220021F8
:1025600001A819F09DFA688000E06F802888002893
:1025700001D100200CE000210E4A03E0491C921C0E
:102580000C29F6DAAD235B00D35A9842F6D101202C
:10259000686000980C300090241D761EA2D1064879
:1025A0000168491C016009B00498F0BC01B0004703
:1025B00086EF0040E0ED004078F00040F1B58AB0D1
:1025C000192300226946FFF7C3FC002824D06D467A
:1025D00007AC28782070687860700027A770924E4A
:1025E0000A22002107A819F05BFA3070A878207041
:1025F000E8786070A7700A22002107A819F050FA45
:1026000070702879207068796070A7700A220021A4
:1026100007A819F045FAB0701923012269460A98F3
:10262000FFF796FC002802D06846007800E05620AC
:102630007D4EF0701923022269460A98FFF788FC44
:1026400000281BD06D4600220021A81C19F0C4F9F7
:102650000022764B19F002F83200083203C2002043
:10266000A87000220021684619F0B6F9320008323D
:102670000CCA18F051FF3200083203C2192303229A
:1026800069460A98FFF764FC00280CD06846007879
:10269000532808D1320008323000083003C88023A4
:1026A0001B06594003C21923042269460A98FFF702
:1026B0004FFC00281DD06D4600220021E81C19F0B7
:1026C0008BF90022594B18F0C9FF3200103203C2B7
:1026D0000020E87000220021684619F07DF9020010
:1026E0000B003000103003C818F016FF3200103213
:1026F00003C21923052269460A98FFF729FC00281E
:102700000CD068460078572808D1320010323000CB
:10271000103003C880231B06594003C21923062228
:1027200069460A98FFF714FC002805D00022002112
:10273000684619F051F902E000215622F270320089
:10274000183203C21923072269460A98FFF700FCD2
:10275000002805D000220021684619F03DF902E06A
:1027600000215622F270203603C61923082269463A
:102770000A98FFF7EDFB002826D06D4607AC2878B5
:102780002070687860700027A7700A22002107A8CF
:1027900019F086F93070A8782070E8786070A7701A
:1027A0000A22002107A819F07BF97070287920709F
:1027B00068796070A7700A22002107A819F070F9E3
:1027C000FA21C900401870801923092269460A9825
:1027D000FFF7BEFB002805D000220021684619F053
:1027E000FBF800E000213200083203C219230A225C
:1027F00069460A98FFF7ACFB00280CD068460078C1
:10280000572808D1320008323000083003C880232E
:102810001B06594003C23069401C30610BB004985C
:10282000F0BC01B00047C04600F1004000004E403F
:10283000F0B58BB00700192300226946FFF788FB2B
:10284000002826D06E4607AC307820707078607013
:102850000020A070394D0A22002107A819F020F9A4
:102860002870B0782070F07860700020A0700A2284
:10287000002107A819F014F9687030792070707978
:1028800060700020A0700A22002107A819F008F942
:10289000A8701923012269463800FFF759FB002868
:1028A00005D00A220021684619F0FAF800E001205C
:1028B000224DE8701923022269463800FFF748FBD1
:1028C000002805D00A220021684619F0E9F800E046
:1028D000012028711923032269463800FFF738FBCD
:1028E000002805D00A220021684619F0D9F800E036
:1028F0000120E8801923042269463800FFF728FBED
:10290000002804D00A220021684619F0C9F828726C
:102910001923052269463800FFF71AFB002804D066
:102920000A220021684619F0BBF86872E868401C6A
:10293000E8600BB00498F0BC01B000473CF10040E7
:10294000F0B587B0CD4E9320C00030180168002943
:1029500001D0424803E04068002805D0404807B055
:102960000499F0BC01B00847F720800030180168D6
:10297000002901D03B48F2E70069002801D13A481C
:10298000EDE73D48006839490988441A0025002CC4
:1029900000D50024FD20800030180090642118F03C
:1029A000F7FB01A80021002200230EC006C0304F13
:1029B0002200390001A817F0B5FF01A9009818F00E
:1029C000AFFCFD20800001B503A818F0E7FB31182B
:1029D000009802B00E183570761C01A80021002264
:1029E00000230EC006C02200390001A817F09AFF8C
:1029F00001A9300018F094FC01A818F0CFFB36189C
:102A00003570761C01A80021002200230EC006C0EC
:102A10002200390001A817F085FF01A9300018F045
:102A20007FFC01A818F0BAFB36183570761C01A897
:102A30000021002200230EC006C022000D4901A87B
:102A400017F070FF01A9300018F06AFC01A818F017
:102A5000A5FB30180570009881E7C0462C000200E5
:102A600050000200780002009C000200A089004093
:102A7000B0000200B80002009C77004008480078CF
:102A8000002803D0401E03D1024870470248704717
:102A900002487047C0000200D8000200F4000200A3
:102AA00024FD004007480168002904D0C06E0028BA
:102AB00001D10248704702487047C0460C0102002D
:102AC0004001020044E400406C489321C9004118D1
:102AD0000A68002A02D14968002901D00B487047D2
:102AE000F7218900411809480A68002A01D01830E6
:102AF00070470A69002A06D0C96F002901D030301A
:102B00007047483070475C307047C0465001020043
:102B100000487047BC01020000B581B003A014F06A
:102B2000DBF90120019902B00847C046000000000F
:102B300000487047D001020000B581B0FEF762FD89
:102B40004E49F320800008589222D20089180A6862
:102B5000002A02D18968002901D006480068FEF7E2
:102B600027FD034815F08AFA0120019902B00847B1
:102B70000039030004FB004000487047F8010200E0
:102B800000B581B0034813F06FFD0120019902B038
:102B9000084700001006020023480168002902D1FE
:102BA0004068002800D001487047C046300202004B
:102BB00010B5324CF7208000201801210022036854
:102BC000002B06D00260416012F0C6F812F05AF9EC
:102BD00003E00160426012F0B3F800F0B7F80A4871
:102BE00016F0D8F812F0C4F811F09AFE13F07EFD3A
:102BF000F0218900200018F0CBFA00F0A3FD01209D
:102C0000019910BC01B0084720FD0000064801688A
:102C1000002904D14068002801D1024870470020F3
:102C20007047C0465C020200F0E4004000B581B08D
:102C3000034813F019FD0120019902B00847C0466E
:102C4000BC3B0200004870478402020000B581B01E
:102C50000A489321C900411800220A6001234B60F1
:102C6000F721890040180360426012F069F813F000
:102C70003DFD0120019902B00847000058E00040E6
:102C800003480068002801D00020704701487047C1
:102C9000F4E40040BC02020000B581B00A48932170
:102CA000C900411801220A6000234B60F721890006
:102CB00040180260436012F043F813F017FD012042
:102CC000019902B00847C04658E000400348006838
:102CD000002801D00020704701487047F0E4004010
:102CE000F002020030B581B0154CF02189002000BF
:102CF00018F04EFAF020800020180121C161016215
:102D00000021016041600F4A8260C160026141613F
:102D100000250183FE21890541620B4824182560A6
:102D200000F014F865609620800020626563A5635A
:102D3000E563256401B0029830BC01B00047C0468D
:102D400058E00040000048435C04000030B581B00A
:102D50000F489021C90041180022002300240025BB
:102D60003CC1FA21890041180A604A608A600A67FA
:102D70009321C9004018026042600DF0CBFD054868
:102D80004168016001B0029830BC01B00047C04604
:102D900058E000409C77004000B581B0FF204E30E5
:102DA00013F02AFFFFF7D2FF13F0A0FC00F0CAFCDB
:102DB0000120019902B0084710B511F0B3FB0328B8
:102DC00000DA54E011F05AFF2B4C2C482218D06B3B
:102DD000002845D1106C002842D1F1208000231832
:102DE0009868274918F030FF04D91868254918F069
:102DF0002BFF01D8012000E00020516B814204D05C
:102E00005063002801D1012010609869D969002918
:102E100014D0002824D058681B4918F031FB1FD269
:102E200011F080FB09281BDB11F0C6FF11F0B8FF81
:102E300016480021016000F04FF911E000280FD181
:102E400013480068134988420AD1506B002807D103
:102E500011480068002803D100F020F8002806D0AF
:102E6000F120800020180021416213F067FC01204E
:102E7000019910BC01B0084758E000405C04000014
:102E80000100F041015043470100E04058FC004080
:102E90001CFC00401006020010FB0040F0B585B09D
:102EA000434CF32080002518286AE969002923D0C3
:102EB000002821D1FEF7A6FB3E48FEF709FB286853
:102EC0008B21C90061188A6B002A02D1096C002984
:102ED00001D039480068FEF76BFB012028623748B3
:102EE00015F058FF13F0A4FD0DF014FD344E3548D5
:102EF00030184168016050E0002852D0324811F08B
:102F000077FB002844D001200DF0BCFD0120686251
:102F10002E4F2B4E2E48385A2A497158884235DB9D
:102F20002C4DAA2080002818FEF7D2FA2A48301823
:102F3000FEF7D8FA9020C000261828480068032819
:102F4000684604D106F0D4F902009C3503E006F08F
:102F5000CFF90200A4352900300017F0E3FC204827
:102F60003818204909680288891A01800121300037
:102F700016F032FC002801D103F07CF98B20C00050
:102F80000121215000F0A8F800200BE013F010FD03
:102F90008B20C0002058002803D111F05DFE11F0F5
:102FA0007FFE012005B00499F0BC01B00847C0467F
:102FB00058E000404C03020004FB004020FD0000EC
:102FC000002400409C53000024BB0040A877004030
:102FD000F81100001C030200FC52000048FC0040F5
:102FE000C222000008FD004030B585B0144C154DDC
:102FF000154800680328684604D106F079F90200F4
:103000009C3503E006F074F90200A4352900200085
:1030100017F088FC0D480E4909680288891A01805A
:103020000121200016F0D8FB002803D103F022F97B
:10303000002000E0012005B0029930BC01B0084733
:10304000D8E400401C03020048FC00406A9A00409B
:1030500008FD004000B581B00C48016800290DD082
:10306000C06E00280AD10A480168426889180160C8
:10307000084A914205DB511E016002E0064813F048
:10308000F3FA0120019902B00847C04644E4004029
:103090009C770040850300005C37030000B581B0D9
:1030A00000F0CAFE0B480178002903D0491E03D165
:1030B000002102E0022100E00121017015F0C6F9B3
:1030C00015F0CCF900F0C2FE13F0B2FC012001991A
:1030D00002B0084724FD004070B584B011F022FA18
:1030E000012806DA414814F0C9FFC82015F07AF922
:1030F0000EE03F4E9321C90071180A68002A02D1E0
:10310000496800290AD011F033FE3A4801210160D4
:10311000012004B0039970BC01B008470728E1DB27
:10312000F720800034182068002808D00020206094
:103130000120606011F010FE11F0A4FE42E0206951
:10314000002839D02C4DE06F002805D0BD2080002C
:10315000281813F089FADBE7AA2080002818FEF768
:10316000B7F92648FEF7BEF99020C000361824486B
:1031700000680328684604D106F0BAF802009C35BE
:1031800003E006F0B5F80200A4352900300017F07E
:10319000C9FB1C481C4909680288891A0180012161
:1031A000300016F019FB002801D103F063F801206C
:1031B000E06713F03DFCABE7012020600020606079
:1031C00011F0BEFDFFF7C2FD104815F0E3FD11F050
:1031D000CFFD11F0A5FB13F089FAF0218900300032
:1031E00017F0D6FF00F0AEFA92E7C046E0380300D1
:1031F00058E000404CFB00401C030200FC760040FD
:1032000048FC00406A9A004008FD004020FD000094
:1032100000B581B0044813F037FD04480121016076
:103220000120019902B00847040A0200B4E40040FA
:103230000120704700B581B000F096F80120019997
:1032400002B0084710B5104CFB2080002018016820
:10325000002908D0C06E002805D10C48FEF738F9C7
:103260000B48FEF73FF9F0218900200017F090FF8E
:103270009320C000201800210160416001200199C5
:1032800010BC01B00847C04658E00040C405020029
:10329000FC76004002480121016001207047C046D1
:1032A000B4E4004005480169002904D10068401ECB
:1032B0008041C00F704700207047C04634E4004092
:1032C00070B5254E300006F049FE1023F02235215E
:1032D000002006F021FD0021002006F0EDFD002079
:1032E00006F0DEFD0121012006F0E0FD002006F0E1
:1032F000D1FD1A4806F00AFD194806F0E3FDFA2050
:1033000006F034FD174D280006F048FA8024A40189
:103310002300EF226721002008F0C0FC300006F0F7
:103320001DFE1023F0226921002006F0F5FC00218B
:10333000002006F0C1FDFA2006F018FD3435280003
:1033400006F02CFA2300EF229B21002008F0A6FCB7
:10335000039870BC01B0004700203F00020001004C
:10336000505602005406020010B5FFF7A9FF00F006
:10337000CBFA00F021FA2148016C002902D000F0BC
:10338000CBF804E0406C002805D000F083F80198E9
:1033900010BC01B000471A491A480818426B002AAD
:1033A00002D000F0FBF8F2E7F72292008C182169B6
:1033B00000290BD014490968002907D0606900284A
:1033C000E5D000F02DF900206061E0E701680029F8
:1033D00004D00021016000F0B5F9D8E700F07CF9D5
:1033E0000A4800680A498842D1D160680028CED1D5
:1033F00020680028CBD100F00DF8C8E7D0FA0040D3
:1034000058E000405C040000987700401CFC00403D
:1034100070FE010000B583B01023F0229E21002031
:1034200006F07AFC0021002006F046FD002006F0A0
:1034300037FD0121012006F039FD002006F02AFDAC
:103440008020400206F062FC0D4806F03BFD0D486E
:1034500006F084FD0C48006800F002FD02000BA19C
:10346000684617F05FFA0A2006F080FC084806F06C
:1034700095F9684606F0D0F9039804B00047C046B5
:1034800050560200003F2000C8FA00402575000099
:10349000D806020000B581B08023F0229E210020D2
:1034A00006F03AFC0021002006F006FD012006F09F
:1034B000F7FC0221022006F0F9FC002006F0EAFCED
:1034C0008020400206F022FC0F4806F0FBFC0F486B
:1034D0000078C00702D5FC20800300E00C4806F00D
:1034E0003DFD012007F0DCFD06F062FC094806F016
:1034F00055F906F0EDFC07F0D9FD002007F0D0FDEE
:10350000019802B00047C04650560200FEFC004041
:10351000003F3F001807020000B581B08023F02271
:103520009E21002006F0F8FB0021002006F0C4FCDC
:10353000012006F0B5FC0221022006F0B7FC0020B5
:1035400006F0A8FC8020400206F0E0FB0F4806F0E1
:10355000B9FC0F480078C00702D5FC20800300E0CA
:103560000C4806F0FBFC012007F09AFD06F020FC59
:10357000094806F013F906F0ABFC07F097FD0020B0
:1035800007F08EFD019802B00047C0465056020079
:10359000FEFC0040003F3F00A807020000B581B0DC
:1035A0008023F0229E21002006F0B6FB002100209F
:1035B00006F082FC012006F073FC0221022006F0D6
:1035C00075FC002006F066FC8020400206F09EFBA1
:1035D0000F4806F077FC0F480078C00702D5FC20A2
:1035E000800300E00C4806F0B9FC012007F058FD0C
:1035F00006F0DEFB094806F0D1F806F069FC07F09A
:1036000055FD002007F04CFD019802B00047C04670
:1036100050560200FEFC0040003F3F002008020020
:1036200030B581B08023F0229E21002006F074FB8B
:103630000021002006F040FC012006F031FC0221B0
:10364000012006F033FC002006F024FC802040021C
:1036500006F05CFB1A4806F035FCFC20800106F001
:103660007DFC012007F01CFD06F0A2FB154D280093
:10367000B83006F093F8144C2000083006F0CCF86F
:1036800012A006F0C9F806F093FBFC20800306F0B8
:1036900065FCAA208000281806F080F80C4806F087
:1036A0005DFC0C48201806F0B7F807F0FFFC00207E
:1036B00007F0F6FC01B0029830BC01B00047C046EC
:1036C000505602001C030200002400400D000000C0
:1036D000003F3F00FC52000070B5194C206A0028E2
:1036E00024D18F267600012001B53300EF22AE21D0
:1036F00008F062FE02B0206841000C18542C01DB77
:10370000532419E01A20C043844213DA0400FC2534
:10371000AD0100233200AF21EF2008F057FA8121DC
:1037200049002B000A1BEF2008F050FA039870BCE8
:1037300001B00047002CEAD4FC25AD03E9E7C04600
:1037400014E40040F0B583B06A46194803C803C2C8
:103750003222684603C807F08FFF164DF72080001D
:103760002858002819D10024812676001A27FF4303
:10377000286841000818542801DB532014E0B8429F
:1037800010DA3800FC239B01321A3100200008F0C7
:103790001DFA641C2D1DF02CEADB03B00498F0BC6C
:1037A00001B000470028EDD4FC239B03ECE7C046A2
:1037B0009808020058E0004070B59AB03E4806F004
:1037C000CDFB2023F0227A21002006F0A5FA00216B
:1037D000002006F071FB002006F062FB01210120B1
:1037E00006F064FB002006F055FB8020400206F046
:1037F0008DFA324806F066FB3149F12080000A1844
:10380000106856689222D20089180A68002A02D1EC
:103810008968002902D02B49086B8E6B2A4DFE2146
:10382000890517F02DFE01D22C000FE0274917F073
:1038300027FE02D22C00083408E0254917F020FEAC
:1038400002D22C00103401E02C00183417F024FBB5
:1038500002000B002100684617F064F8C82006F04B
:1038600085FA684605F0D8FF1A4806F02BFB0021C0
:10387000A02006F021FB300017F00EFB0022164BB3
:1038800017F04AFE18F0F8F9020000D101222035A5
:103890002900684617F046F8684605F0BDFF10217C
:1038A000A02006F009FB0DA005F0B6FF1AB00398A2
:1038B00070BC01B00047C046003F3F00A06A020054
:1038C00058E00040D0FA0040A0080200000020416B
:1038D0000000C842505602000000E03F63707300D1
:1038E0000749F320800008589222D20089180A68FC
:1038F000002A02D18968002901D002480068704777
:1039000058E0004004FB004070B59AB04E4C606C2B
:10391000002802D1206C002806D04C480078C0074F
:1039200002D5FC20800300E0494806F017FB202365
:10393000F0224621002006F0EFF90021002006F0D9
:10394000BBFA002006F0ACFA0121012006F0AEFA25
:10395000002006F09FFA8020400206F0D7F93D488B
:1039600006F0B0FA3C49F32080000818056892225E
:10397000D20089180A68002A02D18B68002B00D077
:10398000656B4668002A02D18868002800D0A66BC3
:10399000FE218905206C002844D0304D0E002B48B4
:1039A0000078C00702D5FC20800300E0284806F01C
:1039B000D5FA2B4C280017F06FFA02000B002100FB
:1039C000684616F0AFFFFA2006F0D0F9684605F019
:1039D00023FF244806F076FA0021A02006F06CFAB6
:1039E000300017F059FA00221F4B17F095FD18F020
:1039F00043F9020000D101221C4C2100203168460D
:103A000016F090FF684605F007FF1021A02006F091
:103A100053FA2834200005F0C1FE1AB0039870BC98
:103A200001B00047280017F02BFD01D20F4CC1E771
:103A30000F4917F025FD01D20E4CBBE70E4917F0D8
:103A40001FFDB6D20D4CB5E7D0FA0040FEFC004099
:103A5000003F3F00A06A020058E0004000401C46C2
:103A6000B8080200505602000000E03FA008020023
:103A700000002041A80802000000C842B00802006F
:103A800000487047C808020000487047E408020078
:103A900030B581B00C4804880C4804600C4D0120FE
:103AA00001B50C492800303003B40B4BFA22D20088
:103AB0002100280008F0E3FE04B00020C04301B05C
:103AC000029930BC01B00847F8FC0040F8E400401F
:103AD000F8080200DD3A0000B80B000070B5134D85
:103AE000002805D1BD208000281812F0BDFD18E087
:103AF0000F4C0A2200210F4817F0D2FF20600E4819
:103B000006786660012001B50C498A20400028181B
:103B100003B40C2301223100E035280008F0AFFE89
:103B200004B0039870BC01B00047C0461C030200FB
:103B3000F8E40040A8F90040FAFC0040413B0000D6
:103B400030B581B0002803D1264812F08DFD43E046
:103B5000254C0A220021254817F0A2FF6060244866
:103B60000578A560606802280CD0082801DB0123D5
:103B700000E00023C10F091849104900401A4340D2
:103B80001E3319E02268100000F076F9C8214900C0
:103B90004843101A0DD05010800F801880108000FC
:103BA000101A08D1100000F075F919214843101AB5
:103BB00001D01D2300E01C230E4C012001B50E494D
:103BC000BE204000201803B40122290096204000A6
:103BD000201808F054FE04B001B0029830BC01B0C7
:103BE0000047C04610060200F8E40040A8F9004073
:103BF000FBFC00401C030200FD3B000070B5134DB0
:103C0000002805D1BD208000281812F02DFD19E0F4
:103C10000F4C0A2200210F4817F042FF20600E4887
:103C200006786660012001B50C49BE2040002818C6
:103C300003B4062300223100C8204000281808F0F1
:103C40001EFE04B0039870BC01B000471C030200C4
:103C500000E50040A8F90040F4FC0040613C000091
:103C600070B58CB0294D002805D1BD2080002818E2
:103C700012F0FAFC44E0264C0A220021254817F0F5
:103C80000FFFE060684629003022FDF705FB0021A8
:103C90006068022807DB6A46121D431E16688919F0
:103CA000121D5B1EFAD12161A2688A1822610328C5
:103CB00013DB2368980710D1180000F0F9F864218D
:103CC0004843181A07D1180000F0D6F8C821490057
:103CD0004843181A01D1521C22610F4806786661C8
:103CE000012001B50D4990208000281803B4172346
:103CF0000022310084208000281808F0C0FD04B0A4
:103D00000CB0039870BC01B00047C0461C03020011
:103D1000F8E40040A8F90040FCFC0040213D000010
:103D200070B5134D002805D1BD208000281812F071
:103D30009BFC19E00F4C0A2200210F4817F0B0FE3F
:103D400020600E4806786660012001B50C49A3206A
:103D50008000281803B43B23002231009520800006
:103D6000281808F08CFD04B0039870BC01B000471F
:103D70001C0302000CE50040A8F90040FDFC0040D7
:103D8000853D000010B5002813D00D4C0A220021FB
:103D90000C4817F085FEA0612168606803B42169B2
:103DA000E06803B4A3686269A1691E2005F0BCFA4B
:103DB00004B0054812F058FC019810BC01B000474F
:103DC000F8E40040A8F900401006020000487047DF
:103DD0003C09020000B581B00849C86A401C0428AB
:103DE00000DB0020C8620648CA6A01000C310FF0EF
:103DF00079FD0020019902B00847C0461CFC004034
:103E00007409020007480068401E05D0401E05D016
:103E1000401E05D104487047044870470448704765
:103E20000448704748FC004088090200A8090200C5
:103E3000C8090200E40902007847C04600C00FE14B
:103E4000C0C08CE30CF021E11EFF2FE17847C04693
:103E500000C00FE1C0C0CCE30CF021E11EFF2FE158
:103E60007847C04608109FE590118CE0AC00B0E1A7
:103E70001EFF2FE1ABAAAAAA7847C0460CC09FE557
:103E8000901CCCE0CC03B0E1010080421EFF2FE18A
:103E90001F85EB517847C0460CC09FE5901CCCE0D5
:103EA000CC01B0E1010080421EFF2FE11F85EB51E4
:103EB0007847C0460CC09FE5901CCCE0CC02B0E136
:103EC000010080421EFF2FE11F85EB510048704723
:103ED000A80A020000487047C00A02000048704764
:103EE000D80A020000B581B08C48006805281ED8A9
:103EF00001A1095C8F44C046060E161E262E1248EC
:103F0000019902B008471148019902B008471048CA
:103F1000019902B008470F48019902B008470E48BE
:103F2000019902B008470D48019902B008470C48B2
:103F30000300E43367220100BC30FDF7A5F900203F
:103F4000019902B00847C046040B0200200B020092
:103F50003C0B0200580B0200740B02008C0B020099
:103F6000EC0A0200034804490968002900D1143012
:103F70007047C046A40F020084FD0040004870470F
:103F8000D40F020010B5FFF77BFD0A4C0A4902B5B9
:103F90002100843103B4094B094A1B480168200001
:103FA00008F0C8FB04B00020C043019910BC01B068
:103FB0000847C04604100200C53F00000000C84288
:103FC000CDCCCC3D70B5524C00280ED00E4D002209
:103FD0000021514817F000FD16F0DCFC28600200BB
:103FE0002100103120000FF0ABFC4C4D2E688120D9
:103FF0008000201812F038FB2E6012F077FB039837
:1040000070BC01B0004700003CE40040004870472D
:10401000D812020010B50A4C0A492000803003B4BF
:1040200096235B001E2218480168200008F0E8FB78
:1040300002B00020C043019910BC01B00847C0463F
:10404000201302004940000070B5314C00280DD00B
:104050000D4D0A220021304817F022FD2860020091
:1040600021003031200020300CF0A4F82B4D2E68B8
:1040700081208000201812F0F7FA2E6012F036FB33
:10408000039870BC01B00047A0770040004870471B
:10409000BC130200004870470C14020000B581B048
:1040A000084909A003B496239B001E221948016801
:1040B000064808F0A5FB02B00020C043019902B0F9
:1040C0000847C046D140000000000000581402001C
:1040D00070B50F4C00280DD00E4D0A2200210E485D
:1040E00017F0DEFC28600200210058312000483023
:1040F0000FF0F8FB094D2E6881208000201812F087
:10410000B3FA2E6012F0F2FA039870BC01B00047C7
:1041100090100200A0F90040A8F9004008F7004004
:10412000F0B581B04B48C0C806F020FB00243F2505
:1041300022002A403000390007F020F90A2013F04D
:104140007BFA641C402CF3DBFA20400013F074FA75
:1041500000242000284002023000390007F00EF948
:104160000A2013F069FA641C402CF2DBFA204000AC
:1041700013F062FA002420002840020430003900C5
:1041800007F0FCF80A2013F057FA641C402CF2DB0D
:10419000FA20400013F050FA0024200028400102C9
:1041A00002040A433000390007F0E8F80A2013F04F
:1041B00043FA641C402CF0DBFA20400013F03CFA78
:1041C000002420002840020202433000390007F09A
:1041D000D5F80A2013F030FA641C402CF1DBFA20E9
:1041E000400013F029FA0024200028400204024372
:1041F0003000390007F0C2F80A2013F01DFA641CE1
:10420000402CF1DBFA20400013F016FA00242000C5
:1042100028400102014302040A433000390007F03C
:10422000ADF80A2013F008FA641C402CEFDBFA20EA
:10423000400013F001FA06F099FAFA20400013F05A
:10424000FBF912F053FA012001B00499F0BC01B05F
:104250000847C046C814020000487047D014020046
:1042600000B581B0074908A003B40623022207481D
:104270000168074808F0C4FA02B00020C043019961
:1042800002B00847954200000000000004240040EE
:104290000015020070B50F4C00280DD00E4D0A22FB
:1042A00000210E4817F0FCFB6860020021006C3111
:1042B000200020300BF07EFF094D2E688120800009
:1042C000201812F0D1F92E6012F010FA039870BC89
:1042D00001B000479010020000240040A8F90040FF
:1042E00008F7004030B581B0134C606B17F07AFED0
:1042F00016F0D2FD0022114B17F0B0F916F04AFB70
:104300000500A5630E4C0F4801B5BA2040002118E6
:104310000838201803B40C4BFE2292052900822095
:104320004000201808F006FA04B00020C04301B095
:10433000029930BC01B0084700240040000024402E
:10434000EC0A02004D4300000000404070B5144DDF
:10435000002816D0134C00220021134817F03CFB14
:1043600016F018FBA0630100104817F08BFD17F042
:104370009FF80200626329007831280020300BF09A
:1043800019FF0B4C266881208000281812F06CF968
:10439000266012F0ABF9039870BC01B00047C0462C
:1043A0009010020000240040A8F9004000002041C5
:1043B00008F7004000487047581502000048704751
:1043C0009C15020000487047C015020000B581B07E
:1043D0000549064B0A002032FC20800304F01EF938
:1043E0000120019902B00847F4150200F1430000D2
:1043F000F0B585B0002840D0002524480090244F17
:1044000024A630000AF068FB040032D009F0C6FC94
:10441000B84203D10098006800282ED16D1C12F01C
:1044200057F91D4805F04EFD1023F022772100209A
:1044300005F072FC194805F091FD0021002005F0FF
:104440003BFD002005F02CFD0121012005F02EFD93
:10445000002005F01FFD124805F058FC114805F03A
:104460009DF92A0010A101A816F05CFA01A805F038
:10447000D3F913F037F9002CC3D112F029F912F057
:1044800035F905B00498F0BC01B000478CF9004044
:104490000540008073707A0050560200003F3F00D4
:1044A00002000100542002000D25640000B581B017
:1044B0000649074B8E2040000A18FC20800304F0B8
:1044C000ADF80120019902B00847C046F41502007A
:1044D000D5440000F0B585B0002857D000253048FD
:1044E0000090304E30A7390030000AF069FB04001C
:1044F00034D009F053FC2D49884203D1009800685C
:1045000000282FD16D1C12F0E3F8294805F0DAFCE1
:104510001023F0227721002005F0FEFB254805F04E
:104520001DFD0021002005F0C7FC002005F0B8FCAF
:104530000121012005F0BAFC002005F0ABFC1E486B
:1045400005F0E4FB3000103005F028F92A001BA12B
:1045500001A816F0E7F901A805F05EF913F0C2F81A
:10456000002CC0D13900300008300AF029FB0400CB
:1045700008D009F013FC0D49884203D108480068AF
:10458000002803D113F0AEF8002CEBD112F0A0F804
:1045900012F0ACF805B00498F0BC01B00047C0467A
:1045A0008CF900404420020073707A0005400080BE
:1045B00050560200003F3F00020001000D2564003C
:1045C00000B581B00649074B9D2080000A18FC20E9
:1045D000800304F023F80120019902B00847C04687
:1045E000F4150200E9450000F0B585B0002842D07E
:1045F000002525480090254F25A630000AF06CFACA
:10460000040032D009F0CAFBB84203D10098006818
:1046100000282ED16D1C12F05BF81E4805F052FCEC
:104620001023F0227721002005F076FB1A4805F0D0
:1046300095FC0021002005F03FFC002005F030FC37
:104640000121012005F032FC002005F023FC134875
:1046500005F05CFB124805F0A1F82A0011A101A8A1
:1046600016F060F901A805F0D7F813F03BF8002C1C
:10467000C3D1FCF77DFF12F02BF812F037F805B02C
:104680000498F0BC01B000478CF900400540008060
:104690006C6F670050560200003F3F0002000100AF
:1046A000542002000D25640000B581B00649074B77
:1046B000D92080000A18FC20800303F0AFFF0120FE
:1046C000019902B00847C046F4150200D146000027
:1046D000F0B585B0002840D0002524480090244F34
:1046E00024A630000AF0F8F9040032D009F056FB95
:1046F000B84203D10098006800282ED16D1C11F03B
:10470000E7FF1D4805F0DEFB1023F0227721002093
:1047100005F002FB194805F021FC0021002005F0FE
:10472000CBFB002005F0BCFB0121012005F0BEFB06
:10473000002005F0AFFB124805F0E8FA114805F03B
:104740002DF82A0010A101A816F0ECF801A805F038
:1047500063F812F0C7FF002CC3D111F0B9FF11F0BC
:10476000C5FF05B00498F0BC01B000478CF90040CB
:10477000054000806D63730050560200003F3F000B
:1047800002000100542002000D25640000B581B034
:104790000649074B8A20C0000A18FC20800303F05A
:1047A0003DFF0120019902B00847C046F415020000
:1047B000B5470000F0B585B0002844D00025244856
:1047C0000090244F24A630000AF086F9040007D098
:1047D00009F0E4FAB84203D10098006800282ED10D
:1047E0006D1C11F075FF1D4805F06CFB1023F022C5
:1047F0007721002005F090FA194805F0AFFB002161
:10480000002005F059FB002005F04AFB01210120A2
:1048100005F04CFB002005F03DFB124805F076FA50
:10482000114804F0BBFF2A0010A101A816F07AF885
:1048300001A804F0F1FF12F055FF002CC3D111F0D4
:1048400047FF11F07BFF05B00498F0BC01B00047B2
:104850008CF90040054000806C69620050560200EF
:10486000003F3F0002000100542002000D256400BB
:1048700000B581B00649074BAA20C0000A18FC20E9
:10488000800303F07FFE0120019902B00847C04673
:10489000F41502009948000000B581B000280ED040
:1048A000084909A003B4094B00220021084807F079
:1048B000A7FF02B007480021016003F079FE0198CC
:1048C00002B00047D9480000000000000F27000098
:1048D0009820020020FD004010B582B0040018D0DE
:1048E0000521684616F054FCFFF7A6FA0D48437BF5
:1048F000027B0D49684616F015F8FFF7A7FA0B4939
:10490000684617F065F9002803D120000AF038FC4A
:10491000FEE707480121016002B0019810BC01B018
:104920000047C046F0FC00401C110200A8F90040FE
:1049300020FD004000B581B00549064B06480A1825
:10494000FC20800303F06AFE0120019902B00847B1
:10495000F41502005D49000064070000F0B58DB059
:10496000002800D1B7E011F0B3FE5F4805F0AAFAC5
:104970001023F0227721002005F0CEF95B4F38009C
:1049800005F0ECFA0021002005F096FA002005F071
:1049900087FA0121012005F089FA002005F07AFA52
:1049A000534E300005F0B2F9524D2800103004F09B
:1049B000F5FE51A41922210009A815F0B3FF09A89A
:1049C00004F02AFF0DF044FD11F082FE464805F088
:1049D00079FA1023F0227721002005F09DF93800A4
:1049E00005F0BCFA0021002005F066FA002005F071
:1049F00057FA0121012005F059FA002005F04AFA82
:104A0000300005F083F92800103004F0C7FE322290
:104A1000210006A815F086FF06A804F0FDFE0DF0A3
:104A200037FD11F055FE304805F04CFA1023F02206
:104A30007721002005F070F9380005F08FFA002189
:104A4000002005F039FA002005F02AFA01210120A2
:104A500005F02CFA002005F01DFA300005F056F99B
:104A60002800103004F09AFE4B22210003A815F014
:104A700059FF03A804F0D0FE0DF0B6FD11F028FE9A
:104A8000194805F01FFA1023F0227721002005F0C5
:104A900043F9380005F062FA0021002005F00CFA15
:104AA000002005F0FDF90121012005F0FFF90020AB
:104AB00005F0F0F9300005F029F91035280004F070
:104AC0006DFE63222100684615F02CFF684604F055
:104AD000A3FE0DF0AFFD11F0FBFD11F007FE0DB0D0
:104AE0000498F0BC01B0004750560200003F3F0060
:104AF00002000100442002000D25640000487047B8
:104B000028210200004870476C21020000487047CD
:104B1000AC21020000487047FC21020000487047A9
:104B20002C220200004870476422020000B581B0C8
:104B300006480021016041608160C16001614161FE
:104B4000816100F005F8019802B0004708F70040C5
:104B500010B481B0134801001C310022002300244E
:104B60001CC10CC1010030311CC10CC10100443119
:104B70001CC10CC1010058311CC10CC101006C31B9
:104B80001CC10CC1010080311CC10CC10100943159
:104B90001CC10CC1A83000210EC006C001B010BC61
:104BA0007047C04608F7004000B581B0FFF7D0FF5E
:104BB000FA20800012F020F804480021016011F072
:104BC00095FD0120019902B00847C04608F7004052
:104BD000F0B581B0964D2868002805D0001F0BD095
:104BE000401E00D1E1E001E000F0B2FA012001B086
:104BF0000499F0BC01B008478E4CC820400027182B
:104C00008D4E706B16F048F902000B003900280039
:104C10001C3015F087FE142809D3CC20400023183F
:104C2000864A1C3821182000BC30FCF72DFBB06BE5
:104C300016F032F902000B000020814916F06CFCDE
:104C400017F01AF8002800D101200200D4204000FB
:104C500021182800303015F065FE142809D3CC2027
:104C600040002318774A1C3821182000BC30FCF77C
:104C70000BFB306B16F010F902000B003900280016
:104C8000443015F04FFE14280AD3CC2040002318DE
:104C9000E82292001C3821182000BC30FCF7F4FAFE
:104CA00069A7726839002800583015F03BFE1428B7
:104CB00009D3CC2040002318644A1C382118200056
:104CC000BC30FCF7E1FA7269390028006C3015F04D
:104CD00029FE142809D3CC20400023185C4A1C3834
:104CE00021182000BC30FCF7CFFA5AA7306F16F01D
:104CF000D3F802000B0039002800803015F012FEB6
:104D0000142809D3CC2040002318534A1C382118FA
:104D10002000BC30FCF7B8FAB06F16F0BDF8020006
:104D20000B004EA12800943015F0FCFD14280AD386
:104D3000CC2040002318EB2292001C3821182000C0
:104D4000BC30FCF7A1FA706F16F0A6F802000B0059
:104D500039002800A83015F0E5FD142809D3CC202F
:104D6000400023183E4A1C3821182000BC30FCF7B4
:104D70008BFA3C48006816F08FF802000B00D82030
:104D800040002118BC35280015F0CCFD142809D3AB
:104D9000CC2040002318344A1C382118BC34200091
:104DA000FCF772FA11F0CAFC20E7304E214CF26891
:104DB000D4204000211828001C3015F0B3FD142821
:104DC0000AD3CC2040002318EF2292001C3821186F
:104DD0002000BC30FCF758FABA2040002718306891
:104DE00016F05AF802000B0039002800303015F098
:104DF00099FD142809D3CC20400023181C4A1C38E4
:104E000021182000BC30FCF73FFA1A48006816F061
:104E100043F802000B0039004435280015F082FDEC
:104E20001428BFD3CC2040002318134AB4E7C0464F
:104E300008F70040EC0A0200D0FA00409703000097
:104E40000000E03F9D03000025750000A303000063
:104E5000A603000025660000A903000025670000E6
:104E6000AF0300003CE40040B6030000E8F8004057
:104E7000BF03000078F90040C203000000B581B014
:104E8000034811F0F1FB0120019902B00847C04628
:104E90001006020000B581B0034811F0E5FB0120C7
:104EA000019902B00847C046B4FD010010B584B0B6
:104EB000274C2068401C062800D100202060FFF706
:104EC00047FE11F013FC2068012839D111F000FCD5
:104ED000204804F0F7FF1023F0227721002004F08F
:104EE0001BFF1D4805F03AF80021002004F0E4FF04
:104EF000002004F0D5FF0121012004F0D7FF00209D
:104F000004F0C8FF154804F001FF154804F046FC02
:104F1000642214A1684615F005FD684604F07CFC87
:104F20002000183001B52300143322001032210074
:104F30000C31083420000AF059FA02B011F0C8FB15
:104F400011F0FCFB012004B0019910BC01B008472E
:104F500008F7004050560200003F3F0002000100E9
:104F6000542002000D25640070B582B0174C002853
:104F70001DD00521684616F00BF9FEF75DFF1448B9
:104F8000437B027B21008C31684615F0CBFCFEF799
:104F90005DFF1049684616F01BFE002805D10E483B
:104FA0000121016000F050F801E000F019F80B4D0C
:104FB0002E6881208000201811F056FB2E6011F021
:104FC00095FB02B0039870BC01B00047901002003E
:104FD000F0FC0040A8F9004084FD004008F70040C4
:104FE00010B5154813F04AF811F072FB134804F09D
:104FF00069FFEA23F0223521002004F08DFE142100
:10500000002004F059FF002004F04AFF0121012094
:1050100004F04CFF0A4804F079FE0A4804F0BEFB95
:10502000FA24A400200012F007FB200012F004FB79
:10503000019810BC01B00047E03803005056020050
:1050400002000100A822020010B511F041FB134834
:1050500004F038FFEA23F0223521002004F05CFE42
:105060001421002004F028FF002004F019FF012182
:10507000012004F01BFF0A4804F048FE094804F030
:105080008DFBFA24A400200012F0D6FA200012F0C2
:10509000D3FA019810BC01B00047C0465056020038
:1050A00002000100E822020000B581B01448006847
:1050B00000280AD1134914A003B4144B0022002184
:1050C000134807F09DFB02B016E01248006805285F
:1050D00012D801A1095C8F440408140C10180E4862
:1050E00008E00E4806E00E4804E00E4802E00E48D4
:1050F00000E00E4811F0C8FD0120019902B00847F8
:1051000084FD0040694F0000000000000F270000F0
:105110002423020008F7004098230200E024020044
:105120003C2402008425020028260200CC2602002E
:105130000120704700B581B000F014FC01200199F6
:1051400002B00847012070470120704701207047D6
:1051500000B589B019480168002905D0807BC007D7
:1051600002D5FC20800300E0154804F0F7FE102370
:10517000F0223521002004F0CFFD0021002004F0B2
:105180009BFE002004F08CFE0121012004F08EFE25
:10519000002004F07FFE8020400204F0B7FD0948A3
:1051A00004F090FE0A2004F0E1FD684604F02EF8B9
:1051B00004F032FB09980AB00047C046F0FC0040FA
:1051C000003F3F0050560200F0B583B00400374F57
:1051D000380004F077FE36482318F022FF204030D4
:1051E000011B002004F098FD324804F0B7FE0120B6
:1051F00004F056FE304C200004F00EFB2000183066
:1052000004F0CCFA2D4E3500D0352A682CA1684622
:1052100015F088FB684604F0FFFA2000403004F0E7
:10522000BDFAEB882A7921007031684615F07AFBC7
:10523000684604F0F1FA234804F090FE224804F096
:10524000ADFA22A5280004F0E7FA214804F0A6FAF6
:10525000280004F0E1FA1F4804F034FE2000783002
:1052600004F0DAFAFA36300004F0D6FA380004F026
:1052700029FE280004F0D0FA174804F06FFE200041
:10528000803004F0C9FA2000943004F087FA20003E
:10529000E43004F083FAB4204000201804F0BCFA93
:1052A00003B00498F0BC01B00047C046505602005D
:1052B000E2FEFFFF00203F007027020008F70040D9
:1052C00025750D00003F2000B43003000D000000E4
:1052D0000031030088E50200003F3F0010B586B0B2
:1052E000214804F0EFFDEA23F0223521002004F0EC
:1052F00013FD1E4804F032FE1D4C200004F04EFA4F
:105300002000703004F04AFA2000E03004F046FA41
:105310009A204000201804F041FACC2040002018C8
:1053200004F03CFAFC204000201804F037FAA020DA
:105330008000201804F032FABC208000201804F00D
:105340002DFABE208000201804F028FA09480268CF
:1053500009A1684615F0E6FA684604F05DFA06B061
:10536000019810BC01B0004778480200003F3F00A0
:10537000F0280200D4E4004025750D0070B54248C5
:1053800004F0A0FD414804F0E9FDAB23F0223521F3
:10539000002004F0C1FC012005F082FE04F008FDAD
:1053A0003B4C200004F0FAF92000303004F0F6F90C
:1053B000384D28001C3004F02FFA37A6300004F0D6
:1053C0002BFA2000603004F0E9F92800303004F0B6
:1053D00023FA300004F020FA20008C3004F0DEF9CB
:1053E0002800443004F018FA300004F015FA2000C8
:1053F000C03004F0D3F92800583004F00DFA300022
:1054000004F00AFA2000FC3004F0C8F928006C30DF
:1054100004F002FA300004F0FFF99A20400020184E
:1054200004F0BCF92800803004F0F6F9300004F0F4
:10543000F3F9A8204000201804F0B0F928009430B7
:1054400004F0EAF9300004F0E7F9BA20400020182F
:1054500004F0A4F92800A83004F0DEF9300004F0CC
:10546000DBF90E4804F02EFDCE204000201804F099
:1054700095F9BC35280004F0CFF9002005F010FEA6
:10548000039870BC01B0004750560200003F3F0037
:10549000542C020008F700400D000000784802007C
:1054A00070B5264804F00EFD254804F057FD4C2346
:1054B000F0223521002004F02FFC012005F0F0FD42
:1054C00004F076FC1F4C200004F068F92000243022
:1054D00004F064F91C4D28001C3004F09DF91BA653
:1054E000300004F099F91A48B0214158002902D03F
:1054F0008069032802DA2000483001E02000903063
:1055000004F04CF92000E43004F048F92800303071
:1055100004F082F9300004F07FF988204000201860
:1055200004F03CF94435280004F076F9002005F039
:10553000B7FD039870BC01B00047C046505602004A
:10554000003F3F00402E020008F700400D00000021
:10555000DCF8004070B590B0484804F0B3FCEA2392
:10556000F0223521002004F0D7FB454804F0F6FC7A
:10557000444CEA204000201804F010F9424E30005C
:10558000083004F049F941A004F046F940A541482B
:1055900032582900684615F0C5F93C2809D3CC20BB
:1055A000400023183C4A243021182000BC30FBF76F
:1055B0006BFE80208000201804F0F0F8684604F0AC
:1055C0002BF9361D72692900684615F0ABF93C28A5
:1055D00009D3CC2040002318304A24302118200061
:1055E000BC30FBF751FE8A208000201804F0D6F86A
:1055F000684604F011F932682900684615F092F9FE
:105600003C2809D3CC2040002318254A24302118F7
:105610002000BC30FBF738FE95208000201804F0F5
:10562000BDF8684604F0F8F8306B16F0DBFC1D4955
:1056300016F042FB15F030FC02000B00A0208000A9
:105640002118684615F06EF93C2809D3CC2040009B
:105650002318154A243021182000BC30FBF714FE13
:10566000A2208000201804F099F8684604F0D4F8CD
:1056700010B0039870BC01B00047C04650560200FD
:1056800000203F00EC0A0200002400400D00000052
:1056900025640D0054300000570500005C05000033
:1056A00061050000000020416B050000F0B593B0DB
:1056B000994804F007FCEA23F0223521002004F089
:1056C0002BFB964804F04AFC954F7D68954CB8201A
:1056D000800020180090944E3200010003A815F0BD
:1056E00021F93C280BD3CC2040002318B022D20053
:1056F000B220800021182000BC30FBF7C5FDBA2085
:105700008000201804F04AF803A804F085F8721B02
:10571000009903A815F006F93C280AD3CC204000D4
:105720002318824AB220800021182000BC30FBF7E9
:10573000ABFDC3208000201804F030F803A804F06B
:105740006BF8CC208000201802906420454328008C
:1057500000F0CEFE0200029903A815F0E3F83C2801
:105760000AD3CC2040002318714AB22080002118AF
:105770002000BC30FBF788FDCE208000201801906F
:1057800004F00CF803A804F047F8BD6869A62A00E5
:10579000310003A815F0C6F83C280AD3CC204000FD
:1057A0002318654AB220800021182000BC30FBF786
:1057B0006BFDD6208000201803F0F0FF03A804F052
:1057C0002BF8642064214D43A90A421A029903A8C8
:1057D00015F0A8F83C280AD3CC2040002318574ADB
:1057E000B220800021182000BC30FBF74DFD01984D
:1057F00003F0D4FF03A804F00FF8FA68310003A8FF
:1058000015F090F83C280AD3CC20400023184C4ACD
:10581000B220800021182000BC30FBF735FDDF20CE
:105820008000201803F0BAFF03A803F0F5FF3A69DF
:10583000310003A815F076F83C280AD3CC204000AC
:105840002318404AB220800021182000BC30FBF70A
:105850001BFDEA208000201803F0A0FF03A803F03E
:10586000DBFF7A69310003A815F05CF83C280AD305
:10587000CC2040002318344AB22080002118200098
:10588000BC30FBF701FDF6208000201803F086FFF6
:1058900003A803F0C1FF2D480068002801D008F0DC
:1058A00093FD00F033FE421C009903A815F03AF86E
:1058B0003C280AD3CC2040002318254AB22080007F
:1058C00021182000BC30FBF7DFFC2248201803F031
:1058D00065FF03A803F0A0FF1F4802881FA103A8CB
:1058E00015F020F83C280AD3CC20400023181C4A8D
:1058F000B220800021182000BC30FBF7C5FC8720B7
:10590000C000201803F04AFF03A803F085FF13B07E
:105910000498F0BC01B0004750560200003F200040
:1059200008F70040EC0A0200AF0300008605000003
:105930008C05000025750D00950500009B050000F5
:10594000A4050000AD050000B6050000C8FB00403E
:10595000C20500000C040000A8F4004025750000FA
:10596000CA05000000B581B00021002004F0A4FAAF
:10597000002004F095FA0321012004F097FA00209A
:1059800004F088FA8020400204F0C0F91D4804F0B9
:1059900099FA1D480068052826D801A1095C8F44A2
:1059A0000414281E3C32F520FFF70EFCFFF7D0FB55
:1059B000019802B00047FFF779FE019802B0004756
:1059C000FFF7C8FD019802B00047FFF787FC019878
:1059D00002B00047FFF764FD019802B00047FFF7EF
:1059E000CDFC019802B0004708480300E433BE2212
:1059F000D2008D21C9004118BC30FBF745FC01984D
:105A000002B000475056020008F70040EC0A0200BE
:105A100000B581B0094801B509A10AA003B48023EB
:105A2000DB05FC22920508480168084806F082FE62
:105A300004B00020C043019902B00847515A000049
:105A4000256600000000000078F90040882F020061
:105A500070B5124D002813D0114C002200211148BE
:105A600015F0BAFF14F096FF2060666900206061AF
:105A7000226829009831280048300DF061FF6661E6
:105A8000094C266881208000281810F0EDFD266062
:105A900010F02CFE039870BC01B00047901002007B
:105AA00078F90040A8F9004008F7004000B581B03F
:105AB0000649074B0A003032FC20800102F062FDEB
:105AC0000020C043019902B00847C0460C300200D4
:105AD000D55A000070B5002848D011F075FC11F0BF
