:1000000018F09FE518F09FE518F09FE518F09FE5C0
:1000100018F09FE5586FA0B818F09FE518F09FE51D
:10002000509200001C500100585001002453010060
:1000300060530100FFFFFFFF544D0100B452010067
:10008000034832490968002900D124307047C0462E
:1000900058E8010000487047A4E801000048704794
:1000A000BCE80100034829490968002900D114303F
:1000B0007047C046D4E8010000487047F8E80100E6
:1000C00002480021016041607047000070FD00405F
:1000D00000B581B0FA20800016F0BEFC16F036FAAA
:1000E0000120019902B0084700B581B016F056FA18
:1000F0000120019902B0084700B581B0034816F00D
:10010000E3F90120019902B00847C04650040200FB
:1001100000B581B0034816F0D7F90120019902B06B
:100120000847C046CC10020000B581B007480068FF
:10013000002802D008F0D2FB01E008F0FFFB16F027
:1001400005FA0120019902B008470000CCC1004027
:1001500000B581B0034816F0C7FC0120019902B038
:100160000847C04678EA01000120704700B581B019
:1001700000F05CF80120019902B0084701207047A7
:10018000012070470020704770B5FC26B601300092
:1001900009F0ECFD1023F0223521002009F0C0FC0D
:1001A0000021002009F08EFD002009F07FFD0121D3
:1001B000012009F081FD002009F072FD194809F0C5
:1001C000A9FC764809F084FD0A2009F0D3FC164DFD
:1001D000280009F0E3F98024A4012300EF2267211D
:1001E00000200BF06BFC300009F0C0FD1023F02262
:1001F0006921002009F094FC0021002009F062FD33
:10020000FA2009F0B7FC2835280009F0C7F92300C7
:10021000EF229B2100200BF051FC039870BC01B031
:100220000047C046020001000CE9010010B5FFF7CD
:10023000ABFF00F05FF800F0B3F8164809F096FD48
:10024000002009F033FD0121012009F035FD0020D7
:1002500009F026FD264809F05DFC0A4809F038FD42
:1002600009A4200009F0DAF9200009F0D7F90748BD
:1002700009F094F9064809F0D1F9019810BC01B0D1
:100280000047C046BC4602000D00000064E90100C2
:100290004CCE0040003F3F0000B581B0024816F050
:1002A00013F9019802B0004734EA010000B581B0AB
:1002B0000E49802040020A68824200D1401C08603A
:1002C00004480A680100203113F028FA002001993F
:1002D00002B008479CE90100034804490968044A40
:1002E000914200D030307047D0E9010048CE004044
:1002F0000100010030B585B0224809F037FD202308
:10030000F0224621002009F00BFC0021002009F01A
:10031000D9FC002009F0CAFC0121012009F0CCFC25
:10032000002009F0BDFC8020400209F0F3FB1648D4
:1003300009F0CEFC15A18025ED00154C2068A842DF
:1003400001D2226801E02068820A68461AF004FAA5
:10035000FA2009F00FFC684609F060F91021BE2070
:1003600009F0B0FC0D4809F0B3FC2068A84201D2A6
:1003700008A000E008A009F051F905B0029830BCCF
:1003800001B00047003F3F00E4680200257500000F
:1003900070FD004020420000206B42009454020097
:1003A00030B585B0224809F0E1FC2023F0227A2103
:1003B000002009F0B5FB0021002009F083FC00209B
:1003C00009F074FC0121012009F076FC002009F0FD
:1003D00067FC8020400209F09DFB164809F078FC7C
:1003E00015A18025ED00154C6068A84201D2626815
:1003F00001E06068820A68461AF0AEF9C82009F088
:10040000B9FB684609F00AF91021BE2009F05AFC30
:100410000B4809F05DFC6068A84201D209A000E029
:1004200009A009F0FBF805B0029830BC01B0004704
:10043000003F3F00E46802002575000070FD0040A9
:100440009454020020420000206B420003487D4982
:100450000968002900D120307047C0461CEB01001C
:100460000048704760EB01000048704778EB0100DE
:10047000002074490968002901D10B48704772496E
:100480000968002906D0022908D005D3042909D01B
:1004900006D37047054870470548704705487047C0
:1004A000054870470548704790EB0100A0EB01003C
:1004B000B8EB0100D0EB0100E8EB010000EC01001B
:1004C000004870471CEC01005F4800210160704744
:1004D00000B581B0FA20800016F0BEFA16F036F8AA
:1004E0000120019902B0084700B581B016F056F816
:1004F0000120019902B0084700B581B0034815F00A
:10050000E3FF0120019902B00847C04650040200F1
:1005100000B581B0FFF7C0FE0120019902B0084785
:1005200000B581B047480068002802D10FF022FBD7
:1005300007E045480168491C0160052901DB0021ED
:10054000016016F003F80120019902B0084700008D
:1005500000B581B0034816F0C7FA0120019902B036
:100560000847C04618F001000120704700B581B06F
:1005700000F00AF80120019902B0084701207047F5
:10058000012070470020704700B581B0274809F06E
:10059000EDFB6E23F0223521002009F0C1FA002185
:1005A000002009F08FFB0221012009F085FB0020CB
:1005B00009F07CFB002009F073FB214809F0AAFA3E
:1005C0001B4809F085FB01200AF078FC09F0F4FAD9
:1005D0001C4818494158002901D017481DE00068FF
:1005E000002819D018480068002806D002280AD030
:1005F00006D304280DD009D311E000F027F80EE04F
:1006000000F028F90BE000F02FFA08E000F0CAFA39
:1006100005E000F00DFB02E0084808F0BFFF0020F5
:100620000AF04CFC019802B00047C046003F3F0072
:10063000945402009C04000030EC010074EC0100B2
:100640000100010014E5004080FD0040F0B591B0CC
:10065000704808F0A3FF70481AF094FC04000D00E5
:100660004E27002200231AF091F803D2532780204E
:1006700000064540200029001AF0FEF806001AF096
:100680001FFC02000B00200029001AF025FA0200CE
:100690000B00002061491AF021F91AF095F80500C5
:1006A0001AF048FB040000A8801C0770002141706C
:1006B00000A8801C01B520001AF030FC01002800C1
:1006C0001AF066FB1AF002FB0022544B1AF006F9EE
:1006D0001AF07AF81AF0FAFA03B4230032005049FB
:1006E00005A81AF039F804B001AA4E4906A81AF074
:1006F00033F806A808F092FF4B481AF043FC0400B8
:100700000D004527002200231AF040F803D2572796
:10071000802000064540200029001AF0ADF80600B0
:100720001AF0CEFB02000B00200029001AF0D4F9C9
:1007300002000B00002039491AF0D0F81AF044F8F2
:1007400005001AF0F7FA04006846077000214170AE
:1007500001B520001AF0E2FB010028001AF018FB96
:100760001AF0B4FA00222D4B1AF0B8F81AF02CF84F
:100770001AF0ACFA03B423003200294905A819F095
:10078000EBFF04B001AA294906A819F0E5FF06A865
:1007900008F044FF264C20681AF098FA02000B007B
:1007A000244906A819F0D8FF06A808F037FF6068AA
:1007B0001AF08CFA02000B001F4906A819F0CCFFB2
:1007C00006A808F02BFFA0681AF080FA02000B00C0
:1007D0001A4906A819F0C0FF06A808F01FFF18481C
:1007E0000278184906A819F0B7FF06A808F016FF06
:1007F000154C2078002805D0144808F00FFF002081
:10080000207002E012A008F009FF11B00498F0BCBB
:1008100001B00047ACEC01004CF1004000004E403C
:100820009CEC0100E4EC010054F10040ECEC010010
:100830005CF10040F4EC010000ED01000CED010062
:1008400009EF004018ED010074E9004024ED0100BB
:100850000D000000F0B591B0774808F0DFFE774C4E
:100860008A2040002018817802B5437802787449C4
:1008700004A819F071FF02B002A808F0CFFE8C2086
:1008800040002018009030C84E2720002900002288
:10089000002319F07BFF03D2532780200006454038
:1008A0002000290019F0E8FF06001AF009FB0200F9
:1008B0000B00200029001AF00FF902000B000020A5
:1008C00060491AF00BF819F07FFF05001AF032FAB0
:1008D000040001A8801C07700021417001A8801C41
:1008E00001B520001AF01AFB010028001AF050FA96
:1008F0001AF0ECF90022534B19F0F0FF19F064FFE5
:100900001AF0E4F903B4230032004F4910A819F09B
:1009100023FF04B00CAA4D4902A819F01DFF02A83C
:1009200008F07CFE0098083030C8452720002900D8
:100930000022002319F02AFF03D257278020000647
:1009400045402000290019F097FF06001AF0B8FA78
:1009500002000B00200029001AF0BEF802000B0074
:100960000020384919F0BAFF19F02EFF05001AF0DF
:10097000E1F9040001A807700021417001B52000D1
:100980001AF0CCFA010028001AF002FA1AF09EF9C7
:1009900000222C4B19F0A2FF19F016FF1AF096F95D
:1009A00003B423003200284910A819F0D5FE04B082
:1009B0000CAA274902A819F0CFFE02A808F02EFEC3
:1009C0000098027C234902A819F0C6FE02A808F08C
:1009D00025FE0098427C204902A819F0BDFE02A81D
:1009E00008F01CFE0098183003C819F0EDFE1AF04C
:1009F0006DF902000B00194902A819F0ADFE02A81A
:100A000008F00CFE009820300CC8154902A819F017
:100A1000A3FE02A808F002FE009838300CC8114965
:100A200002A819F099FE02A808F0F8FD11B0049888
:100A3000F0BC01B00047C04634ED0100E0ED0040DD
:100A40003CED010000004E409CEC0100E4EC010094
:100A5000ECEC010054ED010064ED010078ED0100C3
:100A6000F4EC010084ED010070B58CB04B4C20001B
:100A7000FC3008F0D3FD4A4E68468A214900715C7B
:100A80000170002141706A4682204000211801A8AF
:100A900019F062FE01A808F0C1FDFF205A30325C57
:100AA0004938211801A819F057FE01A808F0B6FD31
:100AB000C4204000351803CD083D19F085FE1AF01A
:100AC00005F902000B008E204000211801A819F042
:100AD00043FE01A808F0A2FD2800083003C819F061
:100AE00073FE1AF0F3F802000B002100DC3101A8BC
:100AF00019F032FE01A808F091FD103503CD19F070
:100B000063FE1AF0E3F802000B0094204000211865
:100B100001A819F021FE01A808F080FD9A204000EC
:100B2000201808F07BFDA42040002518123034184E
:100B3000A08801B563882288290003A819F00CFE5B
:100B400002B001A808F06AFD608901B52389E28836
:100B5000290003A819F000FE02B001A808F05EFD0C
:100B6000208A01B5E389A289290003A819F0F4FDC0
:100B700002B001A808F052FDE08A01B5A38A628A9A
:100B8000290003A819F0E8FD02B001A808F046FD0D
:100B90000CB0039870BC01B00047C0469CEC01004B
:100BA000E0ED0040F0B58BB00121012009F084F8A0
:100BB0001C4DD32040002E181B4F32883900684648
:100BC00019F0CAFD684608F029FD00243088012884
:100BD00014DBD42040002818418802B543680288FD
:100BE0003900103102A819F0B7FD02B0684608F0CC
:100BF00015FD641C0C3530888442EADB0B486946DD
:100C00002CC82CC10CC80CC10C2C05DA684608F0A5
:100C100005FD641C0C2CF9DB0BB00498F0BC01B092
:100C20000047C046E0ED00404CEE010074EE0100CC
:100C3000F0B593B07A4808F0F1FC7A4CC8208000F7
:100C400020180090807801B50298437802787649A0
:100C500006A819F081FD02B004A808F0DFFCD2203C
:100C6000800020180290007801B5049843784288EB
:100C70006E4906A819F070FD02B004A808F0CEFC79
:100C80000098083030C84E27200029000022002399
:100C900019F07CFD03D25327802000064540200038
:100CA000290019F0E9FD06001AF00AF902000B000C
:100CB0002000290019F010FF02000B0000205C4901
:100CC00019F00CFE19F080FD05001AF033F804004D
:100CD00001A8801C07700021417001A8801C01B58B
:100CE00020001AF01BF9010028001AF051F819F041
:100CF000EDFF00224E4B19F0F1FD19F065FD19F0E2
:100D0000E5FF03B4230032004A4912A819F024FD7C
:100D100004B00EAA484904A819F01EFD04A808F062
:100D20007DFC0098103030C84527200029000022A3
:100D3000002319F02BFD03D25727802000064540E1
:100D40002000290019F098FD06001AF0B9F80200F9
:100D50000B002000290019F0BFFE02000B0000204C
:100D6000334919F0BBFD19F02FFD050019F0E2FF22
:100D7000040001A807700021417001B520001AF09D
:100D8000CDF8010028001AF003F819F09FFF0022A7
:100D9000274B19F0A3FD19F017FD19F097FF03B4C5
:100DA00023003200234912A819F0D6FC04B00EAA81
:100DB000224904A819F0D0FC04A808F02FFC0098E0
:100DC00018300CC81E4904A819F0C6FC04A808F085
:100DD00025FC009820300CC81A4904A819F0BCFC66
:100DE00004A808F01BFC029808300CC8164904A897
:100DF00019F0B2FC04A808F011FC03A80099C97806
:100E000001700021417003AA104904A819F0A4FC44
:100E100004A808F003FC13B00498F0BC01B000472C
:100E2000F0ED0100E0ED00403CED0100F8ED0100C7
:100E300000004E409CEC0100E4EC0100ECEC0100F1
:100E40000CEE010020EE010030EE01003CEE01004E
:100E500000B581B0024815F037FB019802B0004799
:100E6000BCF0010000B581B00EF08AFF01200199AD
:100E700002B0084700B581B00EF066FF012001996D
:100E800002B0084700B581B00EF042FF0120019981
:100E900002B0084700B581B00EF01EFF0120019995
:100EA00002B00847064801680648074A914205D043
:100EB000521C914201D13030704764307047C046B7
:100EC00020E5004088EE01000100010002480068B2
:100ED000002800D00148704714E500401CEF0100D5
:100EE00002480068002800D00148704714E500401F
:100EF0004CEF010002480068002800D0014870470C
:100F000014E500407CEF010002480068002800D092
:100F10000148704714E50040ACEF010000B581B016
:100F20000A49C8680A4A531E984204D0904201D127
:100F3000921E00E01A00CA60064801000C3112F04F
:100F4000EDFB0020019902B00847C04614E50040BF
:100F500002000100D8EF010002480068002800D01C
:100F60000148704714E50040F0EF010000B581B082
:100F70000EF0ECFD0120019902B0084700487047CF
:100F800000F101000048704714F10100004870476B
:100F900030F101000048704744F1010000A07047A3
:100FA0000000000000B581B097218900B5481AF013
:100FB00009F8019802B0004700B581B09721890077
:100FC000B04819F0FFFF15F0C1FA0120019902B0F5
:100FD000084701207047000000B581B0034815F0B4
:100FE00073FA0120019902B00847C046E4390200B3
:100FF00010B5EA23F0223521002008F091FD0021F0
:10100000002008F05FFE012008F050FE01210120C1
:1010100008F052FE994808F07DFD994808F058FE06
:10102000984C201D08F0A4FB21680A000D32824272
:1010300001DA491C216015F0B1FA0120019910BCB8
:1010400001B0084700B581B08E480168002901D081
:10105000491E016015F0A2FA0120019902B008476B
:10106000012070470120704700B581B000F00AF8F8
:101070000120019902B00847012070470120704704
:1010800001207047F0B581B06F4808F06FFEEA2389
:10109000F0223521002008F043FD0021002008F057
:1010A00011FE012008F002FE0121012008F004FEDB
:1010B000724808F02FFD724808F00AFE012009F07E
:1010C000FDFE08F079FD6F4C96218900201D19F076
:1010D00079FF5E4F380008F04CFA05005C4E201D89
:1010E00019F076FF321A012A03DB2900201D19F0BE
:1010F0009BFF5848006800280ED03800643008F084
:1011000038FA0500201D19F063FF321A012A03DBAB
:101110002900201D19F088FF4F48006800280FD0D3
:10112000C6204000381808F024FA0500201D19F0E8
:101130004FFF321A012A03DB2900201D19F074FF2A
:101140004648006800280FD0B0208000381808F00A
:1011500010FA0500201D19F03BFF321A012A03DBAB
:101160002900201D19F060FF3D48006800280FD0BD
:10117000F1208000381808F0FCF90500201D19F056
:1011800027FF321A012A03DB2900201D19F04CFF2A
:101190003448006800280ED03348381808F0E9F9C0
:1011A0000500201D19F014FF321A012A03DB290063
:1011B000201D19F039FF2D48006800280FD0C120EC
:1011C000C000381808F0D5F90500201D19F000FFFF
:1011D000321A012A03DB2900201D19F025FF2448BB
:1011E000006800280FD0E620C000381808F0C1F9C8
:1011F0000500201D19F0ECFE321A012A03DB29003C
:10120000201D19F011FF1B48006800280ED01A4855
:10121000381808F0AEF90500201D19F0D9FE321A71
:10122000012A03DB2900201D19F0FEFE2168201D84
:1012300008F072FB09F048FE002009F03FFE01B003
:101240000498F0BC01B00047003F3F0058F1010096
:101250005702000040FC004024FC004034FC0040E9
:1012600038FC00402CFC00408404000030FC0040AE
:1012700028FC00403CFC0040140800000100010074
:10128000CCE30200ACF4004008B4024B9C4608BC1E
:101290006047C046C892000008B4024B9C4608BC98
:1012A0006047C04680B0010000487047C8FA01009E
:1012B0000148704700487047DCFA01000048704759
:1012C000F4FA01000048704708FB01000120704754
:1012D00000B581B0B54800210160C943416081601B
:1012E00064210C3019F06EFE019802B0004710B571
:1012F000AE4C00202060C0436060A06064212000EC
:101300000C3019F05FFE15F021F9A0686060012033
:10131000019910BC01B0084700B581B0074815F02D
:10132000D3F80120019902B0084700B581B0034805
:1013300015F0CAF80120019902B0084750040200D4
:1013400010B59A4C2068401C206015F0F1F815F09B
:1013500025F9A06860600120019910BC01B0084720
:1013600010B5924C00202060C043606015F0E0F89A
:1013700015F014F9A06860600120019910BC01B05B
:1013800008470120704700B581B000F00BF801203C
:10139000019902B0084701207047012070470120E1
:1013A00070470000F0B585B00021002008F08AFCED
:1013B000012008F07BFC0321012008F07DFC0020C7
:1013C00008F06EFC8020400208F0A4FB3B4808F0C7
:1013D0007FFCE923F0223521002008F0A1FB384FE3
:1013E000380008F0C3FC714C206F002860D001A8C1
:1013F0000021002200230EC060680090C94388428B
:1014000008D1206F0CF0F0FE401E009002D50020A5
:1014100000904BE00098002848D0642322000C3252
:101420006946206F11F072FB5049884240D0002875
:1014300038D020000C30217B30292ED33A292CD2F1
:10144000202120000C3019F073FE050023D020006D
:101450000C302E1A320021000C3101A819F0C2FE06
:10146000002816D001A80021002200230EC032005F
:1014700021000C3101A819F0CDFE124808F076FCCD
:1014800001A808F0CBF810A008F0C8F8380008F060
:101490006DFC681C01E020000C3008F0BFF80AA0C9
:1014A00008F0BCF809480068BE28B3DB0098A060CB
:1014B00005B00498F0BC01B00047C046BC4602002D
:1014C000003F3F0000203F000D00000024DB0040F3
:1014D00000B581B008F04DF800F004F8019902B0B1
:1014E0000847000030B5C1B00500304C206F00281F
:1014F00030D00CF079FE009001A807F089FD18A10A
:1015000001A819F027FE4A22290001A819F08CFD34
:1015100014A101A819F01EFE01A819F059FD6528B3
:1015200009D311490B003C33F1220D00143108009E
:101530002900FFF7A9FE01A819F04AFD030001AA3E
:101540006946206F0DF0DAF80849884201D0012081
:1015500000E0002041B0029930BC01B00847C0460D
:10156000090000000D00000024FB01000540008080
:1015700030B581B00CA5290028000CF0D3FA0B4C33
:101580002067002805D10122290028000CF0A6FBC5
:101590002067206F401E8041C043C00F01B00299F8
:1015A00030BC01B00847C0466C6F670058FB004074
:1015B00030B593B00500124C200007F0DAFF0100AF
:1015C00005A819F0D7FD280019F080FB02000B00D8
:1015D0002C342100684619F0BFF8694605A819F0B7
:1015E000B9FD02F04DFA010005A819F0B3FD05A8F8
:1015F000FFF778FF13B0029930BC01B00847C0462E
:1016000080FB010070B598B038480168002902D00D
:101610004068002801D1002063E0354E06223100E9
:1016200005A8FFF739FE334DDB208000281819F09C
:10163000A9FC314C19F0C8F819F048FB02000B0066
:101640002100684619F088F8694605A819F082FD5E
:10165000DD208000281819F095FC19F0B5F819F074
:1016600035FB02000B0021000831684619F074F8C0
:10167000694605A819F06EFDDF208000285819F092
:1016800025FB02000B0021001031684619F064F8B8
:10169000694605A819F05EFD05A8FFF723FF06229D
:1016A000310005A8FFF7F8FDC820400028180CC835
:1016B00021001831684619F04FF8694605A819F05D
:1016C00049FDFF202A302A5C24342100684619F0A5
:1016D00043F8694605A819F03DFD05A8FFF702FF8C
:1016E000012018B0039970BC01B0084714E5004010
:1016F000B4FB0100E0ED0040BCFB010003480F49D2
:101700000968002900D114307047C0462CFC010044
:101710000048704760FC01000048704778FC0100F9
:1017200006484168002902D00068002801D102481B
:10173000704700207047C04688FC010034E4004038
:101740000020704710B5A748010080310A681E2AA2
:101750000CDB00224A6003001E245A601B1D641E1D
:10176000FBD1C2670A60026000F032F801F06AFD46
:10177000019910BC01B0084710B501F0B3FA9948BF
:101780000100803100224A6003001E245A601B1DA4
:10179000641EFBD1C2670A600260019810BC01B0F0
:1017A000004710B501F0F8FA8E48010080310022A0
:1017B0004A6003001E245A601B1D641EFBD1C267D1
:1017C0000A6002600120019910BC01B008470000C6
:1017D00030B583B00F4C01220FA110A00CF07EFA9F
:1017E0002060002810D0002501950D4800900423AA
:1017F0006A4601A920680CF081FF7B49884203D129
:1018000020680CF0DBF9256003B0029830BC01B011
:101810000047C046CCFA0040746D70006D637300E1
:10182000EEEEEEEEF0B589B013F04EF93C4DE869FE
:10183000296A002911D000282CD0A868394919F04C
:1018400039FD27D212F08AFD092823DB13F0DAF9DB
:1018500013F0CCF901F040FC1CE000281AD1614CD7
:10186000E66F701CE067A86A002802D080273F0658
:1018700000E00027286819F035FD0743B000201864
:101880004760E06F1E2801D100F058F880342168CD
:10189000491C2160534C2068002836D0224812F0A1
:1018A000C3FD002831D0E06F01282EDB0026266022
:1018B00001F09AFB002828D000F040F8002824D03E
:1018C000684607F017FC0200184904A818F044FF06
:1018D00017A304AA17A118000CF0B6FA2000803054
:1018E000466021001E224E60091D521EFBD1E66794
:1018F00006602660FFF786FE002803D001F0F0FFA7
:10190000FFF756FE0C4816F0E9FA0020A86214F022
:1019100045FE012009B00499F0BC01B00847C0465B
:1019200018E400400100E04024BB0040A0FC01009E
:101930006D637300746D7000103D0300F0B593B0DB
:10194000284E34007C34A068002801D1FFF740FF06
:10195000A068002801D1206034E00CF045FC009024
:101960000020C043019001A802A902680A6002AFEA
:1019700007221949381DFFF78FFC1E22174938002E
:101980000B3019F069FB164D102229002937380059
:1019900019F062FB392302AA6946A0680CF0AEFE7A
:1019A000012806DB20688300321D6946A0680CF020
:1019B000A5FE00210022002300264EC521600A4911
:1019C000884207D104F05EFC002013B00499F0BCFB
:1019D00001B008470120F8E7F8FC00404CF1004056
:1019E000D8E4004048FA00400540008000B581B0CE
:1019F000034814F069FD0120019902B00847C04670
:101A00005004020000B581B0FFF722FA01200199CD
:101A100002B0084700B581B013F044F813F066F83F
:101A20000348012101600120019902B00847C04626
:101A300048FA004010B50A480100803100224A608F
:101A400003001E245A601B1D641EFBD1C2670A607E
:101A5000026001F041FB019910BC01B00847C0468B
:101A600048FA004000487047ECFC0100034870470A
:101A700002487047014870470048704710FD010058
:101A800010B481B06B4800210022002300241EC046
:101A900001B010BC704700B581B0664805210160F7
:101AA000FA20800014F0D8FF14F050FD01200199B5
:101AB00002B0084710B514F071FD5E4C2068401E5E
:101AC00020600DD16068002807D15B4803004033D7
:101AD000582201001430FFF7D7FB606800F0AEF821
:101AE0000120019910BC01B0084710B5514C606845
:101AF000002808D1504803004033612201006431BE
:101B00001430FFF7C1FB606800F098F801200199DC
:101B100010BC01B0084710B5464C6068002808D1D9
:101B20004548030040336722010078311430FFF745
:101B3000ABFB606800F082F80120019910BC01B095
:101B4000084710B53B4C6068002808D13A480300AC
:101B500040336D2201008C311430FFF795FB606833
:101B600000F06CF80120019910BC01B0084710B5D5
:101B7000304C6068002808D12F480300403373229E
:101B80000100A0311430FFF77FFB606800F056F8C9
:101B90000120019910BC01B008470120704700B531
:101BA00081B000F00BF80120019902B00847012034
:101BB00070470120704701207047000010B5EA23EC
:101BC000F0223521002007F0ABFF0021002008F0B3
:101BD00079F8012008F06AF80021012008F06CF87B
:101BE000124807F097FF124808F072F8012009F038
:101BF00065F907F0E1FF0F4CA068002808D10E48F6
:101C0000030040339E220100B4311430FFF73CFB47
:101C1000E068A16800F013F809F056F9002009F017
:101C20004DF9019810BC01B00047C0460200010008
:101C30009454020038FD004028FD01000047084789
:101C400030B581B0C04C86204000201801210170C1
:101C50000025456000F0B8F9DB2080002218002044
:101C6000002119F0B3FDDD208000221800200021A2
:101C700019F0ACFDDF20800020180560456085600C
:101C8000858101B0029830BC01B00047F1B582B047
:101C90000F00AD4C86204000012121540026267102
:101CA0000025002F06D00298405D00F057F86D1C0B
:101CB000BD42F8D3E220800025182E70FF205A3054
:101CC00020180090007800283CD08C204000271875
:101CD000DB208000221803CF083F19F077FDDD20BC
:101CE000800022183800083003C819F06FFD2E78E4
:101CF00000980078022800D3761C032808D1761CAF
:101D0000203703CF18F060FDCE21890061184864A8
:101D10002E700F48205C562814D02878801C28701C
:101D2000CE20800024180CCC083C0A480A4918F040
:101D3000D5FD18F049FDA0642000083003C818F054
:101D400043FDE06403B00498F0BC01B00047C04616
:101D5000230300006F1283C0CAA1FD3F70B57A4C07
:101D6000862149006518297801290AD000D2E8E0C7
:101D700003292DD00DD3052900D195E000D28AE0AA
:101D8000DFE0242800D082E0002121706180022061
:101D90007CE02C2810D02A280ED06288082A74D221
:101DA000A11808716188491C618022785040207018
:101DB0000904090C082967E06288082A65D2002115
:101DC000A2181171227850402070618003205DE0DC
:101DD0006288802149002A2806D18A4255D2A0185B
:101DE00000210173042051E08A424ED2A2180D282E
:101DF00040D100201073554E31002031201D19F0C4
:101E000001FE002804D10C34200000F073F92DE00D
:101E100031001831201D19F0F5FD002804D10C34D3
:101E2000200000F097FA21E031001031201D19F058
:101E3000E9FD002804D10C34200000F0BFFB15E0C0
:101E400031000831201D19F0DDFD002804D10C34CB
:101E5000200000F0FFFA09E03100201D19F0D2FD4A
:101E6000002803D10C34200000F0E2FC6868401C1C
:101E700068600AE023784340237010736088401C38
:101E800060800004000C884201D301202870039870
:101E900070BC01B00047010030390A2900DB373837
:101EA000000160700520F1E761780200303A0A2AEB
:101EB00001DA303800E03738084360702078617804
:101EC0008842E2D1214E31002031201D19F09AFDC7
:101ED000002804D10C34200000F00CF92DE0310072
:101EE0001831201D19F08EFD002804D10C3420007B
:101EF00000F030FA21E031001031201D19F082FD90
:101F0000002804D10C34200000F058FB15E031000B
:101F10000831201D19F076FD002804D10C34200072
:101F200000F098FA09E03100201D19F06BFD00283F
:101F300003D10C34200000F07BFC6868401C686012
:101F4000A3E701202870A2E7E0ED00403CFE01007D
:101F5000F0B481B004B4002817D0002915D0012BAB
:101F600000DA12E00024002500260200009FBE4295
:101F70000FD01778002F0CD02C2F00D1761C6D1CA1
:101F8000521C1778002FF1D10C70002002B0F0BC69
:101F90007047465D2C2EF7D02A2EF5D000200D007C
:101FA00016782C2E0AD02A2E08D0002E06D02E709D
:101FB000401C6D1C521C9842F2DB581E0C54012030
:101FC00002B0F0BC70470000F0B482B0414800227B
:101FD000002101808170404B002003C3083B1C009E
:101FE000083403C41A821C00183403C41C002034B3
:101FF00003C49A62DA621C00303403C4383303C36A
:102000004D241C7001245C70344C00941424002670
:10201000AD277F00009DEE53009DAD1C0095641E12
:10202000F8D11C00303403C41C00383403C41864D5
:1020300059649A642A4B1A705A80284B1424D42568
:102040006D005D192E816E812E806E806A600C336A
:10205000641EF4D1234C22605623237125000835D9
:1020600003C53F25257462741F4C22701F4C03C4A6
:10207000083C2500083503C52500103503C525009B
:10208000183503C5203403C4237062602281A27214
:10209000E3722300103303C32300183303C3230068
:1020A000203303C3283403C4114B01241C705C701B
:1020B000FA24E4005C801D00083503C51A6198828B
:1020C00098750120D87518765C839A831A6202B0DD
:1020D000F0BC7047F4EE0040F8EE0040E0ED004048
:1020E00084EF004078F00040A9F00040D0F00040BC
:1020F00028F10040F1B58CB0192300226946FFF7A2
:1021000027FF002827D007AC6D4628782070687814
:1021100060700026A6708D4F8A2040003F180A226A
:10212000002107A819F0D6FB3870A8782070E8784D
:102130006070A6700A22002107A819F0CBFB787006
:102140002879207068796070A6700A22002107A89B
:1021500019F0C0FBB8701923012269460C98FFF7EB
:10216000F7FE00281BD0794F8C2040003E186D46AA
:1021700000220021A81C19F049FB0022744B19F021
:1021800087F903C6083E0020A87000220021684697
:1021900019F03CFB0CCE083E19F0D8F803C6192301
:1021A000022269460C98FFF7D3FE00280DD068463E
:1021B0000078532809D1654F8C2040003E1803CE8B
:1021C000083E80221206514003C6192303226946A5
:1021D0000C98FFF7BDFE002820D05C4F8C204000FB
:1021E0003E186D4600220021E81C19F00FFB00226A
:1021F000574B19F04DF93200083203C20020E87045
:1022000000220021684619F001FB02000B0030009B
:10221000083003C819F09AF8083603C619230422B7
:1022200069460C98FFF794FE00280FD068460078A6
:1022300057280BD1454F8C2040003E183200083201
:10224000083603CE80231B06594003C23F4F8C2023
:1022500040003E181923052269460C98FFF778FEC6
:10226000002803D0684600783038307419230622DD
:1022700069460C98FFF76CFE00280DD007AC6D4640
:1022800028782070687860700020A0700A220021F1
:1022900007A819F01FFB70741923072269460C98D0
:1022A000FFF756FE002807D000220021684619F0EB
:1022B000ADFA3200183203C21923082269460C987D
:1022C000FFF746FE002807D000220021684619F0DB
:1022D0009DFA3200203203C28A2040003F187878ED
:1022E0000101081A8000B9784418F06AA0421EDA89
:1022F000001B18F0E5FD0022154B19F0C9F80AAAD9
:1023000003C20AA80CC80020002119F007F80ED05B
:102310003000303003C8320020320CCA18F0DCFB29
:102320000AAA0CCA19F0B4F83200383203C23200DB
:1023300030323000203003C803C2F462B06A401C5F
:10234000B0620DB00498F0BC01B00047E0ED004071
:1023500000004E40F0B58BB00700192300226946FB
:10236000FFF7F6FD002803D0384869460978017068
:102370001923012269463800FFF7EAFD002804D03E
:10238000324869460978303941700024304EAD201A
:10239000400035181923A21C69463800FFF7D8FD04
:1023A00000280CD0684669460978017707A8694675
:1023B00049784170002181700A2219F08BFA288037
:1023C000641CB61C0C2CE2DB204C19230E2269463F
:1023D0003800FFF7BDFD002807D000220021684625
:1023E00019F014FA2200303202E0220030320021CB
:1023F00003C219230F2269463800FFF7A9FD002800
:1024000007D000220021684619F000FA2200383275
:1024100002E022003832002103C21923102269464B
:102420003800FFF795FD002805D0002200216846FE
:1024300019F0ECF900E0002120646164A06C401CFC
:10244000A0640BB00498F0BC01B0004738EF004026
:10245000E0ED0040F1B588B01923002201A9FFF793
:1024600077FD002800D19EE00A22002101A819F082
:1024700031FA0A2800DB96E0002800D593E0012815
:1024800000DA90E08000142800DB8CE019230122A0
:1024900001A90898FFF75CFD002800D183E00A221B
:1024A000002101A819F016FA05000A2D7BDA012D8A
:1024B00079DB1923022201A90898FFF749FD0028BA
:1024C00006D00A22002101A819F004FA3849088030
:1024D0000324A8004100081880003649081800901D
:1024E00004260027BC20400000990D181923220063
:1024F00001A90898FFF72CFD002806D00A22002128
:1025000001A819F0E7F9288000E02F801923621C48
:1025100001A90898FFF71CFD002806D00A22002117
:1025200001A819F0D7F9688100E06F811923A21C76
:1025300001A90898FFF70CFD002806D00A22002107
:1025400001A819F0C7F9288100E02F811923E21CA6
:1025500001A90898FFF7FCFC002806D00A220021F8
:1025600001A819F0B7F9688000E06F80288800287A
:1025700001D100200CE000210E4A03E0491C921C0E
:102580000C29F6DAAD235B00D35A9842F6D101202C
:10259000686000980C300090241D761EA2D1064879
:1025A0000168491C016009B00498F0BC01B0004703
:1025B00086EF0040E0ED004078F00040F1B58AB0D1
:1025C000192300226946FFF7C3FC002824D06D467A
:1025D00007AC28782070687860700027A770924E4A
:1025E0000A22002107A819F075F93070A878207028
:1025F000E8786070A7700A22002107A819F06AF92C
:1026000070702879207068796070A7700A220021A4
:1026100007A819F05FF9B0701923012269460A98DA
:10262000FFF796FC002802D06846007800E05620AC
:102630007D4EF0701923022269460A98FFF788FC44
:1026400000281BD06D4600220021A81C19F0DEF8DE
:102650000022764B18F01CFF3200083203C2002023
:10266000A87000220021684619F0D0F83200083224
:102670000CCA18F06BFE3200083203C21923032281
:1026800069460A98FFF764FC00280CD06846007879
:10269000532808D1320008323000083003C88023A4
:1026A0001B06594003C21923042269460A98FFF702
:1026B0004FFC00281DD06D4600220021E81C19F0B7
:1026C000A5F80022594B18F0E3FE3200103203C285
:1026D0000020E87000220021684619F097F80200F7
:1026E0000B003000103003C818F030FE32001032FA
:1026F00003C21923052269460A98FFF729FC00281E
:102700000CD068460078572808D1320010323000CB
:10271000103003C880231B06594003C21923062228
:1027200069460A98FFF714FC002805D00022002112
:10273000684619F06BF802E000215622F270320070
:10274000183203C21923072269460A98FFF700FCD2
:10275000002805D000220021684619F057F802E051
:1027600000215622F270203603C61923082269463A
:102770000A98FFF7EDFB002826D06D4607AC2878B5
:102780002070687860700027A7700A22002107A8CF
:1027900019F0A0F83070A8782070E8786070A77001
:1027A0000A22002107A819F095F870702879207086
:1027B00068796070A7700A22002107A819F08AF8CA
:1027C000FA21C900401870801923092269460A9825
:1027D000FFF7BEFB002805D000220021684619F053
:1027E00015F800E000213200083203C219230A2242
:1027F00069460A98FFF7ACFB00280CD068460078C1
:10280000572808D1320008323000083003C880232E
:102810001B06594003C23069401C30610BB004985C
:10282000F0BC01B00047C04600F1004000004E403F
:10283000F0B58BB00700192300226946FFF788FB2B
:10284000002826D06E4607AC307820707078607013
:102850000020A070394D0A22002107A819F03AF88B
:102860002870B0782070F07860700020A0700A2284
:10287000002107A819F02EF868703079207070795F
:1028800060700020A0700A22002107A819F022F829
:10289000A8701923012269463800FFF759FB002868
:1028A00005D00A220021684619F014F800E0012042
:1028B000224DE8701923022269463800FFF748FBD1
:1028C000002805D00A220021684619F003F800E02C
:1028D000012028711923032269463800FFF738FBCD
:1028E000002805D00A220021684618F0F3FF00E016
:1028F0000120E8801923042269463800FFF728FBED
:10290000002804D00A220021684618F0E3FF28724C
:102910001923052269463800FFF71AFB002804D066
:102920000A220021684618F0D5FF6872E868401C4A
:10293000E8600BB00498F0BC01B000473CF10040E7
:10294000F0B587B0CD4F9320C0003818016800293A
:1029500001D0444803E04068002805D0424807B051
:102960000499F0BC01B00847F720800038180168CE
:10297000002901D03D48F2E70069002801D13C4818
:10298000EDE73D4800683B490988441A0026002CC1
:1029900000D50024FD20800038180090642118F034
:1029A00011FB01A80021002200230EC006C02D4DFE
:1029B000220029007C3101A817F0CEFE01A9009861
:1029C00018F0C8FBFD20800001B503A818F000FB3B
:1029D0003918009802B00F183E707F1C01A8002122
:1029E000002200230EC006C0220029007C3101A86D
:1029F00017F0B2FE01A9380018F0ACFB01A818F0DE
:102A0000E7FA3F183E707F1C01A800210022002336
:102A10000EC006C0220029007C3101A817F09CFEE0
:102A200001A9380018F096FB01A818F0D1FA3F1858
:102A30003E707F1C01A80021002200230EC006C0AA
:102A400022008835290001A817F086FE01A9380068
:102A500018F080FB01A818F0BBFA3818067000982F
:102A60007DE7C04664FE010088FE0100B0FE010063
:102A7000C4FE0100A08900409C770040084800780F
:102A8000002803D0401E03D1024870470248704717
:102A900002487047F8FE010010FF01002CFF010002
:102AA00024FD004007480168002904D0C06E0028BA
:102AB00001D10248704702487047C04644FF0100F8
:102AC00078FF010044E400406C489321C90041189C
:102AD0000A68002A02D14968002901D00B487047D2
:102AE000F7218900411809480A68002A01D01830E6
:102AF00070470A69002A06D0C96F002901D030301A
:102B00007047483070475C307047C04688FF01000E
:102B100000487047F8FF010000B581B003A014F031
:102B20000BF90120019902B00847C04600000000DF
:102B3000004870470C00020000B581B0FEF762FD4E
:102B40004E49F320800008589222D20089180A6862
:102B5000002A02D18968002901D006480068FEF7E2
:102B600027FD034815F0BAF90120019902B0084782
:102B7000103D030004FB0040004870473400020091
:102B800000B581B0034813F09FFC0120019902B009
:102B9000084700005004020023480168002902D1C0
:102BA0004068002800D001487047C0466C00020011
:102BB00010B5324CF7208000201801210022036854
:102BC000002B06D00260416011F0ECFF12F080F89B
:102BD00003E00160426011F0D9FF00F0B7F80A4845
:102BE00016F008F811F0EAFF11F0C0FD13F0AEFC8A
:102BF000F0218900200018F0E5F900F0A3FD012084
:102C0000019910BC01B0084720FD0000064801688A
:102C1000002904D14068002801D1024870470020F3
:102C20007047C0469C000200F0E4004000B581B04F
:102C3000034813F049FC0120019902B00847C0463F
:102C4000E439020000487047C400020000B581B0BA
:102C50000A489321C900411800220A6001234B60F1
:102C6000F721890040180360426011F08FFF13F0D4
:102C70006DFC0120019902B00847000058E00040B7
:102C800003480068002801D00020704701487047C1
:102C9000F4E40040FC00020000B581B00A48932132
:102CA000C900411801220A6000234B60F721890006
:102CB00040180260436011F069FF13F047FC0120E7
:102CC000019902B00847C04658E000400348006838
:102CD000002801D00020704701487047F0E4004010
:102CE0003001020030B581B0154CF0218900200080
:102CF00018F068F9F020800020180121C1610162FC
:102D00000021016041600F4A8260C160026141613F
:102D100000250183FE21890541620B4824182560A6
:102D200000F014F865609620800020626563A5635A
:102D3000E563256401B0029830BC01B00047C0468D
:102D400058E00040000048435C04000030B581B00A
:102D50000F489021C90041180022002300240025BB
:102D60003CC1FA21890041180A604A608A600A67FA
:102D70009321C9004018026042600DF0DBFC054859
:102D80004168016001B0029830BC01B00047C04604
:102D900058E000409C77004000B581B0FF204E30E5
:102DA00013F05AFEFFF7D2FF13F0D0FB00F0CAFC7D
:102DB0000120019902B0084710B511F0CFFA03289D
:102DC00000DA54E011F080FE2B4C2C482218D06B16
:102DD000002845D1106C002842D1F1208000231832
:102DE0009868274918F04AFE04D91868254918F050
:102DF00045FE01D8012000E00020516B814204D043
:102E00005063002801D1012010609869D969002918
:102E100014D0002824D058681B4918F04BFA1FD250
:102E200011F09CFA09281BDB11F0ECFE11F0DEFE1C
:102E300016480021016000F04FF911E000280FD181
:102E400013480068134988420AD1506B002807D103
:102E500011480068002803D100F020F8002806D0AF
:102E6000F120800020180021416213F097FB01201F
:102E7000019910BC01B0084758E000405C04000014
:102E800001009643015043470100E04058FC0040D8
:102E90001CFC00405004020010FB0040F0B585B05F
:102EA000434CF32080002518286AE969002923D0C3
:102EB000002821D1FEF7A6FB3E48FEF709FB286853
:102EC0008B21C90061188A6B002A02D1096C002984
:102ED00001D039480068FEF76BFB012028623748B3
:102EE00015F088FE13F0D4FC0DF024FC344E354868
:102EF00030184168016050E0002852D0324811F08B
:102F000093FA002844D001200DF0D8FC012068621B
:102F10002E4F2B4E2E48385A2A497158884235DB9D
:102F20002C4DAA2080002818FEF7D2FA2A48301823
:102F3000FEF7D8FA9020C000261828480068032819
:102F4000684604D106F0D6F802009C3503E006F08E
:102F5000D1F80200A4352900300017F0FDFB20480D
:102F60003818204909680288891A01800121300037
:102F700016F062FB002801D103F084F98B20C00019
:102F80000121215000F0A8F800200BE013F040FCD4
:102F90008B20C0002058002803D111F083FD11F0D0
:102FA000A5FD012005B00499F0BC01B00847C0465A
:102FB00058E000408C01020004FB004020FD0000AE
:102FC000002400409C53000024BB0040A877004030
:102FD000F81100005C010200FC52000048FC0040B7
:102FE000C222000008FD004030B585B0144C154DDC
:102FF000154800680328684604D106F07BF80200F3
:103000009C3503E006F076F80200A4352900200084
:1030100017F0A2FB0D480E4909680288891A018041
:103020000121200016F008FB002803D103F02AF943
:10303000002000E0012005B0029930BC01B0084733
:10304000D8E400405C01020048FC00406A9A00405D
:1030500008FD004000B581B00C48016800290DD082
:10306000C06E00280AD10A480168426889180160C8
:10307000084A914205DB511E016002E0064813F048
:1030800023FA0120019902B00847C04644E40040F9
:103090009C770040850300006C3B030000B581B0C5
:1030A00000F0CAFE0B480178002903D0491E03D165
:1030B000002102E0022100E00121017015F0F6F884
:1030C00015F0FCF800F0C2FE13F0E2FB01200199BC
:1030D00002B0084724FD004070B584B011F03EF9FD
:1030E000012806DA414814F0F9FEC82015F0AAF8C4
:1030F0000EE03F4E9321C90071180A68002A02D1E0
:10310000496800290AD011F059FD3A4801210160AF
:10311000012004B0039970BC01B008470728E1DB27
:10312000F720800034182068002808D00020206094
:103130000120606011F036FD11F0CAFD42E0206907
:10314000002839D02C4DE06F002805D0BD2080002C
:10315000281813F0B9F9DBE7AA2080002818FEF739
:10316000B7F92648FEF7BEF99020C000361824486B
:1031700000680328684604D105F0BCFF02009C35B6
:1031800003E005F0B7FF0200A4352900300017F076
:10319000E3FA1C481C4909680288891A0180012148
:1031A000300016F049FA002801D103F06BF8012035
:1031B000E06713F06DFBABE701202060002060604A
:1031C00011F0E4FCFFF7C2FD104815F013FD11F0FB
:1031D000F5FC11F0CBFA13F0B9F9F02189003000B9
:1031E00017F0F0FE00F0AEFA92E7C046F03C0300A4
:1031F00058E000404CFB00405C010200FC760040BF
:1032000048FC00406A9A004008FD004020FD000094
:1032100000B581B0044813F067FC04480121016047
:103220000120019902B008473C080200B4E40040C4
:103230000120704700B581B000F096F80120019997
:1032400002B0084710B5104CFB2080002018016820
:10325000002908D0C06E002805D10C48FEF738F9C7
:103260000B48FEF73FF9F0218900200017F0AAFE75
:103270009320C000201800210160416001200199C5
:1032800010BC01B00847C04658E0004004040200EA
:10329000FC76004002480121016001207047C046D1
:1032A000B4E4004005480169002904D10068401ECB
:1032B0008041C00F704700207047C04634E4004092
:1032C00070B5254E300006F051FD1023F022352157
:1032D000002006F025FC0021002006F0F3FC002071
:1032E00006F0E4FC0121012006F0E6FC002006F0D7
:1032F000D7FC1A4806F00EFC194806F0E9FCFA2043
:1033000006F038FC174D280006F048F98024A40187
:103310002300EF226721002008F0D0FB300006F0E8
:1033200025FD1023F0226921002006F0F9FB002181
:10333000002006F0C7FCFA2006F01CFC34352800FB
:1033400006F02CF92300EF229B21002008F0B6FBA9
:10335000039870BC01B0004700203F00020001004C
:10336000945402009404020010B5FFF7A9FF00F086
:10337000CBFA00F021FA2148016C002902D000F0BC
:10338000CBF804E0406C002805D000F083F80198E9
:1033900010BC01B000471A491A480818426B002AAD
:1033A00002D000F0FBF8F2E7F72292008C182169B6
:1033B00000290BD014490968002907D0606900284A
:1033C000E5D000F02DF900206061E0E701680029F8
:1033D00004D00021016000F0B5F9D8E700F07CF9D5
:1033E0000A4800680A498842D1D160680028CED1D5
:1033F00020680028CBD100F00DF8C8E7D0FA0040D3
:1034000058E000405C040000987700401CFC00403D
:10341000A8FC010000B583B01023F0229E210020FB
:1034200006F07EFB0021002006F04CFC002006F098
:103430003DFC0121012006F03FFC002006F030FC9D
:103440008020400206F066FB0D4806F041FC0D4866
:1034500006F08CFC0C48006800F002FD02000BA195
:10346000684617F079F90A2006F084FB084806F050
:1034700095F8684606F0D2F8039804B00047C046B5
:1034800094540200003F2000C8FA00402575000057
:103490001805020000B581B08023F0229E21002093
:1034A00006F03EFB0021002006F00CFC012006F097
:1034B000FDFB0221022006F0FFFB002006F0F0FBDE
:1034C0008020400206F026FB0F4806F001FC0F4862
:1034D0000078C00702D5FC20800300E00C4806F00D
:1034E00045FC012007F0EAFC06F066FB094806F0FF
:1034F00055F806F0F3FB07F0E7FC002007F0DEFCD0
:10350000019802B00047C04694540200FEFC0040FF
:10351000003F3F005805020000B581B08023F02233
:103520009E21002006F0FCFA0021002006F0CAFBD4
:10353000012006F0BBFB0221022006F0BDFB0020AB
:1035400006F0AEFB8020400206F0E4FA0F4806F0D9
:10355000BFFB0F480078C00702D5FC20800300E0C5
:103560000C4806F003FC012007F0A8FC06F024FB41
:10357000094806F013F806F0B1FB07F0A5FC00209F
:1035800007F09CFC019802B00047C046945402002A
:10359000FEFC0040003F3F00E805020000B581B09E
:1035A0008023F0229E21002006F0BAFA002100209C
:1035B00006F088FB012006F079FB0221022006F0CC
:1035C0007BFB002006F06CFB8020400206F0A2FA94
:1035D0000F4806F07DFB0F480078C00702D5FC209D
:1035E000800300E00C4806F0C1FB012007F066FCF8
:1035F00006F0E2FA094805F0D1FF06F06FFB07F08C
:1036000063FC002007F05AFC019802B00047C04656
:1036100094540200FEFC0040003F3F0060060200A0
:1036200030B581B08023F0229E21002006F078FA88
:103630000021002006F046FB012006F037FB0221A6
:10364000012006F039FB002006F02AFB8020400212
:1036500006F060FA1A4806F03BFBFC20800106F0F9
:1036600085FB012007F02AFC06F0A6FA154D28007C
:10367000B83005F093FF144C2000083005F0CEFF61
:1036800012A005F0CBFF06F097FAFC20800306F0AD
:103690006DFBAA208000281805F080FF0C4806F07A
:1036A00065FB0C48201805F0B9FF07F00DFC002061
:1036B00007F004FC01B0029830BC01B00047C046DE
:1036C000945402005C010200002400400D00000040
:1036D000003F3F00FC52000070B5194C206A0028E2
:1036E00024D18F267600012001B53300EF22AE21D0
:1036F00008F072FD02B0206841000C18542C01DB68
:10370000532419E01A20C043844213DA0400FC2534
:10371000AD0100233200AF21EF2008F067F98121CD
:1037200049002B000A1BEF2008F060F9039870BCD9
:1037300001B00047002CEAD4FC25AD03E9E7C04600
:1037400014E40040F0B583B06A46194803C803C2C8
:103750003222684603C807F09FFE164DF72080000E
:103760002858002819D10024812676001A27FF4303
:10377000286841000818542801DB532014E0B8429F
:1037800010DA3800FC239B01321A3100200008F0C7
:103790002DF9641C2D1DF02CEADB03B00498F0BC5D
:1037A00001B000470028EDD4FC239B03ECE7C046A2
:1037B000D806020058E0004070B59AB03E4806F0C6
:1037C000D5FA2023F0227A21002006F0A9F9002161
:1037D000002006F077FA002006F068FA01210120A7
:1037E00006F06AFA002006F05BFA8020400206F03C
:1037F00091F9324806F06CFA3149F12080000A183C
:10380000106856689222D20089180A68002A02D1EC
:103810008968002902D02B49086B8E6B2A4DFE2146
:10382000890517F047FD01D22C000FE0274917F05A
:1038300041FD02D22C00083408E0254917F03AFD7A
:1038400002D22C00103401E02C00183417F03EFA9C
:1038500002000B002100684616F07EFFC82006F02B
:1038600089F9684605F0DAFE1A4806F031FA0021B7
:10387000A02006F027FA300017F028FA0022164B95
:1038800017F064FD18F012F9020000D10122203572
:103890002900684616F060FF684605F0BFFE10215B
:1038A000A02006F00FFA0DA005F0B8FE1AB003989C
:1038B00070BC01B00047C046003F3F00E468020012
:1038C00058E00040D0FA0040E0060200000020412D
:1038D0000000C842945402000000E03F637073008F
:1038E0000749F320800008589222D20089180A68FC
:1038F000002A02D18968002901D002480068704777
:1039000058E0004004FB004070B59AB04E4C606C2B
:10391000002802D1206C002806D04C480078C0074F
:1039200002D5FC20800300E0494806F01FFA20235E
:10393000F0224621002006F0F3F80021002006F0D6
:10394000C1F9002006F0B2F90121012006F0B4F916
:10395000002006F0A5F98020400206F0DBF83D4883
:1039600006F0B6F93C49F320800008180568922259
:10397000D20089180A68002A02D18B68002B00D077
:10398000656B4668002A02D18868002800D0A66BC3
:10399000FE218905206C002844D0304D0E002B48B4
:1039A0000078C00702D5FC20800300E0284806F01C
:1039B000DDF92B4C280017F089F902000B002100DB
:1039C000684616F0C9FEFA2006F0D4F8684605F0FD
:1039D00025FE244806F07CF90021A02006F072F9AB
:1039E000300017F073F900221F4B17F0AFFC18F0EE
:1039F0005DF8020000D101221C4C210020316846F4
:103A000016F0AAFE684605F009FE1021A02006F077
:103A100059F92834200005F0C1FD1AB0039870BC94
:103A200001B00047280017F045FC01D20F4CC1E758
:103A30000F4917F03FFC01D20E4CBBE70E4917F0BF
:103A400039FCB6D20D4CB5E7D0FA0040FEFC004080
:103A5000003F3F00E468020058E000400050C347C8
:103A6000F8060200945402000000E03FE006020065
:103A700000002041E80602000000C842F0060200F3
:103A800000487047080702000048704720070200FE
:103A900030B581B00C4804880C4804600C4D0120FE
:103AA00001B50C492800303003B40B4BFA22D20088
:103AB0002100280008F0F3FD04B00020C04301B04D
:103AC000029930BC01B00847F8FC0040F8E400401F
:103AD00030070200DD3A0000B80B000070B5134D4E
:103AE000002805D1BD208000281812F0EDFC18E058
:103AF0000F4C0A2200210F4817F0ECFE20600E4800
:103B000006786660012001B50C498A20400028181B
:103B100003B40C2301223100E035280008F0BFFD7A
:103B200004B0039870BC01B00047C0465C010200BD
:103B3000F8E40040A8F90040FAFC0040413B0000D6
:103B400030B581B0002803D1264812F0BDFC43E017
:103B5000254C0A220021254817F0BCFE606024484D
:103B60000578A560606802280CD0082801DB0123D5
:103B700000E00023C10F091849104900401A4340D2
:103B80001E3319E02268100000F076F9C8214900C0
:103B90004843101A0DD05010800F801880108000FC
:103BA000101A08D1100000F075F919214843101AB5
:103BB00001D01D2300E01C230E4C012001B50E494D
:103BC000BE204000201803B40122290096204000A6
:103BD000201808F064FD04B001B0029830BC01B0B8
:103BE0000047C04650040200F8E40040A8F9004035
:103BF000FBFC00405C010200FD3B000070B5134D72
:103C0000002805D1BD208000281812F05DFC19E0C5
:103C10000F4C0A2200210F4817F05CFE20600E486E
:103C200006786660012001B50C49BE2040002818C6
:103C300003B4062300223100C8204000281808F0F1
:103C40002EFD04B0039870BC01B000475C01020077
:103C500000E50040A8F90040F4FC0040613C000091
:103C600070B58CB0294D002805D1BD2080002818E2
:103C700012F02AFC44E0264C0A220021254817F0C5
:103C800029FEE060684629003022FDF705FB00218F
:103C90006068022807DB6A46121D431E16688919F0
:103CA000121D5B1EFAD12161A2688A1822610328C5
:103CB00013DB2368980710D1180000F0F9F864218D
:103CC0004843181A07D1180000F0D6F8C821490057
:103CD0004843181A01D1521C22610F4806786661C8
:103CE000012001B50D4990208000281803B4172346
:103CF0000022310084208000281808F0D0FC04B095
:103D00000CB0039870BC01B00047C0465C010200D3
:103D1000F8E40040A8F90040FCFC0040213D000010
:103D200070B5134D002805D1BD208000281812F071
:103D3000CBFB19E00F4C0A2200210F4817F0CAFDF7
:103D400020600E4806786660012001B50C49A3206A
:103D50008000281803B43B23002231009520800006
:103D6000281808F09CFC04B0039870BC01B0004710
:103D70005C0102000CE50040A8F90040FDFC004099
:103D8000853D000010B5002813D00D4C0A220021FB
:103D90000C4817F09FFDA0612168606803B4216999
:103DA000E06803B4A3686269A1691E2005F0BEF94A
:103DB00004B0054812F088FB019810BC01B0004720
:103DC000F8E40040A8F900405004020000487047A1
:103DD0007407020000B581B00849C86A401C042875
:103DE00000DB0020C8620648CA6A01000C310FF0EF
:103DF00095FC0020019902B00847C0461CFC004019
:103E0000AC07020007480068401E05D0401E05D0E0
:103E1000401E05D104487047044870470448704765
:103E20000448704748FC0040C0070200E007020059
:103E3000000802001C0802007847C04600C00FE1DD
:103E4000C0C08CE30CF021E11EFF2FE17847C04693
:103E500000C00FE1C0C0CCE30CF021E11EFF2FE158
:103E60007847C04608109FE590118CE0AC00B0E1A7
:103E70001EFF2FE1ABAAAAAA7847C0460CC09FE557
:103E8000901CCCE0CC03B0E1010080421EFF2FE18A
:103E90001F85EB517847C0460CC09FE5901CCCE0D5
:103EA000CC01B0E1010080421EFF2FE11F85EB51E4
:103EB0007847C0460CC09FE5901CCCE0CC02B0E136
:103EC000010080421EFF2FE11F85EB510048704723
:103ED000E008020000487047F808020000487047F8
:103EE0001009020000B581B08C48006805281ED872
:103EF00001A1095C8F44C046060E161E262E1248EC
:103F0000019902B008471148019902B008471048CA
:103F1000019902B008470F48019902B008470E48BE
:103F2000019902B008470D48019902B0084723489B
:103F30000300E43367220100BC30FDF7A5F900203F
:103F4000019902B00847C0463C0902005809020026
:103F50007409020090090200AC090200C4090200C1
:103F6000034804490968002900D114307047C0464D
:103F7000680E020084FD004000487047980E020061
:103F800010B5FFF77DFD0D4C0B4902B5C42149006A
:103F9000611803B40A4BFE2292051B480168822077
:103FA0004000201808F0D6FA04B00020C043019960
:103FB00010BC01B00847C046C53F000024090200FC
:103FC00000007A4470B5524C00280ED00E4D0022ED
:103FD0000021514817F01AFC16F0F6FB2860020089
:103FE0002100103120000FF0C7FB4C4D2E688120BE
:103FF0008000201812F068FA2E6012F0A7FA0398D9
:1040000070BC01B0004700003CE40040004870472D
:104010001011020010B50A4C0A492000803003B488
:1040200096235B001E2218480168200008F0F8FA69
:1040300002B00020C043019910BC01B00847C0463F
:10404000581102004940000070B5314C00280DD0D5
:104050000D4D0A220021304817F03CFC2860020078
:1040600021003031200020300BF0B4FF2B4D2E68A2
:1040700081208000201812F027FA2E6012F066FAD4
:10408000039870BC01B00047A0770040004870471B
:10409000F4110200004870474412020000B581B0DC
:1040A000084909A003B496239B001E221948016801
:1040B000064808F0B5FA02B00020C043019902B0EA
:1040C0000847C046D14000000000000090120200E6
:1040D00070B50F4C00280DD00E4D0A2200210E485D
:1040E00017F0F8FB2860020021005831200048300A
:1040F0000FF014FB094D2E6881208000201812F06B
:10410000E3F92E6012F022FA039870BC01B0004768
:10411000C80E0200A0F90040A8F9004008F70040CE
:10412000F0B581B04B48C0C806F02AFA00243F25FC
:1041300022002A403000390007F030F80A2013F03E
:10414000ABF9641C402CF3DBFA20400013F0A4F917
:1041500000242000284002023000390007F01EF839
:104160000A2013F099F9641C402CF2DBFA2040007D
:1041700013F092F900242000284002043000390096
:1041800007F00CF80A2013F087F9641C402CF2DBCE
:10419000FA20400013F080F900242000284001029A
:1041A00002040A433000390006F0F8FF0A2013F039
:1041B00073F9641C402CF0DBFA20400013F06CF91A
:1041C000002420002840020202433000390006F09B
:1041D000E5FF0A2013F060F9641C402CF1DBFA20A3
:1041E000400013F059F90024200028400204024343
:1041F0003000390006F0D2FF0A2013F04DF9641C9C
:10420000402CF1DBFA20400013F046F90024200096
:1042100028400102014302040A433000390006F03D
:10422000BDFF0A2013F038F9641C402CEFDBFA20A4
:10423000400013F031F906F0A3F9FA20400013F022
:104240002BF912F083F9012001B00499F0BC01B000
:104250000847C046001302000048704708130200D8
:1042600000B581B0074908A003B40623022207481D
:104270000168074808F0D4F902B00020C043019952
:1042800002B00847954200000000000004240040EE
:104290003813020070B50F4C00280DD00E4D0A22C5
:1042A00000210E4817F016FB6860020021006C31F7
:1042B000200020300BF08EFE094D2E6881208000FA
:1042C000201812F001F92E6012F040F9039870BC2A
:1042D00001B00047C80E020000240040A8F90040C9
:1042E00008F7004030B581B0134C606B17F094FDB7
:1042F00016F0ECFC0022114B17F0CAF816F064FA25
:104300000500A5630E4C0F4801B5C42040002118DC
:104310007030201803B40C4BFE2292052900C820EF
:104320004000201808F016F904B00020C04301B086
:10433000029930BC01B0084700240040000024402E
:10434000240902004D4300000000404070B5144DA8
:10435000002816D0134C00220021134817F056FAFB
:1043600016F032FAA0630100104817F0A5FC16F011
:10437000B9FF0200626329007831280020300BF079
:1043800029FE0B4C266881208000281812F09CF82A
:10439000266012F0DBF8039870BC01B00047C046FD
:1043A000C80E020000240040A8F90040000020418F
:1043B00008F700400048704790130200004870471B
:1043C000D413020000487047F813020000B581B012
:1043D0000549064B0A002032FC20800304F020F837
:1043E0000120019902B008472C140200F14300009B
:1043F000F0B585B0002840D0002524480090244F17
:1044000024A630000AF078FA040032D009F0D6FB76
:10441000B84203D10098006800282ED16D1C12F01C
:1044200087F81D4805F054FC1023F0227721002066
:1044300005F076FB194805F099FC0021002005F0F5
:1044400041FC002005F032FC0121012005F034FC84
:10445000002005F025FC124805F05CFB114805F032
:104460009DF82A0010A101A816F076F901A805F020
:10447000D5F813F067F8002CC3D112F059F812F0F8
:1044800065F805B00498F0BC01B000478CF9004015
:104490000540008073707A0094540200003F3F0092
:1044A000020001008C1E02000D25640000B581B0E1
:1044B0000649074B8E2040000A18FC20800303F0B9
:1044C000AFFF0120019902B00847C0462C1402003A
:1044D000D5440000F0B585B0002857D000253048FD
:1044E0000090304E30A7390030000AF079FA04000D
:1044F00034D009F063FB2D49884203D1009800684D
:1045000000282FD16D1C12F013F8294805F0E0FBAC
:104510001023F0227721002005F002FB254805F04A
:1045200025FC0021002005F0CDFB002005F0BEFB9E
:104530000121012005F0C0FB002005F0B1FB1E4861
:1045400005F0E8FA3000103005F028F82A001BA129
:1045500001A816F001F901A805F060F812F0F2FFC9
:10456000002CC0D13900300008300AF039FA0400BC
:1045700008D009F023FB0D49884203D108480068A0
:10458000002803D112F0DEFF002CEBD111F0D0FF98
:1045900011F0DCFF05B00498F0BC01B00047C04644
:1045A0008CF900407C1E020073707A000540008088
:1045B00094540200003F3F00020001000D256400FA
:1045C00000B581B00649074B9D2080000A18FC20E9
:1045D000800303F025FF0120019902B00847C0467F
:1045E0002C140200E9450000F0B585B0002842D047
:1045F000002525480090254F25A630000AF07CF9BB
:10460000040032D009F0DAFAB84203D10098006809
:1046100000282ED16D1C11F08BFF1E4805F058FBB1
:104620001023F0227721002005F07AFA1A4805F0CD
:104630009DFB0021002005F045FB002005F036FB26
:104640000121012005F038FB002005F029FB13486B
:1046500005F060FA124804F0A1FF2A0011A101A898
:1046600016F07AF801A804F0D9FF12F06BFF002CC5
:10467000C3D1FCF77DFF11F05BFF11F067FF05B0C0
:104680000498F0BC01B000478CF900400540008060
:104690006C6F670094540200003F3F00020001006D
:1046A0008C1E02000D25640000B581B00649074B41
:1046B000D92080000A18FC20800303F0B1FE0120FD
:1046C000019902B00847C0462C140200D1460000F0
:1046D000F0B585B0002840D0002524480090244F34
:1046E00024A630000AF008F9040032D009F066FA76
:1046F000B84203D10098006800282ED16D1C11F03B
:1047000017FF1D4805F0E4FA1023F022772100205E
:1047100005F006FA194805F029FB0021002005F0F4
:10472000D1FA002005F0C2FA0121012005F0C4FAF7
:10473000002005F0B5FA124805F0ECF9114804F034
:104740002DFF2A0010A101A816F006F801A804F018
:1047500065FF12F0F7FE002CC3D111F0E9FE11F055
:10476000F5FE05B00498F0BC01B000478CF900409C
:10477000054000806D63730094540200003F3F00C9
:10478000020001008C1E02000D25640000B581B0FE
:104790000649074B8A20C0000A18FC20800303F05A
:1047A0003FFE0120019902B00847C0462C140200C8
:1047B000B5470000F0B585B0002844D00025244856
:1047C0000090244F24A630000AF096F8040007D089
:1047D00009F0F4F9B84203D10098006800282ED1FE
:1047E0006D1C11F0A5FE1D4805F072FA1023F02291
:1047F0007721002005F094F9194805F0B7FA002157
:10480000002005F05FFA002005F050FA0121012098
:1048100005F052FA002005F043FA124805F07AF943
:10482000114804F0BBFE2A0010A101A815F094FF66
:1048300001A804F0F3FE12F085FE002CC3D111F0A4
:1048400077FE11F0ABFE05B00498F0BC01B0004754
:104850008CF90040054000806C69620094540200AD
:10486000003F3F00020001008C1E02000D25640085
:1048700000B581B00649074BAA20C0000A18FC20E9
:10488000800303F081FD0120019902B00847C04672
:104890002C1402009948000000B581B000280ED009
:1048A000084909A003B4094B00220021084807F079
:1048B000B7FE02B007480021016003F07BFD0198BC
:1048C00002B00047D9480000000000000F27000098
:1048D000D01E020020FD004010B582B0040018D0A8
:1048E0000521684616F06EFBFFF7A6FA0D48437BDC
:1048F000027B0D49684615F02FFFFFF7A7FA0B4919
:10490000684617F07FF8002803D120000AF048FB22
:10491000FEE707480121016002B0019810BC01B018
:104920000047C046F0FC0040540F0200A8F90040C8
:1049300020FD004000B581B00549064B06480A1825
:10494000FC20800303F06CFD0120019902B00847B0
:104950002C1402005D49000064070000F0B58DB022
:10496000002800D1B7E011F0E3FD5F4805F0B0F991
:104970001023F0227721002005F0D2F85B4F380099
:1049800005F0F4F90021002005F09CF9002005F065
:104990008DF90121012005F08FF9002005F080F943
:1049A000534E300005F0B6F8524D2800103004F098
:1049B000F5FD51A41922210009A815F0CDFE09A882
:1049C00004F02CFE0DF060FC11F0B2FD464805F03D
:1049D0007FF91023F0227721002005F0A1F838009C
:1049E00005F0C4F90021002005F06CF9002005F065
:1049F0005DF90121012005F05FF9002005F050F973
:104A0000300005F087F82800103004F0C7FD32228E
:104A1000210006A815F0A0FE06A804F0FFFD0DF089
:104A200053FC11F085FD304805F052F91023F022B7
:104A30007721002005F074F8380005F097F900217F
:104A4000002005F03FF9002005F030F90121012098
:104A500005F032F9002005F023F9300005F05AF88E
:104A60002800103004F09AFD4B22210003A815F015
:104A700073FE03A804F0D2FD0DF0D2FC11F058FD36
:104A8000194805F025F91023F0227721002005F0C0
:104A900047F8380005F06AF90021002005F012F906
:104AA000002005F003F90121012005F005F900209F
:104AB00005F0F6F8300005F02DF81035280004F068
:104AC0006DFD63222100684615F046FE684604F03D
:104AD000A5FD0DF0CBFC11F02BFD11F037FD0DB055
:104AE0000498F0BC01B0004794540200003F3F001E
:104AF000020001007C1E02000D2564000048704782
:104B0000601F020000487047A41F02000048704761
:104B1000E41F02000048704734200200004870473C
:104B200064200200004870479C20020000B581B05C
:104B300006480021016041608160C16001614161FE
:104B4000816100F005F8019802B0004708F70040C5
:104B500010B481B0134801001C310022002300244E
:104B60001CC10CC1010030311CC10CC10100443119
:104B70001CC10CC1010058311CC10CC101006C31B9
:104B80001CC10CC1010080311CC10CC10100943159
:104B90001CC10CC1A83000210EC006C001B010BC61
:104BA0007047C04608F7004000B581B0FFF7D0FF5E
:104BB000FA20800011F050FF04480021016011F03C
:104BC000C5FC0120019902B00847C04608F7004023
:104BD000F0B581B0964D2868002805D0001F0BD095
:104BE000401E00D1E2E001E000F0B2FA012001B085
:104BF0000499F0BC01B008478E4E8F4C706B16F0D4
:104C000065F802000B0085208000211828001C3068
:104C100015F0A2FD142809D3872080002318874AA5
:104C20001C3821182000BC30FCF72EFBB06B16F0AE
:104C30004DF802000B000020814916F087FB16F0AA
:104C400035FF002800D1012002008B2080002118B0
:104C50002800303015F080FD142809D3872080000B
:104C60002318784A1C3821182000BC30FCF70CFBB4
:104C7000306B16F02BF802000B008D2080002118FD
:104C80002800443015F068FD14280AD387208000DE
:104C90002318E82292001C3821182000BC30FCF7B1
:104CA000F3FA69A7726839002800583015F054FDEE
:104CB000142809D3872080002318644A1C3821183F
:104CC0002000BC30FCF7E0FA7269390028006C3033
:104CD00015F042FD142809D38720800023185C4A70
:104CE0001C3821182000BC30FCF7CEFA59A7306FD1
:104CF00015F0ECFF02000B0039002800803015F0A1
:104D00002BFD142809D3872080002318524A1C3811
:104D100021182000BC30FCF7B7FAB06F15F0D6FFB1
:104D200002000B004DA12800943015F015FD142849
:104D30000AD3872080002318EB2292001C38211808
:104D40002000BC30FCF7A0FA706F15F0BFFF020026
:104D50000B0039002800A83015F0FEFC142809D3F8
:104D60008720800023183E4A1C3821182000BC30C0
:104D7000FCF78AFA3B48006815F0A8FF02000B0018
:104D80008F2080002118BC35280015F0E5FC142880
:104D900009D3872080002318334A1C382118BC34DB
:104DA0002000FCF771FA11F0F9FB1FE72F4E224C9F
:104DB000F2688B208000211828001C3015F0CCFCF4
:104DC00014280AD3872080002318EF2292001C3871
:104DD00021182000BC30FCF757FAC42040002718E7
:104DE000306815F073FF02000B00390028003030E6
:104DF00015F0B2FC142809D38720800023181C4A20
:104E00001C3821182000BC30FCF73EFA1948006815
:104E100015F05CFF02000B0039004435280015F046
:104E20009BFC1428BFD3872080002318124AB4E7C4
:104E300008F70040D0FA0040240902009703000060
:104E40000000E03F9D03000025750000A303000063
:104E5000A603000025660000A903000025670000E6
:104E6000AF0300003CE40040B6030000E8F8004057
:104E7000BF03000078F90040C203000000B581B014
:104E8000034811F021FB0120019902B00847C046F8
:104E90005004020000B581B0034811F015FB012059
:104EA000019902B00847C046E8FB010010B584B084
:104EB000274C2068401C062800D100202060FFF706
:104EC00047FE11F043FB2068012839D111F030FB77
:104ED000204804F0FDFE1023F0227721002004F08A
:104EE0001FFE1D4804F042FF0021002004F0EAFEEE
:104EF000002004F0DBFE0121012004F0DDFE002093
:104F000004F0CEFE154804F005FE154804F046FBFB
:104F1000642214A1684615F01FFC684604F07EFB6D
:104F20002000183001B52300143322001032210074
:104F30000C31083420000AF069F902B011F0F8FAD7
:104F400011F02CFB012004B0019910BC01B00847FE
:104F500008F7004094540200003F3F0002000100A7
:104F60008C1E02000D25640070B582B0174C00281D
:104F70001DD00521684616F025F8FEF75DFF1448A0
:104F8000437B027B21008C31684615F0E5FBFEF780
:104F90005DFF1049684616F035FD002805D10E4822
:104FA0000121016000F050F801E000F019F80B4D0C
:104FB0002E6881208000201811F086FA2E6011F0F2
:104FC000C5FA02B0039870BC01B00047C80E0200D9
:104FD000F0FC0040A8F9004084FD004008F70040C4
:104FE00010B5154812F07AFF11F0A2FA134804F038
:104FF0006FFEEA23F0223521002004F091FD1421F8
:10500000002004F05FFE002004F050FE012101208A
:1050100004F052FE0A4804F07DFD0A4804F0BEFA8E
:10502000FA24A400200012F037FA200012F034FA1B
:10503000019810BC01B00047F03C030094540200FA
:1050400002000100E020020010B511F071FA1348CF
:1050500004F03EFEEA23F0223521002004F060FD3A
:105060001421002004F02EFE002004F01FFE012178
:10507000012004F021FE0A4804F04CFD094804F028
:105080008DFAFA24A400200012F006FA200012F093
:1050900003FA019810BC01B00047C04694540200C6
:1050A000020001002021020000B581B01448006810
:1050B00000280AD1134914A003B4144B0022002184
:1050C000134807F0ADFA02B016E012480068052850
:1050D00012D801A1095C8F440408140C10180E4862
:1050E00008E00E4806E00E4804E00E4802E00E48D4
:1050F00000E00E4811F0F8FC0120019902B00847C9
:1051000084FD0040694F0000000000000F270000F0
:105110005C21020008F70040D021020018230200A1
:1051200074220200BC230200602402000425020055
:105130000120704700B581B000F016FC01200199F4
:1051400002B00847012070470120704701207047D6
:1051500000B589B019480168002905D0807BC007D7
:1051600002D5FC20800300E0154804F0FFFD102369
:10517000F0223521002004F0D3FC0021002004F0AF
:10518000A1FD002004F092FD0121012004F094FD16
:10519000002004F085FD8020400204F0BBFC09489B
:1051A00004F096FD0A2004F0E5FC684603F030FFA9
:1051B00004F034FA09980AB00047C046F0FC0040F9
:1051C000003F3F0094540200F0B583B00400374F15
:1051D000380004F07DFD36482318F022FF204030CF
:1051E000011B002004F09CFC324804F0BFFD0120AC
:1051F00004F05CFD304C200004F010FA2000183060
:1052000004F0CCF92D4E3500D0352A682CA1684623
:1052100015F0A2FA684604F001FA2000403004F0CC
:10522000BDF9EB882A7921007031684615F094FAAF
:10523000684604F0F3F9234804F098FD224804F08E
:10524000ADF922A5280004F0E9F9214804F0A6F9F7
:10525000280004F0E3F91F4804F03AFD20007830FC
:1052600004F0DCF9FA36300004F0D8F9380004F024
:105270002FFD280004F0D2F9174804F077FD200034
:10528000803004F0CBF92000943004F087F920003E
:10529000E43004F083F9B4204000201804F0BEF993
:1052A00003B00498F0BC01B00047C046945402001B
:1052B000E2FEFFFF00203F00A825020008F70040A3
:1052C00025750D00003F2000BC3403000D000000D8
:1052D00008350300CCE30200003F3F0010B586B064
:1052E000214804F0F5FCEA23F0223521002004F0E7
:1052F00017FC1E4804F03AFD1D4C200004F04EF946
:105300002000703004F04AF92000DC3004F046F947
:1053100098204000201804F041F9CA2040002018CD
:1053200004F03CF9FA204000201804F037F99D20E1
:105330008000201804F032F9B9208000201804F011
:105340002DF9BB208000201804F028F909480268D4
:1053500009A1684615F000FA684604F05FF906B046
:10536000019810BC01B00047BC460200003F3F005E
:1053700024270200D4E4004025750D0070B5424892
:1053800004F0A6FC414804F0F1FCAB23F0223521E7
:10539000002004F0C5FB012005F090FD04F00CFC9A
:1053A0003B4C200004F0FAF82000303004F0F6F80E
:1053B000384D28001C3004F031F937A6300004F0D5
:1053C0002DF92000603004F0E9F82800303004F0B6
:1053D00025F9300004F022F920008C3004F0DEF8CA
:1053E0002800443004F01AF9300004F017F92000C6
:1053F000C03004F0D3F82800583004F00FF9300022
:1054000004F00CF92000FC3004F0C8F828006C30DF
:1054100004F004F9300004F001F99A20400020184B
:1054200004F0BCF82800803004F0F8F8300004F0F4
:10543000F5F8A8204000201804F0B0F828009430B7
:1054400004F0ECF8300004F0E9F8BA20400020182D
:1054500004F0A4F82800A83004F0E0F8300004F0CC
:10546000DDF80E4804F034FCCE204000201804F093
:1054700095F8BC35280004F0D1F8002005F01EFD99
:10548000039870BC01B0004794540200003F3F00F5
:105490007C2A020008F700400D000000BC46020014
:1054A00070B5264804F014FC254804F05FFC4C233A
:1054B000F0223521002004F033FB012005F0FEFC32
:1054C00004F07AFB1F4C200004F068F82000243020
:1054D00004F064F81C4D28001C3004F09FF81BA653
:1054E000300004F09BF81A48B0214158002902D03E
:1054F0008069032802DA2000483001E02000903063
:1055000004F04CF82000E43004F048F82800303073
:1055100004F084F8300004F081F88820400020185E
:1055200004F03CF84435280004F078F8002005F039
:10553000C5FC039870BC01B00047C04694540200FB
:10554000003F3F00682C020008F700400D000000FB
:10555000DCF8004070B590B0484804F0B9FBEA238D
:10556000F0223521002004F0DBFA454804F0FEFB70
:10557000444C98208000201804F010F8424E30006F
:10558000083004F04BF841A004F048F840A5414829
:1055900032582900684615F0DFF83C2809D38720E7
:1055A000800023183C4A2C3021182000BC30FBF727
:1055B0006BFEA3208000201803F0F0FF684604F083
:1055C0002DF8361D72692900684615F0C5F83C288B
:1055D00009D3872080002318304A2C30211820005E
:1055E000BC30FBF751FEAD208000201803F0D6FF41
:1055F000684604F013F832682900684615F0ACF8E4
:105600003C2809D3872080002318254A2C302118F4
:105610002000BC30FBF738FEB8208000201803F0D3
:10562000BDFF684603F0FAFF306B16F0F5FB1D492D
:1056300016F05CFA15F04AFB02000B00C320800054
:105640002118684615F088F83C2809D38720800087
:105650002318154A2C3021182000BC30FBF714FE0B
:10566000C5208000201803F099FF684603F0D6FF9C
:1056700010B0039870BC01B00047C04694540200BB
:1056800000203F0024090200002400400D0000001B
:1056900025640D0054300000570500005C05000033
:1056A00061050000000020416B050000F0B593B0DB
:1056B000984804F00DFBEA23F0223521002004F085
:1056C0002FFA954804F052FB944F7D68944CDB20F0
:1056D000800020180090934E3200010003A815F0BE
:1056E0003BF83C280BD3872080002318B022D2003F
:1056F000D520800021182000BC30FBF7C5FDDD203F
:105700008000201803F04AFF03A803F087FF721BF4
:10571000009903A815F020F83C280AD387208000C0
:105720002318814AD520800021182000BC30FBF7C7
:10573000ABFDE6208000201803F030FF03A803F043
:105740006DFFEF2080002018029064204543280060
:1057500000F0D6FE0200029903A814F0FDFF3C28D9
:105760000AD3872080002318704AD5208000211892
:105770002000BC30FBF788FDF1208000201801904C
:1057800003F00CFF03A803F049FFBD6868A62A00D8
:10579000310003A814F0E0FF3C280AD387208000E2
:1057A0002318644AD520800021182000BC30FBF764
:1057B0006BFDF9208000201803F0F0FE03A803F031
:1057C0002DFF642064214D43A90A421A029903A8BF
:1057D00014F0C2FF3C280AD3872080002318564AC1
:1057E000D520800021182000BC30FBF74DFD01982A
:1057F00003F0D4FE03A803F011FFFA68310003A8F8
:1058000014F0AAFF3C280AD38720800023184B4AB3
:10581000D520800021182000BC30FBF735FD812009
:10582000C000201803F0BAFE03A803F0F7FE3A699F
:10583000310003A814F090FF3C280AD38720800091
:1058400023183F4AD520800021182000BC30FBF7E8
:105850001BFD3C48201803F0A1FE03A803F0DEFE68
:105860007A69310003A814F077FF3C280AD3872017
:1058700080002318344AD520800021182000BC3035
:10588000FBF702FD3148201803F088FE03A803F05F
:10589000C5FE2F480068002801D008F0A5FC00F0E4
:1058A0003DFE421C009903A814F056FF3C280AD381
:1058B000872080002318274AD52080002118200047
:1058C000BC30FBF7E1FC9320C000201803F066FE1B
:1058D00003A803F0A3FE2048028820A103A814F027
:1058E0003BFF3C280AD38720800023181C4AD52080
:1058F000800021182000BC30FBF7C6FC1948201896
:1059000003F04CFE03A803F089FE13B00498F0BC2A
:1059100001B0004794540200003F200008F7004007
:1059200024090200AF030000860500008C0500007A
:1059300025750D00950500009B050000A4050000DD
:10594000AD05000034040000B6050000640400004A
:10595000C8FB0040C2050000A8F400402575000007
:10596000CA050000C404000000B581B00021002079
:1059700004F0A8F9002004F099F90321012004F0B3
:105980009BF9002004F08CF98020400204F0C2F85A
:105990001D4804F09DF91D480068052826D801A17E
:1059A000095C8F440414281E3C32F520FFF70CFCE0
:1059B000FFF7CEFB019802B00047FFF777FE019892
:1059C00002B00047FFF7C6FD019802B00047FFF79D
:1059D00085FC019802B00047FFF762FD019802B014
:1059E0000047FFF7CBFC019802B0004708480300CE
:1059F000E433BE22D20007494118BC30FBF744FC17
:105A0000019802B00047C0469454020008F70040D5
:105A100024090200F404000000B581B0094801B572
:105A200009A10AA003B48023DB05FC2292050848E3
:105A30000168084806F08EFD04B00020C0430199BB
:105A400002B00847595A0000256600000000000017
:105A500078F90040B02D020070B5124D002813D027
:105A6000114C00220021114815F0D0FE14F0ACFEBC
:105A70002060666900206061226829009831280052
:105A800048300DF079FE6661094C2668812080005F
:105A9000281810F019FD266010F058FD039870BC0E
:105AA00001B00047C80E020078F90040A8F9004094
:105AB00008F7004000B581B00649074B0A003032B4
:105AC000FC20800102F060FC0020C043019902B07C
:105AD0000847C046342E0200DD5A000070B5002889
:105AE00048D011F0A1FB11F0F3FB02F0F7FE0AF031
:105AF0002DF811F0FFF912F0E1FB12F0D7FB0020B6
:105B000010F0E2FC1D4C0025256107F0BDFA04F001
:105B10004BFF04F0A7FC1A48016804220A43026004
