:1000000018F09FE518F09FE518F09FE518F09FE5C0
:1000100018F09FE5586FA0B818F09FE518F09FE51D
:100020005C94000028520100645201003055010028
:100030006C550100FFFFFFFF604F0100C05401003D
:10008000034832490968002900D124307047C0462E
:1000900090EA010000487047DCEA01000048704720
:1000A000F4EA0100034829490968002900D1143005
:1000B0007047C0460CEB01000048704730EB010070
:1000C00002480021016041607047000070FD00405F
:1000D00000B581B0FA20800016F0C4FD16F03CFB9C
:1000E0000120019902B0084700B581B016F05CFB11
:1000F0000120019902B0084700B581B0034816F00D
:10010000E9FA0120019902B00847C04688060200BA
:1001100000B581B0034816F0DDFA0120019902B064
:100120000847C0460413020000B581B007480068C4
:10013000002802D008F0D8FC01E008F005FD16F018
:100140000BFB0120019902B008470000CCC1004020
:1001500000B581B0034816F0CDFD0120019902B031
:100160000847C046B0EC01000120704700B581B0DF
:1001700000F05CF80120019902B0084701207047A7
:10018000012070470020704770B5FC26B601300092
:1001900009F0F2FE1023F0223521002009F0C6FDFF
:1001A0000021002009F094FE002009F085FE0121C5
:1001B000012009F087FE002009F078FE194809F0B7
:1001C000AFFD764809F08AFE0A2009F0D9FD164DE8
:1001D000280009F0E9FA8024A4012300EF22672116
:1001E00000200BF071FD300009F0C6FE1023F02254
:1001F0006921002009F09AFD0021002009F068FE25
:10020000FA2009F0BDFD2835280009F0CDFA2300B9
:10021000EF229B2100200BF057FD039870BC01B02A
:100220000047C0460200010044EB010010B5FFF793
:10023000ABFF00F05FF800F0B3F8164809F09CFE41
:10024000002009F039FE0121012009F03BFE0020C9
:1002500009F02CFE264809F063FD0A4809F03EFE2D
:1002600009A4200009F0E0FA200009F0DDFA0748AF
:1002700009F09AFA064809F0D7FA019810BC01B0C3
:100280000047C046F44802000D0000009CEB01004E
:100290004CCE0040003F3F0000B581B0024816F050
:1002A00019FA019802B000476CEC010000B581B06A
:1002B0000E49802040020A68824200D1401C08603A
:1002C00004480A680100203113F02EFB0020019938
:1002D00002B00847D4EB0100034804490968044A06
:1002E000914200D03030704708EC010048CE004009
:1002F0000100010030B585B0224809F03DFE202301
:10030000F0224621002009F011FD0021002009F013
:10031000DFFD002009F0D0FD0121012009F0D2FD10
:10032000002009F0C3FD8020400209F0F9FC1648C6
:1003300009F0D4FD15A18025ED00154C2068A842D8
:1003400001D2226801E02068820A68461AF020FB88
:10035000FA2009F015FD684609F066FA1021BE2062
:1003600009F0B6FD0D4809F0B9FD2068A84201D298
:1003700008A000E008A009F057FA05B0029830BCC8
:1003800001B00047003F3F001C6B020025750000D4
:1003900070FD004020420000206B4200CC5602005D
:1003A00030B585B0224809F0E7FD2023F0227A21FC
:1003B000002009F0BBFC0021002009F089FD00208D
:1003C00009F07AFD0121012009F07CFD002009F0EF
:1003D0006DFD8020400209F0A3FC164809F07EFD67
:1003E00015A18025ED00154C6068A84201D2626815
:1003F00001E06068820A68461AF0CAFAC82009F06B
:10040000BFFC684609F010FA1021BE2009F060FD1B
:100410000B4809F063FD6068A84201D209A000E022
:1004200009A009F001FA05B0029830BC01B00047FC
:10043000003F3F001C6B02002575000070FD00406E
:10044000CC56020020420000206B420003487D4948
:100450000968002900D120307047C04654ED0100E2
:100460000048704798ED010000487047B0ED01006A
:10047000002074490968002901D10B48704772496E
:100480000968002906D0022908D005D3042909D01B
:1004900006D37047054870470548704705487047C0
:1004A0000548704705487047C8ED0100D8ED0100C8
:1004B000F0ED010008EE010020EE010038EE010031
:1004C0000048704754EE01005F480021016070470A
:1004D00000B581B0FA20800016F0C4FB16F03CF99C
:1004E0000120019902B0084700B581B016F05CF90F
:1004F0000120019902B0084700B581B0034816F009
:10050000E9F80120019902B00847C04688060200B8
:1005100000B581B0FFF7C0FE0120019902B0084785
:1005200000B581B047480068002802D10FF028FCD0
:1005300007E045480168491C0160052901DB0021ED
:10054000016016F009F90120019902B00847000086
:1005500000B581B0034816F0CDFB0120019902B02F
:100560000847C04650F201000120704700B581B035
:1005700000F00AF80120019902B0084701207047F5
:10058000012070470020704700B581B0274809F06E
:10059000F3FC6E23F0223521002009F0C7FB002177
:1005A000002009F095FC0221012009F08BFC0020BD
:1005B00009F082FC002009F079FC214809F0B0FB29
:1005C0001B4809F08BFC01200AF07EFD09F0FAFBC4
:1005D0001C4818494158002901D017481DE00068FF
:1005E000002819D018480068002806D002280AD030
:1005F00006D304280DD009D311E000F027F80EE04F
:1006000000F028F90BE000F02FFA08E000F0CAFA39
:1006100005E000F00DFB02E0084809F0C5F80020F5
:100620000AF052FD019802B00047C046003F3F006B
:10063000CC5602009C04000068EE0100ACEE010004
:100640000100010014E5004080FD0040F0B591B0CC
:10065000704809F0A9F870481AF0B0FD04000D00C8
:100660004E27002200231AF0ADF903D25327802031
:1006700000064540200029001AF01AFA06001AF078
:100680003BFD02000B00200029001AF041FB020094
:100690000B00002061491AF03DFA1AF0B1F905008B
:1006A0001AF064FC040000A8801C0770002141704F
:1006B00000A8801C01B520001AF04CFD01002800A4
:1006C0001AF082FC1AF01EFC0022544B1AF022FA97
:1006D0001AF096F91AF016FC03B4230032005049C0
:1006E00005A81AF055F904B001AA4E4906A81AF057
:1006F0004FF906A809F098F84B481AF05FFD04007E
:100700000D004527002200231AF05CF903D2572779
:10071000802000064540200029001AF0C9F9060093
:100720001AF0EAFC02000B00200029001AF0F0FA8F
:1007300002000B00002039491AF0ECF91AF060F9B8
:1007400005001AF013FC0400684607700021417090
:1007500001B520001AF0FEFC010028001AF034FC5C
:100760001AF0D0FB00222D4B1AF0D4F91AF048F9F8
:100770001AF0C8FB03B423003200294905A81AF077
:1007800007F904B001AA294906A81AF001F906A838
:1007900009F04AF8264C20681AF0B4FB02000B005E
:1007A000244906A81AF0F4F806A809F03DF8606894
:1007B0001AF0A8FB02000B001F4906A81AF0E8F87F
:1007C00006A809F031F8A0681AF09CFB02000B00A3
:1007D0001A4906A81AF0DCF806A809F025F8184806
:1007E0000278184906A81AF0D3F806A809F01CF8F0
:1007F000154C2078002805D0144809F015F8002081
:10080000207002E012A009F00FF811B00498F0BCBB
:1008100001B00047E4EE01004CF1004000004E4002
:10082000D4EE01001CEF010054F1004024EF010060
:100830005CF100402CEF010038EF010044EF0100B3
:1008400009EF004050EF010074E900405CEF010047
:100850000D000000F0B591B0774808F0E5FF774C47
:100860008A2040002018817802B5437802787449C4
:1008700004A81AF08DF802B002A808F0D5FF8C2069
:1008800040002018009030C84E2720002900002288
:1008900000231AF097F803D2532780200006454022
:1008A000200029001AF004F906001AF025FC0200C5
:1008B0000B00200029001AF02BFA02000B00002088
:1008C00060491AF027F91AF09BF805001AF04EFB60
:1008D000040001A8801C07700021417001A8801C41
:1008E00001B520001AF036FC010028001AF06CFB5C
:1008F0001AF008FB0022534B1AF00CF91AF080F89A
:100900001AF000FB03B4230032004F4910A81AF07C
:100910003FF804B00CAA4D4902A81AF039F802A811
:1009200008F082FF0098083030C8452720002900D1
:10093000002200231AF046F803D257278020000631
:100940004540200029001AF0B3F806001AF0D4FB45
:1009500002000B00200029001AF0DAF902000B0057
:10096000002038491AF0D6F81AF04AF805001AF0B3
:10097000FDFA040001A807700021417001B52000B4
:100980001AF0E8FB010028001AF01EFB1AF0BAFA70
:1009900000222C4B1AF0BEF81AF032F81AF0B2FA14
:1009A00003B423003200284910A819F0F1FF04B065
:1009B0000CAA274902A819F0EBFF02A808F034FF9F
:1009C0000098027C234902A819F0E2FF02A808F06F
:1009D0002BFF0098427C204902A819F0D9FF02A8F9
:1009E00008F022FF0098183003C81AF009F81AF02E
:1009F00089FA02000B00194902A819F0C9FF02A8E0
:100A000008F012FF009820300CC8154902A819F010
:100A1000BFFF02A808F008FF009838300CC8114941
:100A200002A819F0B5FF02A808F0FEFE11B0049864
:100A3000F0BC01B00047C0466CEF0100E0ED0040A3
:100A400074EF010000004E40D4EE01001CEF0100E5
:100A500024EF01008CEF01009CEF0100B0EF0100DA
:100A60002CEF0100BCEF010070B58CB04B4C2000A6
:100A7000FC3008F0D9FE4A4E68468A214900715C74
:100A80000170002141706A4682204000211801A8AF
:100A900019F07EFF01A808F0C7FEFF205A30325C33
:100AA0004938211801A819F073FF01A808F0BCFE0D
:100AB000C4204000351803CD083D19F0A1FF1AF0FD
:100AC00021FA02000B008E204000211801A819F025
:100AD0005FFF01A808F0A8FE2800083003C819F03D
:100AE0008FFF1AF00FFA02000B002100DC3101A881
:100AF00019F04EFF01A808F097FE103503CD19F04C
:100B00007FFF1AF0FFF902000B009420400021182B
:100B100001A819F03DFF01A808F086FE9A204000C8
:100B2000201808F081FEA420400025181230341847
:100B3000A08801B563882288290003A819F028FF3E
:100B400002B001A808F070FE608901B52389E2882F
:100B5000290003A819F01CFF02B001A808F064FEE8
:100B6000208A01B5E389A289290003A819F010FFA2
:100B700002B001A808F058FEE08A01B5A38A628A93
:100B8000290003A819F004FF02B001A808F04CFEE8
:100B90000CB0039870BC01B00047C046D4EE010011
:100BA000E0ED0040F0B58BB00121012009F08AF999
:100BB0001C4DD32040002E181B4F32883900684648
:100BC00019F0E6FE684608F02FFE00243088012860
:100BD00014DBD42040002818418802B543680288FD
:100BE0003900103102A819F0D3FE02B0684608F0AF
:100BF0001BFE641C0C3530888442EADB0B486946D6
:100C00002CC82CC10CC80CC10C2C05DA684608F0A5
:100C10000BFE641C0C2CF9DB0BB00498F0BC01B08B
:100C20000047C046E0ED004084F00100ACF0010058
:100C3000F0B593B07A4808F0F7FD7A4CC8208000F0
:100C400020180090807801B50298437802787649A0
:100C500006A819F09DFE02B004A808F0E5FDD22018
:100C6000800020180290007801B5049843784288EB
:100C70006E4906A819F08CFE02B004A808F0D4FD55
:100C80000098083030C84E27200029000022002399
:100C900019F098FE03D2532780200006454020001B
:100CA000290019F005FF06001AF026FA02000B00D1
:100CB000200029001AF02CF802000B0000205C49EB
:100CC00019F028FF19F09CFE05001AF04FF90400F6
:100CD00001A8801C07700021417001A8801C01B58B
:100CE00020001AF037FA010028001AF06DF91AF006
:100CF00009F900224E4B19F00DFF19F081FE1AF090
:100D000001F903B4230032004A4912A819F040FE49
:100D100004B00EAA484904A819F03AFE04A808F045
:100D200083FD0098103030C845272000290000229C
:100D3000002319F047FE03D25727802000064540C4
:100D40002000290019F0B4FE06001AF0D5F90200BF
:100D50000B002000290019F0DBFF02000B0000202F
:100D6000334919F0D7FE19F04BFE05001AF0FEF8D2
:100D7000040001A807700021417001B520001AF09D
:100D8000E9F9010028001AF01FF91AF0BBF8002257
:100D9000274B19F0BFFE19F033FE1AF0B3F803B475
:100DA00023003200234912A819F0F2FD04B00EAA64
:100DB000224904A819F0ECFD04A808F035FD0098BC
:100DC00018300CC81E4904A819F0E2FD04A808F068
:100DD0002BFD009820300CC81A4904A819F0D8FD42
:100DE00004A808F021FD029808300CC8164904A890
:100DF00019F0CEFD04A808F017FD03A80099C978E2
:100E000001700021417003AA104904A819F0C0FD27
:100E100004A808F009FD13B00498F0BC01B0004725
:100E200028F00100E0ED004074EF010030F0010017
:100E300000004E40D4EE01001CEF010024EF010041
:100E400044F0010058F0010068F0010074F0010066
:100E500000B581B0024815F03DFC019802B0004792
:100E6000F4F2010000B581B00FF090F80120019973
:100E700002B0084700B581B00FF06CF8012001996D
:100E800002B0084700B581B00FF048F80120019981
:100E900002B0084700B581B00FF024F80120019995
:100EA00002B00847064801680648074A914205D043
:100EB000521C914201D13030704764307047C046B7
:100EC00020E50040C0F00100010001000248006878
:100ED000002800D00148704714E5004054F101009B
:100EE00002480068002800D00148704714E500401F
:100EF00084F1010002480068002800D001487047D2
:100F000014E50040B4F1010002480068002800D058
:100F10000148704714E50040E4F1010000B581B0DC
:100F20000A49C8680A4A531E984204D0904201D127
:100F3000921E00E01A00CA60064801000C3112F04F
:100F4000F3FC0020019902B00847C04614E50040B8
:100F50000200010010F2010002480068002800D0E1
:100F60000148704714E5004028F2010000B581B047
:100F70000EF0F2FE0120019902B0084700487047C8
:100F800038F30100004870474CF3010000487047F7
:100F900068F30100004870477CF3010000A070472F
:100FA0000000000000B581B097218900B5481AF013
:100FB00025F9019802B0004700B581B0972189005A
:100FC000B0481AF01BF915F0C7FB0120019902B0D7
:100FD000084701207047000000B581B0034815F0B4
:100FE00079FB0120019902B00847C0461C3C020071
:100FF00010B5EA23F0223521002008F097FE0021E9
:10100000002008F065FF012008F056FF01210120B3
:1010100008F058FF994808F083FE994808F05EFFF1
:10102000984C201D08F0AAFC21680A000D3282426B
:1010300001DA491C216015F0B7FB0120019910BCB1
:1010400001B0084700B581B08E480168002901D081
:10105000491E016015F0A8FB0120019902B0084764
:10106000012070470120704700B581B000F00AF8F8
:101070000120019902B00847012070470120704704
:1010800001207047F0B581B06F4808F075FFEA2382
:10109000F0223521002008F049FE0021002008F050
:1010A00017FF012008F008FF0121012008F00AFFC6
:1010B000724808F035FE724808F010FF01200AF06F
:1010C00003F808F07FFE6F4C96218900201D1AF06E
:1010D00095F85E4F380008F052FB05005C4E201D6D
:1010E0001AF092F8321A012A03DB2900201D1AF0A7
:1010F000B7F85848006800280ED03800643008F06F
:101100003EFB0500201D1AF07FF8321A012A03DB8E
:101110002900201D1AF0A4F84F48006800280FD0BD
:10112000C6204000381808F02AFB0500201D1AF0E0
:101130006BF8321A012A03DB2900201D1AF090F8FF
:101140004648006800280FD0B0208000381808F00A
:1011500016FB0500201D1AF057F8321A012A03DB8E
:101160002900201D1AF07CF83D48006800280FD0A7
:10117000F1208000381808F002FB0500201D1AF04D
:1011800043F8321A012A03DB2900201D1AF068F8FF
:101190003448006800280ED03348381808F0EFFAB9
:1011A0000500201D1AF030F8321A012A03DB29004D
:1011B000201D1AF055F82D48006800280FD0C120D6
:1011C000C000381808F0DBFA0500201D1AF01CF8E2
:1011D000321A012A03DB2900201D1AF041F82448A5
:1011E000006800280FD0E620C000381808F0C7FAC1
:1011F0000500201D1AF008F8321A012A03DB290025
:10120000201D1AF02DF81B48006800280ED01A483F
:10121000381808F0B4FA0500201D19F0F5FF321A4D
:10122000012A03DB2900201D1AF01AF82168201D6D
:1012300008F078FC09F04EFF002009F045FF01B0EE
:101240000498F0BC01B00047003F3F0090F301005C
:101250005702000040FC004024FC004034FC0040E9
:1012600038FC00402CFC00408404000030FC0040AE
:1012700028FC00403CFC0040140800000100010074
:1012800004E60200ACF4004008B4024B9C4608BCE3
:101290006047C046D494000008B4024B9C4608BC8A
:1012A0006047C046B8B201000048704700FD010029
:1012B000014870470048704714FD0100004870471E
:1012C0002CFD01000048704740FD010001207047DF
:1012D00000B581B0B54800210160C943416081601B
:1012E00064210C3019F08AFF019802B0004710B554
:1012F000AE4C00202060C0436060A06064212000EC
:101300000C3019F07BFF15F027FAA068606001200F
:10131000019910BC01B0084700B581B0074815F02D
:10132000D9F90120019902B0084700B581B00348FE
:1013300015F0D0F90120019902B008478806020093
:1013400010B59A4C2068401C206015F0F7F915F094
:101350002BFAA06860600120019910BC01B0084719
:1013600010B5924C00202060C043606015F0E6F993
:1013700015F01AFAA06860600120019910BC01B054
:1013800008470120704700B581B000F00BF801203C
:10139000019902B0084701207047012070470120E1
:1013A00070470000F0B585B00021002008F090FDE6
:1013B000012008F081FD0321012008F083FD0020B9
:1013C00008F074FD8020400208F0AAFC3B4808F0B9
:1013D00085FDE923F0223521002008F0A7FC384FD5
:1013E000380008F0C9FD714C206F002860D001A8BA
:1013F0000021002200230EC060680090C94388428B
:1014000008D1206F0CF0F6FF401E009002D500209E
:1014100000904BE00098002848D0642322000C3252
:101420006946206F11F078FC5049884240D000286E
:1014300038D020000C30217B30292ED33A292CD2F1
:10144000202120000C3019F08FFF050023D0200050
:101450000C302E1A320021000C3101A819F0DEFFE9
:10146000002816D001A80021002200230EC032005F
:1014700021000C3101A819F0E9FF124808F07CFDA9
:1014800001A808F0D1F910A008F0CEF9380008F052
:1014900073FD681C01E020000C3008F0C5F90AA0BB
:1014A00008F0C2F909480068BE28B3DB0098A060C4
:1014B00005B00498F0BC01B00047C046F4480200F3
:1014C000003F3F0000203F000D00000024DB0040F3
:1014D00000B581B008F053F900F004F8019902B0AA
:1014E0000847000030B5C1B00500304C206F00281F
:1014F00030D00CF07FFF009001A807F08FFE18A1FC
:1015000001A819F043FF4A22290001A819F0A8FEFA
:1015100014A101A819F03AFF01A819F075FE652879
:1015200009D311490B003C33F1220D00143108009E
:101530002900FFF7A9FE01A819F066FE030001AA21
:101540006946206F0DF0E0F90849884201D001207A
:1015500000E0002041B0029930BC01B00847C0460D
:10156000090000000D0000005CFD01000540008046
:1015700030B581B00CA5290028000CF0D9FB0B4C2C
:101580002067002805D10122290028000CF0ACFCBE
:101590002067206F401E8041C043C00F01B00299F8
:1015A00030BC01B00847C0466C6F670058FB004074
:1015B00030B593B00500124C200008F0E0F80100AF
:1015C00005A819F0F3FE280019F09CFC02000B009E
:1015D0002C342100684619F0DBF9694605A819F09A
:1015E000D5FE02F04DFA010005A819F0CFFE05A8BE
:1015F000FFF778FF13B0029930BC01B00847C0462E
:10160000B8FD010070B598B038480168002902D0D3
:101610004068002801D1002063E0354E06223100E9
:1016200005A8FFF739FE334DDB208000281819F09C
:10163000C5FD314C19F0E4F919F064FC02000B000F
:101640002100684619F0A4F9694605A819F09EFE24
:10165000DD208000281819F0B1FD19F0D1F919F03A
:1016600051FC02000B0021000831684619F090F986
:10167000694605A819F08AFEDF208000285819F075
:1016800041FC02000B0021001031684619F080F97E
:10169000694605A819F07AFE05A8FFF723FF062280
:1016A000310005A8FFF7F8FDC820400028180CC835
:1016B00021001831684619F06BF9694605A819F040
:1016C00065FEFF202A302A5C24342100684619F088
:1016D0005FF9694605A819F059FE05A8FFF702FF52
:1016E000012018B0039970BC01B0084714E5004010
:1016F000ECFD0100E0ED0040F4FD010003480F495E
:101700000968002900D114307047C04664FE01000A
:101710000048704798FE010000487047B0FE010085
:1017200006484168002902D00068002801D102481B
:10173000704700207047C046C0FE010034E40040FE
:101740000020704710B5A748010080310A681E2AA2
:101750000CDB00224A6003001E245A601B1D641E1D
:10176000FBD1C2670A60026000F032F801F06AFD46
:10177000019910BC01B0084710B501F0B3FA9948BF
:101780000100803100224A6003001E245A601B1DA4
:10179000641EFBD1C2670A600260019810BC01B0F0
:1017A000004710B501F0F8FA8E48010080310022A0
:1017B0004A6003001E245A601B1D641EFBD1C267D1
:1017C0000A6002600120019910BC01B008470000C6
:1017D00030B583B00F4C01220FA110A00CF084FB98
:1017E0002060002810D0002501950D4800900423AA
:1017F0006A4601A920680DF087F87B49884203D129
:1018000020680CF0E1FA256003B0029830BC01B00A
:101810000047C046CCFA0040746D70006D637300E1
:10182000EEEEEEEEF0B589B013F054FA3C4DE869F7
:10183000296A002911D000282CD0A868394919F04C
:1018400055FE27D212F090FE092823DB13F0E0FAB0
:1018500013F0D2FA01F040FC1CE000281AD1614CD0
:10186000E66F701CE067A86A002802D080273F0658
:1018700000E00027286819F051FE0743B000201847
:101880004760E06F1E2801D100F058F880342168CD
:10189000491C2160534C2068002836D0224812F0A1
:1018A000C9FE002831D0E06F01282EDB002626601B
:1018B00001F09AFB002828D000F040F8002824D03E
:1018C000684607F01DFD0200184904A819F060F8E9
:1018D00017A304AA17A118000CF0BCFB200080304D
:1018E000466021001E224E60091D521EFBD1E66794
:1018F00006602660FFF786FE002803D001F0F0FFA7
:10190000FFF756FE0C4816F0EFFB0020A86214F01B
:101910004BFF012009B00499F0BC01B00847C04654
:1019200018E400400100E04024BB0040D8FE010064
:101930006D637300746D7000483F0300F0B593B0A1
:10194000284E34007C34A068002801D1FFF740FF06
:10195000A068002801D1206034E00CF04BFD00901D
:101960000020C043019001A802A902680A6002AFEA
:1019700007221949381DFFF78FFC1E22174938002E
:101980000B3019F085FC164D10222900293738003C
:1019900019F07EFC392302AA6946A0680CF0B4FF56
:1019A000012806DB20688300321D6946A0680CF020
:1019B000ABFF00210022002300264EC521600A490A
:1019C000884207D104F05EFC002013B00499F0BCFB
:1019D00001B008470120F8E7F8FC00404CF1004056
:1019E000D8E4004048FA00400540008000B581B0CE
:1019F000034814F06FFE0120019902B00847C04669
:101A00008806020000B581B0FFF722FA0120019993
:101A100002B0084700B581B013F04AF913F06CF931
:101A20000348012101600120019902B00847C04626
:101A300048FA004010B50A480100803100224A608F
:101A400003001E245A601B1D641EFBD1C2670A607E
:101A5000026001F041FB019910BC01B00847C0468B
:101A600048FA00400048704724FF010003487047CF
:101A700002487047014870470048704748FF01001E
:101A800010B481B06B4800210022002300241EC046
:101A900001B010BC704700B581B0664805210160F7
:101AA000FA20800015F0DEF814F056FE01200199AE
:101AB00002B0084710B514F077FE5E4C2068401E57
:101AC00020600DD16068002807D15B4803004033D7
:101AD000582201001430FFF7D7FB606800F0AEF821
:101AE0000120019910BC01B0084710B5514C606845
:101AF000002808D1504803004033612201006431BE
:101B00001430FFF7C1FB606800F098F801200199DC
:101B100010BC01B0084710B5464C6068002808D1D9
:101B20004548030040336722010078311430FFF745
:101B3000ABFB606800F082F80120019910BC01B095
:101B4000084710B53B4C6068002808D13A480300AC
:101B500040336D2201008C311430FFF795FB606833
:101B600000F06CF80120019910BC01B0084710B5D5
:101B7000304C6068002808D12F480300403373229E
:101B80000100A0311430FFF77FFB606800F056F8C9
:101B90000120019910BC01B008470120704700B531
:101BA00081B000F00BF80120019902B00847012034
:101BB00070470120704701207047000010B5EA23EC
:101BC000F0223521002008F0B1F80021002008F0B3
:101BD0007FF9012008F070F90021012008F072F966
:101BE000124808F09DF8124808F078F9012009F031
:101BF0006BFA08F0E7F80F4CA068002808D10E48EF
:101C0000030040339E220100B4311430FFF73CFB47
:101C1000E068A16800F013F809F05CFA002009F010
:101C200053FA019810BC01B00047C0460200010001
:101C3000CC56020038FD004060FF01000047084715
:101C400030B581B0C04C86204000201801210170C1
:101C50000025456000F0B8F9DB2080002218002044
:101C6000002119F0CFFEDD20800022180020002185
:101C700019F0C8FEDF2080002018056045608560EF
:101C8000858101B0029830BC01B00047F1B582B047
:101C90000F00AD4C86204000012121540026267102
:101CA0000025002F06D00298405D00F057F86D1C0B
:101CB000BD42F8D3E220800025182E70FF205A3054
:101CC00020180090007800283CD08C204000271875
:101CD000DB208000221803CF083F19F093FEDD209F
:101CE000800022183800083003C819F08BFE2E78C7
:101CF00000980078022800D3761C032808D1761CAF
:101D0000203703CF18F07CFECE218900611848648B
:101D10002E700F48205C562814D02878801C28701C
:101D2000CE20800024180CCC083C0A480A4918F040
:101D3000F1FE18F065FEA0642000083003C818F01A
:101D40005FFEE06403B00498F0BC01B00047C046F9
:101D5000230300006F1283C0CAA1FD3F70B57A4C07
:101D6000862149006518297801290AD000D2E8E0C7
:101D700003292DD00DD3052900D195E000D28AE0AA
:101D8000DFE0242800D082E0002121706180022061
:101D90007CE02C2810D02A280ED06288082A74D221
:101DA000A11808716188491C618022785040207018
:101DB0000904090C082967E06288082A65D2002115
:101DC000A2181171227850402070618003205DE0DC
:101DD0006288802149002A2806D18A4255D2A0185B
:101DE00000210173042051E08A424ED2A2180D282E
:101DF00040D100201073554E31002031201D19F0C4
:101E00001DFF002804D10C34200000F073F92DE0F0
:101E100031001831201D19F011FF002804D10C34B5
:101E2000200000F097FA21E031001031201D19F058
:101E300005FF002804D10C34200000F0BFFB15E0A2
:101E400031000831201D19F0F9FE002804D10C34AE
:101E5000200000F0FFFA09E03100201D19F0EEFE2D
:101E6000002803D10C34200000F0E2FC6868401C1C
:101E700068600AE023784340237010736088401C38
:101E800060800004000C884201D301202870039870
:101E900070BC01B00047010030390A2900DB373837
:101EA000000160700520F1E761780200303A0A2AEB
:101EB00001DA303800E03738084360702078617804
:101EC0008842E2D1214E31002031201D19F0B6FEAA
:101ED000002804D10C34200000F00CF92DE0310072
:101EE0001831201D19F0AAFE002804D10C3420005E
:101EF00000F030FA21E031001031201D19F09EFE73
:101F0000002804D10C34200000F058FB15E031000B
:101F10000831201D19F092FE002804D10C34200055
:101F200000F098FA09E03100201D19F087FE002822
:101F300003D10C34200000F07BFC6868401C686012
:101F4000A3E701202870A2E7E0ED00407400020042
:101F5000F0B481B004B4002817D0002915D0012BAB
:101F600000DA12E00024002500260200009FBE4295
:101F70000FD01778002F0CD02C2F00D1761C6D1CA1
:101F8000521C1778002FF1D10C70002002B0F0BC69
:101F90007047465D2C2EF7D02A2EF5D000200D007C
:101FA00016782C2E0AD02A2E08D0002E06D02E709D
:101FB000401C6D1C521C9842F2DB581E0C54012030
:101FC00002B0F0BC70470000F0B482B0414800227B
:101FD000002101808170404B002003C3083B1C009E
:101FE000083403C41A821C00183403C41C002034B3
:101FF00003C49A62DA621C00303403C4383303C36A
:102000004D241C7001245C70344C00941424002670
:10201000AD277F00009DEE53009DAD1C0095641E12
:10202000F8D11C00303403C41C00383403C41864D5
:1020300059649A642A4B1A705A80284B1424D42568
:102040006D005D192E816E812E806E806A600C336A
:10205000641EF4D1234C22605623237125000835D9
:1020600003C53F25257462741F4C22701F4C03C4A6
:10207000083C2500083503C52500103503C525009B
:10208000183503C5203403C4237062602281A27214
:10209000E3722300103303C32300183303C3230068
:1020A000203303C3283403C4114B01241C705C701B
:1020B000FA24E4005C801D00083503C51A6198828B
:1020C00098750120D87518765C839A831A6202B0DD
:1020D000F0BC7047F4EE0040F8EE0040E0ED004048
:1020E00084EF004078F00040A9F00040D0F00040BC
:1020F00028F10040F1B58CB0192300226946FFF7A2
:1021000027FF002827D007AC6D4628782070687814
:1021100060700026A6708D4F8A2040003F180A226A
:10212000002107A819F0F2FC3870A8782070E87830
:102130006070A6700A22002107A819F0E7FC7870E9
:102140002879207068796070A6700A22002107A89B
:1021500019F0DCFCB8701923012269460C98FFF7CE
:10216000F7FE00281BD0794F8C2040003E186D46AA
:1021700000220021A81C19F065FC0022744B19F004
:10218000A3FA03C6083E0020A8700022002168467A
:1021900019F058FC0CCE083E19F0F4F903C61923C7
:1021A000022269460C98FFF7D3FE00280DD068463E
:1021B0000078532809D1654F8C2040003E1803CE8B
:1021C000083E80221206514003C6192303226946A5
:1021D0000C98FFF7BDFE002820D05C4F8C204000FB
:1021E0003E186D4600220021E81C19F02BFC00224D
:1021F000574B19F069FA3200083203C20020E87028
:1022000000220021684619F01DFC02000B0030007E
:10221000083003C819F0B6F9083603C6192304229A
:1022200069460C98FFF794FE00280FD068460078A6
:1022300057280BD1454F8C2040003E183200083201
:10224000083603CE80231B06594003C23F4F8C2023
:1022500040003E181923052269460C98FFF778FEC6
:10226000002803D0684600783038307419230622DD
:1022700069460C98FFF76CFE00280DD007AC6D4640
:1022800028782070687860700020A0700A220021F1
:1022900007A819F03BFC70741923072269460C98B3
:1022A000FFF756FE002807D000220021684619F0EB
:1022B000C9FB3200183203C21923082269460C9860
:1022C000FFF746FE002807D000220021684619F0DB
:1022D000B9FB3200203203C28A2040003F187878D0
:1022E0000101081A8000B9784418F06AA0421EDA89
:1022F000001B18F001FF0022154B19F0E5F90AAA9E
:1023000003C20AA80CC80020002119F023F90ED03E
:102310003000303003C8320020320CCA18F0F8FC0C
:102320000AAA0CCA19F0D0F93200383203C23200BE
:1023300030323000203003C803C2F462B06A401C5F
:10234000B0620DB00498F0BC01B00047E0ED004071
:1023500000004E40F0B58BB00700192300226946FB
:10236000FFF7F6FD002803D0384869460978017068
:102370001923012269463800FFF7EAFD002804D03E
:10238000324869460978303941700024304EAD201A
:10239000400035181923A21C69463800FFF7D8FD04
:1023A00000280CD0684669460978017707A8694675
:1023B00049784170002181700A2219F0A7FB28801A
:1023C000641CB61C0C2CE2DB204C19230E2269463F
:1023D0003800FFF7BDFD002807D000220021684625
:1023E00019F030FB2200303202E0220030320021AE
:1023F00003C219230F2269463800FFF7A9FD002800
:1024000007D000220021684619F01CFB2200383258
:1024100002E022003832002103C21923102269464B
:102420003800FFF795FD002805D0002200216846FE
:1024300019F008FB00E0002120646164A06C401CDE
:10244000A0640BB00498F0BC01B0004738EF004026
:10245000E0ED0040F1B588B01923002201A9FFF793
:1024600077FD002800D19EE00A22002101A819F082
:102470004DFB0A2800DB96E0002800D593E00128F8
:1024800000DA90E08000142800DB8CE019230122A0
:1024900001A90898FFF75CFD002800D183E00A221B
:1024A000002101A819F032FB05000A2D7BDA012D6D
:1024B00079DB1923022201A90898FFF749FD0028BA
:1024C00006D00A22002101A819F020FB3849088013
:1024D0000324A8004100081880003649081800901D
:1024E00004260027BC20400000990D181923220063
:1024F00001A90898FFF72CFD002806D00A22002128
:1025000001A819F003FB288000E02F801923621C2A
:1025100001A90898FFF71CFD002806D00A22002117
:1025200001A819F0F3FA688100E06F811923A21C59
:1025300001A90898FFF70CFD002806D00A22002107
:1025400001A819F0E3FA288100E02F811923E21C89
:1025500001A90898FFF7FCFC002806D00A220021F8
:1025600001A819F0D3FA688000E06F80288800285D
:1025700001D100200CE000210E4A03E0491C921C0E
:102580000C29F6DAAD235B00D35A9842F6D101202C
:10259000686000980C300090241D761EA2D1064879
:1025A0000168491C016009B00498F0BC01B0004703
:1025B00086EF0040E0ED004078F00040F1B58AB0D1
:1025C000192300226946FFF7C3FC002824D06D467A
:1025D00007AC28782070687860700027A770924E4A
:1025E0000A22002107A819F091FA3070A87820700B
:1025F000E8786070A7700A22002107A819F086FA0F
:1026000070702879207068796070A7700A220021A4
:1026100007A819F07BFAB0701923012269460A98BD
:10262000FFF796FC002802D06846007800E05620AC
:102630007D4EF0701923022269460A98FFF788FC44
:1026400000281BD06D4600220021A81C19F0FAF9C1
:102650000022764B19F038F83200083203C200200D
:10266000A87000220021684619F0ECF93200083207
:102670000CCA18F087FF3200083203C21923032264
:1026800069460A98FFF764FC00280CD06846007879
:10269000532808D1320008323000083003C88023A4
:1026A0001B06594003C21923042269460A98FFF702
:1026B0004FFC00281DD06D4600220021E81C19F0B7
:1026C000C1F90022594B18F0FFFF3200103203C24B
:1026D0000020E87000220021684619F0B3F90200DA
:1026E0000B003000103003C818F04CFF32001032DD
:1026F00003C21923052269460A98FFF729FC00281E
:102700000CD068460078572808D1320010323000CB
:10271000103003C880231B06594003C21923062228
:1027200069460A98FFF714FC002805D00022002112
:10273000684619F087F902E000215622F270320053
:10274000183203C21923072269460A98FFF700FCD2
:10275000002805D000220021684619F073F902E034
:1027600000215622F270203603C61923082269463A
:102770000A98FFF7EDFB002826D06D4607AC2878B5
:102780002070687860700027A7700A22002107A8CF
:1027900019F0BCF93070A8782070E8786070A770E4
:1027A0000A22002107A819F0B1F970702879207069
:1027B00068796070A7700A22002107A819F0A6F9AD
:1027C000FA21C900401870801923092269460A9825
:1027D000FFF7BEFB002805D000220021684619F053
:1027E00031F900E000213200083203C219230A2225
:1027F00069460A98FFF7ACFB00280CD068460078C1
:10280000572808D1320008323000083003C880232E
:102810001B06594003C23069401C30610BB004985C
:10282000F0BC01B00047C04600F1004000004E403F
:10283000F0B58BB00700192300226946FFF788FB2B
:10284000002826D06E4607AC307820707078607013
:102850000020A070394D0A22002107A819F056F96E
:102860002870B0782070F07860700020A0700A2284
:10287000002107A819F04AF9687030792070707942
:1028800060700020A0700A22002107A819F03EF90C
:10289000A8701923012269463800FFF759FB002868
:1028A00005D00A220021684619F030F900E0012025
:1028B000224DE8701923022269463800FFF748FBD1
:1028C000002805D00A220021684619F01FF900E00F
:1028D000012028711923032269463800FFF738FBCD
:1028E000002805D00A220021684619F00FF900E0FF
:1028F0000120E8801923042269463800FFF728FBED
:10290000002804D00A220021684619F0FFF8287236
:102910001923052269463800FFF71AFB002804D066
:102920000A220021684619F0F1F86872E868401C34
:10293000E8600BB00498F0BC01B000473CF10040E7
:10294000F0B587B0CD4F9320C0003818016800293A
:1029500001D0444803E04068002805D0424807B051
:102960000499F0BC01B00847F720800038180168CE
:10297000002901D03D48F2E70069002801D13C4818
:10298000EDE73D4800683B490988441A0026002CC1
:1029900000D50024FD20800038180090642118F034
:1029A0002DFC01A80021002200230EC006C02D4DE1
:1029B000220029007C3101A817F0EAFF01A9009844
:1029C00018F0E4FCFD20800001B503A818F01CFC01
:1029D0003918009802B00F183E707F1C01A8002122
:1029E000002200230EC006C0220029007C3101A86D
:1029F00017F0CEFF01A9380018F0C8FC01A818F0A4
:102A000003FC3F183E707F1C01A800210022002318
:102A10000EC006C0220029007C3101A817F0B8FFC3
:102A200001A9380018F0B2FC01A818F0EDFB3F181E
:102A30003E707F1C01A80021002200230EC006C0AA
:102A400022008835290001A817F0A2FF01A938004B
:102A500018F09CFC01A818F0D7FB381806700098F5
:102A60007DE7C0469C000200C0000200E8000200B2
:102A7000FC000200A08900409C77004008480078D4
:102A8000002803D0401E03D1024870470248704717
:102A90000248704730010200480102006401020050
:102AA00024FD004007480168002904D0C06E0028BA
:102AB00001D10248704702487047C0467C010200BD
:102AC000B001020044E400406C489321C900411861
:102AD0000A68002A02D14968002901D00B487047D2
:102AE000F7218900411809480A68002A01D01830E6
:102AF00070470A69002A06D0C96F002901D030301A
:102B00007047483070475C307047C046C0010200D3
:102B1000004870473002020000B581B003A014F0F5
:102B200011FA0120019902B00847C04600000000D8
:102B3000004870474402020000B581B0FEF762FD14
:102B40004E49F320800008589222D20089180A6862
:102B5000002A02D18968002901D006480068FEF7E2
:102B600027FD034815F0C0FA0120019902B008477B
:102B7000483F030004FB0040004870476C0202001D
:102B800000B581B0034813F0A5FD0120019902B002
:102B9000084700008806020023480168002902D186
:102BA0004068002800D001487047C046A4020200D7
:102BB00010B5324CF7208000201801210022036854
:102BC000002B06D00260416012F0F2F812F086F994
:102BD00003E00160426012F0DFF800F0B7F80A4845
:102BE00016F00EF912F0F0F811F0C6FE13F0B4FD75
:102BF000F0218900200018F001FB00F0A3FD012066
:102C0000019910BC01B0084720FD0000064801688A
:102C1000002904D14068002801D1024870470020F3
:102C20007047C046D4020200F0E4004000B581B015
:102C3000034813F04FFD0120019902B00847C04638
:102C40001C3C020000487047FC02020000B581B045
:102C50000A489321C900411800220A6001234B60F1
:102C6000F721890040180360426012F095F813F0D4
:102C700073FD0120019902B00847000058E00040B0
:102C800003480068002801D00020704701487047C1
:102C9000F4E400403403020000B581B00A489321F7
:102CA000C900411801220A6000234B60F721890006
:102CB00040180260436012F06FF813F04DFD0120E0
:102CC000019902B00847C04658E000400348006838
:102CD000002801D00020704701487047F0E4004010
:102CE0006803020030B581B0154CF0218900200046
:102CF00018F084FAF020800020180121C1610162DF
:102D00000021016041600F4A8260C160026141613F
:102D100000250183FE21890541620B4824182560A6
:102D200000F014F865609620800020626563A5635A
:102D3000E563256401B0029830BC01B00047C0468D
:102D400058E00040000048435C04000030B581B00A
:102D50000F489021C90041180022002300240025BB
:102D60003CC1FA21890041180A604A608A600A67FA
:102D70009321C9004018026042600DF0E1FD054852
:102D80004168016001B0029830BC01B00047C04604
:102D900058E000409C77004000B581B0FF204E30E5
:102DA00013F060FFFFF7D2FF13F0D6FC00F0CAFC6F
:102DB0000120019902B0084710B511F0D5FB032896
:102DC00000DA54E011F086FF2B4C2C482218D06B0F
:102DD000002845D1106C002842D1F1208000231832
:102DE0009868274918F066FF04D91868254918F033
:102DF00061FF01D8012000E00020516B814204D026
:102E00005063002801D1012010609869D969002918
:102E100014D0002824D058681B4918F067FB1FD233
:102E200011F0A2FB09281BDB11F0F2FF11F0E4FF07
:102E300016480021016000F04FF911E000280FD181
:102E400013480068134988420AD1506B002807D103
:102E500011480068002803D100F020F8002806D0AF
:102E6000F120800020180021416213F09DFC012018
:102E7000019910BC01B0084758E000405C04000014
:102E800001009643015043470100E04058FC0040D8
:102E90001CFC00408806020010FB0040F0B585B025
:102EA000434CF32080002518286AE969002923D0C3
:102EB000002821D1FEF7A6FB3E48FEF709FB286853
:102EC0008B21C90061188A6B002A02D1096C002984
:102ED00001D039480068FEF76BFB012028623748B3
:102EE00015F08EFF13F0DAFD0DF02AFD344E354853
:102EF00030184168016050E0002852D0324811F08B
:102F000099FB002844D001200DF0DEFD012068620D
:102F10002E4F2B4E2E48385A2A497158884235DB9D
:102F20002C4DAA2080002818FEF7D2FA2A48301823
:102F3000FEF7D8FA9020C000261828480068032819
:102F4000684604D106F0DCF902009C3503E006F087
:102F5000D7F90200A4352900300017F019FD2048E8
:102F60003818204909680288891A01800121300037
:102F700016F068FC002801D103F084F98B20C00012
:102F80000121215000F0A8F800200BE013F046FDCD
:102F90008B20C0002058002803D111F089FE11F0C9
:102FA000ABFE012005B00499F0BC01B00847C04653
:102FB00058E00040C403020004FB004020FD000074
:102FC000002400409C53000024BB0040A877004030
:102FD000F811000094030200FC52000048FC00407D
:102FE000C222000008FD004030B585B0144C154DDC
:102FF000154800680328684604D106F081F90200EC
:103000009C3503E006F07CF90200A435290020007D
:1030100017F0BEFC0D480E4909680288891A018024
:103020000121200016F00EFC002803D103F02AF93C
:10303000002000E0012005B0029930BC01B0084733
:10304000D8E400409403020048FC00406A9A004023
:1030500008FD004000B581B00C48016800290DD082
:10306000C06E00280AD10A480168426889180160C8
:10307000084A914205DB511E016002E0064813F048
:1030800029FB0120019902B00847C04644E40040F2
:103090009C77004085030000A43D030000B581B08B
:1030A00000F0CAFE0B480178002903D0491E03D165
:1030B000002102E0022100E00121017015F0FCF97D
:1030C00015F002FA00F0C2FE13F0E8FC01200199AD
:1030D00002B0084724FD004070B584B011F044FAF6
:1030E000012806DA414814F0FFFFC82015F0B0F9B6
:1030F0000EE03F4E9321C90071180A68002A02D1E0
:10310000496800290AD011F05FFE3A4801210160A8
:10311000012004B0039970BC01B008470728E1DB27
:10312000F720800034182068002808D00020206094
:103130000120606011F03CFE11F0D0FE42E02069F9
:10314000002839D02C4DE06F002805D0BD2080002C
:10315000281813F0BFFADBE7AA2080002818FEF732
:10316000B7F92648FEF7BEF99020C000361824486B
:1031700000680328684604D106F0C2F802009C35B6
:1031800003E006F0BDF80200A4352900300017F076
:10319000FFFB1C481C4909680288891A018001212B
:1031A000300016F04FFB002801D103F06BF801202E
:1031B000E06713F073FCABE7012020600020606043
:1031C00011F0EAFDFFF7C2FD104815F019FE11F0ED
:1031D000FBFD11F0D1FB13F0BFFAF02189003000A4
:1031E00018F00CF800F0AEFA92E7C046283F030052
:1031F00058E000404CFB004094030200FC76004085
:1032000048FC00406A9A004008FD004020FD000094
:1032100000B581B0044813F06DFD04480121016040
:103220000120019902B00847740A0200B4E400408A
:103230000120704700B581B000F096F80120019997
:1032400002B0084710B5104CFB2080002018016820
:10325000002908D0C06E002805D10C48FEF738F9C7
:103260000B48FEF73FF9F0218900200017F0C6FF58
:103270009320C000201800210160416001200199C5
:1032800010BC01B00847C04658E000403C060200B0
:10329000FC76004002480121016001207047C046D1
:1032A000B4E4004005480169002904D10068401ECB
:1032B0008041C00F704700207047C04634E4004092
:1032C00070B5254E300006F057FE1023F022352150
:1032D000002006F02BFD0021002006F0F9FD002063
:1032E00006F0EAFD0121012006F0ECFD002006F0C9
:1032F000DDFD1A4806F014FD194806F0EFFDFA202E
:1033000006F03EFD174D280006F04EFA8024A40179
:103310002300EF226721002008F0D6FC300006F0E1
:103320002BFE1023F0226921002006F0FFFC002173
:10333000002006F0CDFDFA2006F022FD34352800ED
:1033400006F032FA2300EF229B21002008F0BCFC9B
:10335000039870BC01B0004700203F00020001004C
:10336000CC560200CC06020010B5FFF7A9FF00F012
:10337000CBFA00F021FA2148016C002902D000F0BC
:10338000CBF804E0406C002805D000F083F80198E9
:1033900010BC01B000471A491A480818426B002AAD
:1033A00002D000F0FBF8F2E7F72292008C182169B6
:1033B00000290BD014490968002907D0606900284A
:1033C000E5D000F02DF900206061E0E701680029F8
:1033D00004D00021016000F0B5F9D8E700F07CF9D5
:1033E0000A4800680A498842D1D160680028CED1D5
:1033F00020680028CBD100F00DF8C8E7D0FA0040D3
:1034000058E000405C040000987700401CFC00403D
:10341000E0FE010000B583B01023F0229E210020C1
:1034200006F084FC0021002006F052FD002006F08A
:1034300043FD0121012006F045FD002006F036FD88
:103440008020400206F06CFC0D4806F047FD0D4858
:1034500006F092FD0C48006800F002FD02000BA18E
:10346000684617F095FA0A2006F08AFC084806F02C
:103470009BF9684606F0D8F9039804B00047C046A7
:10348000CC560200003F2000C8FA0040257500001D
:103490005007020000B581B08023F0229E21002059
:1034A00006F044FC0021002006F012FD012006F089
:1034B00003FD0221022006F005FD002006F0F6FCC7
:1034C0008020400206F02CFC0F4806F007FD0F4854
:1034D0000078C00702D5FC20800300E00C4806F00D
:1034E0004BFD012007F0F0FD06F06CFC094806F0EA
:1034F0005BF906F0F9FC07F0EDFD002007F0E4FDB4
:10350000019802B00047C046CC560200FEFC0040C5
:10351000003F3F009007020000B581B08023F022F9
:103520009E21002006F002FC0021002006F0D0FCC5
:10353000012006F0C1FC0221022006F0C3FC00209D
:1035400006F0B4FC8020400206F0EAFB0F4806F0CB
:10355000C5FC0F480078C00702D5FC20800300E0BE
:103560000C4806F009FD012007F0AEFD06F02AFC2C
:10357000094806F019F906F0B7FC07F0ABFD00208A
:1035800007F0A2FD019802B00047C046CC560200E9
:10359000FEFC0040003F3F002008020000B581B063
:1035A0008023F0229E21002006F0C0FB0021002095
:1035B00006F08EFC012006F07FFC0221022006F0BE
:1035C00081FC002006F072FC8020400206F0A8FB7F
:1035D0000F4806F083FC0F480078C00702D5FC2096
:1035E000800300E00C4806F0C7FC012007F06CFDEA
:1035F00006F0E8FB094806F0D7F806F075FC07F07E
:1036000069FD002007F060FD019802B00047C04648
:10361000CC560200FEFC0040003F3F00980802002C
:1036200030B581B08023F0229E21002006F07EFB81
:103630000021002006F04CFC012006F03DFC022198
:10364000012006F03FFC002006F030FC8020400204
:1036500006F066FB1A4806F041FCFC20800106F0EB
:103660008BFC012007F030FD06F0ACFB154D280067
:10367000B83006F099F8144C2000083006F0D4F861
:1036800012A006F0D1F806F09DFBFC20800306F0A6
:1036900073FCAA208000281806F086F80C4806F073
:1036A0006BFC0C48201806F0BFF807F013FD002053
:1036B00007F00AFD01B0029830BC01B00047C046D7
:1036C000CC56020094030200002400400D000000CC
:1036D000003F3F00FC52000070B5194C206A0028E2
:1036E00024D18F267600012001B53300EF22AE21D0
:1036F00008F078FE02B0206841000C18542C01DB61
:10370000532419E01A20C043844213DA0400FC2534
:10371000AD0100233200AF21EF2008F06DFA8121C6
:1037200049002B000A1BEF2008F066FA039870BCD2
:1037300001B00047002CEAD4FC25AD03E9E7C04600
:1037400014E40040F0B583B06A46194803C803C2C8
:103750003222684603C807F0A5FF164DF720800007
:103760002858002819D10024812676001A27FF4303
:10377000286841000818542801DB532014E0B8429F
:1037800010DA3800FC239B01321A3100200008F0C7
:1037900033FA641C2D1DF02CEADB03B00498F0BC56
:1037A00001B000470028EDD4FC239B03ECE7C046A2
:1037B0001009020058E0004070B59AB03E4806F08B
:1037C000DBFB2023F0227A21002006F0AFFA002153
:1037D000002006F07DFB002006F06EFB0121012099
:1037E00006F070FB002006F061FB8020400206F02E
:1037F00097FA324806F072FB3149F12080000A182E
:10380000106856689222D20089180A68002A02D1EC
:103810008968002902D02B49086B8E6B2A4DFE2146
:10382000890517F063FE01D22C000FE0274917F03D
:103830005DFE02D22C00083408E0254917F056FE40
:1038400002D22C00103401E02C00183417F05AFB7F
:1038500002000B002100684617F09AF8C82006F015
:103860008FFA684605F0E0FF1A4806F037FB0021A2
:10387000A02006F02DFB300017F044FB0022164B71
:1038800017F080FE18F02EFA020000D10122203538
:103890002900684617F07CF8684605F0C5FF10213E
:1038A000A02006F015FB0DA005F0BEFF1AB003988E
:1038B00070BC01B00047C046003F3F001C6B0200D7
:1038C00058E00040D0FA00401809020000002041F2
:1038D0000000C842CC5602000000E03F6370730055
:1038E0000749F320800008589222D20089180A68FC
:1038F000002A02D18968002901D002480068704777
:1039000058E0004004FB004070B59AB04E4C606C2B
:10391000002802D1206C002806D04C480078C0074F
:1039200002D5FC20800300E0494806F025FB202357
:10393000F0224621002006F0F9F90021002006F0CF
:10394000C7FA002006F0B8FA0121012006F0BAFA01
:10395000002006F0ABFA8020400206F0E1F93D4875
:1039600006F0BCFA3C49F320800008180568922252
:10397000D20089180A68002A02D18B68002B00D077
:10398000656B4668002A02D18868002800D0A66BC3
:10399000FE218905206C002844D0304D0E002B48B4
:1039A0000078C00702D5FC20800300E0284806F01C
:1039B000E3FA2B4C280017F0A5FA02000B002100B7
:1039C000684616F0E5FFFA2006F0DAF9684605F0D9
:1039D0002BFF244806F082FA0021A02006F078FA96
:1039E000300017F08FFA00221F4B17F0CBFD18F0B4
:1039F00079F9020000D101221C4C210020316846D7
:103A000016F0C6FF684605F00FFF1021A02006F053
:103A10005FFA2834200005F0C7FE1AB0039870BC86
:103A200001B00047280017F061FD01D20F4CC1E73B
:103A30000F4917F05BFD01D20E4CBBE70E4917F0A2
:103A400055FDB6D20D4CB5E7D0FA0040FEFC004063
:103A5000003F3F001C6B020058E000400050C3478D
:103A600030090200CC5602000000E03F18090200B5
:103A700000002041200902000000C842280902007D
:103A8000004870474009020000487047580902008A
:103A900030B581B00C4804880C4804600C4D0120FE
:103AA00001B50C492800303003B40B4BFA22D20088
:103AB0002100280008F0F9FE04B00020C04301B046
:103AC000029930BC01B00847F8FC0040F8E400401F
:103AD00068090200DD3A0000B80B000070B5134D14
:103AE000002805D1BD208000281812F0F3FD18E051
:103AF0000F4C0A2200210F4818F008F820600E48E9
:103B000006786660012001B50C498A20400028181B
:103B100003B40C2301223100E035280008F0C5FE73
:103B200004B0039870BC01B00047C0469403020083
:103B3000F8E40040A8F90040FAFC0040413B0000D6
:103B400030B581B0002803D1264812F0C3FD43E010
:103B5000254C0A220021254817F0D8FF6060244830
:103B60000578A560606802280CD0082801DB0123D5
:103B700000E00023C10F091849104900401A4340D2
:103B80001E3319E02268100000F076F9C8214900C0
:103B90004843101A0DD05010800F801880108000FC
:103BA000101A08D1100000F075F919214843101AB5
:103BB00001D01D2300E01C230E4C012001B50E494D
:103BC000BE204000201803B40122290096204000A6
:103BD000201808F06AFE04B001B0029830BC01B0B1
:103BE0000047C04688060200F8E40040A8F90040FB
:103BF000FBFC004094030200FD3B000070B5134D38
:103C0000002805D1BD208000281812F063FD19E0BE
:103C10000F4C0A2200210F4817F078FF20600E4851
:103C200006786660012001B50C49BE2040002818C6
:103C300003B4062300223100C8204000281808F0F1
:103C400034FE04B0039870BC01B000479403020036
:103C500000E50040A8F90040F4FC0040613C000091
:103C600070B58CB0294D002805D1BD2080002818E2
:103C700012F030FD44E0264C0A220021254817F0BE
:103C800045FFE060684629003022FDF705FB002172
:103C90006068022807DB6A46121D431E16688919F0
:103CA000121D5B1EFAD12161A2688A1822610328C5
:103CB00013DB2368980710D1180000F0F9F864218D
:103CC0004843181A07D1180000F0D6F8C821490057
:103CD0004843181A01D1521C22610F4806786661C8
:103CE000012001B50D4990208000281803B4172346
:103CF0000022310084208000281808F0D6FD04B08E
:103D00000CB0039870BC01B00047C0469403020099
:103D1000F8E40040A8F90040FCFC0040213D000010
:103D200070B5134D002805D1BD208000281812F071
:103D3000D1FC19E00F4C0A2200210F4817F0E6FED3
:103D400020600E4806786660012001B50C49A3206A
:103D50008000281803B43B23002231009520800006
:103D6000281808F0A2FD04B0039870BC01B0004709
:103D7000940302000CE50040A8F90040FDFC00405F
:103D8000853D000010B5002813D00D4C0A220021FB
:103D90000C4817F0BBFEA0612168606803B421697C
:103DA000E06803B4A3686269A1691E2005F0C4FA43
:103DB00004B0054812F08EFC019810BC01B0004719
:103DC000F8E40040A8F90040880602000048704767
:103DD000AC09020000B581B00849C86A401C04283B
:103DE00000DB0020C8620648CA6A01000C310FF0EF
:103DF0009BFD0020019902B00847C0461CFC004012
:103E0000E409020007480068401E05D0401E05D0A6
:103E1000401E05D104487047044870470448704765
:103E20000448704748FC0040F8090200180A0200E4
:103E3000380A0200540A02007847C04600C00FE169
:103E4000C0C08CE30CF021E11EFF2FE17847C04693
:103E500000C00FE1C0C0CCE30CF021E11EFF2FE158
:103E60007847C04608109FE590118CE0AC00B0E1A7
:103E70001EFF2FE1ABAAAAAA7847C0460CC09FE557
:103E8000901CCCE0CC03B0E1010080421EFF2FE18A
:103E90001F85EB517847C0460CC09FE5901CCCE0D5
:103EA000CC01B0E1010080421EFF2FE11F85EB51E4
:103EB0007847C0460CC09FE5901CCCE0CC02B0E136
:103EC000010080421EFF2FE11F85EB510048704723
:103ED000180B020000487047300B02000048704782
:103EE000480B020000B581B08C48006805281ED838
:103EF00001A1095C8F44C046060E161E262E1248EC
:103F0000019902B008471148019902B008471048CA
:103F1000019902B008470F48019902B008470E48BE
:103F2000019902B008470D48019902B0084723489B
:103F30000300E43367220100BC30FDF7A5F900203F
:103F4000019902B00847C046740B0200900B0200B2
:103F5000AC0B0200C80B0200E40B0200FC0B0200D9
:103F6000034804490968002900D114307047C0464D
:103F7000A010020084FD004000487047D0100200ED
:103F800010B5FFF77DFD0D4C0B4902B5C42149006A
:103F9000611803B40A4BFE2292051B480168822077
:103FA0004000201808F0DCFB04B00020C043019959
:103FB00010BC01B00847C046C53F00005C0B0200C2
:103FC00000007A4470B5524C00280ED00E4D0022ED
:103FD0000021514817F036FD16F012FD286002004E
:103FE0002100103120000FF0CDFC4C4D2E688120B7
:103FF0008000201812F06EFB2E6012F0ADFB0398CB
:1040000070BC01B0004700003CE40040004870472D
:104010004813020010B50A4C0A492000803003B44E
:1040200096235B001E2218480168200008F0FEFB62
:1040300002B00020C043019910BC01B00847C0463F
:10404000901302004940000070B5314C00280DD09B
:104050000D4D0A220021304817F058FD286002005B
:1040600021003031200020300CF0BAF82B4D2E68A2
:1040700081208000201812F02DFB2E6012F06CFBC6
:10408000039870BC01B00047A0770040004870471B
:104090002C140200004870477C14020000B581B067
:1040A000084909A003B496239B001E221948016801
:1040B000064808F0BBFB02B00020C043019902B0E3
:1040C0000847C046D140000000000000C8140200AC
:1040D00070B50F4C00280DD00E4D0A2200210E485D
:1040E00017F014FD286002002100583120004830EC
:1040F0000FF01AFC094D2E6881208000201812F064
:10410000E9FA2E6012F028FB039870BC01B000475A
:1041100000110200A0F90040A8F9004008F7004093
:10412000F0B581B04B48C0C806F030FB00243F25F5
:1041300022002A403000390007F036F90A2013F037
:10414000B1FA641C402CF3DBFA20400013F0AAFA09
:1041500000242000284002023000390007F024F932
:104160000A2013F09FFA641C402CF2DBFA20400076
:1041700013F098FA0024200028400204300039008F
:1041800007F012F90A2013F08DFA641C402CF2DBC0
:10419000FA20400013F086FA002420002840010293
:1041A00002040A433000390007F0FEF80A2013F039
:1041B00079FA641C402CF0DBFA20400013F072FA0C
:1041C000002420002840020202433000390007F09A
:1041D000EBF80A2013F066FA641C402CF1DBFA209D
:1041E000400013F05FFA002420002840020402433C
:1041F0003000390007F0D8F80A2013F053FA641C95
:10420000402CF1DBFA20400013F04CFA002420008F
:1042100028400102014302040A433000390007F03C
:10422000C3F80A2013F03EFA641C402CEFDBFA209E
:10423000400013F037FA06F0A9FAFA20400013F014
:1042400031FA12F089FA012001B00499F0BC01B0F2
:104250000847C04638150200004870474015020064
:1042600000B581B0074908A003B40623022207481D
:104270000168074808F0DAFA02B00020C04301994B
:1042800002B00847954200000000000004240040EE
:104290007015020070B50F4C00280DD00E4D0A228B
:1042A00000210E4817F032FC6860020021006C31DA
:1042B000200020300BF094FF094D2E6881208000F3
:1042C000201812F007FA2E6012F046FA039870BC1C
:1042D00001B000470011020000240040A8F900408E
:1042E00008F7004030B581B0134C606B17F0B0FE9A
:1042F00016F008FE0022114B17F0E6F916F080FBCD
:104300000500A5630E4C0F4801B5C42040002118DC
:104310007030201803B40C4BFE2292052900C820EF
:104320004000201808F01CFA04B00020C04301B07F
:10433000029930BC01B0084700240040000024402E
:104340005C0B02004D4300000000404070B5144D6E
:10435000002816D0134C00220021134817F072FBDE
:1043600016F04EFBA0630100104817F0C1FD17F0D6
:10437000D5F80200626329007831280020300BF064
:104380002FFF0B4C266881208000281812F0A2F91C
:10439000266012F0E1F9039870BC01B00047C046F6
:1043A0000011020000240040A8F900400000204154
:1043B00008F7004000487047C815020000487047E1
:1043C0000C160200004870473016020000B581B09C
:1043D0000549064B0A002032FC20800304F026F930
:1043E0000120019902B0084764160200F143000061
:1043F000F0B585B0002840D0002524480090244F17
:1044000024A630000AF07EFB040032D009F0DCFC68
:10441000B84203D10098006800282ED16D1C12F01C
:104420008DF91D4805F05AFD1023F0227721002058
:1044300005F07CFC194805F09FFD0021002005F0E7
:1044400047FD002005F038FD0121012005F03AFD6F
:10445000002005F02BFD124805F062FC114805F024
:10446000A3F92A0010A101A816F092FA01A805F0FC
:10447000DBF913F06DF9002CC3D112F05FF912F0E3
:104480006BF905B00498F0BC01B000478CF900400E
:104490000540008073707A00CC560200003F3F0058
:1044A00002000100C42002000D25640000B581B0A7
:1044B0000649074B8E2040000A18FC20800304F0B8
:1044C000B5F80120019902B00847C0466416020001
:1044D000D5440000F0B585B0002857D000253048FD
:1044E0000090304E30A7390030000AF07FFB040006
:1044F00034D009F069FC2D49884203D10098006846
:1045000000282FD16D1C12F019F9294805F0E6FC9E
:104510001023F0227721002005F008FC254805F043
:104520002BFD0021002005F0D3FC002005F0C4FC89
:104530000121012005F0C6FC002005F0B7FC1E4853
:1045400005F0EEFB3000103005F02EF92A001BA11B
:1045500001A816F01DFA01A805F066F913F0F8F8A5
:10456000002CC0D13900300008300AF03FFB0400B5
:1045700008D009F029FC0D49884203D10848006899
:10458000002803D113F0E4F8002CEBD112F0D6F898
:1045900012F0E2F805B00498F0BC01B00047C04644
:1045A0008CF90040B420020073707A00054000804E
:1045B000CC560200003F3F00020001000D256400C0
:1045C00000B581B00649074B9D2080000A18FC20E9
:1045D000800304F02BF80120019902B00847C0467F
:1045E00064160200E9450000F0B585B0002842D00D
:1045F000002525480090254F25A630000AF082FAB4
:10460000040032D009F0E0FBB84203D10098006802
:1046100000282ED16D1C12F091F81E4805F05EFCAA
:104620001023F0227721002005F080FB1A4805F0C6
:10463000A3FC0021002005F04BFC002005F03CFC11
:104640000121012005F03EFC002005F02FFC13485D
:1046500005F066FB124805F0A7F82A0011A101A891
:1046600016F096F901A805F0DFF813F071F8002CA8
:10467000C3D1FCF77DFF12F061F812F06DF805B0C0
:104680000498F0BC01B000478CF900400540008060
:104690006C6F6700CC560200003F3F000200010033
:1046A000C42002000D25640000B581B00649074B07
:1046B000D92080000A18FC20800303F0B7FF0120F6
:1046C000019902B00847C04664160200D1460000B6
:1046D000F0B585B0002840D0002524480090244F34
:1046E00024A630000AF00EFA040032D009F06CFB68
:1046F000B84203D10098006800282ED16D1C12F03A
:104700001DF81D4805F0EAFB1023F0227721002058
:1047100005F00CFB194805F02FFC0021002005F0E6
:10472000D7FB002005F0C8FB0121012005F0CAFBE2
:10473000002005F0BBFB124805F0F2FA114805F025
:1047400033F82A0010A101A816F022F901A805F0FB
:104750006BF812F0FDFF002CC3D111F0EFFF11F048
:10476000FBFF05B00498F0BC01B000478CF9004095
:10477000054000806D637300CC560200003F3F008F
:1047800002000100C42002000D25640000B581B0C4
:104790000649074B8A20C0000A18FC20800303F05A
:1047A00045FF0120019902B00847C0466416020087
:1047B000B5470000F0B585B0002844D00025244856
:1047C0000090244F24A630000AF09CF9040007D082
:1047D00009F0FAFAB84203D10098006800282ED1F7
:1047E0006D1C11F0ABFF1D4805F078FB1023F02283
:1047F0007721002005F09AFA194805F0BDFB002149
:10480000002005F065FB002005F056FB012101208A
:1048100005F058FB002005F049FB124805F080FA2E
:10482000114804F0C1FF2A0010A101A816F0B0F849
:1048300001A804F0F9FF12F08BFF002CC3D111F096
:104840007DFF11F0B1FF05B00498F0BC01B0004746
:104850008CF90040054000806C696200CC56020073
:10486000003F3F0002000100C42002000D2564004B
:1048700000B581B00649074BAA20C0000A18FC20E9
:10488000800303F087FE0120019902B00847C0466B
:10489000641602009948000000B581B000280ED0CF
:1048A000084909A003B4094B00220021084807F079
:1048B000BDFF02B007480021016003F081FE0198AE
:1048C00002B00047D9480000000000000F27000098
:1048D0000821020020FD004010B582B0040018D06D
:1048E0000521684616F08AFCFFF7A6FA0D48437BBF
:1048F000027B0D49684616F04BF8FFF7A7FA0B4903
:10490000684617F09BF9002803D120000AF04EFCFE
:10491000FEE707480121016002B0019810BC01B018
:104920000047C046F0FC00408C110200A8F900408E
:1049300020FD004000B581B00549064B06480A1825
:10494000FC20800303F072FE0120019902B00847A9
:10495000641602005D49000064070000F0B58DB0E8
:10496000002800D1B7E011F0E9FE5F4805F0B6FA83
:104970001023F0227721002005F0D8F95B4F380092
:1049800005F0FAFA0021002005F0A2FA002005F057
:1049900093FA0121012005F095FA002005F086FA2E
:1049A000534E300005F0BCF9524D2800103004F091
:1049B000FBFE51A41922210009A815F0E9FF09A85E
:1049C00004F032FF0DF066FD11F0B8FE464805F028
:1049D00085FA1023F0227721002005F0A7F938008E
:1049E00005F0CAFA0021002005F072FA002005F057
:1049F00063FA0121012005F065FA002005F056FA5E
:104A0000300005F08DF92800103004F0CDFE322280
:104A1000210006A815F0BCFF06A804F005FF0DF064
:104A200059FD11F08BFE304805F058FA1023F022A2
:104A30007721002005F07AF9380005F09DFA002171
:104A4000002005F045FA002005F036FA012101208A
:104A500005F038FA002005F029FA300005F060F979
:104A60002800103004F0A0FE4B22210003A815F00E
:104A70008FFF03A804F0D8FE0DF0D8FD11F05EFE04
:104A8000194805F02BFA1023F0227721002005F0B9
:104A90004DF9380005F070FA0021002005F018FAF1
:104AA000002005F009FA0121012005F00BFA002091
:104AB00005F0FCF9300005F033F91035280004F05A
:104AC00073FE63222100684615F062FF684604F019
:104AD000ABFE0DF0D1FD11F031FE11F03DFE0DB039
:104AE0000498F0BC01B00047CC560200003F3F00E4
:104AF00002000100B42002000D2564000048704748
:104B00009821020000487047DC21020000487047ED
:104B10001C220200004870476C22020000487047C7
:104B20009C22020000487047D422020000B581B0E8
:104B300006480021016041608160C16001614161FE
:104B4000816100F005F8019802B0004708F70040C5
:104B500010B481B0134801001C310022002300244E
:104B60001CC10CC1010030311CC10CC10100443119
:104B70001CC10CC1010058311CC10CC101006C31B9
:104B80001CC10CC1010080311CC10CC10100943159
:104B90001CC10CC1A83000210EC006C001B010BC61
:104BA0007047C04608F7004000B581B0FFF7D0FF5E
:104BB000FA20800012F056F804480021016011F03C
:104BC000CBFD0120019902B00847C04608F700401C
:104BD000F0B581B0964D2868002805D0001F0BD095
:104BE000401E00D1E2E001E000F0B2FA012001B085
:104BF0000499F0BC01B008478E4E8F4C706B16F0D4
:104C000081F902000B0085208000211828001C304B
:104C100015F0BEFE142809D3872080002318874A88
:104C20001C3821182000BC30FCF72EFBB06B16F0AE
:104C300069F902000B000020814916F0A3FC17F06F
:104C400051F8002800D1012002008B20800021189B
:104C50002800303015F09CFE142809D387208000EE
:104C60002318784A1C3821182000BC30FCF70CFBB4
:104C7000306B16F047F902000B008D2080002118E0
:104C80002800443015F084FE14280AD387208000C1
:104C90002318E82292001C3821182000BC30FCF7B1
:104CA000F3FA69A7726839002800583015F070FED1
:104CB000142809D3872080002318644A1C3821183F
:104CC0002000BC30FCF7E0FA7269390028006C3033
:104CD00015F05EFE142809D38720800023185C4A53
:104CE0001C3821182000BC30FCF7CEFA59A7306FD1
:104CF00016F008F902000B0039002800803015F08A
:104D000047FE142809D3872080002318524A1C38F4
:104D100021182000BC30FCF7B7FAB06F16F0F2F89B
:104D200002000B004DA12800943015F031FE14282C
:104D30000AD3872080002318EB2292001C38211808
:104D40002000BC30FCF7A0FA706F16F0DBF8020010
:104D50000B0039002800A83015F01AFE142809D3DA
:104D60008720800023183E4A1C3821182000BC30C0
:104D7000FCF78AFA3B48006816F0C4F802000B0002
:104D80008F2080002118BC35280015F001FE142862
:104D900009D3872080002318334A1C382118BC34DB
:104DA0002000FCF771FA11F0FFFC1FE72F4E224C98
:104DB000F2688B208000211828001C3015F0E8FDD7
:104DC00014280AD3872080002318EF2292001C3871
:104DD00021182000BC30FCF757FAC42040002718E7
:104DE000306816F08FF802000B00390028003030D0
:104DF00015F0CEFD142809D38720800023181C4A03
:104E00001C3821182000BC30FCF73EFA1948006815
:104E100016F078F802000B0039004435280015F030
:104E2000B7FD1428BFD3872080002318124AB4E7A7
:104E300008F70040D0FA00405C0B02009703000026
:104E40000000E03F9D03000025750000A303000063
:104E5000A603000025660000A903000025670000E6
:104E6000AF0300003CE40040B6030000E8F8004057
:104E7000BF03000078F90040C203000000B581B014
:104E8000034811F027FC0120019902B00847C046F1
:104E90008806020000B581B0034811F01BFC012018
:104EA000019902B00847C04620FE010010B584B049
:104EB000274C2068401C062800D100202060FFF706
:104EC00047FE11F049FC2068012839D111F036FC69
:104ED000204805F003F81023F0227721002004F089
:104EE00025FF1D4805F048F80021002004F0F0FFE0
:104EF000002004F0E1FF0121012004F0E3FF002085
:104F000004F0D4FF154804F00BFF154804F04CFCE6
:104F1000642214A1684615F03BFD684604F084FC49
:104F20002000183001B52300143322001032210074
:104F30000C31083420000AF06FFA02B011F0FEFBC9
:104F400011F032FC012004B0019910BC01B00847F7
:104F500008F70040CC560200003F3F00020001006D
:104F6000C42002000D25640070B582B0174C0028E3
:104F70001DD00521684616F041F9FEF75DFF144883
:104F8000437B027B21008C31684615F001FDFEF762
:104F90005DFF1049684616F051FE002805D10E4805
:104FA0000121016000F050F801E000F019F80B4D0C
:104FB0002E6881208000201811F08CFB2E6011F0EB
:104FC000CBFB02B0039870BC01B000470011020097
:104FD000F0FC0040A8F9004084FD004008F70040C4
:104FE00010B5154813F080F811F0A8FB134804F031
:104FF00075FFEA23F0223521002004F097FE1421EA
:10500000002004F065FF002004F056FF012101207C
:1050100004F058FF0A4804F083FE0A4804F0C4FB79
:10502000FA24A400200012F03DFB200012F03AFB0D
:10503000019810BC01B00047283F0300CC56020085
:10504000020001001823020010B511F077FB13488D
:1050500004F044FFEA23F0223521002004F066FE2C
:105060001421002004F034FF002004F025FF01216A
:10507000012004F027FF0A4804F052FE094804F01A
:1050800093FBFA24A400200012F00CFB200012F085
:1050900009FB019810BC01B00047C046CC56020085
:1050A000020001005823020000B581B014480068D6
:1050B00000280AD1134914A003B4144B0022002184
:1050C000134807F0B3FB02B016E012480068052849
:1050D00012D801A1095C8F440408140C10180E4862
:1050E00008E00E4806E00E4804E00E4802E00E48D4
:1050F00000E00E4811F0FEFD0120019902B00847C2
:1051000084FD0040694F0000000000000F270000F0
:105110009423020008F700400824020050250200F2
:10512000AC240200F4250200982602003C2702006D
:105130000120704700B581B000F016FC01200199F4
:1051400002B00847012070470120704701207047D6
:1051500000B589B019480168002905D0807BC007D7
:1051600002D5FC20800300E0154804F005FF102361
:10517000F0223521002004F0D9FD0021002004F0A8
:10518000A7FE002004F098FE0121012004F09AFE01
:10519000002004F08BFE8020400204F0C1FD09488D
:1051A00004F09CFE0A2004F0EBFD684604F036F89B
:1051B00004F03AFB09980AB00047C046F0FC0040F2
:1051C000003F3F00CC560200F0B583B00400374FDB
:1051D000380004F083FE36482318F022FF204030C8
:1051E000011B002004F0A2FD324804F0C5FE01209E
:1051F00004F062FE304C200004F016FB2000183052
:1052000004F0D2FA2D4E3500D0352A682CA168461C
:1052100015F0BEFB684604F007FB2000403004F0A8
:10522000C3FAEB882A7921007031684615F0B0FB8B
:10523000684604F0F9FA234804F09EFE224804F080
:10524000B3FA22A5280004F0EFFA214804F0ACFAE2
:10525000280004F0E9FA1F4804F040FE20007830EE
:1052600004F0E2FAFA36300004F0DEFA380004F016
:1052700035FE280004F0D8FA174804F07DFE20001F
:10528000803004F0D1FA2000943004F08DFA200030
:10529000E43004F089FAB4204000201804F0C4FA85
:1052A00003B00498F0BC01B00047C046CC560200E1
:1052B000E2FEFFFF00203F00E027020008F7004069
:1052C00025750D00003F2000F43603000D0000009E
:1052D0004037030004E60200003F3F0010B586B0EF
:1052E000214804F0FBFDEA23F0223521002004F0E0
:1052F0001DFD1E4804F040FE1D4C200004F054FA31
:105300002000703004F050FA2000DC3004F04CFA39
:1053100098204000201804F047FACA2040002018C6
:1053200004F042FAFA204000201804F03DFA9D20D3
:105330008000201804F038FAB9208000201804F00A
:1053400033FABB208000201804F02EFA09480268C6
:1053500009A1684615F01CFB684604F065FA06B022
:10536000019810BC01B00047F4480200003F3F0024
:105370005C290200D4E4004025750D0070B5424858
:1053800004F0ACFD414804F0F7FDAB23F0223521D9
:10539000002004F0CBFC012005F096FE04F012FD85
:1053A0003B4C200004F000FA2000303004F0FCF9FF
:1053B000384D28001C3004F037FA37A6300004F0CE
:1053C00033FA2000603004F0EFF92800303004F0A8
:1053D0002BFA300004F028FA20008C3004F0E4F9B5
:1053E0002800443004F020FA300004F01DFA2000B8
:1053F000C03004F0D9F92800583004F015FA300014
:1054000004F012FA2000FC3004F0CEF928006C30D1
:1054100004F00AFA300004F007FA9A20400020183D
:1054200004F0C2F92800803004F0FEF9300004F0E6
:10543000FBF9A8204000201804F0B6F928009430A9
:1054400004F0F2F9300004F0EFF9BA20400020181F
:1054500004F0AAF92800A83004F0E6F9300004F0BE
:10546000E3F90E4804F03AFDCE204000201804F085
:105470009BF9BC35280004F0D7F9002005F024FE84
:10548000039870BC01B00047CC560200003F3F00BB
:10549000B42C020008F700400D000000F4480200A0
:1054A00070B5264804F01AFD254804F065FD4C232C
:1054B000F0223521002004F039FC012005F004FE23
:1054C00004F080FC1F4C200004F06EF92000243012
:1054D00004F06AF91C4D28001C3004F0A5F91BA645
:1054E000300004F0A1F91A48B0214158002902D037
:1054F0008069032802DA2000483001E02000903063
:1055000004F052F92000E43004F04EF92800303065
:1055100004F08AF9300004F087F988204000201850
:1055200004F042F94435280004F07EF9002005F02B
:10553000CBFD039870BC01B00047C046CC560200BA
:10554000003F3F00A02E020008F700400D000000C1
:10555000DCF8004070B590B0484804F0BFFCEA2386
:10556000F0223521002004F0E1FB454804F004FD61
:10557000444C98208000201804F016F9424E300068
:10558000083004F051F941A004F04EF940A541481B
:1055900032582900684615F0FBF93C2809D38720CA
:1055A000800023183C4A2C3021182000BC30FBF727
:1055B0006BFEA3208000201804F0F6F8684604F083
:1055C00033F9361D72692900684615F0E1F93C2867
:1055D00009D3872080002318304A2C30211820005E
:1055E000BC30FBF751FEAD208000201804F0DCF841
:1055F000684604F019F932682900684615F0C8F9C0
:105600003C2809D3872080002318254A2C302118F4
:105610002000BC30FBF738FEB8208000201804F0D2
:10562000C3F8684604F000F9306B16F011FD1D490F
:1056300016F078FB15F066FC02000B00C32080001A
:105640002118684615F0A4F93C2809D3872080006A
:105650002318154A2C3021182000BC30FBF714FE0B
:10566000C5208000201804F09FF8684604F0DCF89C
:1056700010B0039870BC01B00047C046CC56020081
:1056800000203F005C0B0200002400400D000000E1
:1056900025640D0054300000570500005C05000033
:1056A00061050000000020416B050000F0B593B0DB
:1056B000984804F013FCEA23F0223521002004F07E
:1056C00035FB954804F058FC944F7D68944CDB20E2
:1056D000800020180090934E3200010003A815F0BE
:1056E00057F93C280BD3872080002318B022D20022
:1056F000D520800021182000BC30FBF7C5FDDD203F
:105700008000201804F050F803A804F08DF8721BF4
:10571000009903A815F03CF93C280AD387208000A3
:105720002318814AD520800021182000BC30FBF7C7
:10573000ABFDE6208000201804F036F803A804F042
:1057400073F8EF2080002018029064204543280061
:1057500000F0D6FE0200029903A815F019F93C28C2
:105760000AD3872080002318704AD5208000211892
:105770002000BC30FBF788FDF1208000201801904C
:1057800004F012F803A804F04FF8BD6868A62A00D8
:10579000310003A815F0FCF83C280AD387208000CC
:1057A0002318644AD520800021182000BC30FBF764
:1057B0006BFDF9208000201803F0F6FF03A804F029
:1057C00033F8642064214D43A90A421A029903A8C0
:1057D00015F0DEF83C280AD3872080002318564AAB
:1057E000D520800021182000BC30FBF74DFD01982A
:1057F00003F0DAFF03A804F017F8FA68310003A8F1
:1058000015F0C6F83C280AD38720800023184B4A9D
:10581000D520800021182000BC30FBF735FD812009
:10582000C000201803F0C0FF03A803F0FDFF3A6991
:10583000310003A815F0ACF83C280AD3872080007B
:1058400023183F4AD520800021182000BC30FBF7E8
:105850001BFD3C48201803F0A7FF03A803F0E4FF5A
:105860007A69310003A815F093F83C280AD3872001
:1058700080002318344AD520800021182000BC3035
:10588000FBF702FD3148201803F08EFF03A803F058
:10589000CBFF2F480068002801D008F0ABFD00F0D6
:1058A0003DFE421C009903A815F072F83C280AD36B
:1058B000872080002318274AD52080002118200047
:1058C000BC30FBF7E1FC9320C000201803F06CFF14
:1058D00003A803F0A9FF2048028820A103A815F01F
:1058E00057F83C280AD38720800023181C4AD5206B
:1058F000800021182000BC30FBF7C6FC1948201896
:1059000003F052FF03A803F08FFF13B00498F0BC1C
:1059100001B00047CC560200003F200008F70040CD
:105920005C0B0200AF030000860500008C05000040
:1059300025750D00950500009B050000A4050000DD
:10594000AD05000034040000B6050000640400004A
:10595000C8FB0040C2050000A8F400402575000007
:10596000CA050000C404000000B581B00021002079
:1059700004F0AEFA002004F09FFA0321012004F0A5
:10598000A1FA002004F092FA8020400204F0C8F945
:105990001D4804F0A3FA1D480068052826D801A177
:1059A000095C8F440414281E3C32F520FFF70CFCE0
:1059B000FFF7CEFB019802B00047FFF777FE019892
:1059C00002B00047FFF7C6FD019802B00047FFF79D
:1059D00085FC019802B00047FFF762FD019802B014
:1059E0000047FFF7CBFC019802B0004708480300CE
:1059F000E433BE22D20007494118BC30FBF744FC17
:105A0000019802B00047C046CC56020008F700409B
:105A10005C0B0200F404000000B581B0094801B538
:105A200009A10AA003B48023DB05FC2292050848E3
:105A30000168084806F094FE04B00020C0430199B4
:105A400002B00847595A0000256600000000000017
:105A500078F90040E82F020070B5124D002813D0ED
:105A6000114C00220021114815F0ECFF14F0C8FF82
:105A70002060666900206061226829009831280052
:105A800048300DF07FFF6661094C26688120800058
:105A9000281810F01FFE266010F05EFE039870BC00
:105AA00001B000470011020078F90040A8F9004059
:105AB00008F7004000B581B00649074B0A003032B4
:105AC000FC20800102F066FD0020C043019902B075
:105AD0000847C0466C300200DD5A000070B500284F
:105AE00048D011F0A7FC11F0F9FC02F0FDFF0AF01C
:105AF00033F911F005FB12F0E7FC12F0DDFC002099
:105B000010F0E8FD1D4C0025256107F0C3FB05F0F2
:105B100051F804F0ADFD1A48016804220A430260FE
